{"abi":[{"type":"constructor","inputs":[],"stateMutability":"nonpayable"},{"type":"receive","stateMutability":"payable"},{"type":"function","name":"HUNDRED_PERCENT","inputs":[],"outputs":[{"name":"","type":"uint24","internalType":"uint24"}],"stateMutability":"view"},{"type":"function","name":"INDEX_SCALE","inputs":[],"outputs":[{"name":"","type":"uint256","internalType":"uint256"}],"stateMutability":"view"},{"type":"function","name":"UPGRADE_INTERFACE_VERSION","inputs":[],"outputs":[{"name":"","type":"string","internalType":"string"}],"stateMutability":"view"},{"type":"function","name":"addToken","inputs":[{"name":"token","type":"address","internalType":"address"}],"outputs":[],"stateMutability":"nonpayable"},{"type":"function","name":"allowance","inputs":[{"name":"owner","type":"address","internalType":"address"},{"name":"spender","type":"address","internalType":"address"}],"outputs":[{"name":"","type":"uint256","internalType":"uint256"}],"stateMutability":"view"},{"type":"function","name":"approve","inputs":[{"name":"spender","type":"address","internalType":"address"},{"name":"value","type":"uint256","internalType":"uint256"}],"outputs":[{"name":"","type":"bool","internalType":"bool"}],"stateMutability":"nonpayable"},{"type":"function","name":"balanceOf","inputs":[{"name":"account","type":"address","internalType":"address"}],"outputs":[{"name":"","type":"uint256","internalType":"uint256"}],"stateMutability":"view"},{"type":"function","name":"decimals","inputs":[],"outputs":[{"name":"","type":"uint8","internalType":"uint8"}],"stateMutability":"view"},{"type":"function","name":"etfQuoter","inputs":[],"outputs":[{"name":"","type":"address","internalType":"address"}],"stateMutability":"view"},{"type":"function","name":"feeTo","inputs":[],"outputs":[{"name":"","type":"address","internalType":"address"}],"stateMutability":"view"},{"type":"function","name":"getInitTokenAmountPerShares","inputs":[],"outputs":[{"name":"","type":"uint256[]","internalType":"uint256[]"}],"stateMutability":"view"},{"type":"function","name":"getInvestTokenAmounts","inputs":[{"name":"mintAmount","type":"uint256","internalType":"uint256"}],"outputs":[{"name":"tokenAmounts","type":"uint256[]","internalType":"uint256[]"}],"stateMutability":"view"},{"type":"function","name":"getPriceFeed","inputs":[{"name":"","type":"address","internalType":"address"}],"outputs":[{"name":"","type":"address","internalType":"address"}],"stateMutability":"view"},{"type":"function","name":"getRedeemTokenAmounts","inputs":[{"name":"burnAmount","type":"uint256","internalType":"uint256"}],"outputs":[{"name":"tokenAmounts","type":"uint256[]","internalType":"uint256[]"}],"stateMutability":"view"},{"type":"function","name":"getTokenTargetWeight","inputs":[{"name":"","type":"address","internalType":"address"}],"outputs":[{"name":"","type":"uint24","internalType":"uint24"}],"stateMutability":"view"},{"type":"function","name":"getTokens","inputs":[],"outputs":[{"name":"","type":"address[]","internalType":"address[]"}],"stateMutability":"view"},{"type":"function","name":"initialize","inputs":[{"name":"params","type":"tuple","internalType":"struct ETFUUPSUpgradeable.InitializeParams","components":[{"name":"owner","type":"address","internalType":"address"},{"name":"name","type":"string","internalType":"string"},{"name":"symbol","type":"string","internalType":"string"},{"name":"tokens","type":"address[]","internalType":"address[]"},{"name":"initTokenAmountPerShares","type":"uint256[]","internalType":"uint256[]"},{"name":"minMintAmount","type":"uint256","internalType":"uint256"},{"name":"swapRouter","type":"address","internalType":"address"},{"name":"weth","type":"address","internalType":"address"},{"name":"etfQuoter","type":"address","internalType":"address"},{"name":"miningToken","type":"address","internalType":"address"}]}],"outputs":[],"stateMutability":"nonpayable"},{"type":"function","name":"invest","inputs":[{"name":"to","type":"address","internalType":"address"},{"name":"mintAmount","type":"uint256","internalType":"uint256"}],"outputs":[],"stateMutability":"nonpayable"},{"type":"function","name":"investFee","inputs":[],"outputs":[{"name":"","type":"uint24","internalType":"uint24"}],"stateMutability":"view"},{"type":"function","name":"lastIndexUpdateTime","inputs":[],"outputs":[{"name":"","type":"uint256","internalType":"uint256"}],"stateMutability":"view"},{"type":"function","name":"lastRebalanceTime","inputs":[],"outputs":[{"name":"","type":"uint256","internalType":"uint256"}],"stateMutability":"view"},{"type":"function","name":"minMintAmount","inputs":[],"outputs":[{"name":"","type":"uint256","internalType":"uint256"}],"stateMutability":"view"},{"type":"function","name":"miningLastIndex","inputs":[],"outputs":[{"name":"","type":"uint256","internalType":"uint256"}],"stateMutability":"view"},{"type":"function","name":"miningSpeedPerSecond","inputs":[],"outputs":[{"name":"","type":"uint256","internalType":"uint256"}],"stateMutability":"view"},{"type":"function","name":"miningToken","inputs":[],"outputs":[{"name":"","type":"address","internalType":"address"}],"stateMutability":"view"},{"type":"function","name":"name","inputs":[],"outputs":[{"name":"","type":"string","internalType":"string"}],"stateMutability":"view"},{"type":"function","name":"owner","inputs":[],"outputs":[{"name":"","type":"address","internalType":"address"}],"stateMutability":"view"},{"type":"function","name":"proxiableUUID","inputs":[],"outputs":[{"name":"","type":"bytes32","internalType":"bytes32"}],"stateMutability":"view"},{"type":"function","name":"rebalanceDeviance","inputs":[],"outputs":[{"name":"","type":"uint24","internalType":"uint24"}],"stateMutability":"view"},{"type":"function","name":"rebalanceInterval","inputs":[],"outputs":[{"name":"","type":"uint256","internalType":"uint256"}],"stateMutability":"view"},{"type":"function","name":"redeem","inputs":[{"name":"to","type":"address","internalType":"address"},{"name":"burnAmount","type":"uint256","internalType":"uint256"}],"outputs":[],"stateMutability":"nonpayable"},{"type":"function","name":"redeemFee","inputs":[],"outputs":[{"name":"","type":"uint24","internalType":"uint24"}],"stateMutability":"view"},{"type":"function","name":"removeToken","inputs":[{"name":"token","type":"address","internalType":"address"}],"outputs":[],"stateMutability":"nonpayable"},{"type":"function","name":"renounceOwnership","inputs":[],"outputs":[],"stateMutability":"nonpayable"},{"type":"function","name":"setFee","inputs":[{"name":"feeTo_","type":"address","internalType":"address"},{"name":"investFee_","type":"uint24","internalType":"uint24"},{"name":"redeemFee_","type":"uint24","internalType":"uint24"}],"outputs":[],"stateMutability":"nonpayable"},{"type":"function","name":"setPriceFeeds","inputs":[{"name":"tokens","type":"address[]","internalType":"address[]"},{"name":"priceFeeds","type":"address[]","internalType":"address[]"}],"outputs":[],"stateMutability":"nonpayable"},{"type":"function","name":"setTokenTargetWeights","inputs":[{"name":"tokens","type":"address[]","internalType":"address[]"},{"name":"targetWeights","type":"uint24[]","internalType":"uint24[]"}],"outputs":[],"stateMutability":"nonpayable"},{"type":"function","name":"supplierLastIndex","inputs":[{"name":"","type":"address","internalType":"address"}],"outputs":[{"name":"","type":"uint256","internalType":"uint256"}],"stateMutability":"view"},{"type":"function","name":"supplierRewardAccrued","inputs":[{"name":"","type":"address","internalType":"address"}],"outputs":[{"name":"","type":"uint256","internalType":"uint256"}],"stateMutability":"view"},{"type":"function","name":"swapRouter","inputs":[],"outputs":[{"name":"","type":"address","internalType":"address"}],"stateMutability":"view"},{"type":"function","name":"symbol","inputs":[],"outputs":[{"name":"","type":"string","internalType":"string"}],"stateMutability":"view"},{"type":"function","name":"totalSupply","inputs":[],"outputs":[{"name":"","type":"uint256","internalType":"uint256"}],"stateMutability":"view"},{"type":"function","name":"transfer","inputs":[{"name":"to","type":"address","internalType":"address"},{"name":"value","type":"uint256","internalType":"uint256"}],"outputs":[{"name":"","type":"bool","internalType":"bool"}],"stateMutability":"nonpayable"},{"type":"function","name":"transferFrom","inputs":[{"name":"from","type":"address","internalType":"address"},{"name":"to","type":"address","internalType":"address"},{"name":"value","type":"uint256","internalType":"uint256"}],"outputs":[{"name":"","type":"bool","internalType":"bool"}],"stateMutability":"nonpayable"},{"type":"function","name":"transferOwnership","inputs":[{"name":"newOwner","type":"address","internalType":"address"}],"outputs":[],"stateMutability":"nonpayable"},{"type":"function","name":"updateMinMintAmount","inputs":[{"name":"newMinMintAmount","type":"uint256","internalType":"uint256"}],"outputs":[],"stateMutability":"nonpayable"},{"type":"function","name":"updateRebalanceDeviance","inputs":[{"name":"newDeviance","type":"uint24","internalType":"uint24"}],"outputs":[],"stateMutability":"nonpayable"},{"type":"function","name":"updateRebalanceInterval","inputs":[{"name":"newInterval","type":"uint256","internalType":"uint256"}],"outputs":[],"stateMutability":"nonpayable"},{"type":"function","name":"upgradeToAndCall","inputs":[{"name":"newImplementation","type":"address","internalType":"address"},{"name":"data","type":"bytes","internalType":"bytes"}],"outputs":[],"stateMutability":"payable"},{"type":"function","name":"weth","inputs":[],"outputs":[{"name":"","type":"address","internalType":"address"}],"stateMutability":"view"},{"type":"event","name":"Approval","inputs":[{"name":"owner","type":"address","indexed":true,"internalType":"address"},{"name":"spender","type":"address","indexed":true,"internalType":"address"},{"name":"value","type":"uint256","indexed":false,"internalType":"uint256"}],"anonymous":false},{"type":"event","name":"Initialized","inputs":[{"name":"version","type":"uint64","indexed":false,"internalType":"uint64"}],"anonymous":false},{"type":"event","name":"Invested","inputs":[{"name":"to","type":"address","indexed":false,"internalType":"address"},{"name":"mintAmount","type":"uint256","indexed":false,"internalType":"uint256"},{"name":"investFee","type":"uint256","indexed":false,"internalType":"uint256"},{"name":"tokenAmounts","type":"uint256[]","indexed":false,"internalType":"uint256[]"}],"anonymous":false},{"type":"event","name":"MinMintAmountUpdated","inputs":[{"name":"oldMinMintAmount","type":"uint256","indexed":false,"internalType":"uint256"},{"name":"newMinMintAmount","type":"uint256","indexed":false,"internalType":"uint256"}],"anonymous":false},{"type":"event","name":"OwnershipTransferred","inputs":[{"name":"previousOwner","type":"address","indexed":true,"internalType":"address"},{"name":"newOwner","type":"address","indexed":true,"internalType":"address"}],"anonymous":false},{"type":"event","name":"Redeemed","inputs":[{"name":"sender","type":"address","indexed":false,"internalType":"address"},{"name":"to","type":"address","indexed":false,"internalType":"address"},{"name":"burnAmount","type":"uint256","indexed":false,"internalType":"uint256"},{"name":"redeemFee","type":"uint256","indexed":false,"internalType":"uint256"},{"name":"tokenAmounts","type":"uint256[]","indexed":false,"internalType":"uint256[]"}],"anonymous":false},{"type":"event","name":"TokenAdded","inputs":[{"name":"token","type":"address","indexed":false,"internalType":"address"},{"name":"index","type":"uint256","indexed":false,"internalType":"uint256"}],"anonymous":false},{"type":"event","name":"TokenRemoved","inputs":[{"name":"token","type":"address","indexed":false,"internalType":"address"},{"name":"index","type":"uint256","indexed":false,"internalType":"uint256"}],"anonymous":false},{"type":"event","name":"Transfer","inputs":[{"name":"from","type":"address","indexed":true,"internalType":"address"},{"name":"to","type":"address","indexed":true,"internalType":"address"},{"name":"value","type":"uint256","indexed":false,"internalType":"uint256"}],"anonymous":false},{"type":"event","name":"Upgraded","inputs":[{"name":"implementation","type":"address","indexed":true,"internalType":"address"}],"anonymous":false},{"type":"error","name":"AddressEmptyCode","inputs":[{"name":"target","type":"address","internalType":"address"}]},{"type":"error","name":"DifferentArrayLength","inputs":[]},{"type":"error","name":"ERC1967InvalidImplementation","inputs":[{"name":"implementation","type":"address","internalType":"address"}]},{"type":"error","name":"ERC1967NonPayable","inputs":[]},{"type":"error","name":"ERC20InsufficientAllowance","inputs":[{"name":"spender","type":"address","internalType":"address"},{"name":"allowance","type":"uint256","internalType":"uint256"},{"name":"needed","type":"uint256","internalType":"uint256"}]},{"type":"error","name":"ERC20InsufficientBalance","inputs":[{"name":"sender","type":"address","internalType":"address"},{"name":"balance","type":"uint256","internalType":"uint256"},{"name":"needed","type":"uint256","internalType":"uint256"}]},{"type":"error","name":"ERC20InvalidApprover","inputs":[{"name":"approver","type":"address","internalType":"address"}]},{"type":"error","name":"ERC20InvalidReceiver","inputs":[{"name":"receiver","type":"address","internalType":"address"}]},{"type":"error","name":"ERC20InvalidSender","inputs":[{"name":"sender","type":"address","internalType":"address"}]},{"type":"error","name":"ERC20InvalidSpender","inputs":[{"name":"spender","type":"address","internalType":"address"}]},{"type":"error","name":"FailedCall","inputs":[]},{"type":"error","name":"Forbidden","inputs":[]},{"type":"error","name":"InvalidArrayLength","inputs":[]},{"type":"error","name":"InvalidInitialization","inputs":[]},{"type":"error","name":"InvalidTotalWeights","inputs":[]},{"type":"error","name":"LessThanMinMintAmount","inputs":[]},{"type":"error","name":"NotInitializing","inputs":[]},{"type":"error","name":"OwnableInvalidOwner","inputs":[{"name":"owner","type":"address","internalType":"address"}]},{"type":"error","name":"OwnableUnauthorizedAccount","inputs":[{"name":"account","type":"address","internalType":"address"}]},{"type":"error","name":"SafeERC20FailedOperation","inputs":[{"name":"token","type":"address","internalType":"address"}]},{"type":"error","name":"TokenExists","inputs":[]},{"type":"error","name":"TokenNotFound","inputs":[]},{"type":"error","name":"UUPSUnauthorizedCallContext","inputs":[]},{"type":"error","name":"UUPSUnsupportedProxiableUUID","inputs":[{"name":"slot","type":"bytes32","internalType":"bytes32"}]}],"bytecode":{"object":"0x60a06040523073ffffffffffffffffffffffffffffffffffffffff1660809073ffffffffffffffffffffffffffffffffffffffff1681525034801562000043575f80fd5b50620000546200005a60201b60201c565b620001e1565b5f6200006b6200015e60201b60201c565b9050805f0160089054906101000a900460ff1615620000b6576040517ff92ee8a900000000000000000000000000000000000000000000000000000000815260040160405180910390fd5b67ffffffffffffffff8016815f015f9054906101000a900467ffffffffffffffff1667ffffffffffffffff16146200015b5767ffffffffffffffff815f015f6101000a81548167ffffffffffffffff021916908367ffffffffffffffff1602179055507fc7f505b2f371ae2175ee4913f4499e1f2633a7b5936321eed1cdaeb6115181d267ffffffffffffffff604051620001529190620001c6565b60405180910390a15b50565b5f80620001706200017960201b60201c565b90508091505090565b5f7ff0c57e16840df040f15088dc2f81fe391c3923bec73e23a9662efc9c229c6a005f1b905090565b5f67ffffffffffffffff82169050919050565b620001c081620001a2565b82525050565b5f602082019050620001db5f830184620001b5565b92915050565b608051614b61620002085f395f818161251a0152818161256f01526127290152614b615ff3fe6080604052600436106102cc575f3560e01c80637ca0235611610174578063ad3cb1cc116100db578063d4cbe57b11610094578063dd62ed3e1161006e578063dd62ed3e14610adf578063e61b0e8114610b1b578063e8b508a814610b45578063f2fde38b14610b6f576102d3565b8063d4cbe57b14610a65578063d9ca21d514610a8d578063da16338714610ab7576102d3565b8063ad3cb1cc14610949578063aec1853114610973578063b9b8c246146109af578063c31c9c07146109d7578063ce7ddbef14610a01578063d48bfca714610a3d576102d3565b8063a2fe4f2d1161012d578063a2fe4f2d1461082d578063a47f226514610869578063a553618b14610893578063a9059cbb146108bb578063a987e49f146108f7578063aa6ca8081461091f576102d3565b80637ca02356146107335780638423f3201461075d5780638da5cb5b1461078757806392aeb53a146107b157806395d89b41146107d9578063965fa21e14610803576102d3565b8063313ce567116102335780635fa7b584116101ec5780636ed93dd0116101c65780636ed93dd01461067b57806370a08231146106a5578063715018a6146106e1578063742d2cf1146106f7576102d3565b80635fa7b5841461060157806369cf7ac3146106295780636dd84ac114610653576102d3565b8063313ce567146105035780633fc8cef31461052d5780634f1ef2861461055757806352d1902d146105735780635534a7741461059d5780635b6cca80146105c5576102d3565b806316d1d9161161028557806316d1d916146103f757806318160ddd146104215780631c1f30141461044b5780631e9a69501461047557806323b872dd1461049d57806327776ab5146104d9576102d3565b8063017e7e58146102d757806301e9d7571461030157806305def3471461032b57806306fdde0314610367578063095ea7b3146103915780630e7a0c22146103cd576102d3565b366102d357005b5f80fd5b3480156102e2575f80fd5b506102eb610b97565b6040516102f891906137e5565b60405180910390f35b34801561030c575f80fd5b50610315610bba565b6040516103229190613816565b60405180910390f35b348015610336575f80fd5b50610351600480360381019061034c919061386a565b610bc0565b60405161035e919061394c565b60405180910390f35b348015610372575f80fd5b5061037b610d6e565b60405161038891906139f6565b60405180910390f35b34801561039c575f80fd5b506103b760048036038101906103b29190613a40565b610e0c565b6040516103c49190613a98565b60405180910390f35b3480156103d8575f80fd5b506103e1610e2e565b6040516103ee9190613816565b60405180910390f35b348015610402575f80fd5b5061040b610e34565b6040516104189190613816565b60405180910390f35b34801561042c575f80fd5b50610435610e3a565b6040516104429190613816565b60405180910390f35b348015610456575f80fd5b5061045f610e51565b60405161046c9190613ace565b60405180910390f35b348015610480575f80fd5b5061049b60048036038101906104969190613a40565b610e65565b005b3480156104a8575f80fd5b506104c360048036038101906104be9190613ae7565b611035565b6040516104d09190613a98565b60405180910390f35b3480156104e4575f80fd5b506104ed611063565b6040516104fa9190613816565b60405180910390f35b34801561050e575f80fd5b50610517611076565b6040516105249190613b52565b60405180910390f35b348015610538575f80fd5b5061054161107e565b60405161054e91906137e5565b60405180910390f35b610571600480360381019061056c9190613c97565b6110a3565b005b34801561057e575f80fd5b506105876110c2565b6040516105949190613d09565b60405180910390f35b3480156105a8575f80fd5b506105c360048036038101906105be919061386a565b6110f3565b005b3480156105d0575f80fd5b506105eb60048036038101906105e69190613d22565b611105565b6040516105f891906137e5565b60405180910390f35b34801561060c575f80fd5b5061062760048036038101906106229190613d22565b611135565b005b348015610634575f80fd5b5061063d611254565b60405161064a91906137e5565b60405180910390f35b34801561065e575f80fd5b506106796004803603810190610674919061386a565b61127a565b005b348015610686575f80fd5b5061068f6112c7565b60405161069c9190613ace565b60405180910390f35b3480156106b0575f80fd5b506106cb60048036038101906106c69190613d22565b6112ce565b6040516106d89190613816565b60405180910390f35b3480156106ec575f80fd5b506106f5611321565b005b348015610702575f80fd5b5061071d60048036038101906107189190613d22565b611334565b60405161072a9190613816565b60405180910390f35b34801561073e575f80fd5b50610747611349565b6040516107549190613816565b60405180910390f35b348015610768575f80fd5b5061077161134f565b60405161077e919061394c565b60405180910390f35b348015610792575f80fd5b5061079b6113a5565b6040516107a891906137e5565b60405180910390f35b3480156107bc575f80fd5b506107d760048036038101906107d29190613e11565b6113da565b005b3480156107e4575f80fd5b506107ed6114e9565b6040516107fa91906139f6565b60405180910390f35b34801561080e575f80fd5b50610817611587565b6040516108249190613ace565b60405180910390f35b348015610838575f80fd5b50610853600480360381019061084e9190613d22565b61159b565b6040516108609190613ace565b60405180910390f35b348015610874575f80fd5b5061087d6115ba565b60405161088a91906137e5565b60405180910390f35b34801561089e575f80fd5b506108b960048036038101906108b49190613eb1565b6115df565b005b3480156108c6575f80fd5b506108e160048036038101906108dc9190613a40565b611667565b6040516108ee9190613a98565b60405180910390f35b348015610902575f80fd5b5061091d60048036038101906109189190613f01565b611689565b005b34801561092a575f80fd5b506109336116b2565b6040516109409190613fe3565b60405180910390f35b348015610954575f80fd5b5061095d61173d565b60405161096a91906139f6565b60405180910390f35b34801561097e575f80fd5b5061099960048036038101906109949190613d22565b611776565b6040516109a69190613816565b60405180910390f35b3480156109ba575f80fd5b506109d560048036038101906109d09190613a40565b61178b565b005b3480156109e2575f80fd5b506109eb611997565b6040516109f891906137e5565b60405180910390f35b348015610a0c575f80fd5b50610a276004803603810190610a22919061386a565b6119bc565b604051610a34919061394c565b60405180910390f35b348015610a48575f80fd5b50610a636004803603810190610a5e9190613d22565b611b05565b005b348015610a70575f80fd5b50610a8b6004803603810190610a8691906142cc565b611b19565b005b348015610a98575f80fd5b50610aa1611e21565b604051610aae9190613816565b60405180910390f35b348015610ac2575f80fd5b50610add6004803603810190610ad891906143d3565b611e27565b005b348015610aea575f80fd5b50610b056004803603810190610b009190614449565b611f14565b604051610b129190613816565b60405180910390f35b348015610b26575f80fd5b50610b2f611fa4565b604051610b3c9190613ace565b60405180910390f35b348015610b50575f80fd5b50610b59611fb8565b604051610b669190613816565b60405180910390f35b348015610b7a575f80fd5b50610b956004803603810190610b909190613d22565b611fbe565b005b5f8054906101000a900473ffffffffffffffffffffffffffffffffffffffff1681565b60015481565b60605f610bcb610e3a565b90505f610bd66116b2565b9050805167ffffffffffffffff811115610bf357610bf2613b73565b5b604051908082528060200260200182016040528015610c215781602001602082028036833780820191505090505b5092505f5b8151811015610d66575f8303610c9357610c6f85670de0b6b3a764000060108481548110610c5757610c56614487565b5b905f5260205f2001546120429092919063ffffffff16565b848281518110610c8257610c81614487565b5b602002602001018181525050610d59565b610d398584848481518110610cab57610caa614487565b5b602002602001015173ffffffffffffffffffffffffffffffffffffffff166370a08231306040518263ffffffff1660e01b8152600401610ceb91906137e5565b602060405180830381865afa158015610d06573d5f803e3d5ffd5b505050506040513d601f19601f82011682018060405250810190610d2a91906144c8565b6120429092919063ffffffff16565b848281518110610d4c57610d4b614487565b5b6020026020010181815250505b8080600101915050610c26565b505050919050565b60605f610d796121d8565b9050806003018054610d8a90614520565b80601f0160208091040260200160405190810160405280929190818152602001828054610db690614520565b8015610e015780601f10610dd857610100808354040283529160200191610e01565b820191905f5260205f20905b815481529060010190602001808311610de457829003601f168201915b505050505091505090565b5f80610e166121ff565b9050610e23818585612206565b600191505092915050565b60085481565b60065481565b5f80610e446121d8565b9050806002015491505090565b5f60149054906101000a900462ffffff1681565b610e6f3382612218565b5f610ea25f60179054906101000a900462ffffff1662ffffff16620f424062ffffff16846120429092919063ffffffff16565b90505f8183610eb1919061457d565b90505f610ebc6116b2565b90505f610ec8836119bc565b90505f5b8251811015610f64575f828281518110610ee957610ee8614487565b5b60200260200101511115610f5757610f5687838381518110610f0e57610f0d614487565b5b6020026020010151858481518110610f2957610f28614487565b5b602002602001015173ffffffffffffffffffffffffffffffffffffffff166122979092919063ffffffff16565b5b8080600101915050610ecc565b505f84118015610fbf57505f73ffffffffffffffffffffffffffffffffffffffff165f8054906101000a900473ffffffffffffffffffffffffffffffffffffffff1673ffffffffffffffffffffffffffffffffffffffff1614155b15610fee57610fed5f8054906101000a900473ffffffffffffffffffffffffffffffffffffffff1685612316565b5b7f626f4593f8e12e62b00d18bb3073d2cbe173b9415cdb7b39ed0609569b66f56033878587856040516110259594939291906145b0565b60405180910390a1505050505050565b5f8061103f6121ff565b905061104c858285612395565b611057858585612428565b60019150509392505050565b6ec097ce7bc90715b34b9f100000000081565b5f6012905090565b60035f9054906101000a900473ffffffffffffffffffffffffffffffffffffffff1681565b6110ab612518565b6110b4826125fe565b6110be8282612609565b5050565b5f6110cb612727565b7f360894a13ba1a3210667c828492db98dca3e2076cc3735a920a3ca505d382bbc5f1b905090565b6110fb6127ae565b8060068190555050565b600b602052805f5260405f205f915054906101000a900473ffffffffffffffffffffffffffffffffffffffff1681565b61113d6127ae565b5f8173ffffffffffffffffffffffffffffffffffffffff166370a08231306040518263ffffffff1660e01b815260040161117791906137e5565b602060405180830381865afa158015611192573d5f803e3d5ffd5b505050506040513d601f19601f820116820180604052508101906111b691906144c8565b118061121157505f600c5f8373ffffffffffffffffffffffffffffffffffffffff1673ffffffffffffffffffffffffffffffffffffffff1681526020019081526020015f205f9054906101000a900462ffffff1662ffffff16115b15611248576040517fee90c46800000000000000000000000000000000000000000000000000000000815260040160405180910390fd5b61125181612835565b50565b600760039054906101000a900473ffffffffffffffffffffffffffffffffffffffff1681565b6112826127ae565b7fa9d547bad523b2016561d73c8b6f0de927b53e678d07b339173ea7b469ec8969600154826040516112b5929190614608565b60405180910390a18060018190555050565b620f424081565b5f806112d86121d8565b9050805f015f8473ffffffffffffffffffffffffffffffffffffffff1673ffffffffffffffffffffffffffffffffffffffff1681526020019081526020015f2054915050919050565b6113296127ae565b6113325f612a70565b565b600e602052805f5260405f205f915090505481565b60095481565b6060601080548060200260200160405190810160405280929190818152602001828054801561139b57602002820191905f5260205f20905b815481526020019060010190808311611387575b5050505050905090565b5f806113af612b41565b9050805f015f9054906101000a900473ffffffffffffffffffffffffffffffffffffffff1691505090565b6113e26127ae565b805182511461141d576040517fdba17af500000000000000000000000000000000000000000000000000000000815260040160405180910390fd5b5f5b82518110156114e45781818151811061143b5761143a614487565b5b6020026020010151600b5f85848151811061145957611458614487565b5b602002602001015173ffffffffffffffffffffffffffffffffffffffff1673ffffffffffffffffffffffffffffffffffffffff1681526020019081526020015f205f6101000a81548173ffffffffffffffffffffffffffffffffffffffff021916908373ffffffffffffffffffffffffffffffffffffffff160217905550808060010191505061141f565b505050565b60605f6114f46121d8565b905080600401805461150590614520565b80601f016020809104026020016040519081016040528092919081815260200182805461153190614520565b801561157c5780601f106115535761010080835404028352916020019161157c565b820191905f5260205f20905b81548152906001019060200180831161155f57829003601f168201915b505050505091505090565b5f60179054906101000a900462ffffff1681565b600c602052805f5260405f205f915054906101000a900462ffffff1681565b60045f9054906101000a900473ffffffffffffffffffffffffffffffffffffffff1681565b6115e76127ae565b825f806101000a81548173ffffffffffffffffffffffffffffffffffffffff021916908373ffffffffffffffffffffffffffffffffffffffff160217905550815f60146101000a81548162ffffff021916908362ffffff160217905550805f60176101000a81548162ffffff021916908362ffffff160217905550505050565b5f806116716121ff565b905061167e818585612428565b600191505092915050565b6116916127ae565b8060075f6101000a81548162ffffff021916908362ffffff16021790555050565b6060600f80548060200260200160405190810160405280929190818152602001828054801561173357602002820191905f5260205f20905b815f9054906101000a900473ffffffffffffffffffffffffffffffffffffffff1673ffffffffffffffffffffffffffffffffffffffff16815260200190600101908083116116ea575b5050505050905090565b6040518060400160405280600581526020017f352e302e3000000000000000000000000000000000000000000000000000000081525081565b600d602052805f5260405f205f915090505481565b6001548110156117c7576040517fdb49828e00000000000000000000000000000000000000000000000000000000815260040160405180910390fd5b5f6117d06116b2565b90505f6117dc83610bc0565b90505f5b825181101561187a575f8282815181106117fd576117fc614487565b5b6020026020010151111561186d5761186c333084848151811061182357611822614487565b5b602002602001015186858151811061183e5761183d614487565b5b602002602001015173ffffffffffffffffffffffffffffffffffffffff16612b68909392919063ffffffff16565b5b80806001019150506117e0565b505f6118ae5f60149054906101000a900462ffffff1662ffffff16620f424062ffffff16866120429092919063ffffffff16565b90505f81856118bd919061457d565b90506118c98682612316565b5f8211801561192357505f73ffffffffffffffffffffffffffffffffffffffff165f8054906101000a900473ffffffffffffffffffffffffffffffffffffffff1673ffffffffffffffffffffffffffffffffffffffff1614155b15611952576119515f8054906101000a900473ffffffffffffffffffffffffffffffffffffffff1683612316565b5b7fa7f6b1cb38ac5fbcae3bbaa808d1f2aaad5c8da1dd8f1d960088082f8401395386828486604051611987949392919061462f565b60405180910390a1505050505050565b60025f9054906101000a900473ffffffffffffffffffffffffffffffffffffffff1681565b60605f6119c7610e3a565b90505f6119d26116b2565b9050805167ffffffffffffffff8111156119ef576119ee613b73565b5b604051908082528060200260200182016040528015611a1d5781602001602082028036833780820191505090505b5092505f5b8151811015611afd57611ad18584848481518110611a4357611a42614487565b5b602002602001015173ffffffffffffffffffffffffffffffffffffffff166370a08231306040518263ffffffff1660e01b8152600401611a8391906137e5565b602060405180830381865afa158015611a9e573d5f803e3d5ffd5b505050506040513d601f19601f82011682018060405250810190611ac291906144c8565b6120429092919063ffffffff16565b848281518110611ae457611ae3614487565b5b6020026020010181815250508080600101915050611a22565b505050919050565b611b0d6127ae565b611b1681612bea565b50565b5f611b22612d61565b90505f815f0160089054906101000a900460ff161590505f825f015f9054906101000a900467ffffffffffffffff1690505f808267ffffffffffffffff16148015611b6a5750825b90505f60018367ffffffffffffffff16148015611b9d57505f3073ffffffffffffffffffffffffffffffffffffffff163b145b905081158015611bab575080155b15611be2576040517ff92ee8a900000000000000000000000000000000000000000000000000000000815260040160405180910390fd5b6001855f015f6101000a81548167ffffffffffffffff021916908367ffffffffffffffff1602179055508315611c2f576001855f0160086101000a81548160ff0219169083151502179055505b611c4186602001518760400151612d74565b611c4d865f0151612d8a565b611c55612d9e565b8560600151600f9080519060200190611c6f9291906136b9565b50856080015160109080519060200190611c8a929190613740565b508560a001516001819055508560c0015160025f6101000a81548173ffffffffffffffffffffffffffffffffffffffff021916908373ffffffffffffffffffffffffffffffffffffffff1602179055508560e0015160035f6101000a81548173ffffffffffffffffffffffffffffffffffffffff021916908373ffffffffffffffffffffffffffffffffffffffff16021790555085610100015160045f6101000a81548173ffffffffffffffffffffffffffffffffffffffff021916908373ffffffffffffffffffffffffffffffffffffffff160217905550856101200151600760036101000a81548173ffffffffffffffffffffffffffffffffffffffff021916908373ffffffffffffffffffffffffffffffffffffffff1602179055506ec097ce7bc90715b34b9f10000000006009819055508315611e19575f855f0160086101000a81548160ff0219169083151502179055507fc7f505b2f371ae2175ee4913f4499e1f2633a7b5936321eed1cdaeb6115181d26001604051611e1091906146ce565b60405180910390a15b505050505050565b60055481565b611e2f6127ae565b8051825114611e6a576040517f9d89020a00000000000000000000000000000000000000000000000000000000815260040160405180910390fd5b5f5b8151811015611f0f57818181518110611e8857611e87614487565b5b6020026020010151600c5f858481518110611ea657611ea5614487565b5b602002602001015173ffffffffffffffffffffffffffffffffffffffff1673ffffffffffffffffffffffffffffffffffffffff1681526020019081526020015f205f6101000a81548162ffffff021916908362ffffff1602179055508080600101915050611e6c565b505050565b5f80611f1e6121d8565b9050806001015f8573ffffffffffffffffffffffffffffffffffffffff1673ffffffffffffffffffffffffffffffffffffffff1681526020019081526020015f205f8473ffffffffffffffffffffffffffffffffffffffff1673ffffffffffffffffffffffffffffffffffffffff1681526020019081526020015f205491505092915050565b60075f9054906101000a900462ffffff1681565b600a5481565b611fc66127ae565b5f73ffffffffffffffffffffffffffffffffffffffff168173ffffffffffffffffffffffffffffffffffffffff1603612036575f6040517f1e4fbdf700000000000000000000000000000000000000000000000000000000815260040161202d91906137e5565b60405180910390fd5b61203f81612a70565b50565b5f805f80198587098587029250828110838203039150505f8103612077575f841161206b575f80fd5b838204925050506121d1565b808411612082575f80fd5b5f8486880990508281118203915080830392505f85600187196120a591906146e7565b16905080860495508084049350600181825f030401905080836120c8919061471a565b841793505f60028760036120dc919061471a565b18905080876120eb919061471a565b60026120f7919061457d565b81612102919061471a565b90508087612110919061471a565b600261211c919061457d565b81612127919061471a565b90508087612135919061471a565b6002612141919061457d565b8161214c919061471a565b9050808761215a919061471a565b6002612166919061457d565b81612171919061471a565b9050808761217f919061471a565b600261218b919061457d565b81612196919061471a565b905080876121a4919061471a565b60026121b0919061457d565b816121bb919061471a565b905080856121c9919061471a565b955050505050505b9392505050565b5f7f52c63247e1f47db19d5ce0460030c497f067ca4cebf71ba98eeadabe20bace00905090565b5f33905090565b6122138383836001612da8565b505050565b5f73ffffffffffffffffffffffffffffffffffffffff168273ffffffffffffffffffffffffffffffffffffffff1603612288575f6040517f96c6fd1e00000000000000000000000000000000000000000000000000000000815260040161227f91906137e5565b60405180910390fd5b612293825f83612f85565b5050565b612311838473ffffffffffffffffffffffffffffffffffffffff1663a9059cbb85856040516024016122ca92919061475b565b604051602081830303815290604052915060e01b6020820180517bffffffffffffffffffffffffffffffffffffffffffffffffffffffff83818316178352505050506131b4565b505050565b5f73ffffffffffffffffffffffffffffffffffffffff168273ffffffffffffffffffffffffffffffffffffffff1603612386575f6040517fec442f0500000000000000000000000000000000000000000000000000000000815260040161237d91906137e5565b60405180910390fd5b6123915f8383612f85565b5050565b5f6123a08484611f14565b90507fffffffffffffffffffffffffffffffffffffffffffffffffffffffffffffffff8110156124225781811015612413578281836040517ffb8f41b200000000000000000000000000000000000000000000000000000000815260040161240a93929190614782565b60405180910390fd5b61242184848484035f612da8565b5b50505050565b5f73ffffffffffffffffffffffffffffffffffffffff168373ffffffffffffffffffffffffffffffffffffffff1603612498575f6040517f96c6fd1e00000000000000000000000000000000000000000000000000000000815260040161248f91906137e5565b60405180910390fd5b5f73ffffffffffffffffffffffffffffffffffffffff168273ffffffffffffffffffffffffffffffffffffffff1603612508575f6040517fec442f050000000000000000000000000000000000000000000000000000000081526004016124ff91906137e5565b60405180910390fd5b612513838383612f85565b505050565b7f000000000000000000000000000000000000000000000000000000000000000073ffffffffffffffffffffffffffffffffffffffff163073ffffffffffffffffffffffffffffffffffffffff1614806125c557507f000000000000000000000000000000000000000000000000000000000000000073ffffffffffffffffffffffffffffffffffffffff166125ac61324f565b73ffffffffffffffffffffffffffffffffffffffff1614155b156125fc576040517fe07c8dba00000000000000000000000000000000000000000000000000000000815260040160405180910390fd5b565b6126066127ae565b50565b8173ffffffffffffffffffffffffffffffffffffffff166352d1902d6040518163ffffffff1660e01b8152600401602060405180830381865afa92505050801561267157506040513d601f19601f8201168201806040525081019061266e91906147e1565b60015b6126b257816040517f4c9c8ce30000000000000000000000000000000000000000000000000000000081526004016126a991906137e5565b60405180910390fd5b7f360894a13ba1a3210667c828492db98dca3e2076cc3735a920a3ca505d382bbc5f1b811461271857806040517faa1d49a400000000000000000000000000000000000000000000000000000000815260040161270f9190613d09565b60405180910390fd5b61272283836132a2565b505050565b7f000000000000000000000000000000000000000000000000000000000000000073ffffffffffffffffffffffffffffffffffffffff163073ffffffffffffffffffffffffffffffffffffffff16146127ac576040517fe07c8dba00000000000000000000000000000000000000000000000000000000815260040160405180910390fd5b565b6127b66121ff565b73ffffffffffffffffffffffffffffffffffffffff166127d46113a5565b73ffffffffffffffffffffffffffffffffffffffff1614612833576127f76121ff565b6040517f118cdaa700000000000000000000000000000000000000000000000000000000815260040161282a91906137e5565b60405180910390fd5b565b5f61283e6116b2565b90505f5b8151811015612a3a578273ffffffffffffffffffffffffffffffffffffffff1682828151811061287557612874614487565b5b602002602001015173ffffffffffffffffffffffffffffffffffffffff1603612a2d57600f600183516128a8919061457d565b815481106128b9576128b8614487565b5b905f5260205f20015f9054906101000a900473ffffffffffffffffffffffffffffffffffffffff16600f82815481106128f5576128f4614487565b5b905f5260205f20015f6101000a81548173ffffffffffffffffffffffffffffffffffffffff021916908373ffffffffffffffffffffffffffffffffffffffff16021790555060106001835161294a919061457d565b8154811061295b5761295a614487565b5b905f5260205f2001546010828154811061297857612977614487565b5b905f5260205f200181905550600f8054806129965761299561480c565b5b600190038181905f5260205f20015f6101000a81549073ffffffffffffffffffffffffffffffffffffffff0219169055905560108054806129da576129d961480c565b5b600190038181905f5260205f20015f905590557fbe9bb4bdca0a094babd75e3a98b1d2e2390633430d0a2f6e2b9970e2ee03fb2e8382604051612a1e92919061475b565b60405180910390a15050612a6d565b8080600101915050612842565b506040517fcbdb7b3000000000000000000000000000000000000000000000000000000000815260040160405180910390fd5b50565b5f612a79612b41565b90505f815f015f9054906101000a900473ffffffffffffffffffffffffffffffffffffffff16905082825f015f6101000a81548173ffffffffffffffffffffffffffffffffffffffff021916908373ffffffffffffffffffffffffffffffffffffffff1602179055508273ffffffffffffffffffffffffffffffffffffffff168173ffffffffffffffffffffffffffffffffffffffff167f8be0079c531659141344cd1fd0a4f28419497f9722a3daafe3b4186f6b6457e060405160405180910390a3505050565b5f7f9016d09d72d40fdae2fd8ceac6b6234c7706214fd39c1cd1e609a0528c199300905090565b612be4848573ffffffffffffffffffffffffffffffffffffffff166323b872dd868686604051602401612b9d93929190614839565b604051602081830303815290604052915060e01b6020820180517bffffffffffffffffffffffffffffffffffffffffffffffffffffffff83818316178352505050506131b4565b50505050565b5f612bf36116b2565b90505f5b8151811015612c8c578273ffffffffffffffffffffffffffffffffffffffff16828281518110612c2a57612c29614487565b5b602002602001015173ffffffffffffffffffffffffffffffffffffffff1603612c7f576040517f55c7e8ba00000000000000000000000000000000000000000000000000000000815260040160405180910390fd5b8080600101915050612bf7565b50600f82908060018154018082558091505060019003905f5260205f20015f9091909190916101000a81548173ffffffffffffffffffffffffffffffffffffffff021916908373ffffffffffffffffffffffffffffffffffffffff16021790555060105f908060018154018082558091505060019003905f5260205f20015f90919091909150557ff4c563a3ea86ff1f4275e8c207df0375a51963f2b831b7bf4da8be938d92876c826001600f80549050612d47919061457d565b604051612d5592919061475b565b60405180910390a15050565b5f80612d6b613314565b90508091505090565b612d7c61333d565b612d86828261337d565b5050565b612d9261333d565b612d9b816133b9565b50565b612da661333d565b565b5f612db16121d8565b90505f73ffffffffffffffffffffffffffffffffffffffff168573ffffffffffffffffffffffffffffffffffffffff1603612e23575f6040517fe602df05000000000000000000000000000000000000000000000000000000008152600401612e1a91906137e5565b60405180910390fd5b5f73ffffffffffffffffffffffffffffffffffffffff168473ffffffffffffffffffffffffffffffffffffffff1603612e93575f6040517f94280d62000000000000000000000000000000000000000000000000000000008152600401612e8a91906137e5565b60405180910390fd5b82816001015f8773ffffffffffffffffffffffffffffffffffffffff1673ffffffffffffffffffffffffffffffffffffffff1681526020019081526020015f205f8673ffffffffffffffffffffffffffffffffffffffff1673ffffffffffffffffffffffffffffffffffffffff1681526020019081526020015f20819055508115612f7e578373ffffffffffffffffffffffffffffffffffffffff168573ffffffffffffffffffffffffffffffffffffffff167f8c5be1e5ebec7d5bd14f71427d1e84f3dd0314c0f7b2291e5b200ac8c7c3b92585604051612f759190613816565b60405180910390a35b5050505050565b5f612f8e6121d8565b90505f73ffffffffffffffffffffffffffffffffffffffff168473ffffffffffffffffffffffffffffffffffffffff1603612fe25781816002015f828254612fd691906146e7565b925050819055506130b4565b5f815f015f8673ffffffffffffffffffffffffffffffffffffffff1673ffffffffffffffffffffffffffffffffffffffff1681526020019081526020015f205490508281101561306d578481846040517fe450d38c00000000000000000000000000000000000000000000000000000000815260040161306493929190614782565b60405180910390fd5b828103825f015f8773ffffffffffffffffffffffffffffffffffffffff1673ffffffffffffffffffffffffffffffffffffffff1681526020019081526020015f2081905550505b5f73ffffffffffffffffffffffffffffffffffffffff168373ffffffffffffffffffffffffffffffffffffffff16036130fd5781816002015f8282540392505081905550613149565b81815f015f8573ffffffffffffffffffffffffffffffffffffffff1673ffffffffffffffffffffffffffffffffffffffff1681526020019081526020015f205f82825401925050819055505b8273ffffffffffffffffffffffffffffffffffffffff168473ffffffffffffffffffffffffffffffffffffffff167fddf252ad1be2c89b69c2b068fc378daa952ba7f163c4a11628f55a4df523b3ef846040516131a69190613816565b60405180910390a350505050565b5f8060205f8451602086015f885af1806131d3576040513d5f823e3d81fd5b3d92505f519150505f82146131ec576001811415613207565b5f8473ffffffffffffffffffffffffffffffffffffffff163b145b1561324957836040517f5274afe700000000000000000000000000000000000000000000000000000000815260040161324091906137e5565b60405180910390fd5b50505050565b5f61327b7f360894a13ba1a3210667c828492db98dca3e2076cc3735a920a3ca505d382bbc5f1b61343d565b5f015f9054906101000a900473ffffffffffffffffffffffffffffffffffffffff16905090565b6132ab82613446565b8173ffffffffffffffffffffffffffffffffffffffff167fbc7cd75a20ee27fd9adebab32041f755214dbc6bffa90cc0225b39da2e5c2d3b60405160405180910390a25f8151111561330757613301828261350f565b50613310565b61330f61358f565b5b5050565b5f7ff0c57e16840df040f15088dc2f81fe391c3923bec73e23a9662efc9c229c6a005f1b905090565b6133456135cb565b61337b576040517fd7e6bcf800000000000000000000000000000000000000000000000000000000815260040160405180910390fd5b565b61338561333d565b5f61338e6121d8565b9050828160030190816133a19190614a02565b50818160040190816133b39190614a02565b50505050565b6133c161333d565b5f73ffffffffffffffffffffffffffffffffffffffff168173ffffffffffffffffffffffffffffffffffffffff1603613431575f6040517f1e4fbdf700000000000000000000000000000000000000000000000000000000815260040161342891906137e5565b60405180910390fd5b61343a81612a70565b50565b5f819050919050565b5f8173ffffffffffffffffffffffffffffffffffffffff163b036134a157806040517f4c9c8ce300000000000000000000000000000000000000000000000000000000815260040161349891906137e5565b60405180910390fd5b806134cd7f360894a13ba1a3210667c828492db98dca3e2076cc3735a920a3ca505d382bbc5f1b61343d565b5f015f6101000a81548173ffffffffffffffffffffffffffffffffffffffff021916908373ffffffffffffffffffffffffffffffffffffffff16021790555050565b60605f808473ffffffffffffffffffffffffffffffffffffffff16846040516135389190614b15565b5f60405180830381855af49150503d805f8114613570576040519150601f19603f3d011682016040523d82523d5f602084013e613575565b606091505b50915091506135858583836135e9565b9250505092915050565b5f3411156135c9576040517fb398979f00000000000000000000000000000000000000000000000000000000815260040160405180910390fd5b565b5f6135d4612d61565b5f0160089054906101000a900460ff16905090565b6060826135fe576135f982613676565b61366e565b5f825114801561362457505f8473ffffffffffffffffffffffffffffffffffffffff163b145b1561366657836040517f9996b31500000000000000000000000000000000000000000000000000000000815260040161365d91906137e5565b60405180910390fd5b81905061366f565b5b9392505050565b5f8151111561368757805160208201fd5b6040517fd6bda27500000000000000000000000000000000000000000000000000000000815260040160405180910390fd5b828054828255905f5260205f2090810192821561372f579160200282015b8281111561372e578251825f6101000a81548173ffffffffffffffffffffffffffffffffffffffff021916908373ffffffffffffffffffffffffffffffffffffffff160217905550916020019190600101906136d7565b5b50905061373c919061378b565b5090565b828054828255905f5260205f2090810192821561377a579160200282015b8281111561377957825182559160200191906001019061375e565b5b509050613787919061378b565b5090565b5b808211156137a2575f815f90555060010161378c565b5090565b5f73ffffffffffffffffffffffffffffffffffffffff82169050919050565b5f6137cf826137a6565b9050919050565b6137df816137c5565b82525050565b5f6020820190506137f85f8301846137d6565b92915050565b5f819050919050565b613810816137fe565b82525050565b5f6020820190506138295f830184613807565b92915050565b5f604051905090565b5f80fd5b5f80fd5b613849816137fe565b8114613853575f80fd5b50565b5f8135905061386481613840565b92915050565b5f6020828403121561387f5761387e613838565b5b5f61388c84828501613856565b91505092915050565b5f81519050919050565b5f82825260208201905092915050565b5f819050602082019050919050565b6138c7816137fe565b82525050565b5f6138d883836138be565b60208301905092915050565b5f602082019050919050565b5f6138fa82613895565b613904818561389f565b935061390f836138af565b805f5b8381101561393f57815161392688826138cd565b9750613931836138e4565b925050600181019050613912565b5085935050505092915050565b5f6020820190508181035f83015261396481846138f0565b905092915050565b5f81519050919050565b5f82825260208201905092915050565b5f5b838110156139a3578082015181840152602081019050613988565b5f8484015250505050565b5f601f19601f8301169050919050565b5f6139c88261396c565b6139d28185613976565b93506139e2818560208601613986565b6139eb816139ae565b840191505092915050565b5f6020820190508181035f830152613a0e81846139be565b905092915050565b613a1f816137c5565b8114613a29575f80fd5b50565b5f81359050613a3a81613a16565b92915050565b5f8060408385031215613a5657613a55613838565b5b5f613a6385828601613a2c565b9250506020613a7485828601613856565b9150509250929050565b5f8115159050919050565b613a9281613a7e565b82525050565b5f602082019050613aab5f830184613a89565b92915050565b5f62ffffff82169050919050565b613ac881613ab1565b82525050565b5f602082019050613ae15f830184613abf565b92915050565b5f805f60608486031215613afe57613afd613838565b5b5f613b0b86828701613a2c565b9350506020613b1c86828701613a2c565b9250506040613b2d86828701613856565b9150509250925092565b5f60ff82169050919050565b613b4c81613b37565b82525050565b5f602082019050613b655f830184613b43565b92915050565b5f80fd5b5f80fd5b7f4e487b71000000000000000000000000000000000000000000000000000000005f52604160045260245ffd5b613ba9826139ae565b810181811067ffffffffffffffff82111715613bc857613bc7613b73565b5b80604052505050565b5f613bda61382f565b9050613be68282613ba0565b919050565b5f67ffffffffffffffff821115613c0557613c04613b73565b5b613c0e826139ae565b9050602081019050919050565b828183375f83830152505050565b5f613c3b613c3684613beb565b613bd1565b905082815260208101848484011115613c5757613c56613b6f565b5b613c62848285613c1b565b509392505050565b5f82601f830112613c7e57613c7d613b6b565b5b8135613c8e848260208601613c29565b91505092915050565b5f8060408385031215613cad57613cac613838565b5b5f613cba85828601613a2c565b925050602083013567ffffffffffffffff811115613cdb57613cda61383c565b5b613ce785828601613c6a565b9150509250929050565b5f819050919050565b613d0381613cf1565b82525050565b5f602082019050613d1c5f830184613cfa565b92915050565b5f60208284031215613d3757613d36613838565b5b5f613d4484828501613a2c565b91505092915050565b5f67ffffffffffffffff821115613d6757613d66613b73565b5b602082029050602081019050919050565b5f80fd5b5f613d8e613d8984613d4d565b613bd1565b90508083825260208201905060208402830185811115613db157613db0613d78565b5b835b81811015613dda5780613dc68882613a2c565b845260208401935050602081019050613db3565b5050509392505050565b5f82601f830112613df857613df7613b6b565b5b8135613e08848260208601613d7c565b91505092915050565b5f8060408385031215613e2757613e26613838565b5b5f83013567ffffffffffffffff811115613e4457613e4361383c565b5b613e5085828601613de4565b925050602083013567ffffffffffffffff811115613e7157613e7061383c565b5b613e7d85828601613de4565b9150509250929050565b613e9081613ab1565b8114613e9a575f80fd5b50565b5f81359050613eab81613e87565b92915050565b5f805f60608486031215613ec857613ec7613838565b5b5f613ed586828701613a2c565b9350506020613ee686828701613e9d565b9250506040613ef786828701613e9d565b9150509250925092565b5f60208284031215613f1657613f15613838565b5b5f613f2384828501613e9d565b91505092915050565b5f81519050919050565b5f82825260208201905092915050565b5f819050602082019050919050565b613f5e816137c5565b82525050565b5f613f6f8383613f55565b60208301905092915050565b5f602082019050919050565b5f613f9182613f2c565b613f9b8185613f36565b9350613fa683613f46565b805f5b83811015613fd6578151613fbd8882613f64565b9750613fc883613f7b565b925050600181019050613fa9565b5085935050505092915050565b5f6020820190508181035f830152613ffb8184613f87565b905092915050565b5f80fd5b5f80fd5b5f67ffffffffffffffff82111561402557614024613b73565b5b61402e826139ae565b9050602081019050919050565b5f61404d6140488461400b565b613bd1565b90508281526020810184848401111561406957614068613b6f565b5b614074848285613c1b565b509392505050565b5f82601f8301126140905761408f613b6b565b5b81356140a084826020860161403b565b91505092915050565b5f67ffffffffffffffff8211156140c3576140c2613b73565b5b602082029050602081019050919050565b5f6140e66140e1846140a9565b613bd1565b9050808382526020820190506020840283018581111561410957614108613d78565b5b835b81811015614132578061411e8882613856565b84526020840193505060208101905061410b565b5050509392505050565b5f82601f8301126141505761414f613b6b565b5b81356141608482602086016140d4565b91505092915050565b5f610140828403121561417f5761417e614003565b5b61418a610140613bd1565b90505f61419984828501613a2c565b5f83015250602082013567ffffffffffffffff8111156141bc576141bb614007565b5b6141c88482850161407c565b602083015250604082013567ffffffffffffffff8111156141ec576141eb614007565b5b6141f88482850161407c565b604083015250606082013567ffffffffffffffff81111561421c5761421b614007565b5b61422884828501613de4565b606083015250608082013567ffffffffffffffff81111561424c5761424b614007565b5b6142588482850161413c565b60808301525060a061426c84828501613856565b60a08301525060c061428084828501613a2c565b60c08301525060e061429484828501613a2c565b60e0830152506101006142a984828501613a2c565b610100830152506101206142bf84828501613a2c565b6101208301525092915050565b5f602082840312156142e1576142e0613838565b5b5f82013567ffffffffffffffff8111156142fe576142fd61383c565b5b61430a84828501614169565b91505092915050565b5f67ffffffffffffffff82111561432d5761432c613b73565b5b602082029050602081019050919050565b5f61435061434b84614313565b613bd1565b9050808382526020820190506020840283018581111561437357614372613d78565b5b835b8181101561439c57806143888882613e9d565b845260208401935050602081019050614375565b5050509392505050565b5f82601f8301126143ba576143b9613b6b565b5b81356143ca84826020860161433e565b91505092915050565b5f80604083850312156143e9576143e8613838565b5b5f83013567ffffffffffffffff8111156144065761440561383c565b5b61441285828601613de4565b925050602083013567ffffffffffffffff8111156144335761443261383c565b5b61443f858286016143a6565b9150509250929050565b5f806040838503121561445f5761445e613838565b5b5f61446c85828601613a2c565b925050602061447d85828601613a2c565b9150509250929050565b7f4e487b71000000000000000000000000000000000000000000000000000000005f52603260045260245ffd5b5f815190506144c281613840565b92915050565b5f602082840312156144dd576144dc613838565b5b5f6144ea848285016144b4565b91505092915050565b7f4e487b71000000000000000000000000000000000000000000000000000000005f52602260045260245ffd5b5f600282049050600182168061453757607f821691505b60208210810361454a576145496144f3565b5b50919050565b7f4e487b71000000000000000000000000000000000000000000000000000000005f52601160045260245ffd5b5f614587826137fe565b9150614592836137fe565b92508282039050818111156145aa576145a9614550565b5b92915050565b5f60a0820190506145c35f8301886137d6565b6145d060208301876137d6565b6145dd6040830186613807565b6145ea6060830185613807565b81810360808301526145fc81846138f0565b90509695505050505050565b5f60408201905061461b5f830185613807565b6146286020830184613807565b9392505050565b5f6080820190506146425f8301876137d6565b61464f6020830186613807565b61465c6040830185613807565b818103606083015261466e81846138f0565b905095945050505050565b5f819050919050565b5f67ffffffffffffffff82169050919050565b5f819050919050565b5f6146b86146b36146ae84614679565b614695565b614682565b9050919050565b6146c88161469e565b82525050565b5f6020820190506146e15f8301846146bf565b92915050565b5f6146f1826137fe565b91506146fc836137fe565b925082820190508082111561471457614713614550565b5b92915050565b5f614724826137fe565b915061472f836137fe565b925082820261473d816137fe565b9150828204841483151761475457614753614550565b5b5092915050565b5f60408201905061476e5f8301856137d6565b61477b6020830184613807565b9392505050565b5f6060820190506147955f8301866137d6565b6147a26020830185613807565b6147af6040830184613807565b949350505050565b6147c081613cf1565b81146147ca575f80fd5b50565b5f815190506147db816147b7565b92915050565b5f602082840312156147f6576147f5613838565b5b5f614803848285016147cd565b91505092915050565b7f4e487b71000000000000000000000000000000000000000000000000000000005f52603160045260245ffd5b5f60608201905061484c5f8301866137d6565b61485960208301856137d6565b6148666040830184613807565b949350505050565b5f819050815f5260205f209050919050565b5f6020601f8301049050919050565b5f82821b905092915050565b5f600883026148ca7fffffffffffffffffffffffffffffffffffffffffffffffffffffffffffffffff8261488f565b6148d4868361488f565b95508019841693508086168417925050509392505050565b5f6149066149016148fc846137fe565b614695565b6137fe565b9050919050565b5f819050919050565b61491f836148ec565b61493361492b8261490d565b84845461489b565b825550505050565b5f90565b61494761493b565b614952818484614916565b505050565b5b818110156149755761496a5f8261493f565b600181019050614958565b5050565b601f8211156149ba5761498b8161486e565b61499484614880565b810160208510156149a3578190505b6149b76149af85614880565b830182614957565b50505b505050565b5f82821c905092915050565b5f6149da5f19846008026149bf565b1980831691505092915050565b5f6149f283836149cb565b9150826002028217905092915050565b614a0b8261396c565b67ffffffffffffffff811115614a2457614a23613b73565b5b614a2e8254614520565b614a39828285614979565b5f60209050601f831160018114614a6a575f8415614a58578287015190505b614a6285826149e7565b865550614ac9565b601f198416614a788661486e565b5f5b82811015614a9f57848901518255600182019150602085019450602081019050614a7a565b86831015614abc5784890151614ab8601f8916826149cb565b8355505b6001600288020188555050505b505050505050565b5f81519050919050565b5f81905092915050565b5f614aef82614ad1565b614af98185614adb565b9350614b09818560208601613986565b80840191505092915050565b5f614b208284614ae5565b91508190509291505056fea26469706673582212203a7d347fd335b15316f5f1d6027a801eb9f8c09661fe3f66063134621bddedb864736f6c63430008180033","linkReferences":{}},"methodIdentifiers":{"HUNDRED_PERCENT()":"6ed93dd0","INDEX_SCALE()":"27776ab5","UPGRADE_INTERFACE_VERSION()":"ad3cb1cc","addToken(address)":"d48bfca7","allowance(address,address)":"dd62ed3e","approve(address,uint256)":"095ea7b3","balanceOf(address)":"70a08231","decimals()":"313ce567","etfQuoter()":"a47f2265","feeTo()":"017e7e58","getInitTokenAmountPerShares()":"8423f320","getInvestTokenAmounts(uint256)":"05def347","getPriceFeed(address)":"5b6cca80","getRedeemTokenAmounts(uint256)":"ce7ddbef","getTokenTargetWeight(address)":"a2fe4f2d","getTokens()":"aa6ca808","initialize((address,string,string,address[],uint256[],uint256,address,address,address,address))":"d4cbe57b","invest(address,uint256)":"b9b8c246","investFee()":"1c1f3014","lastIndexUpdateTime()":"e8b508a8","lastRebalanceTime()":"d9ca21d5","minMintAmount()":"01e9d757","miningLastIndex()":"7ca02356","miningSpeedPerSecond()":"0e7a0c22","miningToken()":"69cf7ac3","name()":"06fdde03","owner()":"8da5cb5b","proxiableUUID()":"52d1902d","rebalanceDeviance()":"e61b0e81","rebalanceInterval()":"16d1d916","redeem(address,uint256)":"1e9a6950","redeemFee()":"965fa21e","removeToken(address)":"5fa7b584","renounceOwnership()":"715018a6","setFee(address,uint24,uint24)":"a553618b","setPriceFeeds(address[],address[])":"92aeb53a","setTokenTargetWeights(address[],uint24[])":"da163387","supplierLastIndex(address)":"aec18531","supplierRewardAccrued(address)":"742d2cf1","swapRouter()":"c31c9c07","symbol()":"95d89b41","totalSupply()":"18160ddd","transfer(address,uint256)":"a9059cbb","transferFrom(address,address,uint256)":"23b872dd","transferOwnership(address)":"f2fde38b","updateMinMintAmount(uint256)":"6dd84ac1","updateRebalanceDeviance(uint24)":"a987e49f","updateRebalanceInterval(uint256)":"5534a774","upgradeToAndCall(address,bytes)":"4f1ef286","weth()":"3fc8cef3"},"id":67}