{"abi":[{"type":"constructor","inputs":[{"name":"uniswapV3Quoter_","type":"address","internalType":"address"},{"name":"weth_","type":"address","internalType":"address"},{"name":"usdc_","type":"address","internalType":"address"}],"stateMutability":"nonpayable"},{"type":"function","name":"fees","inputs":[{"name":"","type":"uint256","internalType":"uint256"}],"outputs":[{"name":"","type":"uint24","internalType":"uint24"}],"stateMutability":"view"},{"type":"function","name":"getAllPaths","inputs":[{"name":"tokenA","type":"address","internalType":"address"},{"name":"tokenB","type":"address","internalType":"address"}],"outputs":[{"name":"paths","type":"bytes[]","internalType":"bytes[]"}],"stateMutability":"view"},{"type":"function","name":"quoteExactIn","inputs":[{"name":"tokenIn","type":"address","internalType":"address"},{"name":"tokenOut","type":"address","internalType":"address"},{"name":"amountIn","type":"uint256","internalType":"uint256"}],"outputs":[{"name":"path","type":"bytes","internalType":"bytes"},{"name":"amountOut","type":"uint256","internalType":"uint256"}],"stateMutability":"view"},{"type":"function","name":"quoteExactOut","inputs":[{"name":"tokenIn","type":"address","internalType":"address"},{"name":"tokenOut","type":"address","internalType":"address"},{"name":"amountOut","type":"uint256","internalType":"uint256"}],"outputs":[{"name":"path","type":"bytes","internalType":"bytes"},{"name":"amountIn","type":"uint256","internalType":"uint256"}],"stateMutability":"view"},{"type":"function","name":"quoteInvestWithToken","inputs":[{"name":"etf","type":"address","internalType":"address"},{"name":"srcToken","type":"address","internalType":"address"},{"name":"mintAmount","type":"uint256","internalType":"uint256"}],"outputs":[{"name":"srcAmount","type":"uint256","internalType":"uint256"},{"name":"swapPaths","type":"bytes[]","internalType":"bytes[]"}],"stateMutability":"view"},{"type":"function","name":"quoteRedeemToToken","inputs":[{"name":"etf","type":"address","internalType":"address"},{"name":"dstToken","type":"address","internalType":"address"},{"name":"burnAmount","type":"uint256","internalType":"uint256"}],"outputs":[{"name":"dstAmount","type":"uint256","internalType":"uint256"},{"name":"swapPaths","type":"bytes[]","internalType":"bytes[]"}],"stateMutability":"view"},{"type":"function","name":"uniswapV3Quoter","inputs":[],"outputs":[{"name":"","type":"address","internalType":"contract IUniswapV3Quoter"}],"stateMutability":"view"},{"type":"function","name":"usdc","inputs":[],"outputs":[{"name":"","type":"address","internalType":"address"}],"stateMutability":"view"},{"type":"function","name":"weth","inputs":[],"outputs":[{"name":"","type":"address","internalType":"address"}],"stateMutability":"view"},{"type":"error","name":"SameTokens","inputs":[]}],"bytecode":{"object":"0x60e060405234801562000010575f80fd5b5060405162001c7538038062001c7583398181016040528101906200003691906200024c565b8273ffffffffffffffffffffffffffffffffffffffff1660c08173ffffffffffffffffffffffffffffffffffffffff16815250508173ffffffffffffffffffffffffffffffffffffffff1660808173ffffffffffffffffffffffffffffffffffffffff16815250508073ffffffffffffffffffffffffffffffffffffffff1660a08173ffffffffffffffffffffffffffffffffffffffff16815250506040518060800160405280606461ffff1681526020016101f461ffff168152602001610bb861ffff16815260200161271061ffff168152505f9060046200011b92919062000125565b50505050620002a5565b826004600901600a90048101928215620001b7579160200282015f5b838211156200018457835183826101000a81548162ffffff021916908361ffff160217905550926020019260030160208160020104928301926001030262000141565b8015620001b55782816101000a81549062ffffff021916905560030160208160020104928301926001030262000184565b505b509050620001c69190620001ca565b5090565b5b80821115620001e3575f815f905550600101620001cb565b5090565b5f80fd5b5f73ffffffffffffffffffffffffffffffffffffffff82169050919050565b5f6200021682620001eb565b9050919050565b62000228816200020a565b811462000233575f80fd5b50565b5f8151905062000246816200021d565b92915050565b5f805f60608486031215620002665762000265620001e7565b5b5f620002758682870162000236565b9350506020620002888682870162000236565b92505060406200029b8682870162000236565b9150509250925092565b60805160a05160c051611989620002ec5f395f81816104ff01528181610670015261097e01525f81816105fb0152610c0701525f818161061f0152610bb501526119895ff3fe608060405234801561000f575f80fd5b5060043610610091575f3560e01c80634acc79ed116100645780634acc79ed146101335780634d20d0f8146101635780634d3d06d0146101815780637020df95146101b2578063d070166d146101e357610091565b80630816b4251461009557806312be4fe0146100c65780633e413bee146100f75780633fc8cef314610115575b5f80fd5b6100af60048036038101906100aa9190610e1d565b610213565b6040516100bd929190610fc1565b60405180910390f35b6100e060048036038101906100db9190610e1d565b6104e2565b6040516100ee929190611037565b60405180910390f35b6100ff6105f9565b60405161010c9190611074565b60405180910390f35b61011d61061d565b60405161012a9190611074565b60405180910390f35b61014d6004803603810190610148919061108d565b610641565b60405161015a91906110d5565b60405180910390f35b61016b61066e565b6040516101789190611149565b60405180910390f35b61019b60048036038101906101969190610e1d565b610692565b6040516101a9929190610fc1565b60405180910390f35b6101cc60048036038101906101c79190610e1d565b610961565b6040516101da929190611037565b60405180910390f35b6101fd60048036038101906101f89190611162565b610a8d565b60405161020a91906111a0565b60405180910390f35b5f60605f8573ffffffffffffffffffffffffffffffffffffffff1663aa6ca8086040518163ffffffff1660e01b81526004015f60405180830381865afa15801561025f573d5f803e3d5ffd5b505050506040513d5f823e3d601f19601f820116820180604052508101906102879190611314565b90505f8673ffffffffffffffffffffffffffffffffffffffff1663ce7ddbef866040518263ffffffff1660e01b81526004016102c3919061135b565b5f60405180830381865afa1580156102dd573d5f803e3d5ffd5b505050506040513d5f823e3d601f19601f820116820180604052508101906103059190611448565b9050815167ffffffffffffffff811115610322576103216111c4565b5b60405190808252806020026020018201604052801561035557816020015b60608152602001906001900390816103405790505b5092505f5b82518110156104d7578281815181106103765761037561148f565b5b602002602001015173ffffffffffffffffffffffffffffffffffffffff168773ffffffffffffffffffffffffffffffffffffffff1603610455578181815181106103c3576103c261148f565b5b6020026020010151856103d691906114e9565b94508660601b5f80600481106103ef576103ee61148f565b5b600a91828204019190066003029054906101000a900462ffffff1660e81b8860601b604051602001610423939291906115b2565b6040516020818303038152906040528482815181106104455761044461148f565b5b60200260200101819052506104ca565b5f8061049685848151811061046d5761046c61148f565b5b60200260200101518a8686815181106104895761048861148f565b5b60200260200101516104e2565b9150915080876104a691906114e9565b9650818684815181106104bc576104bb61148f565b5b602002602001018190525050505b808060010191505061035a565b505050935093915050565b60605f806104f08686610a8d565b90505f5b81518110156105ef577f000000000000000000000000000000000000000000000000000000000000000073ffffffffffffffffffffffffffffffffffffffff1663cdca175383838151811061054c5761054b61148f565b5b6020026020010151876040518363ffffffff1660e01b8152600401610572929190611037565b5f60405180830381865afa9250505080156105af57506040513d5f823e3d601f19601f820116820180604052508101906105ac91906117d1565b60015b156105e257868411156105dd578396508585815181106105d2576105d161148f565b5b602002602001015197505b505050505b80806001019150506104f4565b5050935093915050565b7f000000000000000000000000000000000000000000000000000000000000000081565b7f000000000000000000000000000000000000000000000000000000000000000081565b5f816004811061064f575f80fd5b600a9182820401919006600302915054906101000a900462ffffff1681565b7f000000000000000000000000000000000000000000000000000000000000000081565b5f60605f8573ffffffffffffffffffffffffffffffffffffffff1663aa6ca8086040518163ffffffff1660e01b81526004015f60405180830381865afa1580156106de573d5f803e3d5ffd5b505050506040513d5f823e3d601f19601f820116820180604052508101906107069190611314565b90505f8673ffffffffffffffffffffffffffffffffffffffff166305def347866040518263ffffffff1660e01b8152600401610742919061135b565b5f60405180830381865afa15801561075c573d5f803e3d5ffd5b505050506040513d5f823e3d601f19601f820116820180604052508101906107849190611448565b9050815167ffffffffffffffff8111156107a1576107a06111c4565b5b6040519080825280602002602001820160405280156107d457816020015b60608152602001906001900390816107bf5790505b5092505f5b8251811015610956578281815181106107f5576107f461148f565b5b602002602001015173ffffffffffffffffffffffffffffffffffffffff168773ffffffffffffffffffffffffffffffffffffffff16036108d4578181815181106108425761084161148f565b5b60200260200101518561085591906114e9565b94508660601b5f806004811061086e5761086d61148f565b5b600a91828204019190066003029054906101000a900462ffffff1660e81b8860601b6040516020016108a2939291906115b2565b6040516020818303038152906040528482815181106108c4576108c361148f565b5b6020026020010181905250610949565b5f80610915898685815181106108ed576108ec61148f565b5b60200260200101518686815181106109085761090761148f565b5b6020026020010151610961565b91509150808761092591906114e9565b96508186848151811061093b5761093a61148f565b5b602002602001018190525050505b80806001019150506107d9565b505050935093915050565b60605f8061096f8587610a8d565b90505f5b8151811015610a83577f000000000000000000000000000000000000000000000000000000000000000073ffffffffffffffffffffffffffffffffffffffff16632f80bb1d8383815181106109cb576109ca61148f565b5b6020026020010151876040518363ffffffff1660e01b81526004016109f1929190611037565b5f60405180830381865afa925050508015610a2e57506040513d5f823e3d601f19601f82011682018060405250810190610a2b91906117d1565b60015b15610a76575f84118015610a4b57505f871480610a4a57508684105b5b15610a7157839650858581518110610a6657610a6561148f565b5b602002602001015197505b505050505b8080600101915050610973565b5050935093915050565b60605f6002600480610a9f919061186d565b610aa9919061186d565b6004610ab591906114e9565b90508067ffffffffffffffff811115610ad157610ad06111c4565b5b604051908082528060200260200182016040528015610b0457816020015b6060815260200190600190039081610aef5790505b5091505f805b6004811015610ba6578560601b5f8260048110610b2a57610b2961148f565b5b600a91828204019190066003029054906101000a900462ffffff1660e81b8660601b604051602001610b5e939291906115b2565b604051602081830303815290604052848381518110610b8057610b7f61148f565b5b60200260200101819052508180610b96906118ae565b9250508080600101915050610b0a565b505f60405180604001604052807f000000000000000000000000000000000000000000000000000000000000000073ffffffffffffffffffffffffffffffffffffffff1673ffffffffffffffffffffffffffffffffffffffff1681526020017f000000000000000000000000000000000000000000000000000000000000000073ffffffffffffffffffffffffffffffffffffffff1673ffffffffffffffffffffffffffffffffffffffff1681525090505f5b6002811015610d75575f5b6004811015610d67575f5b6004811015610d59578860601b5f8360048110610c8f57610c8e61148f565b5b600a91828204019190066003029054906101000a900462ffffff1660e81b858560028110610cc057610cbf61148f565b5b602002015160601b5f8460048110610cdb57610cda61148f565b5b600a91828204019190066003029054906101000a900462ffffff1660e81b8b60601b604051602001610d119594939291906118f5565b604051602081830303815290604052878681518110610d3357610d3261148f565b5b60200260200101819052508480610d49906118ae565b9550508080600101915050610c6f565b508080600101915050610c64565b508080600101915050610c59565b5050505092915050565b5f604051905090565b5f80fd5b5f80fd5b5f73ffffffffffffffffffffffffffffffffffffffff82169050919050565b5f610db982610d90565b9050919050565b610dc981610daf565b8114610dd3575f80fd5b50565b5f81359050610de481610dc0565b92915050565b5f819050919050565b610dfc81610dea565b8114610e06575f80fd5b50565b5f81359050610e1781610df3565b92915050565b5f805f60608486031215610e3457610e33610d88565b5b5f610e4186828701610dd6565b9350506020610e5286828701610dd6565b9250506040610e6386828701610e09565b9150509250925092565b610e7681610dea565b82525050565b5f81519050919050565b5f82825260208201905092915050565b5f819050602082019050919050565b5f81519050919050565b5f82825260208201905092915050565b5f5b83811015610edc578082015181840152602081019050610ec1565b5f8484015250505050565b5f601f19601f8301169050919050565b5f610f0182610ea5565b610f0b8185610eaf565b9350610f1b818560208601610ebf565b610f2481610ee7565b840191505092915050565b5f610f3a8383610ef7565b905092915050565b5f602082019050919050565b5f610f5882610e7c565b610f628185610e86565b935083602082028501610f7485610e96565b805f5b85811015610faf5784840389528151610f908582610f2f565b9450610f9b83610f42565b925060208a01995050600181019050610f77565b50829750879550505050505092915050565b5f604082019050610fd45f830185610e6d565b8181036020830152610fe68184610f4e565b90509392505050565b5f82825260208201905092915050565b5f61100982610ea5565b6110138185610fef565b9350611023818560208601610ebf565b61102c81610ee7565b840191505092915050565b5f6040820190508181035f83015261104f8185610fff565b905061105e6020830184610e6d565b9392505050565b61106e81610daf565b82525050565b5f6020820190506110875f830184611065565b92915050565b5f602082840312156110a2576110a1610d88565b5b5f6110af84828501610e09565b91505092915050565b5f62ffffff82169050919050565b6110cf816110b8565b82525050565b5f6020820190506110e85f8301846110c6565b92915050565b5f819050919050565b5f61111161110c61110784610d90565b6110ee565b610d90565b9050919050565b5f611122826110f7565b9050919050565b5f61113382611118565b9050919050565b61114381611129565b82525050565b5f60208201905061115c5f83018461113a565b92915050565b5f806040838503121561117857611177610d88565b5b5f61118585828601610dd6565b925050602061119685828601610dd6565b9150509250929050565b5f6020820190508181035f8301526111b88184610f4e565b905092915050565b5f80fd5b7f4e487b71000000000000000000000000000000000000000000000000000000005f52604160045260245ffd5b6111fa82610ee7565b810181811067ffffffffffffffff82111715611219576112186111c4565b5b80604052505050565b5f61122b610d7f565b905061123782826111f1565b919050565b5f67ffffffffffffffff821115611256576112556111c4565b5b602082029050602081019050919050565b5f80fd5b5f8151905061127981610dc0565b92915050565b5f61129161128c8461123c565b611222565b905080838252602082019050602084028301858111156112b4576112b3611267565b5b835b818110156112dd57806112c9888261126b565b8452602084019350506020810190506112b6565b5050509392505050565b5f82601f8301126112fb576112fa6111c0565b5b815161130b84826020860161127f565b91505092915050565b5f6020828403121561132957611328610d88565b5b5f82015167ffffffffffffffff81111561134657611345610d8c565b5b611352848285016112e7565b91505092915050565b5f60208201905061136e5f830184610e6d565b92915050565b5f67ffffffffffffffff82111561138e5761138d6111c4565b5b602082029050602081019050919050565b5f815190506113ad81610df3565b92915050565b5f6113c56113c084611374565b611222565b905080838252602082019050602084028301858111156113e8576113e7611267565b5b835b8181101561141157806113fd888261139f565b8452602084019350506020810190506113ea565b5050509392505050565b5f82601f83011261142f5761142e6111c0565b5b815161143f8482602086016113b3565b91505092915050565b5f6020828403121561145d5761145c610d88565b5b5f82015167ffffffffffffffff81111561147a57611479610d8c565b5b6114868482850161141b565b91505092915050565b7f4e487b71000000000000000000000000000000000000000000000000000000005f52603260045260245ffd5b7f4e487b71000000000000000000000000000000000000000000000000000000005f52601160045260245ffd5b5f6114f382610dea565b91506114fe83610dea565b9250828201905080821115611516576115156114bc565b5b92915050565b5f7fffffffffffffffffffffffffffffffffffffffff00000000000000000000000082169050919050565b5f819050919050565b61156161155c8261151c565b611547565b82525050565b5f7fffffff000000000000000000000000000000000000000000000000000000000082169050919050565b5f819050919050565b6115ac6115a782611567565b611592565b82525050565b5f6115bd8286611550565b6014820191506115cd828561159b565b6003820191506115dd8284611550565b601482019150819050949350505050565b5f67ffffffffffffffff821115611608576116076111c4565b5b602082029050602081019050919050565b61162281610d90565b811461162c575f80fd5b50565b5f8151905061163d81611619565b92915050565b5f611655611650846115ee565b611222565b9050808382526020820190506020840283018581111561167857611677611267565b5b835b818110156116a1578061168d888261162f565b84526020840193505060208101905061167a565b5050509392505050565b5f82601f8301126116bf576116be6111c0565b5b81516116cf848260208601611643565b91505092915050565b5f67ffffffffffffffff8211156116f2576116f16111c4565b5b602082029050602081019050919050565b5f63ffffffff82169050919050565b61171b81611703565b8114611725575f80fd5b50565b5f8151905061173681611712565b92915050565b5f61174e611749846116d8565b611222565b9050808382526020820190506020840283018581111561177157611770611267565b5b835b8181101561179a57806117868882611728565b845260208401935050602081019050611773565b5050509392505050565b5f82601f8301126117b8576117b76111c0565b5b81516117c884826020860161173c565b91505092915050565b5f805f80608085870312156117e9576117e8610d88565b5b5f6117f68782880161139f565b945050602085015167ffffffffffffffff81111561181757611816610d8c565b5b611823878288016116ab565b935050604085015167ffffffffffffffff81111561184457611843610d8c565b5b611850878288016117a4565b92505060606118618782880161139f565b91505092959194509250565b5f61187782610dea565b915061188283610dea565b925082820261189081610dea565b915082820484148315176118a7576118a66114bc565b5b5092915050565b5f6118b882610dea565b91507fffffffffffffffffffffffffffffffffffffffffffffffffffffffffffffffff82036118ea576118e96114bc565b5b600182019050919050565b5f6119008288611550565b601482019150611910828761159b565b6003820191506119208286611550565b601482019150611930828561159b565b6003820191506119408284611550565b601482019150819050969550505050505056fea2646970667358221220c20579b39da2fa6cdb7c8eef214b33fdd43f0f9b54fa35da9925b5fe9720655564736f6c63430008180033","linkReferences":{}},"methodIdentifiers":{"fees(uint256)":"4acc79ed","getAllPaths(address,address)":"d070166d","quoteExactIn(address,address,uint256)":"12be4fe0","quoteExactOut(address,address,uint256)":"7020df95","quoteInvestWithToken(address,address,uint256)":"4d3d06d0","quoteRedeemToToken(address,address,uint256)":"0816b425","uniswapV3Quoter()":"4d20d0f8","usdc()":"3e413bee","weth()":"3fc8cef3"},"id":70}