{"abi":[{"type":"constructor","inputs":[{"name":"name_","type":"string","internalType":"string"},{"name":"symbol_","type":"string","internalType":"string"},{"name":"tokens_","type":"address[]","internalType":"address[]"},{"name":"initTokenAmountPerShare_","type":"uint256[]","internalType":"uint256[]"},{"name":"minMintAmount_","type":"uint256","internalType":"uint256"},{"name":"swapRouter_","type":"address","internalType":"address"},{"name":"weth_","type":"address","internalType":"address"}],"stateMutability":"nonpayable"},{"type":"receive","stateMutability":"payable"},{"type":"function","name":"HUNDRED_PERCENT","inputs":[],"outputs":[{"name":"","type":"uint24","internalType":"uint24"}],"stateMutability":"view"},{"type":"function","name":"allowance","inputs":[{"name":"owner","type":"address","internalType":"address"},{"name":"spender","type":"address","internalType":"address"}],"outputs":[{"name":"","type":"uint256","internalType":"uint256"}],"stateMutability":"view"},{"type":"function","name":"approve","inputs":[{"name":"spender","type":"address","internalType":"address"},{"name":"value","type":"uint256","internalType":"uint256"}],"outputs":[{"name":"","type":"bool","internalType":"bool"}],"stateMutability":"nonpayable"},{"type":"function","name":"balanceOf","inputs":[{"name":"account","type":"address","internalType":"address"}],"outputs":[{"name":"","type":"uint256","internalType":"uint256"}],"stateMutability":"view"},{"type":"function","name":"decimals","inputs":[],"outputs":[{"name":"","type":"uint8","internalType":"uint8"}],"stateMutability":"view"},{"type":"function","name":"feeTo","inputs":[],"outputs":[{"name":"","type":"address","internalType":"address"}],"stateMutability":"view"},{"type":"function","name":"getInitTokenAmountPerShares","inputs":[],"outputs":[{"name":"","type":"uint256[]","internalType":"uint256[]"}],"stateMutability":"view"},{"type":"function","name":"getInvestTokenAmounts","inputs":[{"name":"mintAmount","type":"uint256","internalType":"uint256"}],"outputs":[{"name":"tokenAmounts","type":"uint256[]","internalType":"uint256[]"}],"stateMutability":"view"},{"type":"function","name":"getRedeemTokenAmounts","inputs":[{"name":"burnAmount","type":"uint256","internalType":"uint256"}],"outputs":[{"name":"tokenAmounts","type":"uint256[]","internalType":"uint256[]"}],"stateMutability":"view"},{"type":"function","name":"getTokens","inputs":[],"outputs":[{"name":"","type":"address[]","internalType":"address[]"}],"stateMutability":"view"},{"type":"function","name":"invest","inputs":[{"name":"to","type":"address","internalType":"address"},{"name":"mintAmount","type":"uint256","internalType":"uint256"}],"outputs":[],"stateMutability":"nonpayable"},{"type":"function","name":"investFee","inputs":[],"outputs":[{"name":"","type":"uint24","internalType":"uint24"}],"stateMutability":"view"},{"type":"function","name":"investWithETH","inputs":[{"name":"to","type":"address","internalType":"address"},{"name":"mintAmount","type":"uint256","internalType":"uint256"},{"name":"swapPaths","type":"bytes[]","internalType":"bytes[]"}],"outputs":[],"stateMutability":"payable"},{"type":"function","name":"minMintAmount","inputs":[],"outputs":[{"name":"","type":"uint256","internalType":"uint256"}],"stateMutability":"view"},{"type":"function","name":"name","inputs":[],"outputs":[{"name":"","type":"string","internalType":"string"}],"stateMutability":"view"},{"type":"function","name":"owner","inputs":[],"outputs":[{"name":"","type":"address","internalType":"address"}],"stateMutability":"view"},{"type":"function","name":"redeem","inputs":[{"name":"to","type":"address","internalType":"address"},{"name":"burnAmount","type":"uint256","internalType":"uint256"}],"outputs":[],"stateMutability":"nonpayable"},{"type":"function","name":"redeemFee","inputs":[],"outputs":[{"name":"","type":"uint24","internalType":"uint24"}],"stateMutability":"view"},{"type":"function","name":"redeemToETH","inputs":[{"name":"to","type":"address","internalType":"address"},{"name":"burnAmount","type":"uint256","internalType":"uint256"},{"name":"swapPaths","type":"bytes[]","internalType":"bytes[]"},{"name":"minETHAmount","type":"uint256","internalType":"uint256"}],"outputs":[],"stateMutability":"nonpayable"},{"type":"function","name":"renounceOwnership","inputs":[],"outputs":[],"stateMutability":"nonpayable"},{"type":"function","name":"setFee","inputs":[{"name":"feeTo_","type":"address","internalType":"address"},{"name":"investFee_","type":"uint24","internalType":"uint24"},{"name":"redeemFee_","type":"uint24","internalType":"uint24"}],"outputs":[],"stateMutability":"nonpayable"},{"type":"function","name":"swapRouter","inputs":[],"outputs":[{"name":"","type":"address","internalType":"address"}],"stateMutability":"view"},{"type":"function","name":"symbol","inputs":[],"outputs":[{"name":"","type":"string","internalType":"string"}],"stateMutability":"view"},{"type":"function","name":"totalSupply","inputs":[],"outputs":[{"name":"","type":"uint256","internalType":"uint256"}],"stateMutability":"view"},{"type":"function","name":"transfer","inputs":[{"name":"to","type":"address","internalType":"address"},{"name":"value","type":"uint256","internalType":"uint256"}],"outputs":[{"name":"","type":"bool","internalType":"bool"}],"stateMutability":"nonpayable"},{"type":"function","name":"transferFrom","inputs":[{"name":"from","type":"address","internalType":"address"},{"name":"to","type":"address","internalType":"address"},{"name":"value","type":"uint256","internalType":"uint256"}],"outputs":[{"name":"","type":"bool","internalType":"bool"}],"stateMutability":"nonpayable"},{"type":"function","name":"transferOwnership","inputs":[{"name":"newOwner","type":"address","internalType":"address"}],"outputs":[],"stateMutability":"nonpayable"},{"type":"function","name":"updateMinMintAmount","inputs":[{"name":"newMinMintAmount","type":"uint256","internalType":"uint256"}],"outputs":[],"stateMutability":"nonpayable"},{"type":"function","name":"weth","inputs":[],"outputs":[{"name":"","type":"address","internalType":"address"}],"stateMutability":"view"},{"type":"event","name":"Approval","inputs":[{"name":"owner","type":"address","indexed":true,"internalType":"address"},{"name":"spender","type":"address","indexed":true,"internalType":"address"},{"name":"value","type":"uint256","indexed":false,"internalType":"uint256"}],"anonymous":false},{"type":"event","name":"Invested","inputs":[{"name":"to","type":"address","indexed":false,"internalType":"address"},{"name":"mintAmount","type":"uint256","indexed":false,"internalType":"uint256"},{"name":"investFee","type":"uint256","indexed":false,"internalType":"uint256"},{"name":"tokenAmounts","type":"uint256[]","indexed":false,"internalType":"uint256[]"}],"anonymous":false},{"type":"event","name":"InvestedWithETH","inputs":[{"name":"user","type":"address","indexed":true,"internalType":"address"},{"name":"to","type":"address","indexed":true,"internalType":"address"},{"name":"mintAmount","type":"uint256","indexed":false,"internalType":"uint256"},{"name":"ethAmount","type":"uint256","indexed":false,"internalType":"uint256"}],"anonymous":false},{"type":"event","name":"MinMintAmountUpdated","inputs":[{"name":"oldMinMintAmount","type":"uint256","indexed":false,"internalType":"uint256"},{"name":"newMinMintAmount","type":"uint256","indexed":false,"internalType":"uint256"}],"anonymous":false},{"type":"event","name":"OwnershipTransferred","inputs":[{"name":"previousOwner","type":"address","indexed":true,"internalType":"address"},{"name":"newOwner","type":"address","indexed":true,"internalType":"address"}],"anonymous":false},{"type":"event","name":"Redeemed","inputs":[{"name":"sender","type":"address","indexed":false,"internalType":"address"},{"name":"to","type":"address","indexed":false,"internalType":"address"},{"name":"burnAmount","type":"uint256","indexed":false,"internalType":"uint256"},{"name":"redeemFee","type":"uint256","indexed":false,"internalType":"uint256"},{"name":"tokenAmounts","type":"uint256[]","indexed":false,"internalType":"uint256[]"}],"anonymous":false},{"type":"event","name":"RedeemedToETH","inputs":[{"name":"user","type":"address","indexed":true,"internalType":"address"},{"name":"to","type":"address","indexed":true,"internalType":"address"},{"name":"burnAmount","type":"uint256","indexed":false,"internalType":"uint256"},{"name":"ethAmount","type":"uint256","indexed":false,"internalType":"uint256"}],"anonymous":false},{"type":"event","name":"TokenAdded","inputs":[{"name":"token","type":"address","indexed":false,"internalType":"address"},{"name":"index","type":"uint256","indexed":false,"internalType":"uint256"}],"anonymous":false},{"type":"event","name":"TokenRemoved","inputs":[{"name":"token","type":"address","indexed":false,"internalType":"address"},{"name":"index","type":"uint256","indexed":false,"internalType":"uint256"}],"anonymous":false},{"type":"event","name":"Transfer","inputs":[{"name":"from","type":"address","indexed":true,"internalType":"address"},{"name":"to","type":"address","indexed":true,"internalType":"address"},{"name":"value","type":"uint256","indexed":false,"internalType":"uint256"}],"anonymous":false},{"type":"error","name":"ERC20InsufficientAllowance","inputs":[{"name":"spender","type":"address","internalType":"address"},{"name":"allowance","type":"uint256","internalType":"uint256"},{"name":"needed","type":"uint256","internalType":"uint256"}]},{"type":"error","name":"ERC20InsufficientBalance","inputs":[{"name":"sender","type":"address","internalType":"address"},{"name":"balance","type":"uint256","internalType":"uint256"},{"name":"needed","type":"uint256","internalType":"uint256"}]},{"type":"error","name":"ERC20InvalidApprover","inputs":[{"name":"approver","type":"address","internalType":"address"}]},{"type":"error","name":"ERC20InvalidReceiver","inputs":[{"name":"receiver","type":"address","internalType":"address"}]},{"type":"error","name":"ERC20InvalidSender","inputs":[{"name":"sender","type":"address","internalType":"address"}]},{"type":"error","name":"ERC20InvalidSpender","inputs":[{"name":"spender","type":"address","internalType":"address"}]},{"type":"error","name":"InvalidSwapPath","inputs":[{"name":"path","type":"bytes","internalType":"bytes"}]},{"type":"error","name":"LessThanMinMintAmount","inputs":[]},{"type":"error","name":"OwnableInvalidOwner","inputs":[{"name":"owner","type":"address","internalType":"address"}]},{"type":"error","name":"OwnableUnauthorizedAccount","inputs":[{"name":"account","type":"address","internalType":"address"}]},{"type":"error","name":"SafeERC20FailedOperation","inputs":[{"name":"token","type":"address","internalType":"address"}]},{"type":"error","name":"SafeTransferETHFailed","inputs":[]},{"type":"error","name":"TokenExists","inputs":[]},{"type":"error","name":"TokenNotFound","inputs":[]}],"bytecode":{"object":"0x60c060405234801562000010575f80fd5b506040516200440038038062004400833981810160405281019062000036919062000720565b868686868633858581600390816200004f919062000a78565b50806004908162000061919062000a78565b5050505f73ffffffffffffffffffffffffffffffffffffffff168173ffffffffffffffffffffffffffffffffffffffff1603620000d7575f6040517f1e4fbdf7000000000000000000000000000000000000000000000000000000008152600401620000ce919062000b6d565b60405180910390fd5b620000e8816200019c60201b60201c565b508260089080519060200190620001019291906200025f565b5081600990805190602001906200011a929190620002eb565b508060078190555050505050508173ffffffffffffffffffffffffffffffffffffffff1660808173ffffffffffffffffffffffffffffffffffffffff16815250508073ffffffffffffffffffffffffffffffffffffffff1660a08173ffffffffffffffffffffffffffffffffffffffff16815250505050505050505062000b88565b5f60055f9054906101000a900473ffffffffffffffffffffffffffffffffffffffff1690508160055f6101000a81548173ffffffffffffffffffffffffffffffffffffffff021916908373ffffffffffffffffffffffffffffffffffffffff1602179055508173ffffffffffffffffffffffffffffffffffffffff168173ffffffffffffffffffffffffffffffffffffffff167f8be0079c531659141344cd1fd0a4f28419497f9722a3daafe3b4186f6b6457e060405160405180910390a35050565b828054828255905f5260205f20908101928215620002d8579160200282015b82811115620002d7578251825f6101000a81548173ffffffffffffffffffffffffffffffffffffffff021916908373ffffffffffffffffffffffffffffffffffffffff160217905550916020019190600101906200027e565b5b509050620002e791906200033b565b5090565b828054828255905f5260205f2090810192821562000328579160200282015b82811115620003275782518255916020019190600101906200030a565b5b5090506200033791906200033b565b5090565b5b8082111562000354575f815f9055506001016200033c565b5090565b5f604051905090565b5f80fd5b5f80fd5b5f80fd5b5f80fd5b5f601f19601f8301169050919050565b7f4e487b71000000000000000000000000000000000000000000000000000000005f52604160045260245ffd5b620003b98262000371565b810181811067ffffffffffffffff82111715620003db57620003da62000381565b5b80604052505050565b5f620003ef62000358565b9050620003fd8282620003ae565b919050565b5f67ffffffffffffffff8211156200041f576200041e62000381565b5b6200042a8262000371565b9050602081019050919050565b5f5b838110156200045657808201518184015260208101905062000439565b5f8484015250505050565b5f62000477620004718462000402565b620003e4565b9050828152602081018484840111156200049657620004956200036d565b5b620004a384828562000437565b509392505050565b5f82601f830112620004c257620004c162000369565b5b8151620004d484826020860162000461565b91505092915050565b5f67ffffffffffffffff821115620004fa57620004f962000381565b5b602082029050602081019050919050565b5f80fd5b5f73ffffffffffffffffffffffffffffffffffffffff82169050919050565b5f6200053a826200050f565b9050919050565b6200054c816200052e565b811462000557575f80fd5b50565b5f815190506200056a8162000541565b92915050565b5f620005866200058084620004dd565b620003e4565b90508083825260208201905060208402830185811115620005ac57620005ab6200050b565b5b835b81811015620005d95780620005c488826200055a565b845260208401935050602081019050620005ae565b5050509392505050565b5f82601f830112620005fa57620005f962000369565b5b81516200060c84826020860162000570565b91505092915050565b5f67ffffffffffffffff82111562000632576200063162000381565b5b602082029050602081019050919050565b5f819050919050565b620006578162000643565b811462000662575f80fd5b50565b5f8151905062000675816200064c565b92915050565b5f620006916200068b8462000615565b620003e4565b90508083825260208201905060208402830185811115620006b757620006b66200050b565b5b835b81811015620006e45780620006cf888262000665565b845260208401935050602081019050620006b9565b5050509392505050565b5f82601f83011262000705576200070462000369565b5b8151620007178482602086016200067b565b91505092915050565b5f805f805f805f60e0888a0312156200073e576200073d62000361565b5b5f88015167ffffffffffffffff8111156200075e576200075d62000365565b5b6200076c8a828b01620004ab565b975050602088015167ffffffffffffffff81111562000790576200078f62000365565b5b6200079e8a828b01620004ab565b965050604088015167ffffffffffffffff811115620007c257620007c162000365565b5b620007d08a828b01620005e3565b955050606088015167ffffffffffffffff811115620007f457620007f362000365565b5b620008028a828b01620006ee565b9450506080620008158a828b0162000665565b93505060a0620008288a828b016200055a565b92505060c06200083b8a828b016200055a565b91505092959891949750929550565b5f81519050919050565b7f4e487b71000000000000000000000000000000000000000000000000000000005f52602260045260245ffd5b5f60028204905060018216806200089957607f821691505b602082108103620008af57620008ae62000854565b5b50919050565b5f819050815f5260205f209050919050565b5f6020601f8301049050919050565b5f82821b905092915050565b5f60088302620009137fffffffffffffffffffffffffffffffffffffffffffffffffffffffffffffffff82620008d6565b6200091f8683620008d6565b95508019841693508086168417925050509392505050565b5f819050919050565b5f620009606200095a620009548462000643565b62000937565b62000643565b9050919050565b5f819050919050565b6200097b8362000940565b620009936200098a8262000967565b848454620008e2565b825550505050565b5f90565b620009a96200099b565b620009b681848462000970565b505050565b5b81811015620009dd57620009d15f826200099f565b600181019050620009bc565b5050565b601f82111562000a2c57620009f681620008b5565b62000a0184620008c7565b8101602085101562000a11578190505b62000a2962000a2085620008c7565b830182620009bb565b50505b505050565b5f82821c905092915050565b5f62000a4e5f198460080262000a31565b1980831691505092915050565b5f62000a68838362000a3d565b9150826002028217905092915050565b62000a83826200084a565b67ffffffffffffffff81111562000a9f5762000a9e62000381565b5b62000aab825462000881565b62000ab8828285620009e1565b5f60209050601f83116001811462000aee575f841562000ad9578287015190505b62000ae5858262000a5b565b86555062000b54565b601f19841662000afe86620008b5565b5f5b8281101562000b275784890151825560018201915060208501945060208101905062000b00565b8683101562000b47578489015162000b43601f89168262000a3d565b8355505b6001600288020188555050505b505050505050565b62000b67816200052e565b82525050565b5f60208201905062000b825f83018462000b5c565b92915050565b60805160a05161383a62000bc65f395f81816109f5015261128601525f8181610daa0152818161110d0152818161138601526120cf015261383a5ff3fe6080604052600436106101c5575f3560e01c8063715018a6116100f6578063aa6ca80811610094578063c31c9c0711610063578063c31c9c0714610618578063ce7ddbef14610642578063dd62ed3e1461067e578063f2fde38b146106ba576101cc565b8063aa6ca80814610582578063b0acd84b146105ac578063b9b8c246146105c8578063c1f0e170146105f0576101cc565b806395d89b41116100d057806395d89b41146104ca578063965fa21e146104f4578063a553618b1461051e578063a9059cbb14610546576101cc565b8063715018a6146104605780638423f320146104765780638da5cb5b146104a0576101cc565b80631e9a6950116101635780633fc8cef31161013d5780633fc8cef3146103a85780636dd84ac1146103d25780636ed93dd0146103fa57806370a0823114610424576101cc565b80631e9a69501461031a57806323b872dd14610342578063313ce5671461037e576101cc565b806306fdde031161019f57806306fdde0314610260578063095ea7b31461028a57806318160ddd146102c65780631c1f3014146102f0576101cc565b8063017e7e58146101d057806301e9d757146101fa57806305def34714610224576101cc565b366101cc57005b5f80fd5b3480156101db575f80fd5b506101e46106e2565b6040516101f19190612957565b60405180910390f35b348015610205575f80fd5b5061020e610707565b60405161021b9190612988565b60405180910390f35b34801561022f575f80fd5b5061024a600480360381019061024591906129dc565b61070d565b6040516102579190612abe565b60405180910390f35b34801561026b575f80fd5b506102746108de565b6040516102819190612b68565b60405180910390f35b348015610295575f80fd5b506102b060048036038101906102ab9190612bb2565b61096e565b6040516102bd9190612c0a565b60405180910390f35b3480156102d1575f80fd5b506102da610990565b6040516102e79190612988565b60405180910390f35b3480156102fb575f80fd5b50610304610999565b6040516103119190612c40565b60405180910390f35b348015610325575f80fd5b50610340600480360381019061033b9190612bb2565b6109ae565b005b34801561034d575f80fd5b5061036860048036038101906103639190612c59565b6109bd565b6040516103759190612c0a565b60405180910390f35b348015610389575f80fd5b506103926109eb565b60405161039f9190612cc4565b60405180910390f35b3480156103b3575f80fd5b506103bc6109f3565b6040516103c99190612957565b60405180910390f35b3480156103dd575f80fd5b506103f860048036038101906103f391906129dc565b610a17565b005b348015610405575f80fd5b5061040e610a64565b60405161041b9190612c40565b60405180910390f35b34801561042f575f80fd5b5061044a60048036038101906104459190612cdd565b610a6b565b6040516104579190612988565b60405180910390f35b34801561046b575f80fd5b50610474610ab0565b005b348015610481575f80fd5b5061048a610ac3565b6040516104979190612abe565b60405180910390f35b3480156104ab575f80fd5b506104b4610b19565b6040516104c19190612957565b60405180910390f35b3480156104d5575f80fd5b506104de610b41565b6040516104eb9190612b68565b60405180910390f35b3480156104ff575f80fd5b50610508610bd1565b6040516105159190612c40565b60405180910390f35b348015610529575f80fd5b50610544600480360381019061053f9190612d32565b610be6565b005b348015610551575f80fd5b5061056c60048036038101906105679190612bb2565b610c71565b6040516105799190612c0a565b60405180910390f35b34801561058d575f80fd5b50610596610c93565b6040516105a39190612e39565b60405180910390f35b6105c660048036038101906105c19190613067565b610d1e565b005b3480156105d3575f80fd5b506105ee60048036038101906105e99190612bb2565b610f80565b005b3480156105fb575f80fd5b50610616600480360381019061061191906130d3565b611054565b005b348015610623575f80fd5b5061062c611384565b6040516106399190612957565b60405180910390f35b34801561064d575f80fd5b50610668600480360381019061066391906129dc565b6113a8565b6040516106759190612abe565b60405180910390f35b348015610689575f80fd5b506106a4600480360381019061069f9190613153565b611579565b6040516106b19190612988565b60405180910390f35b3480156106c5575f80fd5b506106e060048036038101906106db9190612cdd565b6115fb565b005b60065f9054906101000a900473ffffffffffffffffffffffffffffffffffffffff1681565b60075481565b60605f610718610990565b905060088054905067ffffffffffffffff81111561073957610738612e5d565b5b6040519080825280602002602001820160405280156107675781602001602082028036833780820191505090505b5091505f5b6008805490508110156108d7575f821115610871575f6008828154811061079657610795613191565b5b905f5260205f20015f9054906101000a900473ffffffffffffffffffffffffffffffffffffffff1673ffffffffffffffffffffffffffffffffffffffff166370a08231306040518263ffffffff1660e01b81526004016107f69190612957565b602060405180830381865afa158015610811573d5f803e3d5ffd5b505050506040513d601f19601f8201168201806040525081019061083591906131d2565b905061084c85848361167f9092919063ffffffff16565b84838151811061085f5761085e613191565b5b602002602001018181525050506108ca565b6108aa6009828154811061088857610887613191565b5b905f5260205f200154670de0b6b3a76400008661167f9092919063ffffffff16565b8382815181106108bd576108bc613191565b5b6020026020010181815250505b808060010191505061076c565b5050919050565b6060600380546108ed9061322a565b80601f01602080910402602001604051908101604052809291908181526020018280546109199061322a565b80156109645780601f1061093b57610100808354040283529160200191610964565b820191905f5260205f20905b81548152906001019060200180831161094757829003601f168201915b5050505050905090565b5f806109786116e7565b90506109858185856116ee565b600191505092915050565b5f600254905090565b600660149054906101000a900462ffffff1681565b6109b88282611700565b505050565b5f806109c76116e7565b90506109d4858285611a23565b6109df858585611ab6565b60019150509392505050565b5f6012905090565b7f000000000000000000000000000000000000000000000000000000000000000081565b610a1f611ba6565b7fa9d547bad523b2016561d73c8b6f0de927b53e678d07b339173ea7b469ec896960075482604051610a5292919061325a565b60405180910390a18060078190555050565b620f424081565b5f805f8373ffffffffffffffffffffffffffffffffffffffff1673ffffffffffffffffffffffffffffffffffffffff1681526020019081526020015f20549050919050565b610ab8611ba6565b610ac15f611c2d565b565b60606009805480602002602001604051908101604052809291908181526020018280548015610b0f57602002820191905f5260205f20905b815481526020019060010190808311610afb575b5050505050905090565b5f60055f9054906101000a900473ffffffffffffffffffffffffffffffffffffffff16905090565b606060048054610b509061322a565b80601f0160208091040260200160405190810160405280929190818152602001828054610b7c9061322a565b8015610bc75780601f10610b9e57610100808354040283529160200191610bc7565b820191905f5260205f20905b815481529060010190602001808311610baa57829003601f168201915b5050505050905090565b600660179054906101000a900462ffffff1681565b610bee611ba6565b8260065f6101000a81548173ffffffffffffffffffffffffffffffffffffffff021916908373ffffffffffffffffffffffffffffffffffffffff16021790555081600660146101000a81548162ffffff021916908362ffffff16021790555080600660176101000a81548162ffffff021916908362ffffff160217905550505050565b5f80610c7b6116e7565b9050610c88818585611ab6565b600191505092915050565b60606008805480602002602001604051908101604052809291908181526020018280548015610d1457602002820191905f5260205f20905b815f9054906101000a900473ffffffffffffffffffffffffffffffffffffffff1673ffffffffffffffffffffffffffffffffffffffff1681526020019060010190808311610ccb575b5050505050905090565b5f610d27610c93565b90508051825114610d6d576040517f5c379223000000000000000000000000000000000000000000000000000000008152600401610d64906132b4565b60405180910390fd5b5f610d778461070d565b90505f805b8351811015610ee8575f838281518110610d9957610d98613191565b5b60200260200101511115610edb575f7f000000000000000000000000000000000000000000000000000000000000000073ffffffffffffffffffffffffffffffffffffffff1663f28c04986040518060a00160405280898681518110610e0257610e01613191565b5b602002602001015181526020013073ffffffffffffffffffffffffffffffffffffffff16815260200161012c42610e3991906132ff565b8152602001878681518110610e5157610e50613191565b5b602002602001015181526020018634610e6a9190613332565b8152506040518263ffffffff1660e01b8152600401610e89919061342a565b6020604051808303815f875af1158015610ea5573d5f803e3d5ffd5b505050506040513d601f19601f82011682018060405250810190610ec991906131d2565b90508083610ed791906132ff565b9250505b8080600101915050610d7c565b50610ef38686611cf0565b80341115610f1157610f10338234610f0b9190613332565b611d6f565b5b8573ffffffffffffffffffffffffffffffffffffffff163373ffffffffffffffffffffffffffffffffffffffff167fc7b075d3a24a5315814361a32925141db45c4820991098ee1bc36f1d29c166ac8784604051610f7092919061325a565b60405180910390a3505050505050565b5f610f8b8383611e13565b90505f5b60088054905081101561104e575f828281518110610fb057610faf613191565b5b60200260200101511115611041576110403330848481518110610fd657610fd5613191565b5b602002602001015160088581548110610ff257610ff1613191565b5b905f5260205f20015f9054906101000a900473ffffffffffffffffffffffffffffffffffffffff1673ffffffffffffffffffffffffffffffffffffffff16611f46909392919063ffffffff16565b5b8080600101915050610f8f565b50505050565b5f61105d610c93565b905080518351146110a3576040517f5c37922300000000000000000000000000000000000000000000000000000000815260040161109a906132b4565b60405180910390fd5b5f6110ad856113a8565b90505f6110ba3387611fc8565b5f5b8351811015611240575f8382815181106110d9576110d8613191565b5b602002602001015111156112335761110a8482815181106110fd576110fc613191565b5b6020026020010151612047565b5f7f000000000000000000000000000000000000000000000000000000000000000073ffffffffffffffffffffffffffffffffffffffff1663c04b8d596040518060a001604052808a868151811061116557611164613191565b5b602002602001015181526020013073ffffffffffffffffffffffffffffffffffffffff16815260200161012c4261119c91906132ff565b81526020018786815181106111b4576111b3613191565b5b602002602001015181526020015f8152506040518263ffffffff1660e01b81526004016111e191906134bd565b6020604051808303815f875af11580156111fd573d5f803e3d5ffd5b505050506040513d601f19601f8201168201806040525081019061122191906131d2565b9050808361122f91906132ff565b9250505b80806001019150506110bc565b5083811015611284576040517f08c379a000000000000000000000000000000000000000000000000000000000815260040161127b90613527565b60405180910390fd5b7f000000000000000000000000000000000000000000000000000000000000000073ffffffffffffffffffffffffffffffffffffffff16632e1a7d4d826040518263ffffffff1660e01b81526004016112dd9190612988565b5f604051808303815f87803b1580156112f4575f80fd5b505af1158015611306573d5f803e3d5ffd5b505050506113148782611d6f565b8673ffffffffffffffffffffffffffffffffffffffff163373ffffffffffffffffffffffffffffffffffffffff167f395e416eb6194073042e69b6dae3abab6b69cd217d17529d834ba58391c36337888460405161137392919061325a565b60405180910390a350505050505050565b7f000000000000000000000000000000000000000000000000000000000000000081565b60605f600660179054906101000a900462ffffff1662ffffff161115611410575f620f424062ffffff16600660179054906101000a900462ffffff1662ffffff16846113f49190613545565b6113fe91906135b3565b9050808361140c9190613332565b9250505b5f611419610990565b905060088054905067ffffffffffffffff81111561143a57611439612e5d565b5b6040519080825280602002602001820160405280156114685781602001602082028036833780820191505090505b5091505f5b600880549050811015611572575f6008828154811061148f5761148e613191565b5b905f5260205f20015f9054906101000a900473ffffffffffffffffffffffffffffffffffffffff1673ffffffffffffffffffffffffffffffffffffffff166370a08231306040518263ffffffff1660e01b81526004016114ef9190612957565b602060405180830381865afa15801561150a573d5f803e3d5ffd5b505050506040513d601f19601f8201168201806040525081019061152e91906131d2565b905061154585848361211a9092919063ffffffff16565b84838151811061155857611557613191565b5b60200260200101818152505050808060010191505061146d565b5050919050565b5f60015f8473ffffffffffffffffffffffffffffffffffffffff1673ffffffffffffffffffffffffffffffffffffffff1681526020019081526020015f205f8373ffffffffffffffffffffffffffffffffffffffff1673ffffffffffffffffffffffffffffffffffffffff1681526020019081526020015f2054905092915050565b611603611ba6565b5f73ffffffffffffffffffffffffffffffffffffffff168173ffffffffffffffffffffffffffffffffffffffff1603611673575f6040517f1e4fbdf700000000000000000000000000000000000000000000000000000000815260040161166a9190612957565b60405180910390fd5b61167c81611c2d565b50565b5f61168b84848461211a565b90505f828061169d5761169c613586565b5b84860911156116e0577fffffffffffffffffffffffffffffffffffffffffffffffffffffffffffffffff81106116d1575f80fd5b80806116dc906135e3565b9150505b9392505050565b5f33905090565b6116fb83838360016122b0565b505050565b60605f61170b610990565b905060088054905067ffffffffffffffff81111561172c5761172b612e5d565b5b60405190808252806020026020018201604052801561175a5781602001602082028036833780820191505090505b5091506117673384611fc8565b5f80600660179054906101000a900462ffffff1662ffffff1611156117e957620f424062ffffff16600660179054906101000a900462ffffff1662ffffff16856117b19190613545565b6117bb91906135b3565b90506117e860065f9054906101000a900473ffffffffffffffffffffffffffffffffffffffff1682611cf0565b5b5f81856117f69190613332565b90505f5b6008805490508110156119da575f6008828154811061181c5761181b613191565b5b905f5260205f20015f9054906101000a900473ffffffffffffffffffffffffffffffffffffffff1673ffffffffffffffffffffffffffffffffffffffff166370a08231306040518263ffffffff1660e01b815260040161187c9190612957565b602060405180830381865afa158015611897573d5f803e3d5ffd5b505050506040513d601f19601f820116820180604052508101906118bb91906131d2565b90506118d283868361211a9092919063ffffffff16565b8683815181106118e5576118e4613191565b5b6020026020010181815250503073ffffffffffffffffffffffffffffffffffffffff168873ffffffffffffffffffffffffffffffffffffffff161415801561194657505f86838151811061193c5761193b613191565b5b6020026020010151115b156119cc576119cb8887848151811061196257611961613191565b5b60200260200101516008858154811061197e5761197d613191565b5b905f5260205f20015f9054906101000a900473ffffffffffffffffffffffffffffffffffffffff1673ffffffffffffffffffffffffffffffffffffffff1661247f9092919063ffffffff16565b5b5080806001019150506117fa565b507f626f4593f8e12e62b00d18bb3073d2cbe173b9415cdb7b39ed0609569b66f5603387878588604051611a1295949392919061362a565b60405180910390a150505092915050565b5f611a2e8484611579565b90507fffffffffffffffffffffffffffffffffffffffffffffffffffffffffffffffff811015611ab05781811015611aa1578281836040517ffb8f41b2000000000000000000000000000000000000000000000000000000008152600401611a9893929190613682565b60405180910390fd5b611aaf84848484035f6122b0565b5b50505050565b5f73ffffffffffffffffffffffffffffffffffffffff168373ffffffffffffffffffffffffffffffffffffffff1603611b26575f6040517f96c6fd1e000000000000000000000000000000000000000000000000000000008152600401611b1d9190612957565b60405180910390fd5b5f73ffffffffffffffffffffffffffffffffffffffff168273ffffffffffffffffffffffffffffffffffffffff1603611b96575f6040517fec442f05000000000000000000000000000000000000000000000000000000008152600401611b8d9190612957565b60405180910390fd5b611ba18383836124fe565b505050565b611bae6116e7565b73ffffffffffffffffffffffffffffffffffffffff16611bcc610b19565b73ffffffffffffffffffffffffffffffffffffffff1614611c2b57611bef6116e7565b6040517f118cdaa7000000000000000000000000000000000000000000000000000000008152600401611c229190612957565b60405180910390fd5b565b5f60055f9054906101000a900473ffffffffffffffffffffffffffffffffffffffff1690508160055f6101000a81548173ffffffffffffffffffffffffffffffffffffffff021916908373ffffffffffffffffffffffffffffffffffffffff1602179055508173ffffffffffffffffffffffffffffffffffffffff168173ffffffffffffffffffffffffffffffffffffffff167f8be0079c531659141344cd1fd0a4f28419497f9722a3daafe3b4186f6b6457e060405160405180910390a35050565b5f73ffffffffffffffffffffffffffffffffffffffff168273ffffffffffffffffffffffffffffffffffffffff1603611d60575f6040517fec442f05000000000000000000000000000000000000000000000000000000008152600401611d579190612957565b60405180910390fd5b611d6b5f83836124fe565b5050565b5f8273ffffffffffffffffffffffffffffffffffffffff1682604051611d94906136e1565b5f6040518083038185875af1925050503d805f8114611dce576040519150601f19603f3d011682016040523d82523d5f602084013e611dd3565b606091505b5050905080611e0e576040517f067ecc5f00000000000000000000000000000000000000000000000000000000815260040160405180910390fd5b505050565b6060600754821015611e51576040517fdb49828e00000000000000000000000000000000000000000000000000000000815260040160405180910390fd5b611e5a8261070d565b90505f80600660149054906101000a900462ffffff1662ffffff161115611ef757620f424062ffffff16600660149054906101000a900462ffffff1662ffffff1684611ea69190613545565b611eb091906135b3565b9050611edd60065f9054906101000a900473ffffffffffffffffffffffffffffffffffffffff1682611cf0565b611ef2848285611eed9190613332565b611cf0565b611f02565b611f018484611cf0565b5b7fa7f6b1cb38ac5fbcae3bbaa808d1f2aaad5c8da1dd8f1d960088082f8401395384848385604051611f3794939291906136f5565b60405180910390a15092915050565b611fc2848573ffffffffffffffffffffffffffffffffffffffff166323b872dd868686604051602401611f7b9392919061373f565b604051602081830303815290604052915060e01b6020820180517bffffffffffffffffffffffffffffffffffffffffffffffffffffffff8381831617835250505050612717565b50505050565b5f73ffffffffffffffffffffffffffffffffffffffff168273ffffffffffffffffffffffffffffffffffffffff1603612038575f6040517f96c6fd1e00000000000000000000000000000000000000000000000000000000815260040161202f9190612957565b60405180910390fd5b612043825f836124fe565b5050565b5f8173ffffffffffffffffffffffffffffffffffffffff166370a08231306040518263ffffffff1660e01b81526004016120819190612957565b602060405180830381865afa15801561209c573d5f803e3d5ffd5b505050506040513d601f19601f820116820180604052508101906120c091906131d2565b90505f811115612116576121157f0000000000000000000000000000000000000000000000000000000000000000828473ffffffffffffffffffffffffffffffffffffffff166127b29092919063ffffffff16565b5b5050565b5f805f80198587098587029250828110838203039150505f810361214f575f8411612143575f80fd5b838204925050506122a9565b80841161215a575f80fd5b5f8486880990508281118203915080830392505f856001871961217d91906132ff565b16905080860495508084049350600181825f030401905080836121a09190613545565b841793505f60028760036121b49190613545565b18905080876121c39190613545565b60026121cf9190613332565b816121da9190613545565b905080876121e89190613545565b60026121f49190613332565b816121ff9190613545565b9050808761220d9190613545565b60026122199190613332565b816122249190613545565b905080876122329190613545565b600261223e9190613332565b816122499190613545565b905080876122579190613545565b60026122639190613332565b8161226e9190613545565b9050808761227c9190613545565b60026122889190613332565b816122939190613545565b905080856122a19190613545565b955050505050505b9392505050565b5f73ffffffffffffffffffffffffffffffffffffffff168473ffffffffffffffffffffffffffffffffffffffff1603612320575f6040517fe602df050000000000000000000000000000000000000000000000000000000081526004016123179190612957565b60405180910390fd5b5f73ffffffffffffffffffffffffffffffffffffffff168373ffffffffffffffffffffffffffffffffffffffff1603612390575f6040517f94280d620000000000000000000000000000000000000000000000000000000081526004016123879190612957565b60405180910390fd5b8160015f8673ffffffffffffffffffffffffffffffffffffffff1673ffffffffffffffffffffffffffffffffffffffff1681526020019081526020015f205f8573ffffffffffffffffffffffffffffffffffffffff1673ffffffffffffffffffffffffffffffffffffffff1681526020019081526020015f20819055508015612479578273ffffffffffffffffffffffffffffffffffffffff168473ffffffffffffffffffffffffffffffffffffffff167f8c5be1e5ebec7d5bd14f71427d1e84f3dd0314c0f7b2291e5b200ac8c7c3b925846040516124709190612988565b60405180910390a35b50505050565b6124f9838473ffffffffffffffffffffffffffffffffffffffff1663a9059cbb85856040516024016124b2929190613774565b604051602081830303815290604052915060e01b6020820180517bffffffffffffffffffffffffffffffffffffffffffffffffffffffff8381831617835250505050612717565b505050565b5f73ffffffffffffffffffffffffffffffffffffffff168373ffffffffffffffffffffffffffffffffffffffff160361254e578060025f82825461254291906132ff565b9250508190555061261c565b5f805f8573ffffffffffffffffffffffffffffffffffffffff1673ffffffffffffffffffffffffffffffffffffffff1681526020019081526020015f20549050818110156125d7578381836040517fe450d38c0000000000000000000000000000000000000000000000000000000081526004016125ce93929190613682565b60405180910390fd5b8181035f808673ffffffffffffffffffffffffffffffffffffffff1673ffffffffffffffffffffffffffffffffffffffff1681526020019081526020015f2081905550505b5f73ffffffffffffffffffffffffffffffffffffffff168273ffffffffffffffffffffffffffffffffffffffff1603612663578060025f82825403925050819055506126ad565b805f808473ffffffffffffffffffffffffffffffffffffffff1673ffffffffffffffffffffffffffffffffffffffff1681526020019081526020015f205f82825401925050819055505b8173ffffffffffffffffffffffffffffffffffffffff168373ffffffffffffffffffffffffffffffffffffffff167fddf252ad1be2c89b69c2b068fc378daa952ba7f163c4a11628f55a4df523b3ef8360405161270a9190612988565b60405180910390a3505050565b5f8060205f8451602086015f885af180612736576040513d5f823e3d81fd5b3d92505f519150505f821461274f57600181141561276a565b5f8473ffffffffffffffffffffffffffffffffffffffff163b145b156127ac57836040517f5274afe70000000000000000000000000000000000000000000000000000000081526004016127a39190612957565b60405180910390fd5b50505050565b5f8373ffffffffffffffffffffffffffffffffffffffff1663095ea7b384846040516024016127e2929190613774565b604051602081830303815290604052915060e01b6020820180517bffffffffffffffffffffffffffffffffffffffffffffffffffffffff8381831617835250505050905061283084826128bf565b6128b9576128ae848573ffffffffffffffffffffffffffffffffffffffff1663095ea7b3865f6040516024016128679291906137dd565b604051602081830303815290604052915060e01b6020820180517bffffffffffffffffffffffffffffffffffffffffffffffffffffffff8381831617835250505050612717565b6128b88482612717565b5b50505050565b5f805f8060205f8651602088015f8a5af192503d91505f51905082801561290d57505f82146128f1576001811461290c565b5f8673ffffffffffffffffffffffffffffffffffffffff163b115b5b935050505092915050565b5f73ffffffffffffffffffffffffffffffffffffffff82169050919050565b5f61294182612918565b9050919050565b61295181612937565b82525050565b5f60208201905061296a5f830184612948565b92915050565b5f819050919050565b61298281612970565b82525050565b5f60208201905061299b5f830184612979565b92915050565b5f604051905090565b5f80fd5b5f80fd5b6129bb81612970565b81146129c5575f80fd5b50565b5f813590506129d6816129b2565b92915050565b5f602082840312156129f1576129f06129aa565b5b5f6129fe848285016129c8565b91505092915050565b5f81519050919050565b5f82825260208201905092915050565b5f819050602082019050919050565b612a3981612970565b82525050565b5f612a4a8383612a30565b60208301905092915050565b5f602082019050919050565b5f612a6c82612a07565b612a768185612a11565b9350612a8183612a21565b805f5b83811015612ab1578151612a988882612a3f565b9750612aa383612a56565b925050600181019050612a84565b5085935050505092915050565b5f6020820190508181035f830152612ad68184612a62565b905092915050565b5f81519050919050565b5f82825260208201905092915050565b5f5b83811015612b15578082015181840152602081019050612afa565b5f8484015250505050565b5f601f19601f8301169050919050565b5f612b3a82612ade565b612b448185612ae8565b9350612b54818560208601612af8565b612b5d81612b20565b840191505092915050565b5f6020820190508181035f830152612b808184612b30565b905092915050565b612b9181612937565b8114612b9b575f80fd5b50565b5f81359050612bac81612b88565b92915050565b5f8060408385031215612bc857612bc76129aa565b5b5f612bd585828601612b9e565b9250506020612be6858286016129c8565b9150509250929050565b5f8115159050919050565b612c0481612bf0565b82525050565b5f602082019050612c1d5f830184612bfb565b92915050565b5f62ffffff82169050919050565b612c3a81612c23565b82525050565b5f602082019050612c535f830184612c31565b92915050565b5f805f60608486031215612c7057612c6f6129aa565b5b5f612c7d86828701612b9e565b9350506020612c8e86828701612b9e565b9250506040612c9f868287016129c8565b9150509250925092565b5f60ff82169050919050565b612cbe81612ca9565b82525050565b5f602082019050612cd75f830184612cb5565b92915050565b5f60208284031215612cf257612cf16129aa565b5b5f612cff84828501612b9e565b91505092915050565b612d1181612c23565b8114612d1b575f80fd5b50565b5f81359050612d2c81612d08565b92915050565b5f805f60608486031215612d4957612d486129aa565b5b5f612d5686828701612b9e565b9350506020612d6786828701612d1e565b9250506040612d7886828701612d1e565b9150509250925092565b5f81519050919050565b5f82825260208201905092915050565b5f819050602082019050919050565b612db481612937565b82525050565b5f612dc58383612dab565b60208301905092915050565b5f602082019050919050565b5f612de782612d82565b612df18185612d8c565b9350612dfc83612d9c565b805f5b83811015612e2c578151612e138882612dba565b9750612e1e83612dd1565b925050600181019050612dff565b5085935050505092915050565b5f6020820190508181035f830152612e518184612ddd565b905092915050565b5f80fd5b7f4e487b71000000000000000000000000000000000000000000000000000000005f52604160045260245ffd5b612e9382612b20565b810181811067ffffffffffffffff82111715612eb257612eb1612e5d565b5b80604052505050565b5f612ec46129a1565b9050612ed08282612e8a565b919050565b5f67ffffffffffffffff821115612eef57612eee612e5d565b5b602082029050602081019050919050565b5f80fd5b5f80fd5b5f67ffffffffffffffff821115612f2257612f21612e5d565b5b612f2b82612b20565b9050602081019050919050565b828183375f83830152505050565b5f612f58612f5384612f08565b612ebb565b905082815260208101848484011115612f7457612f73612f04565b5b612f7f848285612f38565b509392505050565b5f82601f830112612f9b57612f9a612e59565b5b8135612fab848260208601612f46565b91505092915050565b5f612fc6612fc184612ed5565b612ebb565b90508083825260208201905060208402830185811115612fe957612fe8612f00565b5b835b8181101561303057803567ffffffffffffffff81111561300e5761300d612e59565b5b80860161301b8982612f87565b85526020850194505050602081019050612feb565b5050509392505050565b5f82601f83011261304e5761304d612e59565b5b813561305e848260208601612fb4565b91505092915050565b5f805f6060848603121561307e5761307d6129aa565b5b5f61308b86828701612b9e565b935050602061309c868287016129c8565b925050604084013567ffffffffffffffff8111156130bd576130bc6129ae565b5b6130c98682870161303a565b9150509250925092565b5f805f80608085870312156130eb576130ea6129aa565b5b5f6130f887828801612b9e565b9450506020613109878288016129c8565b935050604085013567ffffffffffffffff81111561312a576131296129ae565b5b6131368782880161303a565b9250506060613147878288016129c8565b91505092959194509250565b5f8060408385031215613169576131686129aa565b5b5f61317685828601612b9e565b925050602061318785828601612b9e565b9150509250929050565b7f4e487b71000000000000000000000000000000000000000000000000000000005f52603260045260245ffd5b5f815190506131cc816129b2565b92915050565b5f602082840312156131e7576131e66129aa565b5b5f6131f4848285016131be565b91505092915050565b7f4e487b71000000000000000000000000000000000000000000000000000000005f52602260045260245ffd5b5f600282049050600182168061324157607f821691505b602082108103613254576132536131fd565b5b50919050565b5f60408201905061326d5f830185612979565b61327a6020830184612979565b9392505050565b5f82825260208201905092915050565b50565b5f61329f5f83613281565b91506132aa82613291565b5f82019050919050565b5f6020820190508181035f8301526132cb81613294565b9050919050565b7f4e487b71000000000000000000000000000000000000000000000000000000005f52601160045260245ffd5b5f61330982612970565b915061331483612970565b925082820190508082111561332c5761332b6132d2565b5b92915050565b5f61333c82612970565b915061334783612970565b925082820390508181111561335f5761335e6132d2565b5b92915050565b5f81519050919050565b5f82825260208201905092915050565b5f61338982613365565b613393818561336f565b93506133a3818560208601612af8565b6133ac81612b20565b840191505092915050565b5f60a083015f8301518482035f8601526133d1828261337f565b91505060208301516133e66020860182612dab565b5060408301516133f96040860182612a30565b50606083015161340c6060860182612a30565b50608083015161341f6080860182612a30565b508091505092915050565b5f6020820190508181035f83015261344281846133b7565b905092915050565b5f60a083015f8301518482035f860152613464828261337f565b91505060208301516134796020860182612dab565b50604083015161348c6040860182612a30565b50606083015161349f6060860182612a30565b5060808301516134b26080860182612a30565b508091505092915050565b5f6020820190508181035f8301526134d5818461344a565b905092915050565b7f496e73756666696369656e7420455448207265636569766564000000000000005f82015250565b5f613511601983612ae8565b915061351c826134dd565b602082019050919050565b5f6020820190508181035f83015261353e81613505565b9050919050565b5f61354f82612970565b915061355a83612970565b925082820261356881612970565b9150828204841483151761357f5761357e6132d2565b5b5092915050565b7f4e487b71000000000000000000000000000000000000000000000000000000005f52601260045260245ffd5b5f6135bd82612970565b91506135c883612970565b9250826135d8576135d7613586565b5b828204905092915050565b5f6135ed82612970565b91507fffffffffffffffffffffffffffffffffffffffffffffffffffffffffffffffff820361361f5761361e6132d2565b5b600182019050919050565b5f60a08201905061363d5f830188612948565b61364a6020830187612948565b6136576040830186612979565b6136646060830185612979565b81810360808301526136768184612a62565b90509695505050505050565b5f6060820190506136955f830186612948565b6136a26020830185612979565b6136af6040830184612979565b949350505050565b5f81905092915050565b5f6136cc5f836136b7565b91506136d782613291565b5f82019050919050565b5f6136eb826136c1565b9150819050919050565b5f6080820190506137085f830187612948565b6137156020830186612979565b6137226040830185612979565b81810360608301526137348184612a62565b905095945050505050565b5f6060820190506137525f830186612948565b61375f6020830185612948565b61376c6040830184612979565b949350505050565b5f6040820190506137875f830185612948565b6137946020830184612979565b9392505050565b5f819050919050565b5f819050919050565b5f6137c76137c26137bd8461379b565b6137a4565b612970565b9050919050565b6137d7816137ad565b82525050565b5f6040820190506137f05f830185612948565b6137fd60208301846137ce565b939250505056fea2646970667358221220556ef244e06d51549eb8d971944851cbeea6d461ba5373d88940f7b33df0e16964736f6c63430008180033","linkReferences":{}},"methodIdentifiers":{"HUNDRED_PERCENT()":"6ed93dd0","allowance(address,address)":"dd62ed3e","approve(address,uint256)":"095ea7b3","balanceOf(address)":"70a08231","decimals()":"313ce567","feeTo()":"017e7e58","getInitTokenAmountPerShares()":"8423f320","getInvestTokenAmounts(uint256)":"05def347","getRedeemTokenAmounts(uint256)":"ce7ddbef","getTokens()":"aa6ca808","invest(address,uint256)":"b9b8c246","investFee()":"1c1f3014","investWithETH(address,uint256,bytes[])":"b0acd84b","minMintAmount()":"01e9d757","name()":"06fdde03","owner()":"8da5cb5b","redeem(address,uint256)":"1e9a6950","redeemFee()":"965fa21e","redeemToETH(address,uint256,bytes[],uint256)":"c1f0e170","renounceOwnership()":"715018a6","setFee(address,uint24,uint24)":"a553618b","swapRouter()":"c31c9c07","symbol()":"95d89b41","totalSupply()":"18160ddd","transfer(address,uint256)":"a9059cbb","transferFrom(address,address,uint256)":"23b872dd","transferOwnership(address)":"f2fde38b","updateMinMintAmount(uint256)":"6dd84ac1","weth()":"3fc8cef3"},"id":71}