{"abi":[{"type":"constructor","inputs":[{"name":"name_","type":"string","internalType":"string"},{"name":"symbol_","type":"string","internalType":"string"},{"name":"decimals_","type":"uint8","internalType":"uint8"},{"name":"owner_","type":"address","internalType":"address"}],"stateMutability":"nonpayable"},{"type":"function","name":"addMinter","inputs":[{"name":"minter","type":"address","internalType":"address"}],"outputs":[],"stateMutability":"nonpayable"},{"type":"function","name":"allowance","inputs":[{"name":"owner","type":"address","internalType":"address"},{"name":"spender","type":"address","internalType":"address"}],"outputs":[{"name":"","type":"uint256","internalType":"uint256"}],"stateMutability":"view"},{"type":"function","name":"approve","inputs":[{"name":"spender","type":"address","internalType":"address"},{"name":"value","type":"uint256","internalType":"uint256"}],"outputs":[{"name":"","type":"bool","internalType":"bool"}],"stateMutability":"nonpayable"},{"type":"function","name":"balanceOf","inputs":[{"name":"account","type":"address","internalType":"address"}],"outputs":[{"name":"","type":"uint256","internalType":"uint256"}],"stateMutability":"view"},{"type":"function","name":"decimals","inputs":[],"outputs":[{"name":"","type":"uint8","internalType":"uint8"}],"stateMutability":"view"},{"type":"function","name":"mint","inputs":[{"name":"to","type":"address","internalType":"address"},{"name":"value","type":"uint256","internalType":"uint256"}],"outputs":[],"stateMutability":"nonpayable"},{"type":"function","name":"minters","inputs":[{"name":"","type":"address","internalType":"address"}],"outputs":[{"name":"","type":"bool","internalType":"bool"}],"stateMutability":"view"},{"type":"function","name":"name","inputs":[],"outputs":[{"name":"","type":"string","internalType":"string"}],"stateMutability":"view"},{"type":"function","name":"owner","inputs":[],"outputs":[{"name":"","type":"address","internalType":"address"}],"stateMutability":"view"},{"type":"function","name":"removeMinter","inputs":[{"name":"minter","type":"address","internalType":"address"}],"outputs":[],"stateMutability":"nonpayable"},{"type":"function","name":"renounceOwnership","inputs":[],"outputs":[],"stateMutability":"nonpayable"},{"type":"function","name":"symbol","inputs":[],"outputs":[{"name":"","type":"string","internalType":"string"}],"stateMutability":"view"},{"type":"function","name":"totalSupply","inputs":[],"outputs":[{"name":"","type":"uint256","internalType":"uint256"}],"stateMutability":"view"},{"type":"function","name":"transfer","inputs":[{"name":"to","type":"address","internalType":"address"},{"name":"value","type":"uint256","internalType":"uint256"}],"outputs":[{"name":"","type":"bool","internalType":"bool"}],"stateMutability":"nonpayable"},{"type":"function","name":"transferFrom","inputs":[{"name":"from","type":"address","internalType":"address"},{"name":"to","type":"address","internalType":"address"},{"name":"value","type":"uint256","internalType":"uint256"}],"outputs":[{"name":"","type":"bool","internalType":"bool"}],"stateMutability":"nonpayable"},{"type":"function","name":"transferOwnership","inputs":[{"name":"newOwner","type":"address","internalType":"address"}],"outputs":[],"stateMutability":"nonpayable"},{"type":"event","name":"Approval","inputs":[{"name":"owner","type":"address","indexed":true,"internalType":"address"},{"name":"spender","type":"address","indexed":true,"internalType":"address"},{"name":"value","type":"uint256","indexed":false,"internalType":"uint256"}],"anonymous":false},{"type":"event","name":"OwnershipTransferred","inputs":[{"name":"previousOwner","type":"address","indexed":true,"internalType":"address"},{"name":"newOwner","type":"address","indexed":true,"internalType":"address"}],"anonymous":false},{"type":"event","name":"Transfer","inputs":[{"name":"from","type":"address","indexed":true,"internalType":"address"},{"name":"to","type":"address","indexed":true,"internalType":"address"},{"name":"value","type":"uint256","indexed":false,"internalType":"uint256"}],"anonymous":false},{"type":"error","name":"ERC20InsufficientAllowance","inputs":[{"name":"spender","type":"address","internalType":"address"},{"name":"allowance","type":"uint256","internalType":"uint256"},{"name":"needed","type":"uint256","internalType":"uint256"}]},{"type":"error","name":"ERC20InsufficientBalance","inputs":[{"name":"sender","type":"address","internalType":"address"},{"name":"balance","type":"uint256","internalType":"uint256"},{"name":"needed","type":"uint256","internalType":"uint256"}]},{"type":"error","name":"ERC20InvalidApprover","inputs":[{"name":"approver","type":"address","internalType":"address"}]},{"type":"error","name":"ERC20InvalidReceiver","inputs":[{"name":"receiver","type":"address","internalType":"address"}]},{"type":"error","name":"ERC20InvalidSender","inputs":[{"name":"sender","type":"address","internalType":"address"}]},{"type":"error","name":"ERC20InvalidSpender","inputs":[{"name":"spender","type":"address","internalType":"address"}]},{"type":"error","name":"OwnableInvalidOwner","inputs":[{"name":"owner","type":"address","internalType":"address"}]},{"type":"error","name":"OwnableUnauthorizedAccount","inputs":[{"name":"account","type":"address","internalType":"address"}]}],"bytecode":{"object":"0x608060405234801562000010575f80fd5b5060405162001b9138038062001b918339818101604052810190620000369190620003ed565b80848481600390816200004a9190620006d1565b5080600490816200005c9190620006d1565b5050505f73ffffffffffffffffffffffffffffffffffffffff168173ffffffffffffffffffffffffffffffffffffffff1603620000d2575f6040517f1e4fbdf7000000000000000000000000000000000000000000000000000000008152600401620000c99190620007c6565b60405180910390fd5b620000e3816200010960201b60201c565b5081600560146101000a81548160ff021916908360ff16021790555050505050620007e1565b5f60055f9054906101000a900473ffffffffffffffffffffffffffffffffffffffff1690508160055f6101000a81548173ffffffffffffffffffffffffffffffffffffffff021916908373ffffffffffffffffffffffffffffffffffffffff1602179055508173ffffffffffffffffffffffffffffffffffffffff168173ffffffffffffffffffffffffffffffffffffffff167f8be0079c531659141344cd1fd0a4f28419497f9722a3daafe3b4186f6b6457e060405160405180910390a35050565b5f604051905090565b5f80fd5b5f80fd5b5f80fd5b5f80fd5b5f601f19601f8301169050919050565b7f4e487b71000000000000000000000000000000000000000000000000000000005f52604160045260245ffd5b6200022d82620001e5565b810181811067ffffffffffffffff821117156200024f576200024e620001f5565b5b80604052505050565b5f62000263620001cc565b905062000271828262000222565b919050565b5f67ffffffffffffffff821115620002935762000292620001f5565b5b6200029e82620001e5565b9050602081019050919050565b5f5b83811015620002ca578082015181840152602081019050620002ad565b5f8484015250505050565b5f620002eb620002e58462000276565b62000258565b9050828152602081018484840111156200030a5762000309620001e1565b5b62000317848285620002ab565b509392505050565b5f82601f830112620003365762000335620001dd565b5b815162000348848260208601620002d5565b91505092915050565b5f60ff82169050919050565b620003688162000351565b811462000373575f80fd5b50565b5f8151905062000386816200035d565b92915050565b5f73ffffffffffffffffffffffffffffffffffffffff82169050919050565b5f620003b7826200038c565b9050919050565b620003c981620003ab565b8114620003d4575f80fd5b50565b5f81519050620003e781620003be565b92915050565b5f805f8060808587031215620004085762000407620001d5565b5b5f85015167ffffffffffffffff811115620004285762000427620001d9565b5b62000436878288016200031f565b945050602085015167ffffffffffffffff8111156200045a5762000459620001d9565b5b62000468878288016200031f565b93505060406200047b8782880162000376565b92505060606200048e87828801620003d7565b91505092959194509250565b5f81519050919050565b7f4e487b71000000000000000000000000000000000000000000000000000000005f52602260045260245ffd5b5f6002820490506001821680620004e957607f821691505b602082108103620004ff57620004fe620004a4565b5b50919050565b5f819050815f5260205f209050919050565b5f6020601f8301049050919050565b5f82821b905092915050565b5f60088302620005637fffffffffffffffffffffffffffffffffffffffffffffffffffffffffffffffff8262000526565b6200056f868362000526565b95508019841693508086168417925050509392505050565b5f819050919050565b5f819050919050565b5f620005b9620005b3620005ad8462000587565b62000590565b62000587565b9050919050565b5f819050919050565b620005d48362000599565b620005ec620005e382620005c0565b84845462000532565b825550505050565b5f90565b62000602620005f4565b6200060f818484620005c9565b505050565b5b8181101562000636576200062a5f82620005f8565b60018101905062000615565b5050565b601f82111562000685576200064f8162000505565b6200065a8462000517565b810160208510156200066a578190505b62000682620006798562000517565b83018262000614565b50505b505050565b5f82821c905092915050565b5f620006a75f19846008026200068a565b1980831691505092915050565b5f620006c1838362000696565b9150826002028217905092915050565b620006dc826200049a565b67ffffffffffffffff811115620006f857620006f7620001f5565b5b620007048254620004d1565b620007118282856200063a565b5f60209050601f83116001811462000747575f841562000732578287015190505b6200073e8582620006b4565b865550620007ad565b601f198416620007578662000505565b5f5b82811015620007805784890151825560018201915060208501945060208101905062000759565b86831015620007a057848901516200079c601f89168262000696565b8355505b6001600288020188555050505b505050505050565b620007c081620003ab565b82525050565b5f602082019050620007db5f830184620007b5565b92915050565b6113a280620007ef5f395ff3fe608060405234801561000f575f80fd5b50600436106100fe575f3560e01c8063715018a611610095578063a9059cbb11610064578063a9059cbb14610286578063dd62ed3e146102b6578063f2fde38b146102e6578063f46eccc414610302576100fe565b8063715018a6146102245780638da5cb5b1461022e57806395d89b411461024c578063983b2d561461026a576100fe565b80633092afd5116100d15780633092afd51461019e578063313ce567146101ba57806340c10f19146101d857806370a08231146101f4576100fe565b806306fdde0314610102578063095ea7b31461012057806318160ddd1461015057806323b872dd1461016e575b5f80fd5b61010a610332565b6040516101179190610fb3565b60405180910390f35b61013a60048036038101906101359190611064565b6103c2565b60405161014791906110bc565b60405180910390f35b6101586103e4565b60405161016591906110e4565b60405180910390f35b610188600480360381019061018391906110fd565b6103ed565b60405161019591906110bc565b60405180910390f35b6101b860048036038101906101b3919061114d565b61041b565b005b6101c261047a565b6040516101cf9190611193565b60405180910390f35b6101f260048036038101906101ed9190611064565b610490565b005b61020e6004803603810190610209919061114d565b610527565b60405161021b91906110e4565b60405180910390f35b61022c61056c565b005b61023661057f565b60405161024391906111bb565b60405180910390f35b6102546105a7565b6040516102619190610fb3565b60405180910390f35b610284600480360381019061027f919061114d565b610637565b005b6102a0600480360381019061029b9190611064565b610697565b6040516102ad91906110bc565b60405180910390f35b6102d060048036038101906102cb91906111d4565b6106b9565b6040516102dd91906110e4565b60405180910390f35b61030060048036038101906102fb919061114d565b61073b565b005b61031c6004803603810190610317919061114d565b6107bf565b60405161032991906110bc565b60405180910390f35b6060600380546103419061123f565b80601f016020809104026020016040519081016040528092919081815260200182805461036d9061123f565b80156103b85780601f1061038f576101008083540402835291602001916103b8565b820191905f5260205f20905b81548152906001019060200180831161039b57829003601f168201915b5050505050905090565b5f806103cc6107dc565b90506103d98185856107e3565b600191505092915050565b5f600254905090565b5f806103f76107dc565b90506104048582856107f5565b61040f858585610888565b60019150509392505050565b610423610978565b5f60065f8373ffffffffffffffffffffffffffffffffffffffff1673ffffffffffffffffffffffffffffffffffffffff1681526020019081526020015f205f6101000a81548160ff02191690831515021790555050565b5f600560149054906101000a900460ff16905090565b60065f3373ffffffffffffffffffffffffffffffffffffffff1673ffffffffffffffffffffffffffffffffffffffff1681526020019081526020015f205f9054906101000a900460ff16610519576040517f08c379a0000000000000000000000000000000000000000000000000000000008152600401610510906112b9565b60405180910390fd5b61052382826109ff565b5050565b5f805f8373ffffffffffffffffffffffffffffffffffffffff1673ffffffffffffffffffffffffffffffffffffffff1681526020019081526020015f20549050919050565b610574610978565b61057d5f610a7e565b565b5f60055f9054906101000a900473ffffffffffffffffffffffffffffffffffffffff16905090565b6060600480546105b69061123f565b80601f01602080910402602001604051908101604052809291908181526020018280546105e29061123f565b801561062d5780601f106106045761010080835404028352916020019161062d565b820191905f5260205f20905b81548152906001019060200180831161061057829003601f168201915b5050505050905090565b61063f610978565b600160065f8373ffffffffffffffffffffffffffffffffffffffff1673ffffffffffffffffffffffffffffffffffffffff1681526020019081526020015f205f6101000a81548160ff02191690831515021790555050565b5f806106a16107dc565b90506106ae818585610888565b600191505092915050565b5f60015f8473ffffffffffffffffffffffffffffffffffffffff1673ffffffffffffffffffffffffffffffffffffffff1681526020019081526020015f205f8373ffffffffffffffffffffffffffffffffffffffff1673ffffffffffffffffffffffffffffffffffffffff1681526020019081526020015f2054905092915050565b610743610978565b5f73ffffffffffffffffffffffffffffffffffffffff168173ffffffffffffffffffffffffffffffffffffffff16036107b3575f6040517f1e4fbdf70000000000000000000000000000000000000000000000000000000081526004016107aa91906111bb565b60405180910390fd5b6107bc81610a7e565b50565b6006602052805f5260405f205f915054906101000a900460ff1681565b5f33905090565b6107f08383836001610b41565b505050565b5f61080084846106b9565b90507fffffffffffffffffffffffffffffffffffffffffffffffffffffffffffffffff8110156108825781811015610873578281836040517ffb8f41b200000000000000000000000000000000000000000000000000000000815260040161086a939291906112d7565b60405180910390fd5b61088184848484035f610b41565b5b50505050565b5f73ffffffffffffffffffffffffffffffffffffffff168373ffffffffffffffffffffffffffffffffffffffff16036108f8575f6040517f96c6fd1e0000000000000000000000000000000000000000000000000000000081526004016108ef91906111bb565b60405180910390fd5b5f73ffffffffffffffffffffffffffffffffffffffff168273ffffffffffffffffffffffffffffffffffffffff1603610968575f6040517fec442f0500000000000000000000000000000000000000000000000000000000815260040161095f91906111bb565b60405180910390fd5b610973838383610d10565b505050565b6109806107dc565b73ffffffffffffffffffffffffffffffffffffffff1661099e61057f565b73ffffffffffffffffffffffffffffffffffffffff16146109fd576109c16107dc565b6040517f118cdaa70000000000000000000000000000000000000000000000000000000081526004016109f491906111bb565b60405180910390fd5b565b5f73ffffffffffffffffffffffffffffffffffffffff168273ffffffffffffffffffffffffffffffffffffffff1603610a6f575f6040517fec442f05000000000000000000000000000000000000000000000000000000008152600401610a6691906111bb565b60405180910390fd5b610a7a5f8383610d10565b5050565b5f60055f9054906101000a900473ffffffffffffffffffffffffffffffffffffffff1690508160055f6101000a81548173ffffffffffffffffffffffffffffffffffffffff021916908373ffffffffffffffffffffffffffffffffffffffff1602179055508173ffffffffffffffffffffffffffffffffffffffff168173ffffffffffffffffffffffffffffffffffffffff167f8be0079c531659141344cd1fd0a4f28419497f9722a3daafe3b4186f6b6457e060405160405180910390a35050565b5f73ffffffffffffffffffffffffffffffffffffffff168473ffffffffffffffffffffffffffffffffffffffff1603610bb1575f6040517fe602df05000000000000000000000000000000000000000000000000000000008152600401610ba891906111bb565b60405180910390fd5b5f73ffffffffffffffffffffffffffffffffffffffff168373ffffffffffffffffffffffffffffffffffffffff1603610c21575f6040517f94280d62000000000000000000000000000000000000000000000000000000008152600401610c1891906111bb565b60405180910390fd5b8160015f8673ffffffffffffffffffffffffffffffffffffffff1673ffffffffffffffffffffffffffffffffffffffff1681526020019081526020015f205f8573ffffffffffffffffffffffffffffffffffffffff1673ffffffffffffffffffffffffffffffffffffffff1681526020019081526020015f20819055508015610d0a578273ffffffffffffffffffffffffffffffffffffffff168473ffffffffffffffffffffffffffffffffffffffff167f8c5be1e5ebec7d5bd14f71427d1e84f3dd0314c0f7b2291e5b200ac8c7c3b92584604051610d0191906110e4565b60405180910390a35b50505050565b5f73ffffffffffffffffffffffffffffffffffffffff168373ffffffffffffffffffffffffffffffffffffffff1603610d60578060025f828254610d549190611339565b92505081905550610e2e565b5f805f8573ffffffffffffffffffffffffffffffffffffffff1673ffffffffffffffffffffffffffffffffffffffff1681526020019081526020015f2054905081811015610de9578381836040517fe450d38c000000000000000000000000000000000000000000000000000000008152600401610de0939291906112d7565b60405180910390fd5b8181035f808673ffffffffffffffffffffffffffffffffffffffff1673ffffffffffffffffffffffffffffffffffffffff1681526020019081526020015f2081905550505b5f73ffffffffffffffffffffffffffffffffffffffff168273ffffffffffffffffffffffffffffffffffffffff1603610e75578060025f8282540392505081905550610ebf565b805f808473ffffffffffffffffffffffffffffffffffffffff1673ffffffffffffffffffffffffffffffffffffffff1681526020019081526020015f205f82825401925050819055505b8173ffffffffffffffffffffffffffffffffffffffff168373ffffffffffffffffffffffffffffffffffffffff167fddf252ad1be2c89b69c2b068fc378daa952ba7f163c4a11628f55a4df523b3ef83604051610f1c91906110e4565b60405180910390a3505050565b5f81519050919050565b5f82825260208201905092915050565b5f5b83811015610f60578082015181840152602081019050610f45565b5f8484015250505050565b5f601f19601f8301169050919050565b5f610f8582610f29565b610f8f8185610f33565b9350610f9f818560208601610f43565b610fa881610f6b565b840191505092915050565b5f6020820190508181035f830152610fcb8184610f7b565b905092915050565b5f80fd5b5f73ffffffffffffffffffffffffffffffffffffffff82169050919050565b5f61100082610fd7565b9050919050565b61101081610ff6565b811461101a575f80fd5b50565b5f8135905061102b81611007565b92915050565b5f819050919050565b61104381611031565b811461104d575f80fd5b50565b5f8135905061105e8161103a565b92915050565b5f806040838503121561107a57611079610fd3565b5b5f6110878582860161101d565b925050602061109885828601611050565b9150509250929050565b5f8115159050919050565b6110b6816110a2565b82525050565b5f6020820190506110cf5f8301846110ad565b92915050565b6110de81611031565b82525050565b5f6020820190506110f75f8301846110d5565b92915050565b5f805f6060848603121561111457611113610fd3565b5b5f6111218682870161101d565b93505060206111328682870161101d565b925050604061114386828701611050565b9150509250925092565b5f6020828403121561116257611161610fd3565b5b5f61116f8482850161101d565b91505092915050565b5f60ff82169050919050565b61118d81611178565b82525050565b5f6020820190506111a65f830184611184565b92915050565b6111b581610ff6565b82525050565b5f6020820190506111ce5f8301846111ac565b92915050565b5f80604083850312156111ea576111e9610fd3565b5b5f6111f78582860161101d565b92505060206112088582860161101d565b9150509250929050565b7f4e487b71000000000000000000000000000000000000000000000000000000005f52602260045260245ffd5b5f600282049050600182168061125657607f821691505b60208210810361126957611268611212565b5b50919050565b7f4e6f74206d696e746572000000000000000000000000000000000000000000005f82015250565b5f6112a3600a83610f33565b91506112ae8261126f565b602082019050919050565b5f6020820190508181035f8301526112d081611297565b9050919050565b5f6060820190506112ea5f8301866111ac565b6112f760208301856110d5565b61130460408301846110d5565b949350505050565b7f4e487b71000000000000000000000000000000000000000000000000000000005f52601160045260245ffd5b5f61134382611031565b915061134e83611031565b92508282019050808211156113665761136561130c565b5b9291505056fea2646970667358221220fbd4af1105d9fbfec23a0cfcfb126339d4084457c6d91e6934939a44e0b9306a64736f6c63430008180033","linkReferences":{}},"methodIdentifiers":{"addMinter(address)":"983b2d56","allowance(address,address)":"dd62ed3e","approve(address,uint256)":"095ea7b3","balanceOf(address)":"70a08231","decimals()":"313ce567","mint(address,uint256)":"40c10f19","minters(address)":"f46eccc4","name()":"06fdde03","owner()":"8da5cb5b","removeMinter(address)":"3092afd5","renounceOwnership()":"715018a6","symbol()":"95d89b41","totalSupply()":"18160ddd","transfer(address,uint256)":"a9059cbb","transferFrom(address,address,uint256)":"23b872dd","transferOwnership(address)":"f2fde38b"},"id":81}