{"abi":[{"type":"constructor","inputs":[{"name":"defaultAdmin","type":"address","internalType":"address"},{"name":"minter","type":"address","internalType":"address"}],"stateMutability":"nonpayable"},{"type":"function","name":"CLOCK_MODE","inputs":[],"outputs":[{"name":"","type":"string","internalType":"string"}],"stateMutability":"pure"},{"type":"function","name":"DEFAULT_ADMIN_ROLE","inputs":[],"outputs":[{"name":"","type":"bytes32","internalType":"bytes32"}],"stateMutability":"view"},{"type":"function","name":"DOMAIN_SEPARATOR","inputs":[],"outputs":[{"name":"","type":"bytes32","internalType":"bytes32"}],"stateMutability":"view"},{"type":"function","name":"INIT_TOTAL_SUPPLY","inputs":[],"outputs":[{"name":"","type":"uint256","internalType":"uint256"}],"stateMutability":"view"},{"type":"function","name":"MINTER_ROLE","inputs":[],"outputs":[{"name":"","type":"bytes32","internalType":"bytes32"}],"stateMutability":"view"},{"type":"function","name":"allowance","inputs":[{"name":"owner","type":"address","internalType":"address"},{"name":"spender","type":"address","internalType":"address"}],"outputs":[{"name":"","type":"uint256","internalType":"uint256"}],"stateMutability":"view"},{"type":"function","name":"approve","inputs":[{"name":"spender","type":"address","internalType":"address"},{"name":"value","type":"uint256","internalType":"uint256"}],"outputs":[{"name":"","type":"bool","internalType":"bool"}],"stateMutability":"nonpayable"},{"type":"function","name":"balanceOf","inputs":[{"name":"account","type":"address","internalType":"address"}],"outputs":[{"name":"","type":"uint256","internalType":"uint256"}],"stateMutability":"view"},{"type":"function","name":"burn","inputs":[{"name":"value","type":"uint256","internalType":"uint256"}],"outputs":[],"stateMutability":"nonpayable"},{"type":"function","name":"burnFrom","inputs":[{"name":"account","type":"address","internalType":"address"},{"name":"value","type":"uint256","internalType":"uint256"}],"outputs":[],"stateMutability":"nonpayable"},{"type":"function","name":"checkpoints","inputs":[{"name":"account","type":"address","internalType":"address"},{"name":"pos","type":"uint32","internalType":"uint32"}],"outputs":[{"name":"","type":"tuple","internalType":"struct Checkpoints.Checkpoint208","components":[{"name":"_key","type":"uint48","internalType":"uint48"},{"name":"_value","type":"uint208","internalType":"uint208"}]}],"stateMutability":"view"},{"type":"function","name":"clock","inputs":[],"outputs":[{"name":"","type":"uint48","internalType":"uint48"}],"stateMutability":"view"},{"type":"function","name":"decimals","inputs":[],"outputs":[{"name":"","type":"uint8","internalType":"uint8"}],"stateMutability":"view"},{"type":"function","name":"delegate","inputs":[{"name":"delegatee","type":"address","internalType":"address"}],"outputs":[],"stateMutability":"nonpayable"},{"type":"function","name":"delegateBySig","inputs":[{"name":"delegatee","type":"address","internalType":"address"},{"name":"nonce","type":"uint256","internalType":"uint256"},{"name":"expiry","type":"uint256","internalType":"uint256"},{"name":"v","type":"uint8","internalType":"uint8"},{"name":"r","type":"bytes32","internalType":"bytes32"},{"name":"s","type":"bytes32","internalType":"bytes32"}],"outputs":[],"stateMutability":"nonpayable"},{"type":"function","name":"delegates","inputs":[{"name":"account","type":"address","internalType":"address"}],"outputs":[{"name":"","type":"address","internalType":"address"}],"stateMutability":"view"},{"type":"function","name":"eip712Domain","inputs":[],"outputs":[{"name":"fields","type":"bytes1","internalType":"bytes1"},{"name":"name","type":"string","internalType":"string"},{"name":"version","type":"string","internalType":"string"},{"name":"chainId","type":"uint256","internalType":"uint256"},{"name":"verifyingContract","type":"address","internalType":"address"},{"name":"salt","type":"bytes32","internalType":"bytes32"},{"name":"extensions","type":"uint256[]","internalType":"uint256[]"}],"stateMutability":"view"},{"type":"function","name":"getPastTotalSupply","inputs":[{"name":"timepoint","type":"uint256","internalType":"uint256"}],"outputs":[{"name":"","type":"uint256","internalType":"uint256"}],"stateMutability":"view"},{"type":"function","name":"getPastVotes","inputs":[{"name":"account","type":"address","internalType":"address"},{"name":"timepoint","type":"uint256","internalType":"uint256"}],"outputs":[{"name":"","type":"uint256","internalType":"uint256"}],"stateMutability":"view"},{"type":"function","name":"getRoleAdmin","inputs":[{"name":"role","type":"bytes32","internalType":"bytes32"}],"outputs":[{"name":"","type":"bytes32","internalType":"bytes32"}],"stateMutability":"view"},{"type":"function","name":"getVotes","inputs":[{"name":"account","type":"address","internalType":"address"}],"outputs":[{"name":"","type":"uint256","internalType":"uint256"}],"stateMutability":"view"},{"type":"function","name":"grantRole","inputs":[{"name":"role","type":"bytes32","internalType":"bytes32"},{"name":"account","type":"address","internalType":"address"}],"outputs":[],"stateMutability":"nonpayable"},{"type":"function","name":"hasRole","inputs":[{"name":"role","type":"bytes32","internalType":"bytes32"},{"name":"account","type":"address","internalType":"address"}],"outputs":[{"name":"","type":"bool","internalType":"bool"}],"stateMutability":"view"},{"type":"function","name":"mint","inputs":[{"name":"to","type":"address","internalType":"address"},{"name":"amount","type":"uint256","internalType":"uint256"}],"outputs":[],"stateMutability":"nonpayable"},{"type":"function","name":"name","inputs":[],"outputs":[{"name":"","type":"string","internalType":"string"}],"stateMutability":"view"},{"type":"function","name":"nonces","inputs":[{"name":"owner","type":"address","internalType":"address"}],"outputs":[{"name":"","type":"uint256","internalType":"uint256"}],"stateMutability":"view"},{"type":"function","name":"numCheckpoints","inputs":[{"name":"account","type":"address","internalType":"address"}],"outputs":[{"name":"","type":"uint32","internalType":"uint32"}],"stateMutability":"view"},{"type":"function","name":"permit","inputs":[{"name":"owner","type":"address","internalType":"address"},{"name":"spender","type":"address","internalType":"address"},{"name":"value","type":"uint256","internalType":"uint256"},{"name":"deadline","type":"uint256","internalType":"uint256"},{"name":"v","type":"uint8","internalType":"uint8"},{"name":"r","type":"bytes32","internalType":"bytes32"},{"name":"s","type":"bytes32","internalType":"bytes32"}],"outputs":[],"stateMutability":"nonpayable"},{"type":"function","name":"renounceRole","inputs":[{"name":"role","type":"bytes32","internalType":"bytes32"},{"name":"callerConfirmation","type":"address","internalType":"address"}],"outputs":[],"stateMutability":"nonpayable"},{"type":"function","name":"revokeRole","inputs":[{"name":"role","type":"bytes32","internalType":"bytes32"},{"name":"account","type":"address","internalType":"address"}],"outputs":[],"stateMutability":"nonpayable"},{"type":"function","name":"supportsInterface","inputs":[{"name":"interfaceId","type":"bytes4","internalType":"bytes4"}],"outputs":[{"name":"","type":"bool","internalType":"bool"}],"stateMutability":"view"},{"type":"function","name":"symbol","inputs":[],"outputs":[{"name":"","type":"string","internalType":"string"}],"stateMutability":"view"},{"type":"function","name":"totalSupply","inputs":[],"outputs":[{"name":"","type":"uint256","internalType":"uint256"}],"stateMutability":"view"},{"type":"function","name":"transfer","inputs":[{"name":"to","type":"address","internalType":"address"},{"name":"value","type":"uint256","internalType":"uint256"}],"outputs":[{"name":"","type":"bool","internalType":"bool"}],"stateMutability":"nonpayable"},{"type":"function","name":"transferFrom","inputs":[{"name":"from","type":"address","internalType":"address"},{"name":"to","type":"address","internalType":"address"},{"name":"value","type":"uint256","internalType":"uint256"}],"outputs":[{"name":"","type":"bool","internalType":"bool"}],"stateMutability":"nonpayable"},{"type":"event","name":"Approval","inputs":[{"name":"owner","type":"address","indexed":true,"internalType":"address"},{"name":"spender","type":"address","indexed":true,"internalType":"address"},{"name":"value","type":"uint256","indexed":false,"internalType":"uint256"}],"anonymous":false},{"type":"event","name":"DelegateChanged","inputs":[{"name":"delegator","type":"address","indexed":true,"internalType":"address"},{"name":"fromDelegate","type":"address","indexed":true,"internalType":"address"},{"name":"toDelegate","type":"address","indexed":true,"internalType":"address"}],"anonymous":false},{"type":"event","name":"DelegateVotesChanged","inputs":[{"name":"delegate","type":"address","indexed":true,"internalType":"address"},{"name":"previousVotes","type":"uint256","indexed":false,"internalType":"uint256"},{"name":"newVotes","type":"uint256","indexed":false,"internalType":"uint256"}],"anonymous":false},{"type":"event","name":"EIP712DomainChanged","inputs":[],"anonymous":false},{"type":"event","name":"RoleAdminChanged","inputs":[{"name":"role","type":"bytes32","indexed":true,"internalType":"bytes32"},{"name":"previousAdminRole","type":"bytes32","indexed":true,"internalType":"bytes32"},{"name":"newAdminRole","type":"bytes32","indexed":true,"internalType":"bytes32"}],"anonymous":false},{"type":"event","name":"RoleGranted","inputs":[{"name":"role","type":"bytes32","indexed":true,"internalType":"bytes32"},{"name":"account","type":"address","indexed":true,"internalType":"address"},{"name":"sender","type":"address","indexed":true,"internalType":"address"}],"anonymous":false},{"type":"event","name":"RoleRevoked","inputs":[{"name":"role","type":"bytes32","indexed":true,"internalType":"bytes32"},{"name":"account","type":"address","indexed":true,"internalType":"address"},{"name":"sender","type":"address","indexed":true,"internalType":"address"}],"anonymous":false},{"type":"event","name":"Transfer","inputs":[{"name":"from","type":"address","indexed":true,"internalType":"address"},{"name":"to","type":"address","indexed":true,"internalType":"address"},{"name":"value","type":"uint256","indexed":false,"internalType":"uint256"}],"anonymous":false},{"type":"error","name":"AccessControlBadConfirmation","inputs":[]},{"type":"error","name":"AccessControlUnauthorizedAccount","inputs":[{"name":"account","type":"address","internalType":"address"},{"name":"neededRole","type":"bytes32","internalType":"bytes32"}]},{"type":"error","name":"CheckpointUnorderedInsertion","inputs":[]},{"type":"error","name":"ECDSAInvalidSignature","inputs":[]},{"type":"error","name":"ECDSAInvalidSignatureLength","inputs":[{"name":"length","type":"uint256","internalType":"uint256"}]},{"type":"error","name":"ECDSAInvalidSignatureS","inputs":[{"name":"s","type":"bytes32","internalType":"bytes32"}]},{"type":"error","name":"ERC20ExceededSafeSupply","inputs":[{"name":"increasedSupply","type":"uint256","internalType":"uint256"},{"name":"cap","type":"uint256","internalType":"uint256"}]},{"type":"error","name":"ERC20InsufficientAllowance","inputs":[{"name":"spender","type":"address","internalType":"address"},{"name":"allowance","type":"uint256","internalType":"uint256"},{"name":"needed","type":"uint256","internalType":"uint256"}]},{"type":"error","name":"ERC20InsufficientBalance","inputs":[{"name":"sender","type":"address","internalType":"address"},{"name":"balance","type":"uint256","internalType":"uint256"},{"name":"needed","type":"uint256","internalType":"uint256"}]},{"type":"error","name":"ERC20InvalidApprover","inputs":[{"name":"approver","type":"address","internalType":"address"}]},{"type":"error","name":"ERC20InvalidReceiver","inputs":[{"name":"receiver","type":"address","internalType":"address"}]},{"type":"error","name":"ERC20InvalidSender","inputs":[{"name":"sender","type":"address","internalType":"address"}]},{"type":"error","name":"ERC20InvalidSpender","inputs":[{"name":"spender","type":"address","internalType":"address"}]},{"type":"error","name":"ERC2612ExpiredSignature","inputs":[{"name":"deadline","type":"uint256","internalType":"uint256"}]},{"type":"error","name":"ERC2612InvalidSigner","inputs":[{"name":"signer","type":"address","internalType":"address"},{"name":"owner","type":"address","internalType":"address"}]},{"type":"error","name":"ERC5805FutureLookup","inputs":[{"name":"timepoint","type":"uint256","internalType":"uint256"},{"name":"clock","type":"uint48","internalType":"uint48"}]},{"type":"error","name":"ERC6372InconsistentClock","inputs":[]},{"type":"error","name":"InvalidAccountNonce","inputs":[{"name":"account","type":"address","internalType":"address"},{"name":"currentNonce","type":"uint256","internalType":"uint256"}]},{"type":"error","name":"InvalidShortString","inputs":[]},{"type":"error","name":"SafeCastOverflowedUintDowncast","inputs":[{"name":"bits","type":"uint8","internalType":"uint8"},{"name":"value","type":"uint256","internalType":"uint256"}]},{"type":"error","name":"StringTooLong","inputs":[{"name":"str","type":"string","internalType":"string"}]},{"type":"error","name":"VotesExpiredSignature","inputs":[{"name":"expiry","type":"uint256","internalType":"uint256"}]}],"bytecode":{"object":"0x61016060405234801562000011575f80fd5b50604051620058ff380380620058ff8339818101604052810190620000379190620011b4565b6040518060400160405280601781526020017f426c6f636b4554462050726f746f636f6c20546f6b656e000000000000000000815250806040518060400160405280600181526020017f31000000000000000000000000000000000000000000000000000000000000008152506040518060400160405280601781526020017f426c6f636b4554462050726f746f636f6c20546f6b656e0000000000000000008152506040518060400160405280600381526020017f455054000000000000000000000000000000000000000000000000000000000081525081600390816200012191906200145d565b5080600490816200013391906200145d565b5050506200014c6006836200025360201b90919060201c565b61012081815250506200016a6007826200025360201b90919060201c565b6101408181525050818051906020012060e08181525050808051906020012061010081815250504660a08181525050620001a9620002a860201b60201c565b608081815250503073ffffffffffffffffffffffffffffffffffffffff1660c08173ffffffffffffffffffffffffffffffffffffffff1681525050505050620002033369d3c21bcecceda10000006200030460201b60201c565b620002175f801b836200038e60201b60201c565b506200024a7f9f2df0fed2c77648de5860a4cc508cd0818c85b8b8a1ab4ceeef8d981c8956a6826200038e60201b60201c565b505050620019a4565b5f602083511015620002785762000270836200048a60201b60201c565b9050620002a2565b826200028a83620004f460201b60201c565b5f0190816200029a91906200145d565b5060ff5f1b90505b92915050565b5f7f8b73c3c69bb8fe3d512ecc4cf759cc79239f7b179b0ffacaa9a75d522b39400f60e051610100514630604051602001620002e99594939291906200157d565b60405160208183030381529060405280519060200120905090565b5f73ffffffffffffffffffffffffffffffffffffffff168273ffffffffffffffffffffffffffffffffffffffff160362000377575f6040517fec442f050000000000000000000000000000000000000000000000000000000081526004016200036e9190620015d8565b60405180910390fd5b6200038a5f8383620004fd60201b60201c565b5050565b5f620003a183836200051560201b60201c565b6200048057600160055f8581526020019081526020015f205f015f8473ffffffffffffffffffffffffffffffffffffffff1673ffffffffffffffffffffffffffffffffffffffff1681526020019081526020015f205f6101000a81548160ff0219169083151502179055506200041c6200057960201b60201c565b73ffffffffffffffffffffffffffffffffffffffff168273ffffffffffffffffffffffffffffffffffffffff16847f2f8788117e7eff1d82e926ec794901d17c78024a50270940304540a733656f0d60405160405180910390a46001905062000484565b5f90505b92915050565b5f80829050601f81511115620004d957826040517f305a27a9000000000000000000000000000000000000000000000000000000008152600401620004d091906200167d565b60405180910390fd5b805181620004e790620016ce565b5f1c175f1b915050919050565b5f819050919050565b620005108383836200058060201b60201c565b505050565b5f60055f8481526020019081526020015f205f015f8373ffffffffffffffffffffffffffffffffffffffff1673ffffffffffffffffffffffffffffffffffffffff1681526020019081526020015f205f9054906101000a900460ff16905092915050565b5f33905090565b620005938383836200065260201b60201c565b5f73ffffffffffffffffffffffffffffffffffffffff168373ffffffffffffffffffffffffffffffffffffffff16036200063a575f620005d86200087660201b60201c565b90505f620005eb6200087f60201b60201c565b905080821115620006375781816040517f1cb15d260000000000000000000000000000000000000000000000000000000081526004016200062e9291906200173d565b60405180910390fd5b50505b6200064d838383620008a260201b60201c565b505050565b5f73ffffffffffffffffffffffffffffffffffffffff168373ffffffffffffffffffffffffffffffffffffffff1603620006a6578060025f82825462000699919062001795565b9250508190555062000777565b5f805f8573ffffffffffffffffffffffffffffffffffffffff1673ffffffffffffffffffffffffffffffffffffffff1681526020019081526020015f205490508181101562000732578381836040517fe450d38c0000000000000000000000000000000000000000000000000000000081526004016200072993929190620017cf565b60405180910390fd5b8181035f808673ffffffffffffffffffffffffffffffffffffffff1673ffffffffffffffffffffffffffffffffffffffff1681526020019081526020015f2081905550505b5f73ffffffffffffffffffffffffffffffffffffffff168273ffffffffffffffffffffffffffffffffffffffff1603620007c0578060025f82825403925050819055506200080a565b805f808473ffffffffffffffffffffffffffffffffffffffff1673ffffffffffffffffffffffffffffffffffffffff1681526020019081526020015f205f82825401925050819055505b8173ffffffffffffffffffffffffffffffffffffffff168373ffffffffffffffffffffffffffffffffffffffff167fddf252ad1be2c89b69c2b068fc378daa952ba7f163c4a11628f55a4df523b3ef836040516200086991906200180a565b60405180910390a3505050565b5f600254905090565b5f79ffffffffffffffffffffffffffffffffffffffffffffffffffff8016905090565b5f73ffffffffffffffffffffffffffffffffffffffff168373ffffffffffffffffffffffffffffffffffffffff1603620009085762000905600b620009a660201b620010d717620008f984620009bd60201b60201c565b62000a2d60201b60201c565b50505b5f73ffffffffffffffffffffffffffffffffffffffff168273ffffffffffffffffffffffffffffffffffffffff16036200096e576200096b600b62000a7c60201b620010ec176200095f84620009bd60201b60201c565b62000a2d60201b60201c565b50505b620009a1620009838462000a9360201b60201c565b620009948462000a9360201b60201c565b8362000af860201b60201c565b505050565b5f8183620009b591906200184a565b905092915050565b5f79ffffffffffffffffffffffffffffffffffffffffffffffffffff801682111562000a255760d0826040517f6dfcc65000000000000000000000000000000000000000000000000000000000815260040162000a1c929190620018eb565b60405180910390fd5b819050919050565b5f8062000a7062000a4362000da260201b60201c565b62000a5f62000a588862000da960201b60201c565b868860201c565b8762000e1760201b9092919060201c565b91509150935093915050565b5f818362000a8b919062001916565b905092915050565b5f60095f8373ffffffffffffffffffffffffffffffffffffffff1673ffffffffffffffffffffffffffffffffffffffff1681526020019081526020015f205f9054906101000a900473ffffffffffffffffffffffffffffffffffffffff169050919050565b8173ffffffffffffffffffffffffffffffffffffffff168373ffffffffffffffffffffffffffffffffffffffff161415801562000b3457505f81115b1562000d9d575f73ffffffffffffffffffffffffffffffffffffffff168373ffffffffffffffffffffffffffffffffffffffff161462000c6b575f8062000bda600a5f8773ffffffffffffffffffffffffffffffffffffffff1673ffffffffffffffffffffffffffffffffffffffff1681526020019081526020015f2062000a7c60201b620010ec1762000bce86620009bd60201b60201c565b62000a2d60201b60201c565b79ffffffffffffffffffffffffffffffffffffffffffffffffffff16915079ffffffffffffffffffffffffffffffffffffffffffffffffffff1691508473ffffffffffffffffffffffffffffffffffffffff167fdec2bacdd2f05b59de34da9b523dff8be42e5e38e818c82fdb0bae774387a724838360405162000c609291906200173d565b60405180910390a250505b5f73ffffffffffffffffffffffffffffffffffffffff168273ffffffffffffffffffffffffffffffffffffffff161462000d9c575f8062000d0b600a5f8673ffffffffffffffffffffffffffffffffffffffff1673ffffffffffffffffffffffffffffffffffffffff1681526020019081526020015f20620009a660201b620010d71762000cff86620009bd60201b60201c565b62000a2d60201b60201c565b79ffffffffffffffffffffffffffffffffffffffffffffffffffff16915079ffffffffffffffffffffffffffffffffffffffffffffffffffff1691508373ffffffffffffffffffffffffffffffffffffffff167fdec2bacdd2f05b59de34da9b523dff8be42e5e38e818c82fdb0bae774387a724838360405162000d919291906200173d565b60405180910390a250505b5b505050565b5f42905090565b5f80825f018054905090505f811462000e0d5762000dde835f0160018362000dd291906200196a565b62000e3a60201b60201c565b5f0160069054906101000a900479ffffffffffffffffffffffffffffffffffffffffffffffffffff1662000e0f565b5f5b915050919050565b5f8062000e2e855f01858562000e4c60201b60201c565b91509150935093915050565b5f825f528160205f2001905092915050565b5f805f858054905090505f81111562001067575f62000e808760018462000e7491906200196a565b62000e3a60201b60201c565b90505f815f015f9054906101000a900465ffffffffffff1690505f825f0160069054906101000a900479ffffffffffffffffffffffffffffffffffffffffffffffffffff1690508765ffffffffffff168265ffffffffffff16111562000f12576040517f2520601d00000000000000000000000000000000000000000000000000000000815260040160405180910390fd5b8765ffffffffffff168265ffffffffffff160362000f7e5786835f0160066101000a81548179ffffffffffffffffffffffffffffffffffffffffffffffffffff021916908379ffffffffffffffffffffffffffffffffffffffffffffffffffff16021790555062001057565b8860405180604001604052808a65ffffffffffff1681526020018979ffffffffffffffffffffffffffffffffffffffffffffffffffff16815250908060018154018082558091505060019003905f5260205f20015f909190919091505f820151815f015f6101000a81548165ffffffffffff021916908365ffffffffffff1602179055506020820151815f0160066101000a81548179ffffffffffffffffffffffffffffffffffffffffffffffffffff021916908379ffffffffffffffffffffffffffffffffffffffffffffffffffff16021790555050505b8087955095505050505062001147565b8560405180604001604052808765ffffffffffff1681526020018679ffffffffffffffffffffffffffffffffffffffffffffffffffff16815250908060018154018082558091505060019003905f5260205f20015f909190919091505f820151815f015f6101000a81548165ffffffffffff021916908365ffffffffffff1602179055506020820151815f0160066101000a81548179ffffffffffffffffffffffffffffffffffffffffffffffffffff021916908379ffffffffffffffffffffffffffffffffffffffffffffffffffff16021790555050505f8492509250505b935093915050565b5f80fd5b5f73ffffffffffffffffffffffffffffffffffffffff82169050919050565b5f6200117e8262001153565b9050919050565b620011908162001172565b81146200119b575f80fd5b50565b5f81519050620011ae8162001185565b92915050565b5f8060408385031215620011cd57620011cc6200114f565b5b5f620011dc858286016200119e565b9250506020620011ef858286016200119e565b9150509250929050565b5f81519050919050565b7f4e487b71000000000000000000000000000000000000000000000000000000005f52604160045260245ffd5b7f4e487b71000000000000000000000000000000000000000000000000000000005f52602260045260245ffd5b5f60028204905060018216806200127557607f821691505b6020821081036200128b576200128a62001230565b5b50919050565b5f819050815f5260205f209050919050565b5f6020601f8301049050919050565b5f82821b905092915050565b5f60088302620012ef7fffffffffffffffffffffffffffffffffffffffffffffffffffffffffffffffff82620012b2565b620012fb8683620012b2565b95508019841693508086168417925050509392505050565b5f819050919050565b5f819050919050565b5f620013456200133f620013398462001313565b6200131c565b62001313565b9050919050565b5f819050919050565b620013608362001325565b620013786200136f826200134c565b848454620012be565b825550505050565b5f90565b6200138e62001380565b6200139b81848462001355565b505050565b5b81811015620013c257620013b65f8262001384565b600181019050620013a1565b5050565b601f8211156200141157620013db8162001291565b620013e684620012a3565b81016020851015620013f6578190505b6200140e6200140585620012a3565b830182620013a0565b50505b505050565b5f82821c905092915050565b5f620014335f198460080262001416565b1980831691505092915050565b5f6200144d838362001422565b9150826002028217905092915050565b6200146882620011f9565b67ffffffffffffffff81111562001484576200148362001203565b5b6200149082546200125d565b6200149d828285620013c6565b5f60209050601f831160018114620014d3575f8415620014be578287015190505b620014ca858262001440565b86555062001539565b601f198416620014e38662001291565b5f5b828110156200150c57848901518255600182019150602085019450602081019050620014e5565b868310156200152c578489015162001528601f89168262001422565b8355505b6001600288020188555050505b505050505050565b5f819050919050565b620015558162001541565b82525050565b620015668162001313565b82525050565b620015778162001172565b82525050565b5f60a082019050620015925f8301886200154a565b620015a160208301876200154a565b620015b060408301866200154a565b620015bf60608301856200155b565b620015ce60808301846200156c565b9695505050505050565b5f602082019050620015ed5f8301846200156c565b92915050565b5f82825260208201905092915050565b5f5b838110156200162257808201518184015260208101905062001605565b5f8484015250505050565b5f601f19601f8301169050919050565b5f6200164982620011f9565b620016558185620015f3565b93506200166781856020860162001603565b62001672816200162d565b840191505092915050565b5f6020820190508181035f8301526200169781846200163d565b905092915050565b5f81519050919050565b5f819050602082019050919050565b5f620016c5825162001541565b80915050919050565b5f620016da826200169f565b82620016e684620016a9565b9050620016f381620016b8565b925060208210156200173657620017317fffffffffffffffffffffffffffffffffffffffffffffffffffffffffffffffff83602003600802620012b2565b831692505b5050919050565b5f604082019050620017525f8301856200155b565b6200176160208301846200155b565b9392505050565b7f4e487b71000000000000000000000000000000000000000000000000000000005f52601160045260245ffd5b5f620017a18262001313565b9150620017ae8362001313565b9250828201905080821115620017c957620017c862001768565b5b92915050565b5f606082019050620017e45f8301866200156c565b620017f360208301856200155b565b6200180260408301846200155b565b949350505050565b5f6020820190506200181f5f8301846200155b565b92915050565b5f79ffffffffffffffffffffffffffffffffffffffffffffffffffff82169050919050565b5f620018568262001825565b9150620018638362001825565b9250828201905079ffffffffffffffffffffffffffffffffffffffffffffffffffff81111562001898576200189762001768565b5b92915050565b5f819050919050565b5f60ff82169050919050565b5f620018d3620018cd620018c7846200189e565b6200131c565b620018a7565b9050919050565b620018e581620018b3565b82525050565b5f604082019050620019005f830185620018da565b6200190f60208301846200155b565b9392505050565b5f620019228262001825565b91506200192f8362001825565b9250828203905079ffffffffffffffffffffffffffffffffffffffffffffffffffff81111562001964576200196362001768565b5b92915050565b5f620019768262001313565b9150620019838362001313565b92508282039050818111156200199e576200199d62001768565b5b92915050565b60805160a05160c05160e051610100516101205161014051613f09620019f65f395f6119b401525f61197901525f611e0d01525f611dec01525f61140701525f61145d01525f6114860152613f095ff3fe608060405234801561000f575f80fd5b506004361061020f575f3560e01c80636fcfff45116101235780639ab24eb0116100ab578063d505accf1161007a578063d505accf14610679578063d539139314610695578063d547741f146106b3578063dd62ed3e146106cf578063f1127ed8146106ff5761020f565b80639ab24eb0146105df578063a217fddf1461060f578063a9059cbb1461062d578063c3cda5201461065d5761020f565b806384b0196e116100f257806384b0196e1461051f5780638e539e8c1461054357806391d148541461057357806391ddadf4146105a357806395d89b41146105c15761020f565b80636fcfff451461047357806370a08231146104a357806379cc6790146104d35780637ecebe00146104ef5761020f565b80633644e515116101a657806342966c681161017557806342966c68146103cf5780634bf5d7e9146103eb578063587cde1e146104095780635c19a95c146104395780636fa43658146104555761020f565b80633644e5151461034957806336568abe146103675780633a46b1a81461038357806340c10f19146103b35761020f565b806323b872dd116101e257806323b872dd146102af578063248a9ca3146102df5780632f2ff15d1461030f578063313ce5671461032b5761020f565b806301ffc9a71461021357806306fdde0314610243578063095ea7b31461026157806318160ddd14610291575b5f80fd5b61022d600480360381019061022891906130eb565b61072f565b60405161023a9190613130565b60405180910390f35b61024b6107a8565b60405161025891906131d3565b60405180910390f35b61027b60048036038101906102769190613280565b610838565b6040516102889190613130565b60405180910390f35b61029961085a565b6040516102a691906132cd565b60405180910390f35b6102c960048036038101906102c491906132e6565b610863565b6040516102d69190613130565b60405180910390f35b6102f960048036038101906102f49190613369565b610891565b60405161030691906133a3565b60405180910390f35b610329600480360381019061032491906133bc565b6108ae565b005b6103336108d0565b6040516103409190613415565b60405180910390f35b6103516108d8565b60405161035e91906133a3565b60405180910390f35b610381600480360381019061037c91906133bc565b6108e6565b005b61039d60048036038101906103989190613280565b610961565b6040516103aa91906132cd565b60405180910390f35b6103cd60048036038101906103c89190613280565b6109dd565b005b6103e960048036038101906103e4919061342e565b610a16565b005b6103f3610a2a565b60405161040091906131d3565b60405180910390f35b610423600480360381019061041e9190613459565b610a67565b6040516104309190613493565b60405180910390f35b610453600480360381019061044e9190613459565b610acc565b005b61045d610ae5565b60405161046a91906132cd565b60405180910390f35b61048d60048036038101906104889190613459565b610af3565b60405161049a91906134ca565b60405180910390f35b6104bd60048036038101906104b89190613459565b610b04565b6040516104ca91906132cd565b60405180910390f35b6104ed60048036038101906104e89190613280565b610b49565b005b61050960048036038101906105049190613459565b610b69565b60405161051691906132cd565b60405180910390f35b610527610b7a565b60405161053a97969594939291906135d4565b60405180910390f35b61055d6004803603810190610558919061342e565b610c1f565b60405161056a91906132cd565b60405180910390f35b61058d600480360381019061058891906133bc565b610c5f565b60405161059a9190613130565b60405180910390f35b6105ab610cc3565b6040516105b89190613676565b60405180910390f35b6105c9610cca565b6040516105d691906131d3565b60405180910390f35b6105f960048036038101906105f49190613459565b610d5a565b60405161060691906132cd565b60405180910390f35b610617610dc3565b60405161062491906133a3565b60405180910390f35b61064760048036038101906106429190613280565b610dc9565b6040516106549190613130565b60405180910390f35b610677600480360381019061067291906136b9565b610deb565b005b610693600480360381019061068e9190613742565b610eb0565b005b61069d610ff5565b6040516106aa91906133a3565b60405180910390f35b6106cd60048036038101906106c891906133bc565b611019565b005b6106e960048036038101906106e491906137df565b61103b565b6040516106f691906132cd565b60405180910390f35b61071960048036038101906107149190613847565b6110bd565b60405161072691906138f5565b60405180910390f35b5f7f7965db0b000000000000000000000000000000000000000000000000000000007bffffffffffffffffffffffffffffffffffffffffffffffffffffffff1916827bffffffffffffffffffffffffffffffffffffffffffffffffffffffff191614806107a157506107a082611101565b5b9050919050565b6060600380546107b79061393b565b80601f01602080910402602001604051908101604052809291908181526020018280546107e39061393b565b801561082e5780601f106108055761010080835404028352916020019161082e565b820191905f5260205f20905b81548152906001019060200180831161081157829003601f168201915b5050505050905090565b5f8061084261116a565b905061084f818585611171565b600191505092915050565b5f600254905090565b5f8061086d61116a565b905061087a858285611183565b610885858585611216565b60019150509392505050565b5f60055f8381526020019081526020015f20600101549050919050565b6108b782610891565b6108c081611306565b6108ca838361131a565b50505050565b5f6012905090565b5f6108e1611404565b905090565b6108ee61116a565b73ffffffffffffffffffffffffffffffffffffffff168173ffffffffffffffffffffffffffffffffffffffff1614610952576040517f6697b23200000000000000000000000000000000000000000000000000000000815260040160405180910390fd5b61095c82826114ba565b505050565b5f6109b961096e836115a4565b600a5f8673ffffffffffffffffffffffffffffffffffffffff1673ffffffffffffffffffffffffffffffffffffffff1681526020019081526020015f2061160f90919063ffffffff16565b79ffffffffffffffffffffffffffffffffffffffffffffffffffff16905092915050565b7f9f2df0fed2c77648de5860a4cc508cd0818c85b8b8a1ab4ceeef8d981c8956a6610a0781611306565b610a1183836116fc565b505050565b610a27610a2161116a565b8261177b565b50565b60606040518060400160405280600e81526020017f6d6f64653d74696d657374616d70000000000000000000000000000000000000815250905090565b5f60095f8373ffffffffffffffffffffffffffffffffffffffff1673ffffffffffffffffffffffffffffffffffffffff1681526020019081526020015f205f9054906101000a900473ffffffffffffffffffffffffffffffffffffffff169050919050565b5f610ad561116a565b9050610ae181836117fa565b5050565b69d3c21bcecceda100000081565b5f610afd8261190a565b9050919050565b5f805f8373ffffffffffffffffffffffffffffffffffffffff1673ffffffffffffffffffffffffffffffffffffffff1681526020019081526020015f20549050919050565b610b5b82610b5561116a565b83611183565b610b65828261177b565b5050565b5f610b738261195f565b9050919050565b5f6060805f805f6060610b8b611970565b610b936119ab565b46305f801b5f67ffffffffffffffff811115610bb257610bb161396b565b5b604051908082528060200260200182016040528015610be05781602001602082028036833780820191505090505b507f0f00000000000000000000000000000000000000000000000000000000000000959493929190965096509650965096509650965090919293949596565b5f610c3c610c2c836115a4565b600b61160f90919063ffffffff16565b79ffffffffffffffffffffffffffffffffffffffffffffffffffff169050919050565b5f60055f8481526020019081526020015f205f015f8373ffffffffffffffffffffffffffffffffffffffff1673ffffffffffffffffffffffffffffffffffffffff1681526020019081526020015f205f9054906101000a900460ff16905092915050565b5f42905090565b606060048054610cd99061393b565b80601f0160208091040260200160405190810160405280929190818152602001828054610d059061393b565b8015610d505780601f10610d2757610100808354040283529160200191610d50565b820191905f5260205f20905b815481529060010190602001808311610d3357829003601f168201915b5050505050905090565b5f610da0600a5f8473ffffffffffffffffffffffffffffffffffffffff1673ffffffffffffffffffffffffffffffffffffffff1681526020019081526020015f206119e6565b79ffffffffffffffffffffffffffffffffffffffffffffffffffff169050919050565b5f801b81565b5f80610dd361116a565b9050610de0818585611216565b600191505092915050565b83421115610e3057836040517f4683af0e000000000000000000000000000000000000000000000000000000008152600401610e2791906132cd565b60405180910390fd5b5f610e91610e897fe48329057bfd03d55e49b547132e39cffd9c1820ad7b9d4c5307691425d15adf898989604051602001610e6e9493929190613998565b60405160208183030381529060405280519060200120611a48565b858585611a61565b9050610e9d8187611a8f565b610ea781886117fa565b50505050505050565b83421115610ef557836040517f62791302000000000000000000000000000000000000000000000000000000008152600401610eec91906132cd565b60405180910390fd5b5f7f6e71edae12b1b97f4d1f60370fef10105fa2faae0126114a169c64845d6126c9888888610f238c611ae6565b89604051602001610f39969594939291906139db565b6040516020818303038152906040528051906020012090505f610f5b82611a48565b90505f610f6a82878787611a61565b90508973ffffffffffffffffffffffffffffffffffffffff168173ffffffffffffffffffffffffffffffffffffffff1614610fde57808a6040517f4b800e46000000000000000000000000000000000000000000000000000000008152600401610fd5929190613a3a565b60405180910390fd5b610fe98a8a8a611171565b50505050505050505050565b7f9f2df0fed2c77648de5860a4cc508cd0818c85b8b8a1ab4ceeef8d981c8956a681565b61102282610891565b61102b81611306565b61103583836114ba565b50505050565b5f60015f8473ffffffffffffffffffffffffffffffffffffffff1673ffffffffffffffffffffffffffffffffffffffff1681526020019081526020015f205f8373ffffffffffffffffffffffffffffffffffffffff1673ffffffffffffffffffffffffffffffffffffffff1681526020019081526020015f2054905092915050565b6110c5613056565b6110cf8383611b39565b905092915050565b5f81836110e49190613a8e565b905092915050565b5f81836110f99190613adb565b905092915050565b5f7f01ffc9a7000000000000000000000000000000000000000000000000000000007bffffffffffffffffffffffffffffffffffffffffffffffffffffffff1916827bffffffffffffffffffffffffffffffffffffffffffffffffffffffff1916149050919050565b5f33905090565b61117e8383836001611b98565b505050565b5f61118e848461103b565b90507fffffffffffffffffffffffffffffffffffffffffffffffffffffffffffffffff8110156112105781811015611201578281836040517ffb8f41b20000000000000000000000000000000000000000000000000000000081526004016111f893929190613b28565b60405180910390fd5b61120f84848484035f611b98565b5b50505050565b5f73ffffffffffffffffffffffffffffffffffffffff168373ffffffffffffffffffffffffffffffffffffffff1603611286575f6040517f96c6fd1e00000000000000000000000000000000000000000000000000000000815260040161127d9190613493565b60405180910390fd5b5f73ffffffffffffffffffffffffffffffffffffffff168273ffffffffffffffffffffffffffffffffffffffff16036112f6575f6040517fec442f050000000000000000000000000000000000000000000000000000000081526004016112ed9190613493565b60405180910390fd5b611301838383611d67565b505050565b6113178161131261116a565b611d77565b50565b5f6113258383610c5f565b6113fa57600160055f8581526020019081526020015f205f015f8473ffffffffffffffffffffffffffffffffffffffff1673ffffffffffffffffffffffffffffffffffffffff1681526020019081526020015f205f6101000a81548160ff02191690831515021790555061139761116a565b73ffffffffffffffffffffffffffffffffffffffff168273ffffffffffffffffffffffffffffffffffffffff16847f2f8788117e7eff1d82e926ec794901d17c78024a50270940304540a733656f0d60405160405180910390a4600190506113fe565b5f90505b92915050565b5f7f000000000000000000000000000000000000000000000000000000000000000073ffffffffffffffffffffffffffffffffffffffff163073ffffffffffffffffffffffffffffffffffffffff1614801561147f57507f000000000000000000000000000000000000000000000000000000000000000046145b156114ac577f000000000000000000000000000000000000000000000000000000000000000090506114b7565b6114b4611dc8565b90505b90565b5f6114c58383610c5f565b1561159a575f60055f8581526020019081526020015f205f015f8473ffffffffffffffffffffffffffffffffffffffff1673ffffffffffffffffffffffffffffffffffffffff1681526020019081526020015f205f6101000a81548160ff02191690831515021790555061153761116a565b73ffffffffffffffffffffffffffffffffffffffff168273ffffffffffffffffffffffffffffffffffffffff16847ff6391f5c32d9c69d2a47ea670b442974b53935d1edc7fd64eb21e047a839171b60405160405180910390a46001905061159e565b5f90505b92915050565b5f806115ae610cc3565b90508065ffffffffffff1683106115fe5782816040517fecd3f81e0000000000000000000000000000000000000000000000000000000081526004016115f5929190613b5d565b60405180910390fd5b61160783611e5d565b915050919050565b5f80835f018054905090505f808290506005831115611690575f61163284611eb6565b8461163d9190613b84565b905061164b875f0182612050565b5f015f9054906101000a900465ffffffffffff1665ffffffffffff168665ffffffffffff16101561167e5780915061168e565b60018161168b9190613bb7565b92505b505b5f61169f875f01878585612062565b90505f81146116ee576116c0875f016001836116bb9190613b84565b612050565b5f0160069054906101000a900479ffffffffffffffffffffffffffffffffffffffffffffffffffff166116f0565b5f5b94505050505092915050565b5f73ffffffffffffffffffffffffffffffffffffffff168273ffffffffffffffffffffffffffffffffffffffff160361176c575f6040517fec442f050000000000000000000000000000000000000000000000000000000081526004016117639190613493565b60405180910390fd5b6117775f8383611d67565b5050565b5f73ffffffffffffffffffffffffffffffffffffffff168273ffffffffffffffffffffffffffffffffffffffff16036117eb575f6040517f96c6fd1e0000000000000000000000000000000000000000000000000000000081526004016117e29190613493565b60405180910390fd5b6117f6825f83611d67565b5050565b5f61180483610a67565b90508160095f8573ffffffffffffffffffffffffffffffffffffffff1673ffffffffffffffffffffffffffffffffffffffff1681526020019081526020015f205f6101000a81548173ffffffffffffffffffffffffffffffffffffffff021916908373ffffffffffffffffffffffffffffffffffffffff1602179055508173ffffffffffffffffffffffffffffffffffffffff168173ffffffffffffffffffffffffffffffffffffffff168473ffffffffffffffffffffffffffffffffffffffff167f3134e8a2e6d97e929a7e54011ea5485d7d196dd5f0ba4d4ef95803e8e3fc257f60405160405180910390a46119058183611900866120d7565b6120e8565b505050565b5f611958611953600a5f8573ffffffffffffffffffffffffffffffffffffffff1673ffffffffffffffffffffffffffffffffffffffff1681526020019081526020015f20612358565b612367565b9050919050565b5f611969826123be565b9050919050565b60606119a660067f000000000000000000000000000000000000000000000000000000000000000061240490919063ffffffff16565b905090565b60606119e160077f000000000000000000000000000000000000000000000000000000000000000061240490919063ffffffff16565b905090565b5f80825f018054905090505f8114611a3e57611a10835f01600183611a0b9190613b84565b612050565b5f0160069054906101000a900479ffffffffffffffffffffffffffffffffffffffffffffffffffff16611a40565b5f5b915050919050565b5f611a5a611a54611404565b836124b1565b9050919050565b5f805f80611a71888888886124f1565b925092509250611a8182826125d8565b829350505050949350505050565b5f611a9983611ae6565b9050808214611ae15782816040517f752d88c0000000000000000000000000000000000000000000000000000000008152600401611ad8929190613bea565b60405180910390fd5b505050565b5f60085f8373ffffffffffffffffffffffffffffffffffffffff1673ffffffffffffffffffffffffffffffffffffffff1681526020019081526020015f205f815480929190600101919050559050919050565b611b41613056565b611b9082600a5f8673ffffffffffffffffffffffffffffffffffffffff1673ffffffffffffffffffffffffffffffffffffffff1681526020019081526020015f2061273a90919063ffffffff16565b905092915050565b5f73ffffffffffffffffffffffffffffffffffffffff168473ffffffffffffffffffffffffffffffffffffffff1603611c08575f6040517fe602df05000000000000000000000000000000000000000000000000000000008152600401611bff9190613493565b60405180910390fd5b5f73ffffffffffffffffffffffffffffffffffffffff168373ffffffffffffffffffffffffffffffffffffffff1603611c78575f6040517f94280d62000000000000000000000000000000000000000000000000000000008152600401611c6f9190613493565b60405180910390fd5b8160015f8673ffffffffffffffffffffffffffffffffffffffff1673ffffffffffffffffffffffffffffffffffffffff1681526020019081526020015f205f8573ffffffffffffffffffffffffffffffffffffffff1673ffffffffffffffffffffffffffffffffffffffff1681526020019081526020015f20819055508015611d61578273ffffffffffffffffffffffffffffffffffffffff168473ffffffffffffffffffffffffffffffffffffffff167f8c5be1e5ebec7d5bd14f71427d1e84f3dd0314c0f7b2291e5b200ac8c7c3b92584604051611d5891906132cd565b60405180910390a35b50505050565b611d72838383612809565b505050565b611d818282610c5f565b611dc45780826040517fe2517d3f000000000000000000000000000000000000000000000000000000008152600401611dbb929190613c11565b60405180910390fd5b5050565b5f7f8b73c3c69bb8fe3d512ecc4cf759cc79239f7b179b0ffacaa9a75d522b39400f7f00000000000000000000000000000000000000000000000000000000000000007f00000000000000000000000000000000000000000000000000000000000000004630604051602001611e42959493929190613c38565b60405160208183030381529060405280519060200120905090565b5f65ffffffffffff8016821115611eae576030826040517f6dfcc650000000000000000000000000000000000000000000000000000000008152600401611ea5929190613ccb565b60405180910390fd5b819050919050565b5f60018211611ec75781905061204b565b5f8290505f600190507001000000000000000000000000000000008210611ef757608082901c9150604081901b90505b680100000000000000008210611f1657604082901c9150602081901b90505b6401000000008210611f3157602082901c9150601081901b90505b620100008210611f4a57601082901c9150600881901b90505b6101008210611f6257600882901c9150600481901b90505b60108210611f7957600482901c9150600281901b90505b60048210611f8957600181901b90505b600181600302901c90506001818581611fa557611fa4613cf2565b5b048201901c90506001818581611fbe57611fbd613cf2565b5b048201901c90506001818581611fd757611fd6613cf2565b5b048201901c90506001818581611ff057611fef613cf2565b5b048201901c9050600181858161200957612008613cf2565b5b048201901c9050600181858161202257612021613cf2565b5b048201901c905061204481858161203c5761203b613cf2565b5b0482116128b7565b8103925050505b919050565b5f825f528160205f2001905092915050565b5f5b818310156120cc575f61207784846128c2565b90508465ffffffffffff1661208c8783612050565b5f015f9054906101000a900465ffffffffffff1665ffffffffffff1611156120b6578092506120c6565b6001816120c39190613bb7565b93505b50612064565b819050949350505050565b5f6120e182610b04565b9050919050565b8173ffffffffffffffffffffffffffffffffffffffff168373ffffffffffffffffffffffffffffffffffffffff161415801561212357505f81115b15612353575f73ffffffffffffffffffffffffffffffffffffffff168373ffffffffffffffffffffffffffffffffffffffff161461223d575f806121ae600a5f8773ffffffffffffffffffffffffffffffffffffffff1673ffffffffffffffffffffffffffffffffffffffff1681526020019081526020015f206110ec6121a9866128e7565b612954565b79ffffffffffffffffffffffffffffffffffffffffffffffffffff16915079ffffffffffffffffffffffffffffffffffffffffffffffffffff1691508473ffffffffffffffffffffffffffffffffffffffff167fdec2bacdd2f05b59de34da9b523dff8be42e5e38e818c82fdb0bae774387a7248383604051612232929190613d1f565b60405180910390a250505b5f73ffffffffffffffffffffffffffffffffffffffff168273ffffffffffffffffffffffffffffffffffffffff1614612352575f806122c3600a5f8673ffffffffffffffffffffffffffffffffffffffff1673ffffffffffffffffffffffffffffffffffffffff1681526020019081526020015f206110d76122be866128e7565b612954565b79ffffffffffffffffffffffffffffffffffffffffffffffffffff16915079ffffffffffffffffffffffffffffffffffffffffffffffffffff1691508373ffffffffffffffffffffffffffffffffffffffff167fdec2bacdd2f05b59de34da9b523dff8be42e5e38e818c82fdb0bae774387a7248383604051612347929190613d1f565b60405180910390a250505b5b505050565b5f815f01805490509050919050565b5f63ffffffff80168211156123b6576020826040517f6dfcc6500000000000000000000000000000000000000000000000000000000081526004016123ad929190613d7f565b60405180910390fd5b819050919050565b5f60085f8373ffffffffffffffffffffffffffffffffffffffff1673ffffffffffffffffffffffffffffffffffffffff1681526020019081526020015f20549050919050565b606060ff5f1b83146124205761241983612993565b90506124ab565b81805461242c9061393b565b80601f01602080910402602001604051908101604052809291908181526020018280546124589061393b565b80156124a35780601f1061247a576101008083540402835291602001916124a3565b820191905f5260205f20905b81548152906001019060200180831161248657829003601f168201915b505050505090505b92915050565b5f6040517f190100000000000000000000000000000000000000000000000000000000000081528360028201528260228201526042812091505092915050565b5f805f7f7fffffffffffffffffffffffffffffff5d576e7357a4501ddfe92f46681b20a0845f1c111561252d575f6003859250925092506125ce565b5f6001888888886040515f81526020016040526040516125509493929190613da6565b6020604051602081039080840390855afa158015612570573d5f803e3d5ffd5b5050506020604051035190505f73ffffffffffffffffffffffffffffffffffffffff168173ffffffffffffffffffffffffffffffffffffffff16036125c1575f60015f801b935093509350506125ce565b805f805f1b935093509350505b9450945094915050565b5f60038111156125eb576125ea613de9565b5b8260038111156125fe576125fd613de9565b5b0315612736576001600381111561261857612617613de9565b5b82600381111561262b5761262a613de9565b5b03612662576040517ff645eedf00000000000000000000000000000000000000000000000000000000815260040160405180910390fd5b6002600381111561267657612675613de9565b5b82600381111561268957612688613de9565b5b036126cd57805f1c6040517ffce698f70000000000000000000000000000000000000000000000000000000081526004016126c491906132cd565b60405180910390fd5b6003808111156126e0576126df613de9565b5b8260038111156126f3576126f2613de9565b5b0361273557806040517fd78bce0c00000000000000000000000000000000000000000000000000000000815260040161272c91906133a3565b60405180910390fd5b5b5050565b612742613056565b825f018263ffffffff168154811061275d5761275c613e16565b5b905f5260205f20016040518060400160405290815f82015f9054906101000a900465ffffffffffff1665ffffffffffff1665ffffffffffff1681526020015f820160069054906101000a900479ffffffffffffffffffffffffffffffffffffffffffffffffffff1679ffffffffffffffffffffffffffffffffffffffffffffffffffff1679ffffffffffffffffffffffffffffffffffffffffffffffffffff1681525050905092915050565b612814838383612a05565b5f73ffffffffffffffffffffffffffffffffffffffff168373ffffffffffffffffffffffffffffffffffffffff16036128a7575f61285061085a565b90505f61285b612c1e565b9050808211156128a45781816040517f1cb15d2600000000000000000000000000000000000000000000000000000000815260040161289b929190613d1f565b60405180910390fd5b50505b6128b2838383612c41565b505050565b5f8115159050919050565b5f60028284186128d29190613e43565b8284166128df9190613bb7565b905092915050565b5f79ffffffffffffffffffffffffffffffffffffffffffffffffffff801682111561294c5760d0826040517f6dfcc650000000000000000000000000000000000000000000000000000000008152600401612943929190613eac565b60405180910390fd5b819050919050565b5f80612987612961610cc3565b61297761296d886119e6565b868863ffffffff16565b87612cf99092919063ffffffff16565b91509150935093915050565b60605f61299f83612d14565b90505f602067ffffffffffffffff8111156129bd576129bc61396b565b5b6040519080825280601f01601f1916602001820160405280156129ef5781602001600182028036833780820191505090505b5090508181528360208201528092505050919050565b5f73ffffffffffffffffffffffffffffffffffffffff168373ffffffffffffffffffffffffffffffffffffffff1603612a55578060025f828254612a499190613bb7565b92505081905550612b23565b5f805f8573ffffffffffffffffffffffffffffffffffffffff1673ffffffffffffffffffffffffffffffffffffffff1681526020019081526020015f2054905081811015612ade578381836040517fe450d38c000000000000000000000000000000000000000000000000000000008152600401612ad593929190613b28565b60405180910390fd5b8181035f808673ffffffffffffffffffffffffffffffffffffffff1673ffffffffffffffffffffffffffffffffffffffff1681526020019081526020015f2081905550505b5f73ffffffffffffffffffffffffffffffffffffffff168273ffffffffffffffffffffffffffffffffffffffff1603612b6a578060025f8282540392505081905550612bb4565b805f808473ffffffffffffffffffffffffffffffffffffffff1673ffffffffffffffffffffffffffffffffffffffff1681526020019081526020015f205f82825401925050819055505b8173ffffffffffffffffffffffffffffffffffffffff168373ffffffffffffffffffffffffffffffffffffffff167fddf252ad1be2c89b69c2b068fc378daa952ba7f163c4a11628f55a4df523b3ef83604051612c1191906132cd565b60405180910390a3505050565b5f79ffffffffffffffffffffffffffffffffffffffffffffffffffff8016905090565b5f73ffffffffffffffffffffffffffffffffffffffff168373ffffffffffffffffffffffffffffffffffffffff1603612c8d57612c8a600b6110d7612c85846128e7565b612954565b50505b5f73ffffffffffffffffffffffffffffffffffffffff168273ffffffffffffffffffffffffffffffffffffffff1603612cd957612cd6600b6110ec612cd1846128e7565b612954565b50505b612cf4612ce584610a67565b612cee84610a67565b836120e8565b505050565b5f80612d08855f018585612d62565b91509150935093915050565b5f8060ff835f1c169050601f811115612d59576040517fb3512b0c00000000000000000000000000000000000000000000000000000000815260040160405180910390fd5b80915050919050565b5f805f858054905090505f811115612f6e575f612d8b87600184612d869190613b84565b612050565b90505f815f015f9054906101000a900465ffffffffffff1690505f825f0160069054906101000a900479ffffffffffffffffffffffffffffffffffffffffffffffffffff1690508765ffffffffffff168265ffffffffffff161115612e1c576040517f2520601d00000000000000000000000000000000000000000000000000000000815260040160405180910390fd5b8765ffffffffffff168265ffffffffffff1603612e865786835f0160066101000a81548179ffffffffffffffffffffffffffffffffffffffffffffffffffff021916908379ffffffffffffffffffffffffffffffffffffffffffffffffffff160217905550612f5f565b8860405180604001604052808a65ffffffffffff1681526020018979ffffffffffffffffffffffffffffffffffffffffffffffffffff16815250908060018154018082558091505060019003905f5260205f20015f909190919091505f820151815f015f6101000a81548165ffffffffffff021916908365ffffffffffff1602179055506020820151815f0160066101000a81548179ffffffffffffffffffffffffffffffffffffffffffffffffffff021916908379ffffffffffffffffffffffffffffffffffffffffffffffffffff16021790555050505b8087955095505050505061304e565b8560405180604001604052808765ffffffffffff1681526020018679ffffffffffffffffffffffffffffffffffffffffffffffffffff16815250908060018154018082558091505060019003905f5260205f20015f909190919091505f820151815f015f6101000a81548165ffffffffffff021916908365ffffffffffff1602179055506020820151815f0160066101000a81548179ffffffffffffffffffffffffffffffffffffffffffffffffffff021916908379ffffffffffffffffffffffffffffffffffffffffffffffffffff16021790555050505f8492509250505b935093915050565b60405180604001604052805f65ffffffffffff1681526020015f79ffffffffffffffffffffffffffffffffffffffffffffffffffff1681525090565b5f80fd5b5f7fffffffff0000000000000000000000000000000000000000000000000000000082169050919050565b6130ca81613096565b81146130d4575f80fd5b50565b5f813590506130e5816130c1565b92915050565b5f60208284031215613100576130ff613092565b5b5f61310d848285016130d7565b91505092915050565b5f8115159050919050565b61312a81613116565b82525050565b5f6020820190506131435f830184613121565b92915050565b5f81519050919050565b5f82825260208201905092915050565b5f5b83811015613180578082015181840152602081019050613165565b5f8484015250505050565b5f601f19601f8301169050919050565b5f6131a582613149565b6131af8185613153565b93506131bf818560208601613163565b6131c88161318b565b840191505092915050565b5f6020820190508181035f8301526131eb818461319b565b905092915050565b5f73ffffffffffffffffffffffffffffffffffffffff82169050919050565b5f61321c826131f3565b9050919050565b61322c81613212565b8114613236575f80fd5b50565b5f8135905061324781613223565b92915050565b5f819050919050565b61325f8161324d565b8114613269575f80fd5b50565b5f8135905061327a81613256565b92915050565b5f806040838503121561329657613295613092565b5b5f6132a385828601613239565b92505060206132b48582860161326c565b9150509250929050565b6132c78161324d565b82525050565b5f6020820190506132e05f8301846132be565b92915050565b5f805f606084860312156132fd576132fc613092565b5b5f61330a86828701613239565b935050602061331b86828701613239565b925050604061332c8682870161326c565b9150509250925092565b5f819050919050565b61334881613336565b8114613352575f80fd5b50565b5f813590506133638161333f565b92915050565b5f6020828403121561337e5761337d613092565b5b5f61338b84828501613355565b91505092915050565b61339d81613336565b82525050565b5f6020820190506133b65f830184613394565b92915050565b5f80604083850312156133d2576133d1613092565b5b5f6133df85828601613355565b92505060206133f085828601613239565b9150509250929050565b5f60ff82169050919050565b61340f816133fa565b82525050565b5f6020820190506134285f830184613406565b92915050565b5f6020828403121561344357613442613092565b5b5f6134508482850161326c565b91505092915050565b5f6020828403121561346e5761346d613092565b5b5f61347b84828501613239565b91505092915050565b61348d81613212565b82525050565b5f6020820190506134a65f830184613484565b92915050565b5f63ffffffff82169050919050565b6134c4816134ac565b82525050565b5f6020820190506134dd5f8301846134bb565b92915050565b5f7fff0000000000000000000000000000000000000000000000000000000000000082169050919050565b613517816134e3565b82525050565b5f81519050919050565b5f82825260208201905092915050565b5f819050602082019050919050565b61354f8161324d565b82525050565b5f6135608383613546565b60208301905092915050565b5f602082019050919050565b5f6135828261351d565b61358c8185613527565b935061359783613537565b805f5b838110156135c75781516135ae8882613555565b97506135b98361356c565b92505060018101905061359a565b5085935050505092915050565b5f60e0820190506135e75f83018a61350e565b81810360208301526135f9818961319b565b9050818103604083015261360d818861319b565b905061361c60608301876132be565b6136296080830186613484565b61363660a0830185613394565b81810360c08301526136488184613578565b905098975050505050505050565b5f65ffffffffffff82169050919050565b61367081613656565b82525050565b5f6020820190506136895f830184613667565b92915050565b613698816133fa565b81146136a2575f80fd5b50565b5f813590506136b38161368f565b92915050565b5f805f805f8060c087890312156136d3576136d2613092565b5b5f6136e089828a01613239565b96505060206136f189828a0161326c565b955050604061370289828a0161326c565b945050606061371389828a016136a5565b935050608061372489828a01613355565b92505060a061373589828a01613355565b9150509295509295509295565b5f805f805f805f60e0888a03121561375d5761375c613092565b5b5f61376a8a828b01613239565b975050602061377b8a828b01613239565b965050604061378c8a828b0161326c565b955050606061379d8a828b0161326c565b94505060806137ae8a828b016136a5565b93505060a06137bf8a828b01613355565b92505060c06137d08a828b01613355565b91505092959891949750929550565b5f80604083850312156137f5576137f4613092565b5b5f61380285828601613239565b925050602061381385828601613239565b9150509250929050565b613826816134ac565b8114613830575f80fd5b50565b5f813590506138418161381d565b92915050565b5f806040838503121561385d5761385c613092565b5b5f61386a85828601613239565b925050602061387b85828601613833565b9150509250929050565b61388e81613656565b82525050565b5f79ffffffffffffffffffffffffffffffffffffffffffffffffffff82169050919050565b6138c281613894565b82525050565b604082015f8201516138dc5f850182613885565b5060208201516138ef60208501826138b9565b50505050565b5f6040820190506139085f8301846138c8565b92915050565b7f4e487b71000000000000000000000000000000000000000000000000000000005f52602260045260245ffd5b5f600282049050600182168061395257607f821691505b6020821081036139655761396461390e565b5b50919050565b7f4e487b71000000000000000000000000000000000000000000000000000000005f52604160045260245ffd5b5f6080820190506139ab5f830187613394565b6139b86020830186613484565b6139c560408301856132be565b6139d260608301846132be565b95945050505050565b5f60c0820190506139ee5f830189613394565b6139fb6020830188613484565b613a086040830187613484565b613a1560608301866132be565b613a2260808301856132be565b613a2f60a08301846132be565b979650505050505050565b5f604082019050613a4d5f830185613484565b613a5a6020830184613484565b9392505050565b7f4e487b71000000000000000000000000000000000000000000000000000000005f52601160045260245ffd5b5f613a9882613894565b9150613aa383613894565b9250828201905079ffffffffffffffffffffffffffffffffffffffffffffffffffff811115613ad557613ad4613a61565b5b92915050565b5f613ae582613894565b9150613af083613894565b9250828203905079ffffffffffffffffffffffffffffffffffffffffffffffffffff811115613b2257613b21613a61565b5b92915050565b5f606082019050613b3b5f830186613484565b613b4860208301856132be565b613b5560408301846132be565b949350505050565b5f604082019050613b705f8301856132be565b613b7d6020830184613667565b9392505050565b5f613b8e8261324d565b9150613b998361324d565b9250828203905081811115613bb157613bb0613a61565b5b92915050565b5f613bc18261324d565b9150613bcc8361324d565b9250828201905080821115613be457613be3613a61565b5b92915050565b5f604082019050613bfd5f830185613484565b613c0a60208301846132be565b9392505050565b5f604082019050613c245f830185613484565b613c316020830184613394565b9392505050565b5f60a082019050613c4b5f830188613394565b613c586020830187613394565b613c656040830186613394565b613c7260608301856132be565b613c7f6080830184613484565b9695505050505050565b5f819050919050565b5f819050919050565b5f613cb5613cb0613cab84613c89565b613c92565b6133fa565b9050919050565b613cc581613c9b565b82525050565b5f604082019050613cde5f830185613cbc565b613ceb60208301846132be565b9392505050565b7f4e487b71000000000000000000000000000000000000000000000000000000005f52601260045260245ffd5b5f604082019050613d325f8301856132be565b613d3f60208301846132be565b9392505050565b5f819050919050565b5f613d69613d64613d5f84613d46565b613c92565b6133fa565b9050919050565b613d7981613d4f565b82525050565b5f604082019050613d925f830185613d70565b613d9f60208301846132be565b9392505050565b5f608082019050613db95f830187613394565b613dc66020830186613406565b613dd36040830185613394565b613de06060830184613394565b95945050505050565b7f4e487b71000000000000000000000000000000000000000000000000000000005f52602160045260245ffd5b7f4e487b71000000000000000000000000000000000000000000000000000000005f52603260045260245ffd5b5f613e4d8261324d565b9150613e588361324d565b925082613e6857613e67613cf2565b5b828204905092915050565b5f819050919050565b5f613e96613e91613e8c84613e73565b613c92565b6133fa565b9050919050565b613ea681613e7c565b82525050565b5f604082019050613ebf5f830185613e9d565b613ecc60208301846132be565b939250505056fea2646970667358221220f363987363074c90a88a7f2bd9f16ec4c71aa29cce61b4b413aeb75ac147365864736f6c63430008180033","linkReferences":{}},"methodIdentifiers":{"CLOCK_MODE()":"4bf5d7e9","DEFAULT_ADMIN_ROLE()":"a217fddf","DOMAIN_SEPARATOR()":"3644e515","INIT_TOTAL_SUPPLY()":"6fa43658","MINTER_ROLE()":"d5391393","allowance(address,address)":"dd62ed3e","approve(address,uint256)":"095ea7b3","balanceOf(address)":"70a08231","burn(uint256)":"42966c68","burnFrom(address,uint256)":"79cc6790","checkpoints(address,uint32)":"f1127ed8","clock()":"91ddadf4","decimals()":"313ce567","delegate(address)":"5c19a95c","delegateBySig(address,uint256,uint256,uint8,bytes32,bytes32)":"c3cda520","delegates(address)":"587cde1e","eip712Domain()":"84b0196e","getPastTotalSupply(uint256)":"8e539e8c","getPastVotes(address,uint256)":"3a46b1a8","getRoleAdmin(bytes32)":"248a9ca3","getVotes(address)":"9ab24eb0","grantRole(bytes32,address)":"2f2ff15d","hasRole(bytes32,address)":"91d14854","mint(address,uint256)":"40c10f19","name()":"06fdde03","nonces(address)":"7ecebe00","numCheckpoints(address)":"6fcfff45","permit(address,address,uint256,uint256,uint8,bytes32,bytes32)":"d505accf","renounceRole(bytes32,address)":"36568abe","revokeRole(bytes32,address)":"d547741f","supportsInterface(bytes4)":"01ffc9a7","symbol()":"95d89b41","totalSupply()":"18160ddd","transfer(address,uint256)":"a9059cbb","transferFrom(address,address,uint256)":"23b872dd"},"id":77}