{"abi":[{"type":"constructor","inputs":[{"name":"signer_","type":"address","internalType":"address"},{"name":"owner_","type":"address","internalType":"address"}],"stateMutability":"nonpayable"},{"type":"function","name":"claimTokens","inputs":[{"name":"token","type":"address","internalType":"address"},{"name":"amount","type":"uint256","internalType":"uint256"},{"name":"nonce","type":"uint256","internalType":"uint256"},{"name":"expireAt","type":"uint256","internalType":"uint256"},{"name":"signature","type":"bytes","internalType":"bytes"}],"outputs":[],"stateMutability":"nonpayable"},{"type":"function","name":"getUserClaimed","inputs":[{"name":"user","type":"address","internalType":"address"},{"name":"token","type":"address","internalType":"address"}],"outputs":[{"name":"","type":"uint256","internalType":"uint256"}],"stateMutability":"view"},{"type":"function","name":"nonceUsed","inputs":[{"name":"","type":"uint256","internalType":"uint256"}],"outputs":[{"name":"","type":"bool","internalType":"bool"}],"stateMutability":"view"},{"type":"function","name":"owner","inputs":[],"outputs":[{"name":"","type":"address","internalType":"address"}],"stateMutability":"view"},{"type":"function","name":"renounceOwnership","inputs":[],"outputs":[],"stateMutability":"nonpayable"},{"type":"function","name":"signer","inputs":[],"outputs":[{"name":"","type":"address","internalType":"address"}],"stateMutability":"view"},{"type":"function","name":"transferOwnership","inputs":[{"name":"newOwner","type":"address","internalType":"address"}],"outputs":[],"stateMutability":"nonpayable"},{"type":"function","name":"updateSigner","inputs":[{"name":"signer_","type":"address","internalType":"address"}],"outputs":[],"stateMutability":"nonpayable"},{"type":"function","name":"userClaimed","inputs":[{"name":"","type":"address","internalType":"address"},{"name":"","type":"address","internalType":"address"}],"outputs":[{"name":"","type":"uint256","internalType":"uint256"}],"stateMutability":"view"},{"type":"event","name":"OwnershipTransferred","inputs":[{"name":"previousOwner","type":"address","indexed":true,"internalType":"address"},{"name":"newOwner","type":"address","indexed":true,"internalType":"address"}],"anonymous":false},{"type":"event","name":"SignerUpdated","inputs":[{"name":"oldSigner","type":"address","indexed":true,"internalType":"address"},{"name":"newSigner","type":"address","indexed":true,"internalType":"address"}],"anonymous":false},{"type":"event","name":"TokensClaimed","inputs":[{"name":"user","type":"address","indexed":true,"internalType":"address"},{"name":"token","type":"address","indexed":true,"internalType":"address"},{"name":"amount","type":"uint256","indexed":false,"internalType":"uint256"},{"name":"nonce","type":"uint256","indexed":false,"internalType":"uint256"}],"anonymous":false},{"type":"error","name":"ECDSAInvalidSignature","inputs":[]},{"type":"error","name":"ECDSAInvalidSignatureLength","inputs":[{"name":"length","type":"uint256","internalType":"uint256"}]},{"type":"error","name":"ECDSAInvalidSignatureS","inputs":[{"name":"s","type":"bytes32","internalType":"bytes32"}]},{"type":"error","name":"OwnableInvalidOwner","inputs":[{"name":"owner","type":"address","internalType":"address"}]},{"type":"error","name":"OwnableUnauthorizedAccount","inputs":[{"name":"account","type":"address","internalType":"address"}]}],"bytecode":{"object":"0x608060405234801562000010575f80fd5b50604051620014c5380380620014c583398181016040528101906200003691906200022a565b805f73ffffffffffffffffffffffffffffffffffffffff168173ffffffffffffffffffffffffffffffffffffffff1603620000aa575f6040517f1e4fbdf7000000000000000000000000000000000000000000000000000000008152600401620000a1919062000280565b60405180910390fd5b620000bb816200010460201b60201c565b508160015f6101000a81548173ffffffffffffffffffffffffffffffffffffffff021916908373ffffffffffffffffffffffffffffffffffffffff16021790555050506200029b565b5f805f9054906101000a900473ffffffffffffffffffffffffffffffffffffffff169050815f806101000a81548173ffffffffffffffffffffffffffffffffffffffff021916908373ffffffffffffffffffffffffffffffffffffffff1602179055508173ffffffffffffffffffffffffffffffffffffffff168173ffffffffffffffffffffffffffffffffffffffff167f8be0079c531659141344cd1fd0a4f28419497f9722a3daafe3b4186f6b6457e060405160405180910390a35050565b5f80fd5b5f73ffffffffffffffffffffffffffffffffffffffff82169050919050565b5f620001f482620001c9565b9050919050565b6200020681620001e8565b811462000211575f80fd5b50565b5f815190506200022481620001fb565b92915050565b5f8060408385031215620002435762000242620001c5565b5b5f620002528582860162000214565b9250506020620002658582860162000214565b9150509250929050565b6200027a81620001e8565b82525050565b5f602082019050620002955f8301846200026f565b92915050565b61121c80620002a95f395ff3fe608060405234801561000f575f80fd5b5060043610610091575f3560e01c8063715018a611610064578063715018a61461012f5780638da5cb5b1461013957806394d0d3a614610157578063a7ecd37e14610187578063f2fde38b146101a357610091565b8063238ac9331461009557806323c4b423146100b3578063289b2df1146100e35780635ad46fc114610113575b5f80fd5b61009d6101bf565b6040516100aa9190610c0d565b60405180910390f35b6100cd60048036038101906100c89190610c58565b6101e4565b6040516100da9190610cae565b60405180910390f35b6100fd60048036038101906100f89190610c58565b610266565b60405161010a9190610cae565b60405180910390f35b61012d60048036038101906101289190610d52565b610286565b005b6101376105de565b005b6101416105f1565b60405161014e9190610c0d565b60405180910390f35b610171600480360381019061016c9190610de8565b610618565b60405161017e9190610e2d565b60405180910390f35b6101a1600480360381019061019c9190610e46565b610635565b005b6101bd60048036038101906101b89190610e46565b610700565b005b60015f9054906101000a900473ffffffffffffffffffffffffffffffffffffffff1681565b5f60035f8473ffffffffffffffffffffffffffffffffffffffff1673ffffffffffffffffffffffffffffffffffffffff1681526020019081526020015f205f8373ffffffffffffffffffffffffffffffffffffffff1673ffffffffffffffffffffffffffffffffffffffff1681526020019081526020015f2054905092915050565b6003602052815f5260405f20602052805f5260405f205f91509150505481565b824211156102c9576040517f08c379a00000000000000000000000000000000000000000000000000000000081526004016102c090610ecb565b60405180910390fd5b60025f8581526020019081526020015f205f9054906101000a900460ff1615610327576040517f08c379a000000000000000000000000000000000000000000000000000000000815260040161031e90610f33565b60405180910390fd5b5f3387878787604051602001610341959493929190610fb6565b6040516020818303038152906040528051906020012090505f61036382610784565b90505f6103bc85858080601f0160208091040260200160405190810160405280939291908181526020018383808284375f81840152601f19601f82011690508083019250505050505050836107b790919063ffffffff16565b905060015f9054906101000a900473ffffffffffffffffffffffffffffffffffffffff1673ffffffffffffffffffffffffffffffffffffffff168173ffffffffffffffffffffffffffffffffffffffff161461044d576040517f08c379a00000000000000000000000000000000000000000000000000000000081526004016104449061105e565b60405180910390fd5b600160025f8981526020019081526020015f205f6101000a81548160ff0219169083151502179055508760035f3373ffffffffffffffffffffffffffffffffffffffff1673ffffffffffffffffffffffffffffffffffffffff1681526020019081526020015f205f8b73ffffffffffffffffffffffffffffffffffffffff1673ffffffffffffffffffffffffffffffffffffffff1681526020019081526020015f205f8282546104fd91906110a9565b925050819055508873ffffffffffffffffffffffffffffffffffffffff166340c10f19338a6040518363ffffffff1660e01b815260040161053f9291906110dc565b5f604051808303815f87803b158015610556575f80fd5b505af1158015610568573d5f803e3d5ffd5b505050508873ffffffffffffffffffffffffffffffffffffffff163373ffffffffffffffffffffffffffffffffffffffff167fff097c7d8b1957a4ff09ef1361b5fb54dcede3941ba836d0beb9d10bec725de68a8a6040516105cb929190611103565b60405180910390a3505050505050505050565b6105e66107e1565b6105ef5f610868565b565b5f805f9054906101000a900473ffffffffffffffffffffffffffffffffffffffff16905090565b6002602052805f5260405f205f915054906101000a900460ff1681565b61063d6107e1565b5f60015f9054906101000a900473ffffffffffffffffffffffffffffffffffffffff1690508160015f6101000a81548173ffffffffffffffffffffffffffffffffffffffff021916908373ffffffffffffffffffffffffffffffffffffffff1602179055508173ffffffffffffffffffffffffffffffffffffffff168173ffffffffffffffffffffffffffffffffffffffff167f2d025324f0a785e8c12d0a0d91a9caa49df4ef20ff87e0df7213a1d4f3157beb60405160405180910390a35050565b6107086107e1565b5f73ffffffffffffffffffffffffffffffffffffffff168173ffffffffffffffffffffffffffffffffffffffff1603610778575f6040517f1e4fbdf700000000000000000000000000000000000000000000000000000000815260040161076f9190610c0d565b60405180910390fd5b61078181610868565b50565b5f7f19457468657265756d205369676e6564204d6573736167653a0a3332000000005f5281601c52603c5f209050919050565b5f805f806107c58686610929565b9250925092506107d5828261097e565b82935050505092915050565b6107e9610ae0565b73ffffffffffffffffffffffffffffffffffffffff166108076105f1565b73ffffffffffffffffffffffffffffffffffffffff16146108665761082a610ae0565b6040517f118cdaa700000000000000000000000000000000000000000000000000000000815260040161085d9190610c0d565b60405180910390fd5b565b5f805f9054906101000a900473ffffffffffffffffffffffffffffffffffffffff169050815f806101000a81548173ffffffffffffffffffffffffffffffffffffffff021916908373ffffffffffffffffffffffffffffffffffffffff1602179055508173ffffffffffffffffffffffffffffffffffffffff168173ffffffffffffffffffffffffffffffffffffffff167f8be0079c531659141344cd1fd0a4f28419497f9722a3daafe3b4186f6b6457e060405160405180910390a35050565b5f805f6041845103610969575f805f602087015192506040870151915060608701515f1a905061095b88828585610ae7565b955095509550505050610977565b5f600285515f1b9250925092505b9250925092565b5f60038111156109915761099061112a565b5b8260038111156109a4576109a361112a565b5b0315610adc57600160038111156109be576109bd61112a565b5b8260038111156109d1576109d061112a565b5b03610a08576040517ff645eedf00000000000000000000000000000000000000000000000000000000815260040160405180910390fd5b60026003811115610a1c57610a1b61112a565b5b826003811115610a2f57610a2e61112a565b5b03610a7357805f1c6040517ffce698f7000000000000000000000000000000000000000000000000000000008152600401610a6a9190610cae565b60405180910390fd5b600380811115610a8657610a8561112a565b5b826003811115610a9957610a9861112a565b5b03610adb57806040517fd78bce0c000000000000000000000000000000000000000000000000000000008152600401610ad2919061116f565b60405180910390fd5b5b5050565b5f33905090565b5f805f7f7fffffffffffffffffffffffffffffff5d576e7357a4501ddfe92f46681b20a0845f1c1115610b23575f600385925092509250610bc4565b5f6001888888886040515f8152602001604052604051610b4694939291906111a3565b6020604051602081039080840390855afa158015610b66573d5f803e3d5ffd5b5050506020604051035190505f73ffffffffffffffffffffffffffffffffffffffff168173ffffffffffffffffffffffffffffffffffffffff1603610bb7575f60015f801b93509350935050610bc4565b805f805f1b935093509350505b9450945094915050565b5f73ffffffffffffffffffffffffffffffffffffffff82169050919050565b5f610bf782610bce565b9050919050565b610c0781610bed565b82525050565b5f602082019050610c205f830184610bfe565b92915050565b5f80fd5b5f80fd5b610c3781610bed565b8114610c41575f80fd5b50565b5f81359050610c5281610c2e565b92915050565b5f8060408385031215610c6e57610c6d610c26565b5b5f610c7b85828601610c44565b9250506020610c8c85828601610c44565b9150509250929050565b5f819050919050565b610ca881610c96565b82525050565b5f602082019050610cc15f830184610c9f565b92915050565b610cd081610c96565b8114610cda575f80fd5b50565b5f81359050610ceb81610cc7565b92915050565b5f80fd5b5f80fd5b5f80fd5b5f8083601f840112610d1257610d11610cf1565b5b8235905067ffffffffffffffff811115610d2f57610d2e610cf5565b5b602083019150836001820283011115610d4b57610d4a610cf9565b5b9250929050565b5f805f805f8060a08789031215610d6c57610d6b610c26565b5b5f610d7989828a01610c44565b9650506020610d8a89828a01610cdd565b9550506040610d9b89828a01610cdd565b9450506060610dac89828a01610cdd565b935050608087013567ffffffffffffffff811115610dcd57610dcc610c2a565b5b610dd989828a01610cfd565b92509250509295509295509295565b5f60208284031215610dfd57610dfc610c26565b5b5f610e0a84828501610cdd565b91505092915050565b5f8115159050919050565b610e2781610e13565b82525050565b5f602082019050610e405f830184610e1e565b92915050565b5f60208284031215610e5b57610e5a610c26565b5b5f610e6884828501610c44565b91505092915050565b5f82825260208201905092915050565b7f5369676e617475726520657870697265640000000000000000000000000000005f82015250565b5f610eb5601183610e71565b9150610ec082610e81565b602082019050919050565b5f6020820190508181035f830152610ee281610ea9565b9050919050565b7f4e6f6e636520616c7265616479207573656400000000000000000000000000005f82015250565b5f610f1d601283610e71565b9150610f2882610ee9565b602082019050919050565b5f6020820190508181035f830152610f4a81610f11565b9050919050565b5f8160601b9050919050565b5f610f6782610f51565b9050919050565b5f610f7882610f5d565b9050919050565b610f90610f8b82610bed565b610f6e565b82525050565b5f819050919050565b610fb0610fab82610c96565b610f96565b82525050565b5f610fc18288610f7f565b601482019150610fd18287610f7f565b601482019150610fe18286610f9f565b602082019150610ff18285610f9f565b6020820191506110018284610f9f565b6020820191508190509695505050505050565b7f496e76616c6964207369676e61747572650000000000000000000000000000005f82015250565b5f611048601183610e71565b915061105382611014565b602082019050919050565b5f6020820190508181035f8301526110758161103c565b9050919050565b7f4e487b71000000000000000000000000000000000000000000000000000000005f52601160045260245ffd5b5f6110b382610c96565b91506110be83610c96565b92508282019050808211156110d6576110d561107c565b5b92915050565b5f6040820190506110ef5f830185610bfe565b6110fc6020830184610c9f565b9392505050565b5f6040820190506111165f830185610c9f565b6111236020830184610c9f565b9392505050565b7f4e487b71000000000000000000000000000000000000000000000000000000005f52602160045260245ffd5b5f819050919050565b61116981611157565b82525050565b5f6020820190506111825f830184611160565b92915050565b5f60ff82169050919050565b61119d81611188565b82525050565b5f6080820190506111b65f830187611160565b6111c36020830186611194565b6111d06040830185611160565b6111dd6060830184611160565b9594505050505056fea26469706673582212201382258b5a5edf3a4fa4ed0c7a9c406ecf462850275779fc724cfc189db610aa64736f6c63430008180033","linkReferences":{}},"methodIdentifiers":{"claimTokens(address,uint256,uint256,uint256,bytes)":"5ad46fc1","getUserClaimed(address,address)":"23c4b423","nonceUsed(uint256)":"94d0d3a6","owner()":"8da5cb5b","renounceOwnership()":"715018a6","signer()":"238ac933","transferOwnership(address)":"f2fde38b","updateSigner(address)":"a7ecd37e","userClaimed(address,address)":"289b2df1"},"id":82}