{"abi":[{"type":"constructor","inputs":[{"name":"implementation","type":"address","internalType":"address"}],"stateMutability":"nonpayable"},{"type":"function","name":"createETFProxy","inputs":[{"name":"data","type":"bytes","internalType":"bytes"}],"outputs":[{"name":"proxy","type":"address","internalType":"address"}],"stateMutability":"nonpayable"},{"type":"function","name":"getAllProxies","inputs":[],"outputs":[{"name":"","type":"address[]","internalType":"address[]"}],"stateMutability":"view"},{"type":"function","name":"getProxyAt","inputs":[{"name":"index","type":"uint256","internalType":"uint256"}],"outputs":[{"name":"","type":"address","internalType":"address"}],"stateMutability":"view"},{"type":"function","name":"getProxyCount","inputs":[],"outputs":[{"name":"","type":"uint256","internalType":"uint256"}],"stateMutability":"view"},{"type":"function","name":"implementation","inputs":[],"outputs":[{"name":"","type":"address","internalType":"address"}],"stateMutability":"view"},{"type":"function","name":"isProxyCreatedByFactory","inputs":[{"name":"proxy","type":"address","internalType":"address"}],"outputs":[{"name":"","type":"bool","internalType":"bool"}],"stateMutability":"view"},{"type":"function","name":"owner","inputs":[],"outputs":[{"name":"","type":"address","internalType":"address"}],"stateMutability":"view"},{"type":"function","name":"proxies","inputs":[{"name":"","type":"uint256","internalType":"uint256"}],"outputs":[{"name":"","type":"address","internalType":"address"}],"stateMutability":"view"},{"type":"function","name":"renounceOwnership","inputs":[],"outputs":[],"stateMutability":"nonpayable"},{"type":"function","name":"transferOwnership","inputs":[{"name":"newOwner","type":"address","internalType":"address"}],"outputs":[],"stateMutability":"nonpayable"},{"type":"function","name":"upgradeImplementation","inputs":[{"name":"newImplementation","type":"address","internalType":"address"}],"outputs":[],"stateMutability":"nonpayable"},{"type":"function","name":"upgradeTo","inputs":[{"name":"newImplementation","type":"address","internalType":"address"}],"outputs":[],"stateMutability":"nonpayable"},{"type":"function","name":"upgradeToAndCall","inputs":[{"name":"newImplementation","type":"address","internalType":"address"},{"name":"data","type":"bytes","internalType":"bytes"}],"outputs":[],"stateMutability":"payable"},{"type":"event","name":"BatchUpgradeCompleted","inputs":[{"name":"newImplementation","type":"address","indexed":true,"internalType":"address"},{"name":"proxyCount","type":"uint256","indexed":false,"internalType":"uint256"}],"anonymous":false},{"type":"event","name":"ETFProxyCreated","inputs":[{"name":"etfProxy","type":"address","indexed":true,"internalType":"address"}],"anonymous":false},{"type":"event","name":"OwnershipTransferred","inputs":[{"name":"previousOwner","type":"address","indexed":true,"internalType":"address"},{"name":"newOwner","type":"address","indexed":true,"internalType":"address"}],"anonymous":false},{"type":"event","name":"Upgraded","inputs":[{"name":"implementation","type":"address","indexed":true,"internalType":"address"}],"anonymous":false},{"type":"error","name":"BeaconInvalidImplementation","inputs":[{"name":"implementation","type":"address","internalType":"address"}]},{"type":"error","name":"InitializationFailed","inputs":[]},{"type":"error","name":"InvalidImplementation","inputs":[]},{"type":"error","name":"OwnableInvalidOwner","inputs":[{"name":"owner","type":"address","internalType":"address"}]},{"type":"error","name":"OwnableUnauthorizedAccount","inputs":[{"name":"account","type":"address","internalType":"address"}]}],"bytecode":{"object":"0x608060405234801562000010575f80fd5b5060405162001eeb38038062001eeb833981810160405281019062000036919062000348565b8033805f73ffffffffffffffffffffffffffffffffffffffff168173ffffffffffffffffffffffffffffffffffffffff1603620000ac575f6040517f1e4fbdf7000000000000000000000000000000000000000000000000000000008152600401620000a3919062000389565b60405180910390fd5b620000bd816200013e60201b60201c565b50620000cf82620001ff60201b60201c565b50505f73ffffffffffffffffffffffffffffffffffffffff168173ffffffffffffffffffffffffffffffffffffffff160362000137576040517f68155f9a00000000000000000000000000000000000000000000000000000000815260040160405180910390fd5b50620003a4565b5f805f9054906101000a900473ffffffffffffffffffffffffffffffffffffffff169050815f806101000a81548173ffffffffffffffffffffffffffffffffffffffff021916908373ffffffffffffffffffffffffffffffffffffffff1602179055508173ffffffffffffffffffffffffffffffffffffffff168173ffffffffffffffffffffffffffffffffffffffff167f8be0079c531659141344cd1fd0a4f28419497f9722a3daafe3b4186f6b6457e060405160405180910390a35050565b5f8173ffffffffffffffffffffffffffffffffffffffff163b036200025d57806040517f847ac56400000000000000000000000000000000000000000000000000000000815260040162000254919062000389565b60405180910390fd5b8060015f6101000a81548173ffffffffffffffffffffffffffffffffffffffff021916908373ffffffffffffffffffffffffffffffffffffffff1602179055508073ffffffffffffffffffffffffffffffffffffffff167fbc7cd75a20ee27fd9adebab32041f755214dbc6bffa90cc0225b39da2e5c2d3b60405160405180910390a250565b5f80fd5b5f73ffffffffffffffffffffffffffffffffffffffff82169050919050565b5f6200031282620002e7565b9050919050565b620003248162000306565b81146200032f575f80fd5b50565b5f81519050620003428162000319565b92915050565b5f6020828403121562000360576200035f620002e3565b5b5f6200036f8482850162000332565b91505092915050565b620003838162000306565b82525050565b5f6020820190506200039e5f83018462000378565b92915050565b611b3980620003b25f395ff3fe608060405260043610620000d3575f3560e01c80638da5cb5b116200008a578063cc935efe1162000060578063cc935efe1462000269578063cf86558214620002ac578063f2fde38b14620002ef578063f3f150fe146200031c57620000d3565b80638da5cb5b14620001c857806399a55b6a14620001f7578063abd90f85146200022657620000d3565b80633659cfe614620000d75780634f1ef28614620001045780635c60da1b1462000124578063715018a6146200015357806383f94db7146200016c578063883edfb81462000199575b5f80fd5b348015620000e3575f80fd5b50620001026004803603810190620000fc919062000c15565b6200035f565b005b6200012260048036038101906200011c919062000d9d565b62000377565b005b34801562000130575f80fd5b506200013b620004f7565b6040516200014a919062000e12565b60405180910390f35b3480156200015f575f80fd5b506200016a6200051f565b005b34801562000178575f80fd5b5062000197600480360381019062000191919062000c15565b62000536565b005b348015620001a5575f80fd5b50620001b0620005a3565b604051620001bf919062000ef4565b60405180910390f35b348015620001d4575f80fd5b50620001df62000630565b604051620001ee919062000e12565b60405180910390f35b34801562000203575f80fd5b506200020e62000657565b6040516200021d919062000f30565b60405180910390f35b34801562000232575f80fd5b506200025160048036038101906200024b919062000f7a565b62000663565b60405162000260919062000e12565b60405180910390f35b34801562000275575f80fd5b506200029460048036038101906200028e919062000f7a565b6200069f565b604051620002a3919062000e12565b60405180910390f35b348015620002b8575f80fd5b50620002d76004803603810190620002d1919062000c15565b62000730565b604051620002e6919062000fc6565b60405180910390f35b348015620002fb575f80fd5b506200031a600480360381019062000314919062000c15565b620007dc565b005b34801562000328575f80fd5b5062000347600480360381019062000341919062000fe1565b62000867565b60405162000356919062000e12565b60405180910390f35b6200036962000959565b6200037481620009e9565b50565b6200038162000959565b6200038c826200035f565b5f815111156200049e575f60028054905090505f5b818110156200049b575f60028281548110620003c257620003c162001030565b5b905f5260205f20015f9054906101000a900473ffffffffffffffffffffffffffffffffffffffff1673ffffffffffffffffffffffffffffffffffffffff1684604051620004109190620010d1565b5f604051808303815f865af19150503d805f81146200044b576040519150601f19603f3d011682016040523d82523d5f602084013e62000450565b606091505b50509050806200048c576040517f19b991a800000000000000000000000000000000000000000000000000000000815260040160405180910390fd5b508080600101915050620003a1565b50505b8173ffffffffffffffffffffffffffffffffffffffff167f12816b9b8fa6a8dc0b0628d288db65297cc607aa814ee39ad46ebda9ac3d5b3b600280549050604051620004eb919062000f30565b60405180910390a25050565b5f60015f9054906101000a900473ffffffffffffffffffffffffffffffffffffffff16905090565b6200052962000959565b620005345f62000acd565b565b6200054062000959565b6200054b816200035f565b8073ffffffffffffffffffffffffffffffffffffffff167f12816b9b8fa6a8dc0b0628d288db65297cc607aa814ee39ad46ebda9ac3d5b3b60028054905060405162000598919062000f30565b60405180910390a250565b606060028054806020026020016040519081016040528092919081815260200182805480156200062657602002820191905f5260205f20905b815f9054906101000a900473ffffffffffffffffffffffffffffffffffffffff1673ffffffffffffffffffffffffffffffffffffffff1681526020019060010190808311620005dc575b5050505050905090565b5f805f9054906101000a900473ffffffffffffffffffffffffffffffffffffffff16905090565b5f600280549050905090565b6002818154811062000673575f80fd5b905f5260205f20015f915054906101000a900473ffffffffffffffffffffffffffffffffffffffff1681565b5f6002805490508210620006ea576040517f08c379a0000000000000000000000000000000000000000000000000000000008152600401620006e19062001147565b60405180910390fd5b6002828154811062000701576200070062001030565b5b905f5260205f20015f9054906101000a900473ffffffffffffffffffffffffffffffffffffffff169050919050565b5f8060028054905090505f5b81811015620007d1578373ffffffffffffffffffffffffffffffffffffffff166002828154811062000773576200077262001030565b5b905f5260205f20015f9054906101000a900473ffffffffffffffffffffffffffffffffffffffff1673ffffffffffffffffffffffffffffffffffffffff1603620007c357600192505050620007d7565b80806001019150506200073c565b505f9150505b919050565b620007e662000959565b5f73ffffffffffffffffffffffffffffffffffffffff168173ffffffffffffffffffffffffffffffffffffffff160362000859575f6040517f1e4fbdf700000000000000000000000000000000000000000000000000000000815260040162000850919062000e12565b60405180910390fd5b620008648162000acd565b50565b5f6200087262000959565b5f3083604051620008839062000b95565b62000890929190620011b7565b604051809103905ff080158015620008aa573d5f803e3d5ffd5b509050809150600282908060018154018082558091505060019003905f5260205f20015f9091909190916101000a81548173ffffffffffffffffffffffffffffffffffffffff021916908373ffffffffffffffffffffffffffffffffffffffff1602179055508173ffffffffffffffffffffffffffffffffffffffff167f1619840ebfc8ef9f15bb563220106c2d1eb571ae22568030be13a495aa86695f60405160405180910390a250919050565b6200096362000b8e565b73ffffffffffffffffffffffffffffffffffffffff166200098362000630565b73ffffffffffffffffffffffffffffffffffffffff1614620009e757620009a962000b8e565b6040517f118cdaa7000000000000000000000000000000000000000000000000000000008152600401620009de919062000e12565b60405180910390fd5b565b5f8173ffffffffffffffffffffffffffffffffffffffff163b0362000a4757806040517f847ac56400000000000000000000000000000000000000000000000000000000815260040162000a3e919062000e12565b60405180910390fd5b8060015f6101000a81548173ffffffffffffffffffffffffffffffffffffffff021916908373ffffffffffffffffffffffffffffffffffffffff1602179055508073ffffffffffffffffffffffffffffffffffffffff167fbc7cd75a20ee27fd9adebab32041f755214dbc6bffa90cc0225b39da2e5c2d3b60405160405180910390a250565b5f805f9054906101000a900473ffffffffffffffffffffffffffffffffffffffff169050815f806101000a81548173ffffffffffffffffffffffffffffffffffffffff021916908373ffffffffffffffffffffffffffffffffffffffff1602179055508173ffffffffffffffffffffffffffffffffffffffff168173ffffffffffffffffffffffffffffffffffffffff167f8be0079c531659141344cd1fd0a4f28419497f9722a3daafe3b4186f6b6457e060405160405180910390a35050565b5f33905090565b61091a80620011ea83390190565b5f604051905090565b5f80fd5b5f80fd5b5f73ffffffffffffffffffffffffffffffffffffffff82169050919050565b5f62000bdf8262000bb4565b9050919050565b62000bf18162000bd3565b811462000bfc575f80fd5b50565b5f8135905062000c0f8162000be6565b92915050565b5f6020828403121562000c2d5762000c2c62000bac565b5b5f62000c3c8482850162000bff565b91505092915050565b5f80fd5b5f80fd5b5f601f19601f8301169050919050565b7f4e487b71000000000000000000000000000000000000000000000000000000005f52604160045260245ffd5b62000c958262000c4d565b810181811067ffffffffffffffff8211171562000cb75762000cb662000c5d565b5b80604052505050565b5f62000ccb62000ba3565b905062000cd9828262000c8a565b919050565b5f67ffffffffffffffff82111562000cfb5762000cfa62000c5d565b5b62000d068262000c4d565b9050602081019050919050565b828183375f83830152505050565b5f62000d3762000d318462000cde565b62000cc0565b90508281526020810184848401111562000d565762000d5562000c49565b5b62000d6384828562000d13565b509392505050565b5f82601f83011262000d825762000d8162000c45565b5b813562000d9484826020860162000d21565b91505092915050565b5f806040838503121562000db65762000db562000bac565b5b5f62000dc58582860162000bff565b925050602083013567ffffffffffffffff81111562000de95762000de862000bb0565b5b62000df78582860162000d6b565b9150509250929050565b62000e0c8162000bd3565b82525050565b5f60208201905062000e275f83018462000e01565b92915050565b5f81519050919050565b5f82825260208201905092915050565b5f819050602082019050919050565b62000e618162000bd3565b82525050565b5f62000e74838362000e56565b60208301905092915050565b5f602082019050919050565b5f62000e988262000e2d565b62000ea4818562000e37565b935062000eb18362000e47565b805f5b8381101562000ee757815162000ecb888262000e67565b975062000ed88362000e80565b92505060018101905062000eb4565b5085935050505092915050565b5f6020820190508181035f83015262000f0e818462000e8c565b905092915050565b5f819050919050565b62000f2a8162000f16565b82525050565b5f60208201905062000f455f83018462000f1f565b92915050565b62000f568162000f16565b811462000f61575f80fd5b50565b5f8135905062000f748162000f4b565b92915050565b5f6020828403121562000f925762000f9162000bac565b5b5f62000fa18482850162000f64565b91505092915050565b5f8115159050919050565b62000fc08162000faa565b82525050565b5f60208201905062000fdb5f83018462000fb5565b92915050565b5f6020828403121562000ff95762000ff862000bac565b5b5f82013567ffffffffffffffff81111562001019576200101862000bb0565b5b620010278482850162000d6b565b91505092915050565b7f4e487b71000000000000000000000000000000000000000000000000000000005f52603260045260245ffd5b5f81519050919050565b5f81905092915050565b5f5b838110156200109057808201518184015260208101905062001073565b5f8484015250505050565b5f620010a7826200105d565b620010b3818562001067565b9350620010c581856020860162001071565b80840191505092915050565b5f620010de82846200109b565b915081905092915050565b5f82825260208201905092915050565b7f496e646578206f7574206f6620626f756e6473000000000000000000000000005f82015250565b5f6200112f601383620010e9565b91506200113c82620010f9565b602082019050919050565b5f6020820190508181035f830152620011608162001121565b9050919050565b5f82825260208201905092915050565b5f62001183826200105d565b6200118f818562001167565b9350620011a181856020860162001071565b620011ac8162000c4d565b840191505092915050565b5f604082019050620011cc5f83018562000e01565b8181036020830152620011e0818462001177565b9050939250505056fe60a060405260405161091a38038061091a8339818101604052810190610025919061065d565b610035828261007060201b60201c565b8173ffffffffffffffffffffffffffffffffffffffff1660808173ffffffffffffffffffffffffffffffffffffffff16815250505050610764565b61007f8261016060201b60201c565b8173ffffffffffffffffffffffffffffffffffffffff167f1cf3b03a6cf19fa2baba4df148e9dcabedea7f8a5c07840e207e5c089be95d3e60405160405180910390a25f8151111561014d576101478273ffffffffffffffffffffffffffffffffffffffff16635c60da1b6040518163ffffffff1660e01b8152600401602060405180830381865afa158015610117573d5f803e3d5ffd5b505050506040513d601f19601f8201168201806040525081019061013b91906106b7565b826102fb60201b60201c565b5061015c565b61015b61038160201b60201c565b5b5050565b5f8173ffffffffffffffffffffffffffffffffffffffff163b036101bb57806040517f64ced0ec0000000000000000000000000000000000000000000000000000000081526004016101b291906106f1565b60405180910390fd5b806101ed7fa3f0ad74e5423aebfd80d3ef4346578335a9a72aeaee59ff6cb3582b35133d505f1b6103bd60201b60201c565b5f015f6101000a81548173ffffffffffffffffffffffffffffffffffffffff021916908373ffffffffffffffffffffffffffffffffffffffff1602179055505f8173ffffffffffffffffffffffffffffffffffffffff16635c60da1b6040518163ffffffff1660e01b8152600401602060405180830381865afa158015610276573d5f803e3d5ffd5b505050506040513d601f19601f8201168201806040525081019061029a91906106b7565b90505f8173ffffffffffffffffffffffffffffffffffffffff163b036102f757806040517f4c9c8ce30000000000000000000000000000000000000000000000000000000081526004016102ee91906106f1565b60405180910390fd5b5050565b60605f808473ffffffffffffffffffffffffffffffffffffffff1684604051610324919061074e565b5f60405180830381855af49150503d805f811461035c576040519150601f19603f3d011682016040523d82523d5f602084013e610361565b606091505b50915091506103778583836103c660201b60201c565b9250505092915050565b5f3411156103bb576040517fb398979f00000000000000000000000000000000000000000000000000000000815260040160405180910390fd5b565b5f819050919050565b6060826103e1576103dc8261045960201b60201c565b610451565b5f825114801561040757505f8473ffffffffffffffffffffffffffffffffffffffff163b145b1561044957836040517f9996b31500000000000000000000000000000000000000000000000000000000815260040161044091906106f1565b60405180910390fd5b819050610452565b5b9392505050565b5f8151111561046a57805160208201fd5b6040517fd6bda27500000000000000000000000000000000000000000000000000000000815260040160405180910390fd5b5f604051905090565b5f80fd5b5f80fd5b5f73ffffffffffffffffffffffffffffffffffffffff82169050919050565b5f6104d6826104ad565b9050919050565b6104e6816104cc565b81146104f0575f80fd5b50565b5f81519050610501816104dd565b92915050565b5f80fd5b5f80fd5b5f601f19601f8301169050919050565b7f4e487b71000000000000000000000000000000000000000000000000000000005f52604160045260245ffd5b6105558261050f565b810181811067ffffffffffffffff821117156105745761057361051f565b5b80604052505050565b5f61058661049c565b9050610592828261054c565b919050565b5f67ffffffffffffffff8211156105b1576105b061051f565b5b6105ba8261050f565b9050602081019050919050565b5f5b838110156105e45780820151818401526020810190506105c9565b5f8484015250505050565b5f6106016105fc84610597565b61057d565b90508281526020810184848401111561061d5761061c61050b565b5b6106288482856105c7565b509392505050565b5f82601f83011261064457610643610507565b5b81516106548482602086016105ef565b91505092915050565b5f8060408385031215610673576106726104a5565b5b5f610680858286016104f3565b925050602083015167ffffffffffffffff8111156106a1576106a06104a9565b5b6106ad85828601610630565b9150509250929050565b5f602082840312156106cc576106cb6104a5565b5b5f6106d9848285016104f3565b91505092915050565b6106eb816104cc565b82525050565b5f6020820190506107045f8301846106e2565b92915050565b5f81519050919050565b5f81905092915050565b5f6107288261070a565b6107328185610714565b93506107428185602086016105c7565b80840191505092915050565b5f610759828461071e565b915081905092915050565b60805161019f61077b5f395f60bc015261019f5ff3fe608060405261000c61000e565b005b61001e610019610020565b61009a565b565b5f6100296100b9565b73ffffffffffffffffffffffffffffffffffffffff16635c60da1b6040518163ffffffff1660e01b8152600401602060405180830381865afa158015610071573d5f803e3d5ffd5b505050506040513d601f19601f82011682018060405250810190610095919061013e565b905090565b365f80375f80365f845af43d5f803e805f81146100b5573d5ff35b3d5ffd5b5f7f0000000000000000000000000000000000000000000000000000000000000000905090565b5f80fd5b5f73ffffffffffffffffffffffffffffffffffffffff82169050919050565b5f61010d826100e4565b9050919050565b61011d81610103565b8114610127575f80fd5b50565b5f8151905061013881610114565b92915050565b5f60208284031215610153576101526100e0565b5b5f6101608482850161012a565b9150509291505056fea26469706673582212206dc032b7e78a31a926454841f5ad5d271d27844b8995452f984bee396a9226f164736f6c63430008180033a264697066735822122045eb306722e06343d4c64e3b7f8c4df19d61cc3e0f9d3a724e91dfcf6b70955964736f6c63430008180033","linkReferences":{}},"methodIdentifiers":{"createETFProxy(bytes)":"f3f150fe","getAllProxies()":"883edfb8","getProxyAt(uint256)":"cc935efe","getProxyCount()":"99a55b6a","implementation()":"5c60da1b","isProxyCreatedByFactory(address)":"cf865582","owner()":"8da5cb5b","proxies(uint256)":"abd90f85","renounceOwnership()":"715018a6","transferOwnership(address)":"f2fde38b","upgradeImplementation(address)":"83f94db7","upgradeTo(address)":"3659cfe6","upgradeToAndCall(address,bytes)":"4f1ef286"},"id":64}