{"abi":[{"type":"constructor","inputs":[{"name":"name_","type":"string","internalType":"string"},{"name":"symbol_","type":"string","internalType":"string"},{"name":"tokens_","type":"address[]","internalType":"address[]"},{"name":"initTokenAmountPerShare_","type":"uint256[]","internalType":"uint256[]"},{"name":"minMintAmount_","type":"uint256","internalType":"uint256"},{"name":"swapRouter_","type":"address","internalType":"address"},{"name":"weth_","type":"address","internalType":"address"}],"stateMutability":"nonpayable"},{"type":"receive","stateMutability":"payable"},{"type":"function","name":"HUNDRED_PERCENT","inputs":[],"outputs":[{"name":"","type":"uint24","internalType":"uint24"}],"stateMutability":"view"},{"type":"function","name":"allowance","inputs":[{"name":"owner","type":"address","internalType":"address"},{"name":"spender","type":"address","internalType":"address"}],"outputs":[{"name":"","type":"uint256","internalType":"uint256"}],"stateMutability":"view"},{"type":"function","name":"approve","inputs":[{"name":"spender","type":"address","internalType":"address"},{"name":"value","type":"uint256","internalType":"uint256"}],"outputs":[{"name":"","type":"bool","internalType":"bool"}],"stateMutability":"nonpayable"},{"type":"function","name":"balanceOf","inputs":[{"name":"account","type":"address","internalType":"address"}],"outputs":[{"name":"","type":"uint256","internalType":"uint256"}],"stateMutability":"view"},{"type":"function","name":"decimals","inputs":[],"outputs":[{"name":"","type":"uint8","internalType":"uint8"}],"stateMutability":"view"},{"type":"function","name":"feeTo","inputs":[],"outputs":[{"name":"","type":"address","internalType":"address"}],"stateMutability":"view"},{"type":"function","name":"getInitTokenAmountPerShares","inputs":[],"outputs":[{"name":"","type":"uint256[]","internalType":"uint256[]"}],"stateMutability":"view"},{"type":"function","name":"getInvestTokenAmounts","inputs":[{"name":"mintAmount","type":"uint256","internalType":"uint256"}],"outputs":[{"name":"tokenAmounts","type":"uint256[]","internalType":"uint256[]"}],"stateMutability":"view"},{"type":"function","name":"getRedeemTokenAmounts","inputs":[{"name":"burnAmount","type":"uint256","internalType":"uint256"}],"outputs":[{"name":"tokenAmounts","type":"uint256[]","internalType":"uint256[]"}],"stateMutability":"view"},{"type":"function","name":"getTokens","inputs":[],"outputs":[{"name":"","type":"address[]","internalType":"address[]"}],"stateMutability":"view"},{"type":"function","name":"invest","inputs":[{"name":"to","type":"address","internalType":"address"},{"name":"mintAmount","type":"uint256","internalType":"uint256"}],"outputs":[],"stateMutability":"nonpayable"},{"type":"function","name":"investFee","inputs":[],"outputs":[{"name":"","type":"uint24","internalType":"uint24"}],"stateMutability":"view"},{"type":"function","name":"investWithETH","inputs":[{"name":"to","type":"address","internalType":"address"},{"name":"mintAmount","type":"uint256","internalType":"uint256"},{"name":"swapPaths","type":"bytes[]","internalType":"bytes[]"}],"outputs":[],"stateMutability":"payable"},{"type":"function","name":"investWithToken","inputs":[{"name":"srcToken","type":"address","internalType":"address"},{"name":"to","type":"address","internalType":"address"},{"name":"mintAmount","type":"uint256","internalType":"uint256"},{"name":"maxSrcTokenAmount","type":"uint256","internalType":"uint256"},{"name":"swapPaths","type":"bytes[]","internalType":"bytes[]"}],"outputs":[],"stateMutability":"nonpayable"},{"type":"function","name":"minMintAmount","inputs":[],"outputs":[{"name":"","type":"uint256","internalType":"uint256"}],"stateMutability":"view"},{"type":"function","name":"name","inputs":[],"outputs":[{"name":"","type":"string","internalType":"string"}],"stateMutability":"view"},{"type":"function","name":"owner","inputs":[],"outputs":[{"name":"","type":"address","internalType":"address"}],"stateMutability":"view"},{"type":"function","name":"redeem","inputs":[{"name":"to","type":"address","internalType":"address"},{"name":"burnAmount","type":"uint256","internalType":"uint256"}],"outputs":[],"stateMutability":"nonpayable"},{"type":"function","name":"redeemFee","inputs":[],"outputs":[{"name":"","type":"uint24","internalType":"uint24"}],"stateMutability":"view"},{"type":"function","name":"redeemToETH","inputs":[{"name":"to","type":"address","internalType":"address"},{"name":"burnAmount","type":"uint256","internalType":"uint256"},{"name":"minETHAmount","type":"uint256","internalType":"uint256"},{"name":"swapPaths","type":"bytes[]","internalType":"bytes[]"}],"outputs":[],"stateMutability":"nonpayable"},{"type":"function","name":"redeemToToken","inputs":[{"name":"dstToken","type":"address","internalType":"address"},{"name":"to","type":"address","internalType":"address"},{"name":"burnAmount","type":"uint256","internalType":"uint256"},{"name":"minDstTokenAmount","type":"uint256","internalType":"uint256"},{"name":"swapPaths","type":"bytes[]","internalType":"bytes[]"}],"outputs":[],"stateMutability":"nonpayable"},{"type":"function","name":"renounceOwnership","inputs":[],"outputs":[],"stateMutability":"nonpayable"},{"type":"function","name":"setFee","inputs":[{"name":"feeTo_","type":"address","internalType":"address"},{"name":"investFee_","type":"uint24","internalType":"uint24"},{"name":"redeemFee_","type":"uint24","internalType":"uint24"}],"outputs":[],"stateMutability":"nonpayable"},{"type":"function","name":"swapRouter","inputs":[],"outputs":[{"name":"","type":"address","internalType":"address"}],"stateMutability":"view"},{"type":"function","name":"symbol","inputs":[],"outputs":[{"name":"","type":"string","internalType":"string"}],"stateMutability":"view"},{"type":"function","name":"totalSupply","inputs":[],"outputs":[{"name":"","type":"uint256","internalType":"uint256"}],"stateMutability":"view"},{"type":"function","name":"transfer","inputs":[{"name":"to","type":"address","internalType":"address"},{"name":"value","type":"uint256","internalType":"uint256"}],"outputs":[{"name":"","type":"bool","internalType":"bool"}],"stateMutability":"nonpayable"},{"type":"function","name":"transferFrom","inputs":[{"name":"from","type":"address","internalType":"address"},{"name":"to","type":"address","internalType":"address"},{"name":"value","type":"uint256","internalType":"uint256"}],"outputs":[{"name":"","type":"bool","internalType":"bool"}],"stateMutability":"nonpayable"},{"type":"function","name":"transferOwnership","inputs":[{"name":"newOwner","type":"address","internalType":"address"}],"outputs":[],"stateMutability":"nonpayable"},{"type":"function","name":"updateMinMintAmount","inputs":[{"name":"newMinMintAmount","type":"uint256","internalType":"uint256"}],"outputs":[],"stateMutability":"nonpayable"},{"type":"function","name":"weth","inputs":[],"outputs":[{"name":"","type":"address","internalType":"address"}],"stateMutability":"view"},{"type":"event","name":"Approval","inputs":[{"name":"owner","type":"address","indexed":true,"internalType":"address"},{"name":"spender","type":"address","indexed":true,"internalType":"address"},{"name":"value","type":"uint256","indexed":false,"internalType":"uint256"}],"anonymous":false},{"type":"event","name":"Invested","inputs":[{"name":"to","type":"address","indexed":false,"internalType":"address"},{"name":"mintAmount","type":"uint256","indexed":false,"internalType":"uint256"},{"name":"investFee","type":"uint256","indexed":false,"internalType":"uint256"},{"name":"tokenAmounts","type":"uint256[]","indexed":false,"internalType":"uint256[]"}],"anonymous":false},{"type":"event","name":"InvestedWithETH","inputs":[{"name":"to","type":"address","indexed":true,"internalType":"address"},{"name":"mintAmount","type":"uint256","indexed":false,"internalType":"uint256"},{"name":"paidAmount","type":"uint256","indexed":false,"internalType":"uint256"}],"anonymous":false},{"type":"event","name":"InvestedWithToken","inputs":[{"name":"srcToken","type":"address","indexed":true,"internalType":"address"},{"name":"to","type":"address","indexed":true,"internalType":"address"},{"name":"mintAmount","type":"uint256","indexed":false,"internalType":"uint256"},{"name":"paidAmount","type":"uint256","indexed":false,"internalType":"uint256"}],"anonymous":false},{"type":"event","name":"MinMintAmountUpdated","inputs":[{"name":"oldMinMintAmount","type":"uint256","indexed":false,"internalType":"uint256"},{"name":"newMinMintAmount","type":"uint256","indexed":false,"internalType":"uint256"}],"anonymous":false},{"type":"event","name":"OwnershipTransferred","inputs":[{"name":"previousOwner","type":"address","indexed":true,"internalType":"address"},{"name":"newOwner","type":"address","indexed":true,"internalType":"address"}],"anonymous":false},{"type":"event","name":"Redeemed","inputs":[{"name":"sender","type":"address","indexed":false,"internalType":"address"},{"name":"to","type":"address","indexed":false,"internalType":"address"},{"name":"burnAmount","type":"uint256","indexed":false,"internalType":"uint256"},{"name":"redeemFee","type":"uint256","indexed":false,"internalType":"uint256"},{"name":"tokenAmounts","type":"uint256[]","indexed":false,"internalType":"uint256[]"}],"anonymous":false},{"type":"event","name":"RedeemedToETH","inputs":[{"name":"to","type":"address","indexed":true,"internalType":"address"},{"name":"burnAmount","type":"uint256","indexed":false,"internalType":"uint256"},{"name":"receivedAmount","type":"uint256","indexed":false,"internalType":"uint256"}],"anonymous":false},{"type":"event","name":"RedeemedToToken","inputs":[{"name":"dstToken","type":"address","indexed":true,"internalType":"address"},{"name":"to","type":"address","indexed":true,"internalType":"address"},{"name":"burnAmount","type":"uint256","indexed":false,"internalType":"uint256"},{"name":"receivedAmount","type":"uint256","indexed":false,"internalType":"uint256"}],"anonymous":false},{"type":"event","name":"TokenAdded","inputs":[{"name":"token","type":"address","indexed":false,"internalType":"address"},{"name":"index","type":"uint256","indexed":false,"internalType":"uint256"}],"anonymous":false},{"type":"event","name":"TokenRemoved","inputs":[{"name":"token","type":"address","indexed":false,"internalType":"address"},{"name":"index","type":"uint256","indexed":false,"internalType":"uint256"}],"anonymous":false},{"type":"event","name":"Transfer","inputs":[{"name":"from","type":"address","indexed":true,"internalType":"address"},{"name":"to","type":"address","indexed":true,"internalType":"address"},{"name":"value","type":"uint256","indexed":false,"internalType":"uint256"}],"anonymous":false},{"type":"error","name":"ERC20InsufficientAllowance","inputs":[{"name":"spender","type":"address","internalType":"address"},{"name":"allowance","type":"uint256","internalType":"uint256"},{"name":"needed","type":"uint256","internalType":"uint256"}]},{"type":"error","name":"ERC20InsufficientBalance","inputs":[{"name":"sender","type":"address","internalType":"address"},{"name":"balance","type":"uint256","internalType":"uint256"},{"name":"needed","type":"uint256","internalType":"uint256"}]},{"type":"error","name":"ERC20InvalidApprover","inputs":[{"name":"approver","type":"address","internalType":"address"}]},{"type":"error","name":"ERC20InvalidReceiver","inputs":[{"name":"receiver","type":"address","internalType":"address"}]},{"type":"error","name":"ERC20InvalidSender","inputs":[{"name":"sender","type":"address","internalType":"address"}]},{"type":"error","name":"ERC20InvalidSpender","inputs":[{"name":"spender","type":"address","internalType":"address"}]},{"type":"error","name":"ExceedsMaxETHAmount","inputs":[]},{"type":"error","name":"InsufficientETHAmount","inputs":[]},{"type":"error","name":"InvalidArrayLength","inputs":[]},{"type":"error","name":"InvalidSwapPath","inputs":[{"name":"path","type":"bytes","internalType":"bytes"}]},{"type":"error","name":"LessThanMinMintAmount","inputs":[]},{"type":"error","name":"OverSlippage","inputs":[]},{"type":"error","name":"OwnableInvalidOwner","inputs":[{"name":"owner","type":"address","internalType":"address"}]},{"type":"error","name":"OwnableUnauthorizedAccount","inputs":[{"name":"account","type":"address","internalType":"address"}]},{"type":"error","name":"SafeERC20FailedOperation","inputs":[{"name":"token","type":"address","internalType":"address"}]},{"type":"error","name":"SafeTransferETHFailed","inputs":[]},{"type":"error","name":"TokenExists","inputs":[]},{"type":"error","name":"TokenNotFound","inputs":[]},{"type":"error","name":"TransferFailed","inputs":[]}],"bytecode":{"object":"0x60c060405234801562000010575f80fd5b506040516200577038038062005770833981810160405281019062000036919062000720565b868686868633858581600390816200004f919062000a78565b50806004908162000061919062000a78565b5050505f73ffffffffffffffffffffffffffffffffffffffff168173ffffffffffffffffffffffffffffffffffffffff1603620000d7575f6040517f1e4fbdf7000000000000000000000000000000000000000000000000000000008152600401620000ce919062000b6d565b60405180910390fd5b620000e8816200019c60201b60201c565b508260089080519060200190620001019291906200025f565b5081600990805190602001906200011a929190620002eb565b508060078190555050505050508173ffffffffffffffffffffffffffffffffffffffff1660808173ffffffffffffffffffffffffffffffffffffffff16815250508073ffffffffffffffffffffffffffffffffffffffff1660a08173ffffffffffffffffffffffffffffffffffffffff16815250505050505050505062000b88565b5f60055f9054906101000a900473ffffffffffffffffffffffffffffffffffffffff1690508160055f6101000a81548173ffffffffffffffffffffffffffffffffffffffff021916908373ffffffffffffffffffffffffffffffffffffffff1602179055508173ffffffffffffffffffffffffffffffffffffffff168173ffffffffffffffffffffffffffffffffffffffff167f8be0079c531659141344cd1fd0a4f28419497f9722a3daafe3b4186f6b6457e060405160405180910390a35050565b828054828255905f5260205f20908101928215620002d8579160200282015b82811115620002d7578251825f6101000a81548173ffffffffffffffffffffffffffffffffffffffff021916908373ffffffffffffffffffffffffffffffffffffffff160217905550916020019190600101906200027e565b5b509050620002e791906200033b565b5090565b828054828255905f5260205f2090810192821562000328579160200282015b82811115620003275782518255916020019190600101906200030a565b5b5090506200033791906200033b565b5090565b5b8082111562000354575f815f9055506001016200033c565b5090565b5f604051905090565b5f80fd5b5f80fd5b5f80fd5b5f80fd5b5f601f19601f8301169050919050565b7f4e487b71000000000000000000000000000000000000000000000000000000005f52604160045260245ffd5b620003b98262000371565b810181811067ffffffffffffffff82111715620003db57620003da62000381565b5b80604052505050565b5f620003ef62000358565b9050620003fd8282620003ae565b919050565b5f67ffffffffffffffff8211156200041f576200041e62000381565b5b6200042a8262000371565b9050602081019050919050565b5f5b838110156200045657808201518184015260208101905062000439565b5f8484015250505050565b5f62000477620004718462000402565b620003e4565b9050828152602081018484840111156200049657620004956200036d565b5b620004a384828562000437565b509392505050565b5f82601f830112620004c257620004c162000369565b5b8151620004d484826020860162000461565b91505092915050565b5f67ffffffffffffffff821115620004fa57620004f962000381565b5b602082029050602081019050919050565b5f80fd5b5f73ffffffffffffffffffffffffffffffffffffffff82169050919050565b5f6200053a826200050f565b9050919050565b6200054c816200052e565b811462000557575f80fd5b50565b5f815190506200056a8162000541565b92915050565b5f620005866200058084620004dd565b620003e4565b90508083825260208201905060208402830185811115620005ac57620005ab6200050b565b5b835b81811015620005d95780620005c488826200055a565b845260208401935050602081019050620005ae565b5050509392505050565b5f82601f830112620005fa57620005f962000369565b5b81516200060c84826020860162000570565b91505092915050565b5f67ffffffffffffffff82111562000632576200063162000381565b5b602082029050602081019050919050565b5f819050919050565b620006578162000643565b811462000662575f80fd5b50565b5f8151905062000675816200064c565b92915050565b5f620006916200068b8462000615565b620003e4565b90508083825260208201905060208402830185811115620006b757620006b66200050b565b5b835b81811015620006e45780620006cf888262000665565b845260208401935050602081019050620006b9565b5050509392505050565b5f82601f83011262000705576200070462000369565b5b8151620007178482602086016200067b565b91505092915050565b5f805f805f805f60e0888a0312156200073e576200073d62000361565b5b5f88015167ffffffffffffffff8111156200075e576200075d62000365565b5b6200076c8a828b01620004ab565b975050602088015167ffffffffffffffff81111562000790576200078f62000365565b5b6200079e8a828b01620004ab565b965050604088015167ffffffffffffffff811115620007c257620007c162000365565b5b620007d08a828b01620005e3565b955050606088015167ffffffffffffffff811115620007f457620007f362000365565b5b620008028a828b01620006ee565b9450506080620008158a828b0162000665565b93505060a0620008288a828b016200055a565b92505060c06200083b8a828b016200055a565b91505092959891949750929550565b5f81519050919050565b7f4e487b71000000000000000000000000000000000000000000000000000000005f52602260045260245ffd5b5f60028204905060018216806200089957607f821691505b602082108103620008af57620008ae62000854565b5b50919050565b5f819050815f5260205f209050919050565b5f6020601f8301049050919050565b5f82821b905092915050565b5f60088302620009137fffffffffffffffffffffffffffffffffffffffffffffffffffffffffffffffff82620008d6565b6200091f8683620008d6565b95508019841693508086168417925050509392505050565b5f819050919050565b5f620009606200095a620009548462000643565b62000937565b62000643565b9050919050565b5f819050919050565b6200097b8362000940565b620009936200098a8262000967565b848454620008e2565b825550505050565b5f90565b620009a96200099b565b620009b681848462000970565b505050565b5b81811015620009dd57620009d15f826200099f565b600181019050620009bc565b5050565b601f82111562000a2c57620009f681620008b5565b62000a0184620008c7565b8101602085101562000a11578190505b62000a2962000a2085620008c7565b830182620009bb565b50505b505050565b5f82821c905092915050565b5f62000a4e5f198460080262000a31565b1980831691505092915050565b5f62000a68838362000a3d565b9150826002028217905092915050565b62000a83826200084a565b67ffffffffffffffff81111562000a9f5762000a9e62000381565b5b62000aab825462000881565b62000ab8828285620009e1565b5f60209050601f83116001811462000aee575f841562000ad9578287015190505b62000ae5858262000a5b565b86555062000b54565b601f19841662000afe86620008b5565b5f5b8281101562000b275784890151825560018201915060208501945060208101905062000b00565b8683101562000b47578489015162000b43601f89168262000a3d565b8355505b6001600288020188555050505b505050505050565b62000b67816200052e565b82525050565b5f60208201905062000b825f83018462000b5c565b92915050565b60805160a051614b6462000c0c5f395f8181610e3201528181610ef801528181610f94015281816111bf015281816119fe01528181611a7e01528181611af301528181611b8f0152611d8b01525f8181610bf2015281816110510152818161169101528181611c2901528181611f8e015281816126ed01526127730152614b645ff3fe6080604052600436106101db575f3560e01c806370a0823111610101578063a9059cbb11610094578063c31c9c0711610063578063c31c9c071461067e578063ce7ddbef146106a8578063dd62ed3e146106e4578063f2fde38b14610720576101e2565b8063a9059cbb146105d4578063aa6ca80814610610578063b0acd84b1461063a578063b9b8c24614610656576101e2565b806395d89b41116100d057806395d89b4114610530578063965fa21e1461055a578063a0398af314610584578063a553618b146105ac576101e2565b806370a082311461048a578063715018a6146104c65780638423f320146104dc5780638da5cb5b14610506576101e2565b80631e9a6950116101795780633fc8cef3116101485780633fc8cef3146103e65780634f4e0921146104105780636dd84ac1146104385780636ed93dd014610460576101e2565b80631e9a69501461033057806322b1c0271461035857806323b872dd14610380578063313ce567146103bc576101e2565b806306fdde03116101b557806306fdde0314610276578063095ea7b3146102a057806318160ddd146102dc5780631c1f301414610306576101e2565b8063017e7e58146101e657806301e9d7571461021057806305def3471461023a576101e2565b366101e257005b5f80fd5b3480156101f1575f80fd5b506101fa610748565b6040516102079190613a66565b60405180910390f35b34801561021b575f80fd5b5061022461076d565b6040516102319190613a97565b60405180910390f35b348015610245575f80fd5b50610260600480360381019061025b9190613aeb565b610773565b60405161026d9190613bcd565b60405180910390f35b348015610281575f80fd5b5061028a610944565b6040516102979190613c77565b60405180910390f35b3480156102ab575f80fd5b506102c660048036038101906102c19190613cc1565b6109d4565b6040516102d39190613d19565b60405180910390f35b3480156102e7575f80fd5b506102f06109f6565b6040516102fd9190613a97565b60405180910390f35b348015610311575f80fd5b5061031a6109ff565b6040516103279190613d4f565b60405180910390f35b34801561033b575f80fd5b5061035660048036038101906103519190613cc1565b610a14565b005b348015610363575f80fd5b5061037e60048036038101906103799190613f76565b610a23565b005b34801561038b575f80fd5b506103a660048036038101906103a19190614009565b610dfa565b6040516103b39190613d19565b60405180910390f35b3480156103c7575f80fd5b506103d0610e28565b6040516103dd9190614074565b60405180910390f35b3480156103f1575f80fd5b506103fa610e30565b6040516104079190613a66565b60405180910390f35b34801561041b575f80fd5b506104366004803603810190610431919061408d565b610e54565b005b348015610443575f80fd5b5061045e60048036038101906104599190613aeb565b6112a6565b005b34801561046b575f80fd5b506104746112f3565b6040516104819190613d4f565b60405180910390f35b348015610495575f80fd5b506104b060048036038101906104ab919061410d565b6112fa565b6040516104bd9190613a97565b60405180910390f35b3480156104d1575f80fd5b506104da61133f565b005b3480156104e7575f80fd5b506104f0611352565b6040516104fd9190613bcd565b60405180910390f35b348015610511575f80fd5b5061051a6113a8565b6040516105279190613a66565b60405180910390f35b34801561053b575f80fd5b506105446113d0565b6040516105519190613c77565b60405180910390f35b348015610565575f80fd5b5061056e611460565b60405161057b9190613d4f565b60405180910390f35b34801561058f575f80fd5b506105aa60048036038101906105a59190613f76565b611475565b005b3480156105b7575f80fd5b506105d260048036038101906105cd9190614162565b61186e565b005b3480156105df575f80fd5b506105fa60048036038101906105f59190613cc1565b6118f9565b6040516106079190613d19565b60405180910390f35b34801561061b575f80fd5b5061062461191b565b6040516106319190614269565b60405180910390f35b610654600480360381019061064f9190614289565b6119a6565b005b348015610661575f80fd5b5061067c60048036038101906106779190613cc1565b611eb8565b005b348015610689575f80fd5b50610692611f8c565b60405161069f9190613a66565b60405180910390f35b3480156106b3575f80fd5b506106ce60048036038101906106c99190613aeb565b611fb0565b6040516106db9190613bcd565b60405180910390f35b3480156106ef575f80fd5b5061070a600480360381019061070591906142f5565b612181565b6040516107179190613a97565b60405180910390f35b34801561072b575f80fd5b506107466004803603810190610741919061410d565b612203565b005b60065f9054906101000a900473ffffffffffffffffffffffffffffffffffffffff1681565b60075481565b60605f61077e6109f6565b905060088054905067ffffffffffffffff81111561079f5761079e613d6c565b5b6040519080825280602002602001820160405280156107cd5781602001602082028036833780820191505090505b5091505f5b60088054905081101561093d575f8211156108d7575f600882815481106107fc576107fb614333565b5b905f5260205f20015f9054906101000a900473ffffffffffffffffffffffffffffffffffffffff1673ffffffffffffffffffffffffffffffffffffffff166370a08231306040518263ffffffff1660e01b815260040161085c9190613a66565b602060405180830381865afa158015610877573d5f803e3d5ffd5b505050506040513d601f19601f8201168201806040525081019061089b9190614374565b90506108b28584836122879092919063ffffffff16565b8483815181106108c5576108c4614333565b5b60200260200101818152505050610930565b610910600982815481106108ee576108ed614333565b5b905f5260205f200154670de0b6b3a7640000866122879092919063ffffffff16565b83828151811061092357610922614333565b5b6020026020010181815250505b80806001019150506107d2565b5050919050565b606060038054610953906143cc565b80601f016020809104026020016040519081016040528092919081815260200182805461097f906143cc565b80156109ca5780601f106109a1576101008083540402835291602001916109ca565b820191905f5260205f20905b8154815290600101906020018083116109ad57829003601f168201915b5050505050905090565b5f806109de6122ef565b90506109eb8185856122f6565b600191505092915050565b5f600254905090565b600660149054906101000a900462ffffff1681565b610a1e8282612308565b505050565b5f610a2c61191b565b90508151815114610a69576040517f9d89020a00000000000000000000000000000000000000000000000000000000815260040160405180910390fd5b5f610a7385610773565b9050610aa23330868a73ffffffffffffffffffffffffffffffffffffffff1661262b909392919063ffffffff16565b610aab876126ad565b5f805f90505b8351811015610d42575f838281518110610ace57610acd614333565b5b60200260200101510315610d3557610b1b848281518110610af257610af1614333565b5b60200260200101518a878481518110610b0e57610b0d614333565b5b60200260200101516127dd565b610b7657848181518110610b3257610b31614333565b5b60200260200101516040517f5c379223000000000000000000000000000000000000000000000000000000008152600401610b6d919061444e565b60405180910390fd5b8873ffffffffffffffffffffffffffffffffffffffff16848281518110610ba057610b9f614333565b5b602002602001015173ffffffffffffffffffffffffffffffffffffffff1603610bf057828181518110610bd657610bd5614333565b5b602002602001015182610be9919061449b565b9150610d34565b7f000000000000000000000000000000000000000000000000000000000000000073ffffffffffffffffffffffffffffffffffffffff1663f28c04986040518060a00160405280888581518110610c4a57610c49614333565b5b602002602001015181526020013073ffffffffffffffffffffffffffffffffffffffff16815260200161012c42610c81919061449b565b8152602001868581518110610c9957610c98614333565b5b602002602001015181526020017fffffffffffffffffffffffffffffffffffffffffffffffffffffffffffffffff8152506040518263ffffffff1660e01b8152600401610ce69190614589565b6020604051808303815f875af1158015610d02573d5f803e3d5ffd5b505050506040513d601f19601f82011682018060405250810190610d269190614374565b82610d31919061449b565b91505b5b8080600101915050610ab1565b505f8186610d5091906145a9565b9050610d7d33828b73ffffffffffffffffffffffffffffffffffffffff1661296b9092919063ffffffff16565b610d8788886129ea565b508773ffffffffffffffffffffffffffffffffffffffff168973ffffffffffffffffffffffffffffffffffffffff167fd58b185d00630065159db1d6df5fea816128b29100ce9dbc56dd6508e380aa9d8985604051610de79291906145dc565b60405180910390a3505050505050505050565b5f80610e046122ef565b9050610e11858285612b1d565b610e1c858585612bb0565b60019150509392505050565b5f6012905090565b7f000000000000000000000000000000000000000000000000000000000000000081565b5f610e5d61191b565b90508151815114610e9a576040517f9d89020a00000000000000000000000000000000000000000000000000000000815260040160405180910390fd5b5f610ea53086612308565b90505f805f90505b8351811015611182575f838281518110610eca57610ec9614333565b5b6020026020010151031561117557610f37848281518110610eee57610eed614333565b5b60200260200101517f0000000000000000000000000000000000000000000000000000000000000000878481518110610f2a57610f29614333565b5b60200260200101516127dd565b610f9257848181518110610f4e57610f4d614333565b5b60200260200101516040517f5c379223000000000000000000000000000000000000000000000000000000008152600401610f89919061444e565b60405180910390fd5b7f000000000000000000000000000000000000000000000000000000000000000073ffffffffffffffffffffffffffffffffffffffff16848281518110610fdc57610fdb614333565b5b602002602001015173ffffffffffffffffffffffffffffffffffffffff160361102c5782818151811061101257611011614333565b5b602002602001015182611025919061449b565b9150611174565b61104f84828151811061104257611041614333565b5b60200260200101516126ad565b7f000000000000000000000000000000000000000000000000000000000000000073ffffffffffffffffffffffffffffffffffffffff1663c04b8d596040518060a001604052808885815181106110a9576110a8614333565b5b602002602001015181526020013073ffffffffffffffffffffffffffffffffffffffff16815260200161012c426110e0919061449b565b81526020018685815181106110f8576110f7614333565b5b6020026020010151815260200160018152506040518263ffffffff1660e01b81526004016111269190614676565b6020604051808303815f875af1158015611142573d5f803e3d5ffd5b505050506040513d601f19601f820116820180604052508101906111669190614374565b82611171919061449b565b91505b5b8080600101915050610ead565b50848110156111bd576040517f93bce7b300000000000000000000000000000000000000000000000000000000815260040160405180910390fd5b7f000000000000000000000000000000000000000000000000000000000000000073ffffffffffffffffffffffffffffffffffffffff16632e1a7d4d826040518263ffffffff1660e01b81526004016112169190613a97565b5f604051808303815f87803b15801561122d575f80fd5b505af115801561123f573d5f803e3d5ffd5b5050505061124d8782612ca0565b8673ffffffffffffffffffffffffffffffffffffffff167f786875e1cfb7304a0cb0e3672e281b2d4890f432fdd4c07fc44d687612d5296387836040516112959291906145dc565b60405180910390a250505050505050565b6112ae612d92565b7fa9d547bad523b2016561d73c8b6f0de927b53e678d07b339173ea7b469ec8969600754826040516112e19291906145dc565b60405180910390a18060078190555050565b620f424081565b5f805f8373ffffffffffffffffffffffffffffffffffffffff1673ffffffffffffffffffffffffffffffffffffffff1681526020019081526020015f20549050919050565b611347612d92565b6113505f612e19565b565b6060600980548060200260200160405190810160405280929190818152602001828054801561139e57602002820191905f5260205f20905b81548152602001906001019080831161138a575b5050505050905090565b5f60055f9054906101000a900473ffffffffffffffffffffffffffffffffffffffff16905090565b6060600480546113df906143cc565b80601f016020809104026020016040519081016040528092919081815260200182805461140b906143cc565b80156114565780601f1061142d57610100808354040283529160200191611456565b820191905f5260205f20905b81548152906001019060200180831161143957829003601f168201915b5050505050905090565b600660179054906101000a900462ffffff1681565b5f61147e61191b565b905081518151146114bb576040517f9d89020a00000000000000000000000000000000000000000000000000000000815260040160405180910390fd5b5f6114c63086612308565b90505f805f90505b83518110156117c2575f8382815181106114eb576114ea614333565b5b602002602001015103156117b55761153884828151811061150f5761150e614333565b5b60200260200101518a87848151811061152b5761152a614333565b5b60200260200101516127dd565b6115935784818151811061154f5761154e614333565b5b60200260200101516040517f5c37922300000000000000000000000000000000000000000000000000000000815260040161158a919061444e565b60405180910390fd5b8873ffffffffffffffffffffffffffffffffffffffff168482815181106115bd576115bc614333565b5b602002602001015173ffffffffffffffffffffffffffffffffffffffff160361166c5761163f888483815181106115f7576115f6614333565b5b602002602001015186848151811061161257611611614333565b5b602002602001015173ffffffffffffffffffffffffffffffffffffffff1661296b9092919063ffffffff16565b82818151811061165257611651614333565b5b602002602001015182611665919061449b565b91506117b4565b61168f84828151811061168257611681614333565b5b60200260200101516126ad565b7f000000000000000000000000000000000000000000000000000000000000000073ffffffffffffffffffffffffffffffffffffffff1663c04b8d596040518060a001604052808885815181106116e9576116e8614333565b5b602002602001015181526020018b73ffffffffffffffffffffffffffffffffffffffff16815260200161012c42611720919061449b565b815260200186858151811061173857611737614333565b5b6020026020010151815260200160018152506040518263ffffffff1660e01b81526004016117669190614676565b6020604051808303815f875af1158015611782573d5f803e3d5ffd5b505050506040513d601f19601f820116820180604052508101906117a69190614374565b826117b1919061449b565b91505b5b80806001019150506114ce565b50848110156117fd576040517f93bce7b300000000000000000000000000000000000000000000000000000000815260040160405180910390fd5b8673ffffffffffffffffffffffffffffffffffffffff168873ffffffffffffffffffffffffffffffffffffffff167f19b500572e111e1efaa6d79e923346af4412022ba47520af0af63701618fa738888460405161185c9291906145dc565b60405180910390a35050505050505050565b611876612d92565b8260065f6101000a81548173ffffffffffffffffffffffffffffffffffffffff021916908373ffffffffffffffffffffffffffffffffffffffff16021790555081600660146101000a81548162ffffff021916908362ffffff16021790555080600660176101000a81548162ffffff021916908362ffffff160217905550505050565b5f806119036122ef565b9050611910818585612bb0565b600191505092915050565b6060600880548060200260200160405190810160405280929190818152602001828054801561199c57602002820191905f5260205f20905b815f9054906101000a900473ffffffffffffffffffffffffffffffffffffffff1673ffffffffffffffffffffffffffffffffffffffff1681526020019060010190808311611953575b5050505050905090565b5f6119af61191b565b905081518151146119ec576040517f9d89020a00000000000000000000000000000000000000000000000000000000815260040160405180910390fd5b5f6119f684610773565b90505f3490507f000000000000000000000000000000000000000000000000000000000000000073ffffffffffffffffffffffffffffffffffffffff1663d0e30db0826040518263ffffffff1660e01b81526004015f604051808303818588803b158015611a62575f80fd5b505af1158015611a74573d5f803e3d5ffd5b5050505050611aa27f00000000000000000000000000000000000000000000000000000000000000006126ad565b5f805f90505b8451811015611d79575f848281518110611ac557611ac4614333565b5b60200260200101510315611d6c57611b32858281518110611ae957611ae8614333565b5b60200260200101517f0000000000000000000000000000000000000000000000000000000000000000888481518110611b2557611b24614333565b5b60200260200101516127dd565b611b8d57858181518110611b4957611b48614333565b5b60200260200101516040517f5c379223000000000000000000000000000000000000000000000000000000008152600401611b84919061444e565b60405180910390fd5b7f000000000000000000000000000000000000000000000000000000000000000073ffffffffffffffffffffffffffffffffffffffff16858281518110611bd757611bd6614333565b5b602002602001015173ffffffffffffffffffffffffffffffffffffffff1603611c2757838181518110611c0d57611c0c614333565b5b602002602001015182611c20919061449b565b9150611d6b565b7f000000000000000000000000000000000000000000000000000000000000000073ffffffffffffffffffffffffffffffffffffffff1663f28c04986040518060a00160405280898581518110611c8157611c80614333565b5b602002602001015181526020013073ffffffffffffffffffffffffffffffffffffffff16815260200161012c42611cb8919061449b565b8152602001878581518110611cd057611ccf614333565b5b602002602001015181526020017fffffffffffffffffffffffffffffffffffffffffffffffffffffffffffffffff8152506040518263ffffffff1660e01b8152600401611d1d9190614589565b6020604051808303815f875af1158015611d39573d5f803e3d5ffd5b505050506040513d601f19601f82011682018060405250810190611d5d9190614374565b82611d68919061449b565b91505b5b8080600101915050611aa8565b505f8183611d8791906145a9565b90507f000000000000000000000000000000000000000000000000000000000000000073ffffffffffffffffffffffffffffffffffffffff16632e1a7d4d826040518263ffffffff1660e01b8152600401611de29190613a97565b5f604051808303815f87803b158015611df9575f80fd5b505af1158015611e0b573d5f803e3d5ffd5b505050503373ffffffffffffffffffffffffffffffffffffffff166108fc8290811502906040515f60405180830381858888f19350505050158015611e52573d5f803e3d5ffd5b50611e5d88886129ea565b508773ffffffffffffffffffffffffffffffffffffffff167f36e6d1f8e1c4f92e727ccf4a79ffccbf5c0ef99f5173e9db300980664a7ff9848884604051611ea69291906145dc565b60405180910390a25050505050505050565b5f611ec383836129ea565b90505f5b600880549050811015611f86575f828281518110611ee857611ee7614333565b5b60200260200101511115611f7957611f783330848481518110611f0e57611f0d614333565b5b602002602001015160088581548110611f2a57611f29614333565b5b905f5260205f20015f9054906101000a900473ffffffffffffffffffffffffffffffffffffffff1673ffffffffffffffffffffffffffffffffffffffff1661262b909392919063ffffffff16565b5b8080600101915050611ec7565b50505050565b7f000000000000000000000000000000000000000000000000000000000000000081565b60605f600660179054906101000a900462ffffff1662ffffff161115612018575f620f424062ffffff16600660179054906101000a900462ffffff1662ffffff1684611ffc9190614696565b6120069190614704565b9050808361201491906145a9565b9250505b5f6120216109f6565b905060088054905067ffffffffffffffff81111561204257612041613d6c565b5b6040519080825280602002602001820160405280156120705781602001602082028036833780820191505090505b5091505f5b60088054905081101561217a575f6008828154811061209757612096614333565b5b905f5260205f20015f9054906101000a900473ffffffffffffffffffffffffffffffffffffffff1673ffffffffffffffffffffffffffffffffffffffff166370a08231306040518263ffffffff1660e01b81526004016120f79190613a66565b602060405180830381865afa158015612112573d5f803e3d5ffd5b505050506040513d601f19601f820116820180604052508101906121369190614374565b905061214d858483612edc9092919063ffffffff16565b8483815181106121605761215f614333565b5b602002602001018181525050508080600101915050612075565b5050919050565b5f60015f8473ffffffffffffffffffffffffffffffffffffffff1673ffffffffffffffffffffffffffffffffffffffff1681526020019081526020015f205f8373ffffffffffffffffffffffffffffffffffffffff1673ffffffffffffffffffffffffffffffffffffffff1681526020019081526020015f2054905092915050565b61220b612d92565b5f73ffffffffffffffffffffffffffffffffffffffff168173ffffffffffffffffffffffffffffffffffffffff160361227b575f6040517f1e4fbdf70000000000000000000000000000000000000000000000000000000081526004016122729190613a66565b60405180910390fd5b61228481612e19565b50565b5f612293848484612edc565b90505f82806122a5576122a46146d7565b5b84860911156122e8577fffffffffffffffffffffffffffffffffffffffffffffffffffffffffffffffff81106122d9575f80fd5b80806122e490614734565b9150505b9392505050565b5f33905090565b6123038383836001613072565b505050565b60605f6123136109f6565b905060088054905067ffffffffffffffff81111561233457612333613d6c565b5b6040519080825280602002602001820160405280156123625781602001602082028036833780820191505090505b50915061236f3384613241565b5f80600660179054906101000a900462ffffff1662ffffff1611156123f157620f424062ffffff16600660179054906101000a900462ffffff1662ffffff16856123b99190614696565b6123c39190614704565b90506123f060065f9054906101000a900473ffffffffffffffffffffffffffffffffffffffff16826132c0565b5b5f81856123fe91906145a9565b90505f5b6008805490508110156125e2575f6008828154811061242457612423614333565b5b905f5260205f20015f9054906101000a900473ffffffffffffffffffffffffffffffffffffffff1673ffffffffffffffffffffffffffffffffffffffff166370a08231306040518263ffffffff1660e01b81526004016124849190613a66565b602060405180830381865afa15801561249f573d5f803e3d5ffd5b505050506040513d601f19601f820116820180604052508101906124c39190614374565b90506124da838683612edc9092919063ffffffff16565b8683815181106124ed576124ec614333565b5b6020026020010181815250503073ffffffffffffffffffffffffffffffffffffffff168873ffffffffffffffffffffffffffffffffffffffff161415801561254e57505f86838151811061254457612543614333565b5b6020026020010151115b156125d4576125d38887848151811061256a57612569614333565b5b60200260200101516008858154811061258657612585614333565b5b905f5260205f20015f9054906101000a900473ffffffffffffffffffffffffffffffffffffffff1673ffffffffffffffffffffffffffffffffffffffff1661296b9092919063ffffffff16565b5b508080600101915050612402565b507f626f4593f8e12e62b00d18bb3073d2cbe173b9415cdb7b39ed0609569b66f560338787858860405161261a95949392919061477b565b60405180910390a150505092915050565b6126a7848573ffffffffffffffffffffffffffffffffffffffff166323b872dd868686604051602401612660939291906147d3565b604051602081830303815290604052915060e01b6020820180517bffffffffffffffffffffffffffffffffffffffffffffffffffffffff838183161783525050505061333f565b50505050565b7fffffffffffffffffffffffffffffffffffffffffffffffffffffffffffffffff8173ffffffffffffffffffffffffffffffffffffffff1663dd62ed3e307f00000000000000000000000000000000000000000000000000000000000000006040518363ffffffff1660e01b8152600401612729929190614808565b602060405180830381865afa158015612744573d5f803e3d5ffd5b505050506040513d601f19601f820116820180604052508101906127689190614374565b10156127da576127d97f00000000000000000000000000000000000000000000000000000000000000007fffffffffffffffffffffffffffffffffffffffffffffffffffffffffffffffff8373ffffffffffffffffffffffffffffffffffffffff166133da9092919063ffffffff16565b5b50565b5f805f6127e9846134e7565b50915091508473ffffffffffffffffffffffffffffffffffffffff168673ffffffffffffffffffffffffffffffffffffffff16036128b3578573ffffffffffffffffffffffffffffffffffffffff168273ffffffffffffffffffffffffffffffffffffffff1614801561288757508573ffffffffffffffffffffffffffffffffffffffff168173ffffffffffffffffffffffffffffffffffffffff16145b801561289957506128978461353e565b155b156128a957600192505050612964565b5f92505050612964565b8573ffffffffffffffffffffffffffffffffffffffff168273ffffffffffffffffffffffffffffffffffffffff16146128f0575f92505050612964565b5b6128fa8461353e565b1561290f576129088461357c565b93506128f1565b612918846134e7565b90915050809150508473ffffffffffffffffffffffffffffffffffffffff168173ffffffffffffffffffffffffffffffffffffffff161461295d575f92505050612964565b6001925050505b9392505050565b6129e5838473ffffffffffffffffffffffffffffffffffffffff1663a9059cbb858560405160240161299e92919061482f565b604051602081830303815290604052915060e01b6020820180517bffffffffffffffffffffffffffffffffffffffffffffffffffffffff838183161783525050505061333f565b505050565b6060600754821015612a28576040517fdb49828e00000000000000000000000000000000000000000000000000000000815260040160405180910390fd5b612a3182610773565b90505f80600660149054906101000a900462ffffff1662ffffff161115612ace57620f424062ffffff16600660149054906101000a900462ffffff1662ffffff1684612a7d9190614696565b612a879190614704565b9050612ab460065f9054906101000a900473ffffffffffffffffffffffffffffffffffffffff16826132c0565b612ac9848285612ac491906145a9565b6132c0565b612ad9565b612ad884846132c0565b5b7fa7f6b1cb38ac5fbcae3bbaa808d1f2aaad5c8da1dd8f1d960088082f8401395384848385604051612b0e9493929190614856565b60405180910390a15092915050565b5f612b288484612181565b90507fffffffffffffffffffffffffffffffffffffffffffffffffffffffffffffffff811015612baa5781811015612b9b578281836040517ffb8f41b2000000000000000000000000000000000000000000000000000000008152600401612b92939291906148a0565b60405180910390fd5b612ba984848484035f613072565b5b50505050565b5f73ffffffffffffffffffffffffffffffffffffffff168373ffffffffffffffffffffffffffffffffffffffff1603612c20575f6040517f96c6fd1e000000000000000000000000000000000000000000000000000000008152600401612c179190613a66565b60405180910390fd5b5f73ffffffffffffffffffffffffffffffffffffffff168273ffffffffffffffffffffffffffffffffffffffff1603612c90575f6040517fec442f05000000000000000000000000000000000000000000000000000000008152600401612c879190613a66565b60405180910390fd5b612c9b8383836135c0565b505050565b5f8273ffffffffffffffffffffffffffffffffffffffff16825f67ffffffffffffffff811115612cd357612cd2613d6c565b5b6040519080825280601f01601f191660200182016040528015612d055781602001600182028036833780820191505090505b50604051612d13919061490f565b5f6040518083038185875af1925050503d805f8114612d4d576040519150601f19603f3d011682016040523d82523d5f602084013e612d52565b606091505b5050905080612d8d576040517f067ecc5f00000000000000000000000000000000000000000000000000000000815260040160405180910390fd5b505050565b612d9a6122ef565b73ffffffffffffffffffffffffffffffffffffffff16612db86113a8565b73ffffffffffffffffffffffffffffffffffffffff1614612e1757612ddb6122ef565b6040517f118cdaa7000000000000000000000000000000000000000000000000000000008152600401612e0e9190613a66565b60405180910390fd5b565b5f60055f9054906101000a900473ffffffffffffffffffffffffffffffffffffffff1690508160055f6101000a81548173ffffffffffffffffffffffffffffffffffffffff021916908373ffffffffffffffffffffffffffffffffffffffff1602179055508173ffffffffffffffffffffffffffffffffffffffff168173ffffffffffffffffffffffffffffffffffffffff167f8be0079c531659141344cd1fd0a4f28419497f9722a3daafe3b4186f6b6457e060405160405180910390a35050565b5f805f80198587098587029250828110838203039150505f8103612f11575f8411612f05575f80fd5b8382049250505061306b565b808411612f1c575f80fd5b5f8486880990508281118203915080830392505f8560018719612f3f919061449b565b16905080860495508084049350600181825f03040190508083612f629190614696565b841793505f6002876003612f769190614696565b1890508087612f859190614696565b6002612f9191906145a9565b81612f9c9190614696565b90508087612faa9190614696565b6002612fb691906145a9565b81612fc19190614696565b90508087612fcf9190614696565b6002612fdb91906145a9565b81612fe69190614696565b90508087612ff49190614696565b600261300091906145a9565b8161300b9190614696565b905080876130199190614696565b600261302591906145a9565b816130309190614696565b9050808761303e9190614696565b600261304a91906145a9565b816130559190614696565b905080856130639190614696565b955050505050505b9392505050565b5f73ffffffffffffffffffffffffffffffffffffffff168473ffffffffffffffffffffffffffffffffffffffff16036130e2575f6040517fe602df050000000000000000000000000000000000000000000000000000000081526004016130d99190613a66565b60405180910390fd5b5f73ffffffffffffffffffffffffffffffffffffffff168373ffffffffffffffffffffffffffffffffffffffff1603613152575f6040517f94280d620000000000000000000000000000000000000000000000000000000081526004016131499190613a66565b60405180910390fd5b8160015f8673ffffffffffffffffffffffffffffffffffffffff1673ffffffffffffffffffffffffffffffffffffffff1681526020019081526020015f205f8573ffffffffffffffffffffffffffffffffffffffff1673ffffffffffffffffffffffffffffffffffffffff1681526020019081526020015f2081905550801561323b578273ffffffffffffffffffffffffffffffffffffffff168473ffffffffffffffffffffffffffffffffffffffff167f8c5be1e5ebec7d5bd14f71427d1e84f3dd0314c0f7b2291e5b200ac8c7c3b925846040516132329190613a97565b60405180910390a35b50505050565b5f73ffffffffffffffffffffffffffffffffffffffff168273ffffffffffffffffffffffffffffffffffffffff16036132b1575f6040517f96c6fd1e0000000000000000000000000000000000000000000000000000000081526004016132a89190613a66565b60405180910390fd5b6132bc825f836135c0565b5050565b5f73ffffffffffffffffffffffffffffffffffffffff168273ffffffffffffffffffffffffffffffffffffffff1603613330575f6040517fec442f050000000000000000000000000000000000000000000000000000000081526004016133279190613a66565b60405180910390fd5b61333b5f83836135c0565b5050565b5f8060205f8451602086015f885af18061335e576040513d5f823e3d81fd5b3d92505f519150505f8214613377576001811415613392565b5f8473ffffffffffffffffffffffffffffffffffffffff163b145b156133d457836040517f5274afe70000000000000000000000000000000000000000000000000000000081526004016133cb9190613a66565b60405180910390fd5b50505050565b5f8373ffffffffffffffffffffffffffffffffffffffff1663095ea7b3848460405160240161340a92919061482f565b604051602081830303815290604052915060e01b6020820180517bffffffffffffffffffffffffffffffffffffffffffffffffffffffff8381831617835250505050905061345884826137d9565b6134e1576134d6848573ffffffffffffffffffffffffffffffffffffffff1663095ea7b3865f60405160240161348f929190614967565b604051602081830303815290604052915060e01b6020820180517bffffffffffffffffffffffffffffffffffffffffffffffffffffffff838183161783525050505061333f565b6134e0848261333f565b5b50505050565b5f805f6134fd5f8561383290919063ffffffff16565b92506135136014856138a690919063ffffffff16565b905061353560036014613526919061449b565b8561383290919063ffffffff16565b91509193909250565b5f6003601461354d919061449b565b60146003601461355d919061449b565b613567919061449b565b613571919061449b565b825110159050919050565b60606135b96003601461358f919061449b565b6003601461359d919061449b565b84516135a991906145a9565b8461390b9092919063ffffffff16565b9050919050565b5f73ffffffffffffffffffffffffffffffffffffffff168373ffffffffffffffffffffffffffffffffffffffff1603613610578060025f828254613604919061449b565b925050819055506136de565b5f805f8573ffffffffffffffffffffffffffffffffffffffff1673ffffffffffffffffffffffffffffffffffffffff1681526020019081526020015f2054905081811015613699578381836040517fe450d38c000000000000000000000000000000000000000000000000000000008152600401613690939291906148a0565b60405180910390fd5b8181035f808673ffffffffffffffffffffffffffffffffffffffff1673ffffffffffffffffffffffffffffffffffffffff1681526020019081526020015f2081905550505b5f73ffffffffffffffffffffffffffffffffffffffff168273ffffffffffffffffffffffffffffffffffffffff1603613725578060025f828254039250508190555061376f565b805f808473ffffffffffffffffffffffffffffffffffffffff1673ffffffffffffffffffffffffffffffffffffffff1681526020019081526020015f205f82825401925050819055505b8173ffffffffffffffffffffffffffffffffffffffff168373ffffffffffffffffffffffffffffffffffffffff167fddf252ad1be2c89b69c2b068fc378daa952ba7f163c4a11628f55a4df523b3ef836040516137cc9190613a97565b60405180910390a3505050565b5f805f8060205f8651602088015f8a5af192503d91505f51905082801561382757505f821461380b5760018114613826565b5f8673ffffffffffffffffffffffffffffffffffffffff163b115b5b935050505092915050565b5f601482613840919061449b565b83511015613883576040517f08c379a000000000000000000000000000000000000000000000000000000000815260040161387a906149d8565b60405180910390fd5b5f6c01000000000000000000000000836020860101510490508091505092915050565b5f6003826138b4919061449b565b835110156138f7576040517f08c379a00000000000000000000000000000000000000000000000000000000081526004016138ee90614a40565b60405180910390fd5b5f8260038501015190508091505092915050565b606081601f8361391b919061449b565b101561395c576040517f08c379a000000000000000000000000000000000000000000000000000000000815260040161395390614aa8565b60405180910390fd5b8183613968919061449b565b845110156139ab576040517f08c379a00000000000000000000000000000000000000000000000000000000081526004016139a290614b10565b60405180910390fd5b606082155f81146139ca5760405191505f825260208201604052613a1b565b6040519150601f8416801560200281840101858101878315602002848b0101015b81831015613a0857805183526020830192506020810190506139eb565b50868552601f19601f8301166040525050505b50809150509392505050565b5f73ffffffffffffffffffffffffffffffffffffffff82169050919050565b5f613a5082613a27565b9050919050565b613a6081613a46565b82525050565b5f602082019050613a795f830184613a57565b92915050565b5f819050919050565b613a9181613a7f565b82525050565b5f602082019050613aaa5f830184613a88565b92915050565b5f604051905090565b5f80fd5b5f80fd5b613aca81613a7f565b8114613ad4575f80fd5b50565b5f81359050613ae581613ac1565b92915050565b5f60208284031215613b0057613aff613ab9565b5b5f613b0d84828501613ad7565b91505092915050565b5f81519050919050565b5f82825260208201905092915050565b5f819050602082019050919050565b613b4881613a7f565b82525050565b5f613b598383613b3f565b60208301905092915050565b5f602082019050919050565b5f613b7b82613b16565b613b858185613b20565b9350613b9083613b30565b805f5b83811015613bc0578151613ba78882613b4e565b9750613bb283613b65565b925050600181019050613b93565b5085935050505092915050565b5f6020820190508181035f830152613be58184613b71565b905092915050565b5f81519050919050565b5f82825260208201905092915050565b5f5b83811015613c24578082015181840152602081019050613c09565b5f8484015250505050565b5f601f19601f8301169050919050565b5f613c4982613bed565b613c538185613bf7565b9350613c63818560208601613c07565b613c6c81613c2f565b840191505092915050565b5f6020820190508181035f830152613c8f8184613c3f565b905092915050565b613ca081613a46565b8114613caa575f80fd5b50565b5f81359050613cbb81613c97565b92915050565b5f8060408385031215613cd757613cd6613ab9565b5b5f613ce485828601613cad565b9250506020613cf585828601613ad7565b9150509250929050565b5f8115159050919050565b613d1381613cff565b82525050565b5f602082019050613d2c5f830184613d0a565b92915050565b5f62ffffff82169050919050565b613d4981613d32565b82525050565b5f602082019050613d625f830184613d40565b92915050565b5f80fd5b7f4e487b71000000000000000000000000000000000000000000000000000000005f52604160045260245ffd5b613da282613c2f565b810181811067ffffffffffffffff82111715613dc157613dc0613d6c565b5b80604052505050565b5f613dd3613ab0565b9050613ddf8282613d99565b919050565b5f67ffffffffffffffff821115613dfe57613dfd613d6c565b5b602082029050602081019050919050565b5f80fd5b5f80fd5b5f67ffffffffffffffff821115613e3157613e30613d6c565b5b613e3a82613c2f565b9050602081019050919050565b828183375f83830152505050565b5f613e67613e6284613e17565b613dca565b905082815260208101848484011115613e8357613e82613e13565b5b613e8e848285613e47565b509392505050565b5f82601f830112613eaa57613ea9613d68565b5b8135613eba848260208601613e55565b91505092915050565b5f613ed5613ed084613de4565b613dca565b90508083825260208201905060208402830185811115613ef857613ef7613e0f565b5b835b81811015613f3f57803567ffffffffffffffff811115613f1d57613f1c613d68565b5b808601613f2a8982613e96565b85526020850194505050602081019050613efa565b5050509392505050565b5f82601f830112613f5d57613f5c613d68565b5b8135613f6d848260208601613ec3565b91505092915050565b5f805f805f60a08688031215613f8f57613f8e613ab9565b5b5f613f9c88828901613cad565b9550506020613fad88828901613cad565b9450506040613fbe88828901613ad7565b9350506060613fcf88828901613ad7565b925050608086013567ffffffffffffffff811115613ff057613fef613abd565b5b613ffc88828901613f49565b9150509295509295909350565b5f805f606084860312156140205761401f613ab9565b5b5f61402d86828701613cad565b935050602061403e86828701613cad565b925050604061404f86828701613ad7565b9150509250925092565b5f60ff82169050919050565b61406e81614059565b82525050565b5f6020820190506140875f830184614065565b92915050565b5f805f80608085870312156140a5576140a4613ab9565b5b5f6140b287828801613cad565b94505060206140c387828801613ad7565b93505060406140d487828801613ad7565b925050606085013567ffffffffffffffff8111156140f5576140f4613abd565b5b61410187828801613f49565b91505092959194509250565b5f6020828403121561412257614121613ab9565b5b5f61412f84828501613cad565b91505092915050565b61414181613d32565b811461414b575f80fd5b50565b5f8135905061415c81614138565b92915050565b5f805f6060848603121561417957614178613ab9565b5b5f61418686828701613cad565b93505060206141978682870161414e565b92505060406141a88682870161414e565b9150509250925092565b5f81519050919050565b5f82825260208201905092915050565b5f819050602082019050919050565b6141e481613a46565b82525050565b5f6141f583836141db565b60208301905092915050565b5f602082019050919050565b5f614217826141b2565b61422181856141bc565b935061422c836141cc565b805f5b8381101561425c57815161424388826141ea565b975061424e83614201565b92505060018101905061422f565b5085935050505092915050565b5f6020820190508181035f830152614281818461420d565b905092915050565b5f805f606084860312156142a05761429f613ab9565b5b5f6142ad86828701613cad565b93505060206142be86828701613ad7565b925050604084013567ffffffffffffffff8111156142df576142de613abd565b5b6142eb86828701613f49565b9150509250925092565b5f806040838503121561430b5761430a613ab9565b5b5f61431885828601613cad565b925050602061432985828601613cad565b9150509250929050565b7f4e487b71000000000000000000000000000000000000000000000000000000005f52603260045260245ffd5b5f8151905061436e81613ac1565b92915050565b5f6020828403121561438957614388613ab9565b5b5f61439684828501614360565b91505092915050565b7f4e487b71000000000000000000000000000000000000000000000000000000005f52602260045260245ffd5b5f60028204905060018216806143e357607f821691505b6020821081036143f6576143f561439f565b5b50919050565b5f81519050919050565b5f82825260208201905092915050565b5f614420826143fc565b61442a8185614406565b935061443a818560208601613c07565b61444381613c2f565b840191505092915050565b5f6020820190508181035f8301526144668184614416565b905092915050565b7f4e487b71000000000000000000000000000000000000000000000000000000005f52601160045260245ffd5b5f6144a582613a7f565b91506144b083613a7f565b92508282019050808211156144c8576144c761446e565b5b92915050565b5f82825260208201905092915050565b5f6144e8826143fc565b6144f281856144ce565b9350614502818560208601613c07565b61450b81613c2f565b840191505092915050565b5f60a083015f8301518482035f86015261453082826144de565b915050602083015161454560208601826141db565b5060408301516145586040860182613b3f565b50606083015161456b6060860182613b3f565b50608083015161457e6080860182613b3f565b508091505092915050565b5f6020820190508181035f8301526145a18184614516565b905092915050565b5f6145b382613a7f565b91506145be83613a7f565b92508282039050818111156145d6576145d561446e565b5b92915050565b5f6040820190506145ef5f830185613a88565b6145fc6020830184613a88565b9392505050565b5f60a083015f8301518482035f86015261461d82826144de565b915050602083015161463260208601826141db565b5060408301516146456040860182613b3f565b5060608301516146586060860182613b3f565b50608083015161466b6080860182613b3f565b508091505092915050565b5f6020820190508181035f83015261468e8184614603565b905092915050565b5f6146a082613a7f565b91506146ab83613a7f565b92508282026146b981613a7f565b915082820484148315176146d0576146cf61446e565b5b5092915050565b7f4e487b71000000000000000000000000000000000000000000000000000000005f52601260045260245ffd5b5f61470e82613a7f565b915061471983613a7f565b925082614729576147286146d7565b5b828204905092915050565b5f61473e82613a7f565b91507fffffffffffffffffffffffffffffffffffffffffffffffffffffffffffffffff82036147705761476f61446e565b5b600182019050919050565b5f60a08201905061478e5f830188613a57565b61479b6020830187613a57565b6147a86040830186613a88565b6147b56060830185613a88565b81810360808301526147c78184613b71565b90509695505050505050565b5f6060820190506147e65f830186613a57565b6147f36020830185613a57565b6148006040830184613a88565b949350505050565b5f60408201905061481b5f830185613a57565b6148286020830184613a57565b9392505050565b5f6040820190506148425f830185613a57565b61484f6020830184613a88565b9392505050565b5f6080820190506148695f830187613a57565b6148766020830186613a88565b6148836040830185613a88565b81810360608301526148958184613b71565b905095945050505050565b5f6060820190506148b35f830186613a57565b6148c06020830185613a88565b6148cd6040830184613a88565b949350505050565b5f81905092915050565b5f6148e9826143fc565b6148f381856148d5565b9350614903818560208601613c07565b80840191505092915050565b5f61491a82846148df565b915081905092915050565b5f819050919050565b5f819050919050565b5f61495161494c61494784614925565b61492e565b613a7f565b9050919050565b61496181614937565b82525050565b5f60408201905061497a5f830185613a57565b6149876020830184614958565b9392505050565b7f746f416464726573735f6f75744f66426f756e647300000000000000000000005f82015250565b5f6149c2601583613bf7565b91506149cd8261498e565b602082019050919050565b5f6020820190508181035f8301526149ef816149b6565b9050919050565b7f746f55696e7432345f6f75744f66426f756e64730000000000000000000000005f82015250565b5f614a2a601483613bf7565b9150614a35826149f6565b602082019050919050565b5f6020820190508181035f830152614a5781614a1e565b9050919050565b7f736c6963655f6f766572666c6f770000000000000000000000000000000000005f82015250565b5f614a92600e83613bf7565b9150614a9d82614a5e565b602082019050919050565b5f6020820190508181035f830152614abf81614a86565b9050919050565b7f736c6963655f6f75744f66426f756e64730000000000000000000000000000005f82015250565b5f614afa601183613bf7565b9150614b0582614ac6565b602082019050919050565b5f6020820190508181035f830152614b2781614aee565b905091905056fea26469706673582212201a659adb444c7d8f81ed4f8d57d4cc3708ebd1cf2d5d86f59239e95f00fc25fe64736f6c63430008180033","linkReferences":{}},"methodIdentifiers":{"HUNDRED_PERCENT()":"6ed93dd0","allowance(address,address)":"dd62ed3e","approve(address,uint256)":"095ea7b3","balanceOf(address)":"70a08231","decimals()":"313ce567","feeTo()":"017e7e58","getInitTokenAmountPerShares()":"8423f320","getInvestTokenAmounts(uint256)":"05def347","getRedeemTokenAmounts(uint256)":"ce7ddbef","getTokens()":"aa6ca808","invest(address,uint256)":"b9b8c246","investFee()":"1c1f3014","investWithETH(address,uint256,bytes[])":"b0acd84b","investWithToken(address,address,uint256,uint256,bytes[])":"22b1c027","minMintAmount()":"01e9d757","name()":"06fdde03","owner()":"8da5cb5b","redeem(address,uint256)":"1e9a6950","redeemFee()":"965fa21e","redeemToETH(address,uint256,uint256,bytes[])":"4f4e0921","redeemToToken(address,address,uint256,uint256,bytes[])":"a0398af3","renounceOwnership()":"715018a6","setFee(address,uint24,uint24)":"a553618b","swapRouter()":"c31c9c07","symbol()":"95d89b41","totalSupply()":"18160ddd","transfer(address,uint256)":"a9059cbb","transferFrom(address,address,uint256)":"23b872dd","transferOwnership(address)":"f2fde38b","updateMinMintAmount(uint256)":"6dd84ac1","weth()":"3fc8cef3"},"id":72}