{"abi":[{"type":"constructor","inputs":[{"name":"name_","type":"string","internalType":"string"},{"name":"symbol_","type":"string","internalType":"string"},{"name":"tokens_","type":"address[]","internalType":"address[]"},{"name":"initTokenAmountPerShares_","type":"uint256[]","internalType":"uint256[]"},{"name":"minMintAmount_","type":"uint256","internalType":"uint256"}],"stateMutability":"nonpayable"},{"type":"function","name":"HUNDRED_PERCENT","inputs":[],"outputs":[{"name":"","type":"uint24","internalType":"uint24"}],"stateMutability":"view"},{"type":"function","name":"allowance","inputs":[{"name":"owner","type":"address","internalType":"address"},{"name":"spender","type":"address","internalType":"address"}],"outputs":[{"name":"","type":"uint256","internalType":"uint256"}],"stateMutability":"view"},{"type":"function","name":"approve","inputs":[{"name":"spender","type":"address","internalType":"address"},{"name":"value","type":"uint256","internalType":"uint256"}],"outputs":[{"name":"","type":"bool","internalType":"bool"}],"stateMutability":"nonpayable"},{"type":"function","name":"balanceOf","inputs":[{"name":"account","type":"address","internalType":"address"}],"outputs":[{"name":"","type":"uint256","internalType":"uint256"}],"stateMutability":"view"},{"type":"function","name":"decimals","inputs":[],"outputs":[{"name":"","type":"uint8","internalType":"uint8"}],"stateMutability":"view"},{"type":"function","name":"feeTo","inputs":[],"outputs":[{"name":"","type":"address","internalType":"address"}],"stateMutability":"view"},{"type":"function","name":"getInitTokenAmountPerShares","inputs":[],"outputs":[{"name":"","type":"uint256[]","internalType":"uint256[]"}],"stateMutability":"view"},{"type":"function","name":"getInvestTokenAmounts","inputs":[{"name":"mintAmount","type":"uint256","internalType":"uint256"}],"outputs":[{"name":"tokenAmounts","type":"uint256[]","internalType":"uint256[]"}],"stateMutability":"view"},{"type":"function","name":"getRedeemTokenAmounts","inputs":[{"name":"burnAmount","type":"uint256","internalType":"uint256"}],"outputs":[{"name":"tokenAmounts","type":"uint256[]","internalType":"uint256[]"}],"stateMutability":"view"},{"type":"function","name":"getTokens","inputs":[],"outputs":[{"name":"","type":"address[]","internalType":"address[]"}],"stateMutability":"view"},{"type":"function","name":"invest","inputs":[{"name":"to","type":"address","internalType":"address"},{"name":"mintAmount","type":"uint256","internalType":"uint256"}],"outputs":[],"stateMutability":"nonpayable"},{"type":"function","name":"investFee","inputs":[],"outputs":[{"name":"","type":"uint24","internalType":"uint24"}],"stateMutability":"view"},{"type":"function","name":"minMintAmount","inputs":[],"outputs":[{"name":"","type":"uint256","internalType":"uint256"}],"stateMutability":"view"},{"type":"function","name":"name","inputs":[],"outputs":[{"name":"","type":"string","internalType":"string"}],"stateMutability":"view"},{"type":"function","name":"owner","inputs":[],"outputs":[{"name":"","type":"address","internalType":"address"}],"stateMutability":"view"},{"type":"function","name":"redeem","inputs":[{"name":"to","type":"address","internalType":"address"},{"name":"burnAmount","type":"uint256","internalType":"uint256"}],"outputs":[],"stateMutability":"nonpayable"},{"type":"function","name":"redeemFee","inputs":[],"outputs":[{"name":"","type":"uint24","internalType":"uint24"}],"stateMutability":"view"},{"type":"function","name":"renounceOwnership","inputs":[],"outputs":[],"stateMutability":"nonpayable"},{"type":"function","name":"setFee","inputs":[{"name":"feeTo_","type":"address","internalType":"address"},{"name":"investFee_","type":"uint24","internalType":"uint24"},{"name":"redeemFee_","type":"uint24","internalType":"uint24"}],"outputs":[],"stateMutability":"nonpayable"},{"type":"function","name":"symbol","inputs":[],"outputs":[{"name":"","type":"string","internalType":"string"}],"stateMutability":"view"},{"type":"function","name":"totalSupply","inputs":[],"outputs":[{"name":"","type":"uint256","internalType":"uint256"}],"stateMutability":"view"},{"type":"function","name":"transfer","inputs":[{"name":"to","type":"address","internalType":"address"},{"name":"value","type":"uint256","internalType":"uint256"}],"outputs":[{"name":"","type":"bool","internalType":"bool"}],"stateMutability":"nonpayable"},{"type":"function","name":"transferFrom","inputs":[{"name":"from","type":"address","internalType":"address"},{"name":"to","type":"address","internalType":"address"},{"name":"value","type":"uint256","internalType":"uint256"}],"outputs":[{"name":"","type":"bool","internalType":"bool"}],"stateMutability":"nonpayable"},{"type":"function","name":"transferOwnership","inputs":[{"name":"newOwner","type":"address","internalType":"address"}],"outputs":[],"stateMutability":"nonpayable"},{"type":"function","name":"updateMinMintAmount","inputs":[{"name":"newMinMintAmount","type":"uint256","internalType":"uint256"}],"outputs":[],"stateMutability":"nonpayable"},{"type":"event","name":"Approval","inputs":[{"name":"owner","type":"address","indexed":true,"internalType":"address"},{"name":"spender","type":"address","indexed":true,"internalType":"address"},{"name":"value","type":"uint256","indexed":false,"internalType":"uint256"}],"anonymous":false},{"type":"event","name":"Invested","inputs":[{"name":"to","type":"address","indexed":false,"internalType":"address"},{"name":"mintAmount","type":"uint256","indexed":false,"internalType":"uint256"},{"name":"investFee","type":"uint256","indexed":false,"internalType":"uint256"},{"name":"tokenAmounts","type":"uint256[]","indexed":false,"internalType":"uint256[]"}],"anonymous":false},{"type":"event","name":"MinMintAmountUpdated","inputs":[{"name":"oldMinMintAmount","type":"uint256","indexed":false,"internalType":"uint256"},{"name":"newMinMintAmount","type":"uint256","indexed":false,"internalType":"uint256"}],"anonymous":false},{"type":"event","name":"OwnershipTransferred","inputs":[{"name":"previousOwner","type":"address","indexed":true,"internalType":"address"},{"name":"newOwner","type":"address","indexed":true,"internalType":"address"}],"anonymous":false},{"type":"event","name":"Redeemed","inputs":[{"name":"sender","type":"address","indexed":false,"internalType":"address"},{"name":"to","type":"address","indexed":false,"internalType":"address"},{"name":"burnAmount","type":"uint256","indexed":false,"internalType":"uint256"},{"name":"redeemFee","type":"uint256","indexed":false,"internalType":"uint256"},{"name":"tokenAmounts","type":"uint256[]","indexed":false,"internalType":"uint256[]"}],"anonymous":false},{"type":"event","name":"TokenAdded","inputs":[{"name":"token","type":"address","indexed":false,"internalType":"address"},{"name":"index","type":"uint256","indexed":false,"internalType":"uint256"}],"anonymous":false},{"type":"event","name":"TokenRemoved","inputs":[{"name":"token","type":"address","indexed":false,"internalType":"address"},{"name":"index","type":"uint256","indexed":false,"internalType":"uint256"}],"anonymous":false},{"type":"event","name":"Transfer","inputs":[{"name":"from","type":"address","indexed":true,"internalType":"address"},{"name":"to","type":"address","indexed":true,"internalType":"address"},{"name":"value","type":"uint256","indexed":false,"internalType":"uint256"}],"anonymous":false},{"type":"error","name":"ERC20InsufficientAllowance","inputs":[{"name":"spender","type":"address","internalType":"address"},{"name":"allowance","type":"uint256","internalType":"uint256"},{"name":"needed","type":"uint256","internalType":"uint256"}]},{"type":"error","name":"ERC20InsufficientBalance","inputs":[{"name":"sender","type":"address","internalType":"address"},{"name":"balance","type":"uint256","internalType":"uint256"},{"name":"needed","type":"uint256","internalType":"uint256"}]},{"type":"error","name":"ERC20InvalidApprover","inputs":[{"name":"approver","type":"address","internalType":"address"}]},{"type":"error","name":"ERC20InvalidReceiver","inputs":[{"name":"receiver","type":"address","internalType":"address"}]},{"type":"error","name":"ERC20InvalidSender","inputs":[{"name":"sender","type":"address","internalType":"address"}]},{"type":"error","name":"ERC20InvalidSpender","inputs":[{"name":"spender","type":"address","internalType":"address"}]},{"type":"error","name":"LessThanMinMintAmount","inputs":[]},{"type":"error","name":"OwnableInvalidOwner","inputs":[{"name":"owner","type":"address","internalType":"address"}]},{"type":"error","name":"OwnableUnauthorizedAccount","inputs":[{"name":"account","type":"address","internalType":"address"}]},{"type":"error","name":"SafeERC20FailedOperation","inputs":[{"name":"token","type":"address","internalType":"address"}]},{"type":"error","name":"TokenExists","inputs":[]},{"type":"error","name":"TokenNotFound","inputs":[]}],"bytecode":{"object":"0x608060405234801562000010575f80fd5b50604051620032aa380380620032aa8339818101604052810190620000369190620006ac565b33858581600390816200004a9190620009da565b5080600490816200005c9190620009da565b5050505f73ffffffffffffffffffffffffffffffffffffffff168173ffffffffffffffffffffffffffffffffffffffff1603620000d2575f6040517f1e4fbdf7000000000000000000000000000000000000000000000000000000008152600401620000c9919062000acf565b60405180910390fd5b620000e3816200012860201b60201c565b508260089080519060200190620000fc929190620001eb565b5081600990805190602001906200011592919062000277565b5080600781905550505050505062000aea565b5f60055f9054906101000a900473ffffffffffffffffffffffffffffffffffffffff1690508160055f6101000a81548173ffffffffffffffffffffffffffffffffffffffff021916908373ffffffffffffffffffffffffffffffffffffffff1602179055508173ffffffffffffffffffffffffffffffffffffffff168173ffffffffffffffffffffffffffffffffffffffff167f8be0079c531659141344cd1fd0a4f28419497f9722a3daafe3b4186f6b6457e060405160405180910390a35050565b828054828255905f5260205f2090810192821562000264579160200282015b8281111562000263578251825f6101000a81548173ffffffffffffffffffffffffffffffffffffffff021916908373ffffffffffffffffffffffffffffffffffffffff160217905550916020019190600101906200020a565b5b509050620002739190620002c7565b5090565b828054828255905f5260205f20908101928215620002b4579160200282015b82811115620002b357825182559160200191906001019062000296565b5b509050620002c39190620002c7565b5090565b5b80821115620002e0575f815f905550600101620002c8565b5090565b5f604051905090565b5f80fd5b5f80fd5b5f80fd5b5f80fd5b5f601f19601f8301169050919050565b7f4e487b71000000000000000000000000000000000000000000000000000000005f52604160045260245ffd5b6200034582620002fd565b810181811067ffffffffffffffff821117156200036757620003666200030d565b5b80604052505050565b5f6200037b620002e4565b90506200038982826200033a565b919050565b5f67ffffffffffffffff821115620003ab57620003aa6200030d565b5b620003b682620002fd565b9050602081019050919050565b5f5b83811015620003e2578082015181840152602081019050620003c5565b5f8484015250505050565b5f62000403620003fd846200038e565b62000370565b905082815260208101848484011115620004225762000421620002f9565b5b6200042f848285620003c3565b509392505050565b5f82601f8301126200044e576200044d620002f5565b5b815162000460848260208601620003ed565b91505092915050565b5f67ffffffffffffffff8211156200048657620004856200030d565b5b602082029050602081019050919050565b5f80fd5b5f73ffffffffffffffffffffffffffffffffffffffff82169050919050565b5f620004c6826200049b565b9050919050565b620004d881620004ba565b8114620004e3575f80fd5b50565b5f81519050620004f681620004cd565b92915050565b5f620005126200050c8462000469565b62000370565b9050808382526020820190506020840283018581111562000538576200053762000497565b5b835b81811015620005655780620005508882620004e6565b8452602084019350506020810190506200053a565b5050509392505050565b5f82601f830112620005865762000585620002f5565b5b815162000598848260208601620004fc565b91505092915050565b5f67ffffffffffffffff821115620005be57620005bd6200030d565b5b602082029050602081019050919050565b5f819050919050565b620005e381620005cf565b8114620005ee575f80fd5b50565b5f815190506200060181620005d8565b92915050565b5f6200061d6200061784620005a1565b62000370565b9050808382526020820190506020840283018581111562000643576200064262000497565b5b835b818110156200067057806200065b8882620005f1565b84526020840193505060208101905062000645565b5050509392505050565b5f82601f830112620006915762000690620002f5565b5b8151620006a384826020860162000607565b91505092915050565b5f805f805f60a08688031215620006c857620006c7620002ed565b5b5f86015167ffffffffffffffff811115620006e857620006e7620002f1565b5b620006f68882890162000437565b955050602086015167ffffffffffffffff8111156200071a5762000719620002f1565b5b620007288882890162000437565b945050604086015167ffffffffffffffff8111156200074c576200074b620002f1565b5b6200075a888289016200056f565b935050606086015167ffffffffffffffff8111156200077e576200077d620002f1565b5b6200078c888289016200067a565b92505060806200079f88828901620005f1565b9150509295509295909350565b5f81519050919050565b7f4e487b71000000000000000000000000000000000000000000000000000000005f52602260045260245ffd5b5f6002820490506001821680620007fb57607f821691505b602082108103620008115762000810620007b6565b5b50919050565b5f819050815f5260205f209050919050565b5f6020601f8301049050919050565b5f82821b905092915050565b5f60088302620008757fffffffffffffffffffffffffffffffffffffffffffffffffffffffffffffffff8262000838565b62000881868362000838565b95508019841693508086168417925050509392505050565b5f819050919050565b5f620008c2620008bc620008b684620005cf565b62000899565b620005cf565b9050919050565b5f819050919050565b620008dd83620008a2565b620008f5620008ec82620008c9565b84845462000844565b825550505050565b5f90565b6200090b620008fd565b62000918818484620008d2565b505050565b5b818110156200093f57620009335f8262000901565b6001810190506200091e565b5050565b601f8211156200098e57620009588162000817565b620009638462000829565b8101602085101562000973578190505b6200098b620009828562000829565b8301826200091d565b50505b505050565b5f82821c905092915050565b5f620009b05f198460080262000993565b1980831691505092915050565b5f620009ca83836200099f565b9150826002028217905092915050565b620009e582620007ac565b67ffffffffffffffff81111562000a015762000a006200030d565b5b62000a0d8254620007e3565b62000a1a82828562000943565b5f60209050601f83116001811462000a50575f841562000a3b578287015190505b62000a478582620009bd565b86555062000ab6565b601f19841662000a608662000817565b5f5b8281101562000a895784890151825560018201915060208501945060208101905062000a62565b8683101562000aa9578489015162000aa5601f8916826200099f565b8355505b6001600288020188555050505b505050505050565b62000ac981620004ba565b82525050565b5f60208201905062000ae45f83018462000abe565b92915050565b6127b28062000af85f395ff3fe608060405234801561000f575f80fd5b5060043610610171575f3560e01c806370a08231116100dc578063a553618b11610095578063b9b8c2461161006f578063b9b8c2461461042b578063ce7ddbef14610447578063dd62ed3e14610477578063f2fde38b146104a757610171565b8063a553618b146103c1578063a9059cbb146103dd578063aa6ca8081461040d57610171565b806370a082311461030f578063715018a61461033f5780638423f320146103495780638da5cb5b1461036757806395d89b4114610385578063965fa21e146103a357610171565b80631c1f30141161012e5780631c1f30141461024d5780631e9a69501461026b57806323b872dd14610287578063313ce567146102b75780636dd84ac1146102d55780636ed93dd0146102f157610171565b8063017e7e581461017557806301e9d7571461019357806305def347146101b157806306fdde03146101e1578063095ea7b3146101ff57806318160ddd1461022f575b5f80fd5b61017d6104c3565b60405161018a9190611e81565b60405180910390f35b61019b6104e8565b6040516101a89190611eb2565b60405180910390f35b6101cb60048036038101906101c69190611ef9565b6104ee565b6040516101d89190611fdb565b60405180910390f35b6101e96106bf565b6040516101f69190612085565b60405180910390f35b610219600480360381019061021491906120cf565b61074f565b6040516102269190612127565b60405180910390f35b610237610771565b6040516102449190611eb2565b60405180910390f35b61025561077a565b604051610262919061215d565b60405180910390f35b610285600480360381019061028091906120cf565b61078f565b005b6102a1600480360381019061029c9190612176565b61079e565b6040516102ae9190612127565b60405180910390f35b6102bf6107cc565b6040516102cc91906121e1565b60405180910390f35b6102ef60048036038101906102ea9190611ef9565b6107d4565b005b6102f9610821565b604051610306919061215d565b60405180910390f35b610329600480360381019061032491906121fa565b610828565b6040516103369190611eb2565b60405180910390f35b61034761086d565b005b610351610880565b60405161035e9190611fdb565b60405180910390f35b61036f6108d6565b60405161037c9190611e81565b60405180910390f35b61038d6108fe565b60405161039a9190612085565b60405180910390f35b6103ab61098e565b6040516103b8919061215d565b60405180910390f35b6103db60048036038101906103d6919061224f565b6109a3565b005b6103f760048036038101906103f291906120cf565b610a2e565b6040516104049190612127565b60405180910390f35b610415610a50565b6040516104229190612356565b60405180910390f35b610445600480360381019061044091906120cf565b610adb565b005b610461600480360381019061045c9190611ef9565b610baf565b60405161046e9190611fdb565b60405180910390f35b610491600480360381019061048c9190612376565b610d80565b60405161049e9190611eb2565b60405180910390f35b6104c160048036038101906104bc91906121fa565b610e02565b005b60065f9054906101000a900473ffffffffffffffffffffffffffffffffffffffff1681565b60075481565b60605f6104f9610771565b905060088054905067ffffffffffffffff81111561051a576105196123b4565b5b6040519080825280602002602001820160405280156105485781602001602082028036833780820191505090505b5091505f5b6008805490508110156106b8575f821115610652575f60088281548110610577576105766123e1565b5b905f5260205f20015f9054906101000a900473ffffffffffffffffffffffffffffffffffffffff1673ffffffffffffffffffffffffffffffffffffffff166370a08231306040518263ffffffff1660e01b81526004016105d79190611e81565b602060405180830381865afa1580156105f2573d5f803e3d5ffd5b505050506040513d601f19601f820116820180604052508101906106169190612422565b905061062d858483610e869092919063ffffffff16565b8483815181106106405761063f6123e1565b5b602002602001018181525050506106ab565b61068b60098281548110610669576106686123e1565b5b905f5260205f200154670de0b6b3a764000086610e869092919063ffffffff16565b83828151811061069e5761069d6123e1565b5b6020026020010181815250505b808060010191505061054d565b5050919050565b6060600380546106ce9061247a565b80601f01602080910402602001604051908101604052809291908181526020018280546106fa9061247a565b80156107455780601f1061071c57610100808354040283529160200191610745565b820191905f5260205f20905b81548152906001019060200180831161072857829003601f168201915b5050505050905090565b5f80610759610eee565b9050610766818585610ef5565b600191505092915050565b5f600254905090565b600660149054906101000a900462ffffff1681565b6107998282610f07565b505050565b5f806107a8610eee565b90506107b585828561122a565b6107c08585856112bd565b60019150509392505050565b5f6012905090565b6107dc6113ad565b7fa9d547bad523b2016561d73c8b6f0de927b53e678d07b339173ea7b469ec89696007548260405161080f9291906124aa565b60405180910390a18060078190555050565b620f424081565b5f805f8373ffffffffffffffffffffffffffffffffffffffff1673ffffffffffffffffffffffffffffffffffffffff1681526020019081526020015f20549050919050565b6108756113ad565b61087e5f611434565b565b606060098054806020026020016040519081016040528092919081815260200182805480156108cc57602002820191905f5260205f20905b8154815260200190600101908083116108b8575b5050505050905090565b5f60055f9054906101000a900473ffffffffffffffffffffffffffffffffffffffff16905090565b60606004805461090d9061247a565b80601f01602080910402602001604051908101604052809291908181526020018280546109399061247a565b80156109845780601f1061095b57610100808354040283529160200191610984565b820191905f5260205f20905b81548152906001019060200180831161096757829003601f168201915b5050505050905090565b600660179054906101000a900462ffffff1681565b6109ab6113ad565b8260065f6101000a81548173ffffffffffffffffffffffffffffffffffffffff021916908373ffffffffffffffffffffffffffffffffffffffff16021790555081600660146101000a81548162ffffff021916908362ffffff16021790555080600660176101000a81548162ffffff021916908362ffffff160217905550505050565b5f80610a38610eee565b9050610a458185856112bd565b600191505092915050565b60606008805480602002602001604051908101604052809291908181526020018280548015610ad157602002820191905f5260205f20905b815f9054906101000a900473ffffffffffffffffffffffffffffffffffffffff1673ffffffffffffffffffffffffffffffffffffffff1681526020019060010190808311610a88575b5050505050905090565b5f610ae683836114f7565b90505f5b600880549050811015610ba9575f828281518110610b0b57610b0a6123e1565b5b60200260200101511115610b9c57610b9b3330848481518110610b3157610b306123e1565b5b602002602001015160088581548110610b4d57610b4c6123e1565b5b905f5260205f20015f9054906101000a900473ffffffffffffffffffffffffffffffffffffffff1673ffffffffffffffffffffffffffffffffffffffff1661162a909392919063ffffffff16565b5b8080600101915050610aea565b50505050565b60605f600660179054906101000a900462ffffff1662ffffff161115610c17575f620f424062ffffff16600660179054906101000a900462ffffff1662ffffff1684610bfb91906124fe565b610c05919061256c565b90508083610c13919061259c565b9250505b5f610c20610771565b905060088054905067ffffffffffffffff811115610c4157610c406123b4565b5b604051908082528060200260200182016040528015610c6f5781602001602082028036833780820191505090505b5091505f5b600880549050811015610d79575f60088281548110610c9657610c956123e1565b5b905f5260205f20015f9054906101000a900473ffffffffffffffffffffffffffffffffffffffff1673ffffffffffffffffffffffffffffffffffffffff166370a08231306040518263ffffffff1660e01b8152600401610cf69190611e81565b602060405180830381865afa158015610d11573d5f803e3d5ffd5b505050506040513d601f19601f82011682018060405250810190610d359190612422565b9050610d4c8584836116ac9092919063ffffffff16565b848381518110610d5f57610d5e6123e1565b5b602002602001018181525050508080600101915050610c74565b5050919050565b5f60015f8473ffffffffffffffffffffffffffffffffffffffff1673ffffffffffffffffffffffffffffffffffffffff1681526020019081526020015f205f8373ffffffffffffffffffffffffffffffffffffffff1673ffffffffffffffffffffffffffffffffffffffff1681526020019081526020015f2054905092915050565b610e0a6113ad565b5f73ffffffffffffffffffffffffffffffffffffffff168173ffffffffffffffffffffffffffffffffffffffff1603610e7a575f6040517f1e4fbdf7000000000000000000000000000000000000000000000000000000008152600401610e719190611e81565b60405180910390fd5b610e8381611434565b50565b5f610e928484846116ac565b90505f8280610ea457610ea361253f565b5b8486091115610ee7577fffffffffffffffffffffffffffffffffffffffffffffffffffffffffffffffff8110610ed8575f80fd5b8080610ee3906125cf565b9150505b9392505050565b5f33905090565b610f028383836001611842565b505050565b60605f610f12610771565b905060088054905067ffffffffffffffff811115610f3357610f326123b4565b5b604051908082528060200260200182016040528015610f615781602001602082028036833780820191505090505b509150610f6e3384611a11565b5f80600660179054906101000a900462ffffff1662ffffff161115610ff057620f424062ffffff16600660179054906101000a900462ffffff1662ffffff1685610fb891906124fe565b610fc2919061256c565b9050610fef60065f9054906101000a900473ffffffffffffffffffffffffffffffffffffffff1682611a90565b5b5f8185610ffd919061259c565b90505f5b6008805490508110156111e1575f60088281548110611023576110226123e1565b5b905f5260205f20015f9054906101000a900473ffffffffffffffffffffffffffffffffffffffff1673ffffffffffffffffffffffffffffffffffffffff166370a08231306040518263ffffffff1660e01b81526004016110839190611e81565b602060405180830381865afa15801561109e573d5f803e3d5ffd5b505050506040513d601f19601f820116820180604052508101906110c29190612422565b90506110d98386836116ac9092919063ffffffff16565b8683815181106110ec576110eb6123e1565b5b6020026020010181815250503073ffffffffffffffffffffffffffffffffffffffff168873ffffffffffffffffffffffffffffffffffffffff161415801561114d57505f868381518110611143576111426123e1565b5b6020026020010151115b156111d3576111d288878481518110611169576111686123e1565b5b602002602001015160088581548110611185576111846123e1565b5b905f5260205f20015f9054906101000a900473ffffffffffffffffffffffffffffffffffffffff1673ffffffffffffffffffffffffffffffffffffffff16611b0f9092919063ffffffff16565b5b508080600101915050611001565b507f626f4593f8e12e62b00d18bb3073d2cbe173b9415cdb7b39ed0609569b66f5603387878588604051611219959493929190612616565b60405180910390a150505092915050565b5f6112358484610d80565b90507fffffffffffffffffffffffffffffffffffffffffffffffffffffffffffffffff8110156112b757818110156112a8578281836040517ffb8f41b200000000000000000000000000000000000000000000000000000000815260040161129f9392919061266e565b60405180910390fd5b6112b684848484035f611842565b5b50505050565b5f73ffffffffffffffffffffffffffffffffffffffff168373ffffffffffffffffffffffffffffffffffffffff160361132d575f6040517f96c6fd1e0000000000000000000000000000000000000000000000000000000081526004016113249190611e81565b60405180910390fd5b5f73ffffffffffffffffffffffffffffffffffffffff168273ffffffffffffffffffffffffffffffffffffffff160361139d575f6040517fec442f050000000000000000000000000000000000000000000000000000000081526004016113949190611e81565b60405180910390fd5b6113a8838383611b8e565b505050565b6113b5610eee565b73ffffffffffffffffffffffffffffffffffffffff166113d36108d6565b73ffffffffffffffffffffffffffffffffffffffff1614611432576113f6610eee565b6040517f118cdaa70000000000000000000000000000000000000000000000000000000081526004016114299190611e81565b60405180910390fd5b565b5f60055f9054906101000a900473ffffffffffffffffffffffffffffffffffffffff1690508160055f6101000a81548173ffffffffffffffffffffffffffffffffffffffff021916908373ffffffffffffffffffffffffffffffffffffffff1602179055508173ffffffffffffffffffffffffffffffffffffffff168173ffffffffffffffffffffffffffffffffffffffff167f8be0079c531659141344cd1fd0a4f28419497f9722a3daafe3b4186f6b6457e060405160405180910390a35050565b6060600754821015611535576040517fdb49828e00000000000000000000000000000000000000000000000000000000815260040160405180910390fd5b61153e826104ee565b90505f80600660149054906101000a900462ffffff1662ffffff1611156115db57620f424062ffffff16600660149054906101000a900462ffffff1662ffffff168461158a91906124fe565b611594919061256c565b90506115c160065f9054906101000a900473ffffffffffffffffffffffffffffffffffffffff1682611a90565b6115d68482856115d1919061259c565b611a90565b6115e6565b6115e58484611a90565b5b7fa7f6b1cb38ac5fbcae3bbaa808d1f2aaad5c8da1dd8f1d960088082f840139538484838560405161161b94939291906126a3565b60405180910390a15092915050565b6116a6848573ffffffffffffffffffffffffffffffffffffffff166323b872dd86868660405160240161165f939291906126ed565b604051602081830303815290604052915060e01b6020820180517bffffffffffffffffffffffffffffffffffffffffffffffffffffffff8381831617835250505050611da7565b50505050565b5f805f80198587098587029250828110838203039150505f81036116e1575f84116116d5575f80fd5b8382049250505061183b565b8084116116ec575f80fd5b5f8486880990508281118203915080830392505f856001871961170f9190612722565b16905080860495508084049350600181825f0304019050808361173291906124fe565b841793505f600287600361174691906124fe565b189050808761175591906124fe565b6002611761919061259c565b8161176c91906124fe565b9050808761177a91906124fe565b6002611786919061259c565b8161179191906124fe565b9050808761179f91906124fe565b60026117ab919061259c565b816117b691906124fe565b905080876117c491906124fe565b60026117d0919061259c565b816117db91906124fe565b905080876117e991906124fe565b60026117f5919061259c565b8161180091906124fe565b9050808761180e91906124fe565b600261181a919061259c565b8161182591906124fe565b9050808561183391906124fe565b955050505050505b9392505050565b5f73ffffffffffffffffffffffffffffffffffffffff168473ffffffffffffffffffffffffffffffffffffffff16036118b2575f6040517fe602df050000000000000000000000000000000000000000000000000000000081526004016118a99190611e81565b60405180910390fd5b5f73ffffffffffffffffffffffffffffffffffffffff168373ffffffffffffffffffffffffffffffffffffffff1603611922575f6040517f94280d620000000000000000000000000000000000000000000000000000000081526004016119199190611e81565b60405180910390fd5b8160015f8673ffffffffffffffffffffffffffffffffffffffff1673ffffffffffffffffffffffffffffffffffffffff1681526020019081526020015f205f8573ffffffffffffffffffffffffffffffffffffffff1673ffffffffffffffffffffffffffffffffffffffff1681526020019081526020015f20819055508015611a0b578273ffffffffffffffffffffffffffffffffffffffff168473ffffffffffffffffffffffffffffffffffffffff167f8c5be1e5ebec7d5bd14f71427d1e84f3dd0314c0f7b2291e5b200ac8c7c3b92584604051611a029190611eb2565b60405180910390a35b50505050565b5f73ffffffffffffffffffffffffffffffffffffffff168273ffffffffffffffffffffffffffffffffffffffff1603611a81575f6040517f96c6fd1e000000000000000000000000000000000000000000000000000000008152600401611a789190611e81565b60405180910390fd5b611a8c825f83611b8e565b5050565b5f73ffffffffffffffffffffffffffffffffffffffff168273ffffffffffffffffffffffffffffffffffffffff1603611b00575f6040517fec442f05000000000000000000000000000000000000000000000000000000008152600401611af79190611e81565b60405180910390fd5b611b0b5f8383611b8e565b5050565b611b89838473ffffffffffffffffffffffffffffffffffffffff1663a9059cbb8585604051602401611b42929190612755565b604051602081830303815290604052915060e01b6020820180517bffffffffffffffffffffffffffffffffffffffffffffffffffffffff8381831617835250505050611da7565b505050565b5f73ffffffffffffffffffffffffffffffffffffffff168373ffffffffffffffffffffffffffffffffffffffff1603611bde578060025f828254611bd29190612722565b92505081905550611cac565b5f805f8573ffffffffffffffffffffffffffffffffffffffff1673ffffffffffffffffffffffffffffffffffffffff1681526020019081526020015f2054905081811015611c67578381836040517fe450d38c000000000000000000000000000000000000000000000000000000008152600401611c5e9392919061266e565b60405180910390fd5b8181035f808673ffffffffffffffffffffffffffffffffffffffff1673ffffffffffffffffffffffffffffffffffffffff1681526020019081526020015f2081905550505b5f73ffffffffffffffffffffffffffffffffffffffff168273ffffffffffffffffffffffffffffffffffffffff1603611cf3578060025f8282540392505081905550611d3d565b805f808473ffffffffffffffffffffffffffffffffffffffff1673ffffffffffffffffffffffffffffffffffffffff1681526020019081526020015f205f82825401925050819055505b8173ffffffffffffffffffffffffffffffffffffffff168373ffffffffffffffffffffffffffffffffffffffff167fddf252ad1be2c89b69c2b068fc378daa952ba7f163c4a11628f55a4df523b3ef83604051611d9a9190611eb2565b60405180910390a3505050565b5f8060205f8451602086015f885af180611dc6576040513d5f823e3d81fd5b3d92505f519150505f8214611ddf576001811415611dfa565b5f8473ffffffffffffffffffffffffffffffffffffffff163b145b15611e3c57836040517f5274afe7000000000000000000000000000000000000000000000000000000008152600401611e339190611e81565b60405180910390fd5b50505050565b5f73ffffffffffffffffffffffffffffffffffffffff82169050919050565b5f611e6b82611e42565b9050919050565b611e7b81611e61565b82525050565b5f602082019050611e945f830184611e72565b92915050565b5f819050919050565b611eac81611e9a565b82525050565b5f602082019050611ec55f830184611ea3565b92915050565b5f80fd5b611ed881611e9a565b8114611ee2575f80fd5b50565b5f81359050611ef381611ecf565b92915050565b5f60208284031215611f0e57611f0d611ecb565b5b5f611f1b84828501611ee5565b91505092915050565b5f81519050919050565b5f82825260208201905092915050565b5f819050602082019050919050565b611f5681611e9a565b82525050565b5f611f678383611f4d565b60208301905092915050565b5f602082019050919050565b5f611f8982611f24565b611f938185611f2e565b9350611f9e83611f3e565b805f5b83811015611fce578151611fb58882611f5c565b9750611fc083611f73565b925050600181019050611fa1565b5085935050505092915050565b5f6020820190508181035f830152611ff38184611f7f565b905092915050565b5f81519050919050565b5f82825260208201905092915050565b5f5b83811015612032578082015181840152602081019050612017565b5f8484015250505050565b5f601f19601f8301169050919050565b5f61205782611ffb565b6120618185612005565b9350612071818560208601612015565b61207a8161203d565b840191505092915050565b5f6020820190508181035f83015261209d818461204d565b905092915050565b6120ae81611e61565b81146120b8575f80fd5b50565b5f813590506120c9816120a5565b92915050565b5f80604083850312156120e5576120e4611ecb565b5b5f6120f2858286016120bb565b925050602061210385828601611ee5565b9150509250929050565b5f8115159050919050565b6121218161210d565b82525050565b5f60208201905061213a5f830184612118565b92915050565b5f62ffffff82169050919050565b61215781612140565b82525050565b5f6020820190506121705f83018461214e565b92915050565b5f805f6060848603121561218d5761218c611ecb565b5b5f61219a868287016120bb565b93505060206121ab868287016120bb565b92505060406121bc86828701611ee5565b9150509250925092565b5f60ff82169050919050565b6121db816121c6565b82525050565b5f6020820190506121f45f8301846121d2565b92915050565b5f6020828403121561220f5761220e611ecb565b5b5f61221c848285016120bb565b91505092915050565b61222e81612140565b8114612238575f80fd5b50565b5f8135905061224981612225565b92915050565b5f805f6060848603121561226657612265611ecb565b5b5f612273868287016120bb565b93505060206122848682870161223b565b92505060406122958682870161223b565b9150509250925092565b5f81519050919050565b5f82825260208201905092915050565b5f819050602082019050919050565b6122d181611e61565b82525050565b5f6122e283836122c8565b60208301905092915050565b5f602082019050919050565b5f6123048261229f565b61230e81856122a9565b9350612319836122b9565b805f5b8381101561234957815161233088826122d7565b975061233b836122ee565b92505060018101905061231c565b5085935050505092915050565b5f6020820190508181035f83015261236e81846122fa565b905092915050565b5f806040838503121561238c5761238b611ecb565b5b5f612399858286016120bb565b92505060206123aa858286016120bb565b9150509250929050565b7f4e487b71000000000000000000000000000000000000000000000000000000005f52604160045260245ffd5b7f4e487b71000000000000000000000000000000000000000000000000000000005f52603260045260245ffd5b5f8151905061241c81611ecf565b92915050565b5f6020828403121561243757612436611ecb565b5b5f6124448482850161240e565b91505092915050565b7f4e487b71000000000000000000000000000000000000000000000000000000005f52602260045260245ffd5b5f600282049050600182168061249157607f821691505b6020821081036124a4576124a361244d565b5b50919050565b5f6040820190506124bd5f830185611ea3565b6124ca6020830184611ea3565b9392505050565b7f4e487b71000000000000000000000000000000000000000000000000000000005f52601160045260245ffd5b5f61250882611e9a565b915061251383611e9a565b925082820261252181611e9a565b91508282048414831517612538576125376124d1565b5b5092915050565b7f4e487b71000000000000000000000000000000000000000000000000000000005f52601260045260245ffd5b5f61257682611e9a565b915061258183611e9a565b9250826125915761259061253f565b5b828204905092915050565b5f6125a682611e9a565b91506125b183611e9a565b92508282039050818111156125c9576125c86124d1565b5b92915050565b5f6125d982611e9a565b91507fffffffffffffffffffffffffffffffffffffffffffffffffffffffffffffffff820361260b5761260a6124d1565b5b600182019050919050565b5f60a0820190506126295f830188611e72565b6126366020830187611e72565b6126436040830186611ea3565b6126506060830185611ea3565b81810360808301526126628184611f7f565b90509695505050505050565b5f6060820190506126815f830186611e72565b61268e6020830185611ea3565b61269b6040830184611ea3565b949350505050565b5f6080820190506126b65f830187611e72565b6126c36020830186611ea3565b6126d06040830185611ea3565b81810360608301526126e28184611f7f565b905095945050505050565b5f6060820190506127005f830186611e72565b61270d6020830185611e72565b61271a6040830184611ea3565b949350505050565b5f61272c82611e9a565b915061273783611e9a565b925082820190508082111561274f5761274e6124d1565b5b92915050565b5f6040820190506127685f830185611e72565b6127756020830184611ea3565b939250505056fea2646970667358221220b08fd6587992956be5ac882502f3e563299f92dfbd8cc10ab35ddfea975e866964736f6c63430008180033","linkReferences":{}},"methodIdentifiers":{"HUNDRED_PERCENT()":"6ed93dd0","allowance(address,address)":"dd62ed3e","approve(address,uint256)":"095ea7b3","balanceOf(address)":"70a08231","decimals()":"313ce567","feeTo()":"017e7e58","getInitTokenAmountPerShares()":"8423f320","getInvestTokenAmounts(uint256)":"05def347","getRedeemTokenAmounts(uint256)":"ce7ddbef","getTokens()":"aa6ca808","invest(address,uint256)":"b9b8c246","investFee()":"1c1f3014","minMintAmount()":"01e9d757","name()":"06fdde03","owner()":"8da5cb5b","redeem(address,uint256)":"1e9a6950","redeemFee()":"965fa21e","renounceOwnership()":"715018a6","setFee(address,uint24,uint24)":"a553618b","symbol()":"95d89b41","totalSupply()":"18160ddd","transfer(address,uint256)":"a9059cbb","transferFrom(address,address,uint256)":"23b872dd","transferOwnership(address)":"f2fde38b","updateMinMintAmount(uint256)":"6dd84ac1"},"id":73}