{"abi":[{"type":"constructor","inputs":[{"name":"name_","type":"string","internalType":"string"},{"name":"symbol_","type":"string","internalType":"string"},{"name":"tokens_","type":"address[]","internalType":"address[]"},{"name":"initTokenAmountPerShare_","type":"uint256[]","internalType":"uint256[]"},{"name":"minMintAmount_","type":"uint256","internalType":"uint256"},{"name":"swapRouter_","type":"address","internalType":"address"},{"name":"weth_","type":"address","internalType":"address"},{"name":"etfQuoter_","type":"address","internalType":"address"},{"name":"miningToken_","type":"address","internalType":"address"}],"stateMutability":"nonpayable"},{"type":"receive","stateMutability":"payable"},{"type":"function","name":"HUNDRED_PERCENT","inputs":[],"outputs":[{"name":"","type":"uint24","internalType":"uint24"}],"stateMutability":"view"},{"type":"function","name":"INDEX_SCALE","inputs":[],"outputs":[{"name":"","type":"uint256","internalType":"uint256"}],"stateMutability":"view"},{"type":"function","name":"addToken","inputs":[{"name":"token","type":"address","internalType":"address"}],"outputs":[],"stateMutability":"nonpayable"},{"type":"function","name":"allowance","inputs":[{"name":"owner","type":"address","internalType":"address"},{"name":"spender","type":"address","internalType":"address"}],"outputs":[{"name":"","type":"uint256","internalType":"uint256"}],"stateMutability":"view"},{"type":"function","name":"approve","inputs":[{"name":"spender","type":"address","internalType":"address"},{"name":"value","type":"uint256","internalType":"uint256"}],"outputs":[{"name":"","type":"bool","internalType":"bool"}],"stateMutability":"nonpayable"},{"type":"function","name":"balanceOf","inputs":[{"name":"account","type":"address","internalType":"address"}],"outputs":[{"name":"","type":"uint256","internalType":"uint256"}],"stateMutability":"view"},{"type":"function","name":"claimReward","inputs":[],"outputs":[],"stateMutability":"nonpayable"},{"type":"function","name":"decimals","inputs":[],"outputs":[{"name":"","type":"uint8","internalType":"uint8"}],"stateMutability":"view"},{"type":"function","name":"etfQuoter","inputs":[],"outputs":[{"name":"","type":"address","internalType":"address"}],"stateMutability":"view"},{"type":"function","name":"feeTo","inputs":[],"outputs":[{"name":"","type":"address","internalType":"address"}],"stateMutability":"view"},{"type":"function","name":"getClaimableReward","inputs":[{"name":"supplier","type":"address","internalType":"address"}],"outputs":[{"name":"","type":"uint256","internalType":"uint256"}],"stateMutability":"view"},{"type":"function","name":"getInitTokenAmountPerShares","inputs":[],"outputs":[{"name":"","type":"uint256[]","internalType":"uint256[]"}],"stateMutability":"view"},{"type":"function","name":"getInvestTokenAmounts","inputs":[{"name":"mintAmount","type":"uint256","internalType":"uint256"}],"outputs":[{"name":"tokenAmounts","type":"uint256[]","internalType":"uint256[]"}],"stateMutability":"view"},{"type":"function","name":"getPriceFeed","inputs":[{"name":"token","type":"address","internalType":"address"}],"outputs":[{"name":"priceFeed","type":"address","internalType":"address"}],"stateMutability":"view"},{"type":"function","name":"getRedeemTokenAmounts","inputs":[{"name":"burnAmount","type":"uint256","internalType":"uint256"}],"outputs":[{"name":"tokenAmounts","type":"uint256[]","internalType":"uint256[]"}],"stateMutability":"view"},{"type":"function","name":"getTokenMarketValues","inputs":[],"outputs":[{"name":"tokens","type":"address[]","internalType":"address[]"},{"name":"tokenPrices","type":"int256[]","internalType":"int256[]"},{"name":"tokenMarketValues","type":"uint256[]","internalType":"uint256[]"},{"name":"totalValues","type":"uint256","internalType":"uint256"}],"stateMutability":"view"},{"type":"function","name":"getTokenTargetWeight","inputs":[{"name":"token","type":"address","internalType":"address"}],"outputs":[{"name":"targetWeight","type":"uint24","internalType":"uint24"}],"stateMutability":"view"},{"type":"function","name":"getTokens","inputs":[],"outputs":[{"name":"","type":"address[]","internalType":"address[]"}],"stateMutability":"view"},{"type":"function","name":"invest","inputs":[{"name":"to","type":"address","internalType":"address"},{"name":"mintAmount","type":"uint256","internalType":"uint256"}],"outputs":[],"stateMutability":"nonpayable"},{"type":"function","name":"investFee","inputs":[],"outputs":[{"name":"","type":"uint24","internalType":"uint24"}],"stateMutability":"view"},{"type":"function","name":"investWithETH","inputs":[{"name":"to","type":"address","internalType":"address"},{"name":"mintAmount","type":"uint256","internalType":"uint256"},{"name":"swapPaths","type":"bytes[]","internalType":"bytes[]"}],"outputs":[],"stateMutability":"payable"},{"type":"function","name":"investWithToken","inputs":[{"name":"srcToken","type":"address","internalType":"address"},{"name":"to","type":"address","internalType":"address"},{"name":"mintAmount","type":"uint256","internalType":"uint256"},{"name":"maxSrcTokenAmount","type":"uint256","internalType":"uint256"},{"name":"swapPaths","type":"bytes[]","internalType":"bytes[]"}],"outputs":[],"stateMutability":"nonpayable"},{"type":"function","name":"lastIndexUpdateTime","inputs":[],"outputs":[{"name":"","type":"uint256","internalType":"uint256"}],"stateMutability":"view"},{"type":"function","name":"lastRebalanceTime","inputs":[],"outputs":[{"name":"","type":"uint256","internalType":"uint256"}],"stateMutability":"view"},{"type":"function","name":"minMintAmount","inputs":[],"outputs":[{"name":"","type":"uint256","internalType":"uint256"}],"stateMutability":"view"},{"type":"function","name":"miningLastIndex","inputs":[],"outputs":[{"name":"","type":"uint256","internalType":"uint256"}],"stateMutability":"view"},{"type":"function","name":"miningSpeedPerSecond","inputs":[],"outputs":[{"name":"","type":"uint256","internalType":"uint256"}],"stateMutability":"view"},{"type":"function","name":"miningToken","inputs":[],"outputs":[{"name":"","type":"address","internalType":"address"}],"stateMutability":"view"},{"type":"function","name":"name","inputs":[],"outputs":[{"name":"","type":"string","internalType":"string"}],"stateMutability":"view"},{"type":"function","name":"owner","inputs":[],"outputs":[{"name":"","type":"address","internalType":"address"}],"stateMutability":"view"},{"type":"function","name":"rebalance","inputs":[],"outputs":[],"stateMutability":"nonpayable"},{"type":"function","name":"rebalanceDeviance","inputs":[],"outputs":[{"name":"","type":"uint24","internalType":"uint24"}],"stateMutability":"view"},{"type":"function","name":"rebalanceInterval","inputs":[],"outputs":[{"name":"","type":"uint256","internalType":"uint256"}],"stateMutability":"view"},{"type":"function","name":"redeem","inputs":[{"name":"to","type":"address","internalType":"address"},{"name":"burnAmount","type":"uint256","internalType":"uint256"}],"outputs":[],"stateMutability":"nonpayable"},{"type":"function","name":"redeemFee","inputs":[],"outputs":[{"name":"","type":"uint24","internalType":"uint24"}],"stateMutability":"view"},{"type":"function","name":"redeemToETH","inputs":[{"name":"to","type":"address","internalType":"address"},{"name":"burnAmount","type":"uint256","internalType":"uint256"},{"name":"minETHAmount","type":"uint256","internalType":"uint256"},{"name":"swapPaths","type":"bytes[]","internalType":"bytes[]"}],"outputs":[],"stateMutability":"nonpayable"},{"type":"function","name":"redeemToToken","inputs":[{"name":"dstToken","type":"address","internalType":"address"},{"name":"to","type":"address","internalType":"address"},{"name":"burnAmount","type":"uint256","internalType":"uint256"},{"name":"minDstTokenAmount","type":"uint256","internalType":"uint256"},{"name":"swapPaths","type":"bytes[]","internalType":"bytes[]"}],"outputs":[],"stateMutability":"nonpayable"},{"type":"function","name":"removeToken","inputs":[{"name":"token","type":"address","internalType":"address"}],"outputs":[],"stateMutability":"nonpayable"},{"type":"function","name":"renounceOwnership","inputs":[],"outputs":[],"stateMutability":"nonpayable"},{"type":"function","name":"setFee","inputs":[{"name":"feeTo_","type":"address","internalType":"address"},{"name":"investFee_","type":"uint24","internalType":"uint24"},{"name":"redeemFee_","type":"uint24","internalType":"uint24"}],"outputs":[],"stateMutability":"nonpayable"},{"type":"function","name":"setPriceFeeds","inputs":[{"name":"tokens","type":"address[]","internalType":"address[]"},{"name":"priceFeeds","type":"address[]","internalType":"address[]"}],"outputs":[],"stateMutability":"nonpayable"},{"type":"function","name":"setTokenTargetWeights","inputs":[{"name":"tokens","type":"address[]","internalType":"address[]"},{"name":"targetWeights","type":"uint24[]","internalType":"uint24[]"}],"outputs":[],"stateMutability":"nonpayable"},{"type":"function","name":"supplierLastIndex","inputs":[{"name":"","type":"address","internalType":"address"}],"outputs":[{"name":"","type":"uint256","internalType":"uint256"}],"stateMutability":"view"},{"type":"function","name":"supplierRewardAccrued","inputs":[{"name":"","type":"address","internalType":"address"}],"outputs":[{"name":"","type":"uint256","internalType":"uint256"}],"stateMutability":"view"},{"type":"function","name":"swapRouter","inputs":[],"outputs":[{"name":"","type":"address","internalType":"address"}],"stateMutability":"view"},{"type":"function","name":"symbol","inputs":[],"outputs":[{"name":"","type":"string","internalType":"string"}],"stateMutability":"view"},{"type":"function","name":"totalSupply","inputs":[],"outputs":[{"name":"","type":"uint256","internalType":"uint256"}],"stateMutability":"view"},{"type":"function","name":"transfer","inputs":[{"name":"to","type":"address","internalType":"address"},{"name":"value","type":"uint256","internalType":"uint256"}],"outputs":[{"name":"","type":"bool","internalType":"bool"}],"stateMutability":"nonpayable"},{"type":"function","name":"transferFrom","inputs":[{"name":"from","type":"address","internalType":"address"},{"name":"to","type":"address","internalType":"address"},{"name":"value","type":"uint256","internalType":"uint256"}],"outputs":[{"name":"","type":"bool","internalType":"bool"}],"stateMutability":"nonpayable"},{"type":"function","name":"transferOwnership","inputs":[{"name":"newOwner","type":"address","internalType":"address"}],"outputs":[],"stateMutability":"nonpayable"},{"type":"function","name":"updateMinMintAmount","inputs":[{"name":"newMinMintAmount","type":"uint256","internalType":"uint256"}],"outputs":[],"stateMutability":"nonpayable"},{"type":"function","name":"updateMiningSpeedPerSecond","inputs":[{"name":"speed","type":"uint256","internalType":"uint256"}],"outputs":[],"stateMutability":"nonpayable"},{"type":"function","name":"updateRebalanceDeviance","inputs":[{"name":"newDeviance","type":"uint24","internalType":"uint24"}],"outputs":[],"stateMutability":"nonpayable"},{"type":"function","name":"updateRebalanceInterval","inputs":[{"name":"newInterval","type":"uint256","internalType":"uint256"}],"outputs":[],"stateMutability":"nonpayable"},{"type":"function","name":"weth","inputs":[],"outputs":[{"name":"","type":"address","internalType":"address"}],"stateMutability":"view"},{"type":"function","name":"withdrawMiningToken","inputs":[{"name":"to","type":"address","internalType":"address"},{"name":"amount","type":"uint256","internalType":"uint256"}],"outputs":[],"stateMutability":"nonpayable"},{"type":"event","name":"Approval","inputs":[{"name":"owner","type":"address","indexed":true,"internalType":"address"},{"name":"spender","type":"address","indexed":true,"internalType":"address"},{"name":"value","type":"uint256","indexed":false,"internalType":"uint256"}],"anonymous":false},{"type":"event","name":"Invested","inputs":[{"name":"to","type":"address","indexed":false,"internalType":"address"},{"name":"mintAmount","type":"uint256","indexed":false,"internalType":"uint256"},{"name":"investFee","type":"uint256","indexed":false,"internalType":"uint256"},{"name":"tokenAmounts","type":"uint256[]","indexed":false,"internalType":"uint256[]"}],"anonymous":false},{"type":"event","name":"InvestedWithETH","inputs":[{"name":"to","type":"address","indexed":true,"internalType":"address"},{"name":"mintAmount","type":"uint256","indexed":false,"internalType":"uint256"},{"name":"paidAmount","type":"uint256","indexed":false,"internalType":"uint256"}],"anonymous":false},{"type":"event","name":"InvestedWithToken","inputs":[{"name":"srcToken","type":"address","indexed":true,"internalType":"address"},{"name":"to","type":"address","indexed":true,"internalType":"address"},{"name":"mintAmount","type":"uint256","indexed":false,"internalType":"uint256"},{"name":"paidAmount","type":"uint256","indexed":false,"internalType":"uint256"}],"anonymous":false},{"type":"event","name":"MinMintAmountUpdated","inputs":[{"name":"oldMinMintAmount","type":"uint256","indexed":false,"internalType":"uint256"},{"name":"newMinMintAmount","type":"uint256","indexed":false,"internalType":"uint256"}],"anonymous":false},{"type":"event","name":"OwnershipTransferred","inputs":[{"name":"previousOwner","type":"address","indexed":true,"internalType":"address"},{"name":"newOwner","type":"address","indexed":true,"internalType":"address"}],"anonymous":false},{"type":"event","name":"Rebalanced","inputs":[{"name":"reservesBefore","type":"uint256[]","indexed":false,"internalType":"uint256[]"},{"name":"reservesAfter","type":"uint256[]","indexed":false,"internalType":"uint256[]"}],"anonymous":false},{"type":"event","name":"Redeemed","inputs":[{"name":"sender","type":"address","indexed":false,"internalType":"address"},{"name":"to","type":"address","indexed":false,"internalType":"address"},{"name":"burnAmount","type":"uint256","indexed":false,"internalType":"uint256"},{"name":"redeemFee","type":"uint256","indexed":false,"internalType":"uint256"},{"name":"tokenAmounts","type":"uint256[]","indexed":false,"internalType":"uint256[]"}],"anonymous":false},{"type":"event","name":"RedeemedToETH","inputs":[{"name":"to","type":"address","indexed":true,"internalType":"address"},{"name":"burnAmount","type":"uint256","indexed":false,"internalType":"uint256"},{"name":"receivedAmount","type":"uint256","indexed":false,"internalType":"uint256"}],"anonymous":false},{"type":"event","name":"RedeemedToToken","inputs":[{"name":"dstToken","type":"address","indexed":true,"internalType":"address"},{"name":"to","type":"address","indexed":true,"internalType":"address"},{"name":"burnAmount","type":"uint256","indexed":false,"internalType":"uint256"},{"name":"receivedAmount","type":"uint256","indexed":false,"internalType":"uint256"}],"anonymous":false},{"type":"event","name":"RewardClaimed","inputs":[{"name":"supplier","type":"address","indexed":true,"internalType":"address"},{"name":"claimedAmount","type":"uint256","indexed":false,"internalType":"uint256"}],"anonymous":false},{"type":"event","name":"SupplierIndexUpdated","inputs":[{"name":"supplier","type":"address","indexed":true,"internalType":"address"},{"name":"deltaIndex","type":"uint256","indexed":false,"internalType":"uint256"},{"name":"lastIndex","type":"uint256","indexed":false,"internalType":"uint256"}],"anonymous":false},{"type":"event","name":"TokenAdded","inputs":[{"name":"token","type":"address","indexed":false,"internalType":"address"},{"name":"index","type":"uint256","indexed":false,"internalType":"uint256"}],"anonymous":false},{"type":"event","name":"TokenRemoved","inputs":[{"name":"token","type":"address","indexed":false,"internalType":"address"},{"name":"index","type":"uint256","indexed":false,"internalType":"uint256"}],"anonymous":false},{"type":"event","name":"Transfer","inputs":[{"name":"from","type":"address","indexed":true,"internalType":"address"},{"name":"to","type":"address","indexed":true,"internalType":"address"},{"name":"value","type":"uint256","indexed":false,"internalType":"uint256"}],"anonymous":false},{"type":"error","name":"DifferentArrayLength","inputs":[]},{"type":"error","name":"ERC20InsufficientAllowance","inputs":[{"name":"spender","type":"address","internalType":"address"},{"name":"allowance","type":"uint256","internalType":"uint256"},{"name":"needed","type":"uint256","internalType":"uint256"}]},{"type":"error","name":"ERC20InsufficientBalance","inputs":[{"name":"sender","type":"address","internalType":"address"},{"name":"balance","type":"uint256","internalType":"uint256"},{"name":"needed","type":"uint256","internalType":"uint256"}]},{"type":"error","name":"ERC20InvalidApprover","inputs":[{"name":"approver","type":"address","internalType":"address"}]},{"type":"error","name":"ERC20InvalidReceiver","inputs":[{"name":"receiver","type":"address","internalType":"address"}]},{"type":"error","name":"ERC20InvalidSender","inputs":[{"name":"sender","type":"address","internalType":"address"}]},{"type":"error","name":"ERC20InvalidSpender","inputs":[{"name":"spender","type":"address","internalType":"address"}]},{"type":"error","name":"ExceedsMaxETHAmount","inputs":[]},{"type":"error","name":"Forbidden","inputs":[]},{"type":"error","name":"InsufficientETHAmount","inputs":[]},{"type":"error","name":"InvalidArrayLength","inputs":[]},{"type":"error","name":"InvalidSwapPath","inputs":[{"name":"path","type":"bytes","internalType":"bytes"}]},{"type":"error","name":"InvalidTotalWeights","inputs":[]},{"type":"error","name":"LessThanMinMintAmount","inputs":[]},{"type":"error","name":"NotRebalanceTime","inputs":[]},{"type":"error","name":"NothingClaimable","inputs":[]},{"type":"error","name":"OverSlippage","inputs":[]},{"type":"error","name":"OwnableInvalidOwner","inputs":[{"name":"owner","type":"address","internalType":"address"}]},{"type":"error","name":"OwnableUnauthorizedAccount","inputs":[{"name":"account","type":"address","internalType":"address"}]},{"type":"error","name":"PriceFeedNotFound","inputs":[{"name":"token","type":"address","internalType":"address"}]},{"type":"error","name":"SafeERC20FailedOperation","inputs":[{"name":"token","type":"address","internalType":"address"}]},{"type":"error","name":"SafeTransferETHFailed","inputs":[]},{"type":"error","name":"TokenExists","inputs":[]},{"type":"error","name":"TokenNotFound","inputs":[]},{"type":"error","name":"TransferFailed","inputs":[]}],"bytecode":{"object":"0x60c060405234801562000010575f80fd5b5060405162008a2338038062008a238339818101604052810190620000369190620007d6565b888888888888888887878787878787868686868633858581600390816200005e919062000b59565b50806004908162000070919062000b59565b5050505f73ffffffffffffffffffffffffffffffffffffffff168173ffffffffffffffffffffffffffffffffffffffff1603620000e6575f6040517f1e4fbdf7000000000000000000000000000000000000000000000000000000008152600401620000dd919062000c4e565b60405180910390fd5b620000f7816200025260201b60201c565b5082600890805190602001906200011092919062000315565b50816009908051906020019062000129929190620003a1565b508060078190555050505050508173ffffffffffffffffffffffffffffffffffffffff1660808173ffffffffffffffffffffffffffffffffffffffff16815250508073ffffffffffffffffffffffffffffffffffffffff1660a08173ffffffffffffffffffffffffffffffffffffffff16815250505050505050505080600a5f6101000a81548173ffffffffffffffffffffffffffffffffffffffff021916908373ffffffffffffffffffffffffffffffffffffffff16021790555050505050505050508060105f6101000a81548173ffffffffffffffffffffffffffffffffffffffff021916908373ffffffffffffffffffffffffffffffffffffffff1602179055506ec097ce7bc90715b34b9f100000000060128190555050505050505050505062000c69565b5f60055f9054906101000a900473ffffffffffffffffffffffffffffffffffffffff1690508160055f6101000a81548173ffffffffffffffffffffffffffffffffffffffff021916908373ffffffffffffffffffffffffffffffffffffffff1602179055508173ffffffffffffffffffffffffffffffffffffffff168173ffffffffffffffffffffffffffffffffffffffff167f8be0079c531659141344cd1fd0a4f28419497f9722a3daafe3b4186f6b6457e060405160405180910390a35050565b828054828255905f5260205f209081019282156200038e579160200282015b828111156200038d578251825f6101000a81548173ffffffffffffffffffffffffffffffffffffffff021916908373ffffffffffffffffffffffffffffffffffffffff1602179055509160200191906001019062000334565b5b5090506200039d9190620003f1565b5090565b828054828255905f5260205f20908101928215620003de579160200282015b82811115620003dd578251825591602001919060010190620003c0565b5b509050620003ed9190620003f1565b5090565b5b808211156200040a575f815f905550600101620003f2565b5090565b5f604051905090565b5f80fd5b5f80fd5b5f80fd5b5f80fd5b5f601f19601f8301169050919050565b7f4e487b71000000000000000000000000000000000000000000000000000000005f52604160045260245ffd5b6200046f8262000427565b810181811067ffffffffffffffff8211171562000491576200049062000437565b5b80604052505050565b5f620004a56200040e565b9050620004b3828262000464565b919050565b5f67ffffffffffffffff821115620004d557620004d462000437565b5b620004e08262000427565b9050602081019050919050565b5f5b838110156200050c578082015181840152602081019050620004ef565b5f8484015250505050565b5f6200052d6200052784620004b8565b6200049a565b9050828152602081018484840111156200054c576200054b62000423565b5b62000559848285620004ed565b509392505050565b5f82601f8301126200057857620005776200041f565b5b81516200058a84826020860162000517565b91505092915050565b5f67ffffffffffffffff821115620005b057620005af62000437565b5b602082029050602081019050919050565b5f80fd5b5f73ffffffffffffffffffffffffffffffffffffffff82169050919050565b5f620005f082620005c5565b9050919050565b6200060281620005e4565b81146200060d575f80fd5b50565b5f815190506200062081620005f7565b92915050565b5f6200063c620006368462000593565b6200049a565b90508083825260208201905060208402830185811115620006625762000661620005c1565b5b835b818110156200068f57806200067a888262000610565b84526020840193505060208101905062000664565b5050509392505050565b5f82601f830112620006b057620006af6200041f565b5b8151620006c284826020860162000626565b91505092915050565b5f67ffffffffffffffff821115620006e857620006e762000437565b5b602082029050602081019050919050565b5f819050919050565b6200070d81620006f9565b811462000718575f80fd5b50565b5f815190506200072b8162000702565b92915050565b5f620007476200074184620006cb565b6200049a565b905080838252602082019050602084028301858111156200076d576200076c620005c1565b5b835b818110156200079a57806200078588826200071b565b8452602084019350506020810190506200076f565b5050509392505050565b5f82601f830112620007bb57620007ba6200041f565b5b8151620007cd84826020860162000731565b91505092915050565b5f805f805f805f805f6101208a8c031215620007f757620007f662000417565b5b5f8a015167ffffffffffffffff8111156200081757620008166200041b565b5b620008258c828d0162000561565b99505060208a015167ffffffffffffffff8111156200084957620008486200041b565b5b620008578c828d0162000561565b98505060408a015167ffffffffffffffff8111156200087b576200087a6200041b565b5b620008898c828d0162000699565b97505060608a015167ffffffffffffffff811115620008ad57620008ac6200041b565b5b620008bb8c828d01620007a4565b9650506080620008ce8c828d016200071b565b95505060a0620008e18c828d0162000610565b94505060c0620008f48c828d0162000610565b93505060e0620009078c828d0162000610565b9250506101006200091b8c828d0162000610565b9150509295985092959850929598565b5f81519050919050565b7f4e487b71000000000000000000000000000000000000000000000000000000005f52602260045260245ffd5b5f60028204905060018216806200097a57607f821691505b60208210810362000990576200098f62000935565b5b50919050565b5f819050815f5260205f209050919050565b5f6020601f8301049050919050565b5f82821b905092915050565b5f60088302620009f47fffffffffffffffffffffffffffffffffffffffffffffffffffffffffffffffff82620009b7565b62000a008683620009b7565b95508019841693508086168417925050509392505050565b5f819050919050565b5f62000a4162000a3b62000a3584620006f9565b62000a18565b620006f9565b9050919050565b5f819050919050565b62000a5c8362000a21565b62000a7462000a6b8262000a48565b848454620009c3565b825550505050565b5f90565b62000a8a62000a7c565b62000a9781848462000a51565b505050565b5b8181101562000abe5762000ab25f8262000a80565b60018101905062000a9d565b5050565b601f82111562000b0d5762000ad78162000996565b62000ae284620009a8565b8101602085101562000af2578190505b62000b0a62000b0185620009a8565b83018262000a9c565b50505b505050565b5f82821c905092915050565b5f62000b2f5f198460080262000b12565b1980831691505092915050565b5f62000b49838362000b1e565b9150826002028217905092915050565b62000b64826200092b565b67ffffffffffffffff81111562000b805762000b7f62000437565b5b62000b8c825462000962565b62000b9982828562000ac2565b5f60209050601f83116001811462000bcf575f841562000bba578287015190505b62000bc6858262000b3c565b86555062000c35565b601f19841662000bdf8662000996565b5f5b8281101562000c085784890151825560018201915060208501945060208101905062000be1565b8683101562000c28578489015162000c24601f89168262000b1e565b8355505b6001600288020188555050505b505050505050565b62000c4881620005e4565b82525050565b5f60208201905062000c635f83018462000c3d565b92915050565b60805160a051617d1a62000d095f395f818161143d015281816115030152818161159f015281816117ca01528181613089015281816131090152818161317e0152818161321a015261341601525f81816111d00152818161165c01528181612c9a015281816132b401528181613783015281816140040152818161408a01528181614e7f015281816159a001528181615bc30152615db80152617d1a5ff3fe60806040526004361061036e575f3560e01c80637ca02356116101c5578063aa6ca808116100f6578063d48bfca711610094578063dd62ed3e1161006e578063dd62ed3e14610c62578063e61b0e8114610c9e578063e8b508a814610cc8578063f2fde38b14610cf257610375565b8063d48bfca714610be8578063d9ca21d514610c10578063da16338714610c3a57610375565b8063b88a802f116100d0578063b88a802f14610b44578063b9b8c24614610b5a578063c31c9c0714610b82578063ce7ddbef14610bac57610375565b8063aa6ca80814610ac2578063aec1853114610aec578063b0acd84b14610b2857610375565b80639e88bcef11610163578063a47f22651161013d578063a47f226514610a0c578063a553618b14610a36578063a9059cbb14610a5e578063a987e49f14610a9a57610375565b80639e88bcef1461097b578063a0398af3146109a8578063a2fe4f2d146109d057610375565b80638da5cb5b1161019f5780638da5cb5b146108d557806392aeb53a146108ff57806395d89b4114610927578063965fa21e1461095157610375565b80637ca023561461086b5780637d7c2a1c146108955780638423f320146108ab57610375565b8063313ce5671161029f57806364eb77271161023d5780636ed93dd0116102175780636ed93dd0146107b357806370a08231146107dd578063715018a614610819578063742d2cf11461082f57610375565b806364eb77271461073957806369cf7ac3146107615780636dd84ac11461078b57610375565b80635534a774116102795780635534a774146106715780635b6cca80146106995780635fa7b584146106d55780635ff329af146106fd57610375565b8063313ce567146105f55780633fc8cef31461061f5780634f4e09211461064957610375565b806318160ddd1161030c57806322b1c027116102e657806322b1c0271461053f57806323b872dd1461056757806327776ab5146105a35780632e238cac146105cd57610375565b806318160ddd146104c35780631c1f3014146104ed5780631e9a69501461051757610375565b806306fdde031161034857806306fdde0314610409578063095ea7b3146104335780630e7a0c221461046f57806316d1d9161461049957610375565b8063017e7e581461037957806301e9d757146103a357806305def347146103cd57610375565b3661037557005b5f80fd5b348015610384575f80fd5b5061038d610d1a565b60405161039a9190616364565b60405180910390f35b3480156103ae575f80fd5b506103b7610d3f565b6040516103c49190616395565b60405180910390f35b3480156103d8575f80fd5b506103f360048036038101906103ee91906163e9565b610d45565b60405161040091906164cb565b60405180910390f35b348015610414575f80fd5b5061041d610f16565b60405161042a9190616575565b60405180910390f35b34801561043e575f80fd5b50610459600480360381019061045491906165bf565b610fa6565b6040516104669190616617565b60405180910390f35b34801561047a575f80fd5b50610483610fc8565b6040516104909190616395565b60405180910390f35b3480156104a4575f80fd5b506104ad610fce565b6040516104ba9190616395565b60405180910390f35b3480156104ce575f80fd5b506104d7610fd4565b6040516104e49190616395565b60405180910390f35b3480156104f8575f80fd5b50610501610fdd565b60405161050e919061664d565b60405180910390f35b348015610522575f80fd5b5061053d600480360381019061053891906165bf565b610ff2565b005b34801561054a575f80fd5b5061056560048036038101906105609190616874565b611001565b005b348015610572575f80fd5b5061058d60048036038101906105889190616907565b6113d8565b60405161059a9190616617565b60405180910390f35b3480156105ae575f80fd5b506105b7611406565b6040516105c49190616395565b60405180910390f35b3480156105d8575f80fd5b506105f360048036038101906105ee91906163e9565b611419565b005b348015610600575f80fd5b50610609611433565b6040516106169190616972565b60405180910390f35b34801561062a575f80fd5b5061063361143b565b6040516106409190616364565b60405180910390f35b348015610654575f80fd5b5061066f600480360381019061066a919061698b565b61145f565b005b34801561067c575f80fd5b50610697600480360381019061069291906163e9565b6118b1565b005b3480156106a4575f80fd5b506106bf60048036038101906106ba9190616a0b565b6118c3565b6040516106cc9190616364565b60405180910390f35b3480156106e0575f80fd5b506106fb60048036038101906106f69190616a0b565b6118f3565b005b348015610708575f80fd5b50610723600480360381019061071e9190616a0b565b611a13565b6040516107309190616395565b60405180910390f35b348015610744575f80fd5b5061075f600480360381019061075a91906165bf565b611b95565b005b34801561076c575f80fd5b50610775611bed565b6040516107829190616364565b60405180910390f35b348015610796575f80fd5b506107b160048036038101906107ac91906163e9565b611c12565b005b3480156107be575f80fd5b506107c7611c5f565b6040516107d4919061664d565b60405180910390f35b3480156107e8575f80fd5b5061080360048036038101906107fe9190616a0b565b611c66565b6040516108109190616395565b60405180910390f35b348015610824575f80fd5b5061082d611cab565b005b34801561083a575f80fd5b5061085560048036038101906108509190616a0b565b611cbe565b6040516108629190616395565b60405180910390f35b348015610876575f80fd5b5061087f611cd3565b60405161088c9190616395565b60405180910390f35b3480156108a0575f80fd5b506108a9611cd9565b005b3480156108b6575f80fd5b506108bf612443565b6040516108cc91906164cb565b60405180910390f35b3480156108e0575f80fd5b506108e9612499565b6040516108f69190616364565b60405180910390f35b34801561090a575f80fd5b5061092560048036038101906109209190616af6565b6124c1565b005b348015610932575f80fd5b5061093b6125d0565b6040516109489190616575565b60405180910390f35b34801561095c575f80fd5b50610965612660565b604051610972919061664d565b60405180910390f35b348015610986575f80fd5b5061098f612675565b60405161099f9493929190616ce3565b60405180910390f35b3480156109b3575f80fd5b506109ce60048036038101906109c99190616874565b612a7e565b005b3480156109db575f80fd5b506109f660048036038101906109f19190616a0b565b612e77565b604051610a03919061664d565b60405180910390f35b348015610a17575f80fd5b50610a20612e96565b604051610a2d9190616364565b60405180910390f35b348015610a41575f80fd5b50610a5c6004803603810190610a579190616d65565b612ebb565b005b348015610a69575f80fd5b50610a846004803603810190610a7f91906165bf565b612f46565b604051610a919190616617565b60405180910390f35b348015610aa5575f80fd5b50610ac06004803603810190610abb9190616db5565b612f68565b005b348015610acd575f80fd5b50610ad6612f91565b604051610ae39190616de0565b60405180910390f35b348015610af7575f80fd5b50610b126004803603810190610b0d9190616a0b565b61301c565b604051610b1f9190616395565b60405180910390f35b610b426004803603810190610b3d9190616e00565b613031565b005b348015610b4f575f80fd5b50610b58613543565b005b348015610b65575f80fd5b50610b806004803603810190610b7b91906165bf565b6136ad565b005b348015610b8d575f80fd5b50610b96613781565b604051610ba39190616364565b60405180910390f35b348015610bb7575f80fd5b50610bd26004803603810190610bcd91906163e9565b6137a5565b604051610bdf91906164cb565b60405180910390f35b348015610bf3575f80fd5b50610c0e6004803603810190610c099190616a0b565b613976565b005b348015610c1b575f80fd5b50610c2461398b565b604051610c319190616395565b60405180910390f35b348015610c45575f80fd5b50610c606004803603810190610c5b9190616f2c565b613991565b005b348015610c6d575f80fd5b50610c886004803603810190610c839190616fa2565b613a7e565b604051610c959190616395565b60405180910390f35b348015610ca9575f80fd5b50610cb2613b00565b604051610cbf919061664d565b60405180910390f35b348015610cd3575f80fd5b50610cdc613b14565b604051610ce99190616395565b60405180910390f35b348015610cfd575f80fd5b50610d186004803603810190610d139190616a0b565b613b1a565b005b60065f9054906101000a900473ffffffffffffffffffffffffffffffffffffffff1681565b60075481565b60605f610d50610fd4565b905060088054905067ffffffffffffffff811115610d7157610d7061666a565b5b604051908082528060200260200182016040528015610d9f5781602001602082028036833780820191505090505b5091505f5b600880549050811015610f0f575f821115610ea9575f60088281548110610dce57610dcd616fe0565b5b905f5260205f20015f9054906101000a900473ffffffffffffffffffffffffffffffffffffffff1673ffffffffffffffffffffffffffffffffffffffff166370a08231306040518263ffffffff1660e01b8152600401610e2e9190616364565b602060405180830381865afa158015610e49573d5f803e3d5ffd5b505050506040513d601f19601f82011682018060405250810190610e6d9190617021565b9050610e84858483613b9e9092919063ffffffff16565b848381518110610e9757610e96616fe0565b5b60200260200101818152505050610f02565b610ee260098281548110610ec057610ebf616fe0565b5b905f5260205f200154670de0b6b3a764000086613b9e9092919063ffffffff16565b838281518110610ef557610ef4616fe0565b5b6020026020010181815250505b8080600101915050610da4565b5050919050565b606060038054610f2590617079565b80601f0160208091040260200160405190810160405280929190818152602001828054610f5190617079565b8015610f9c5780601f10610f7357610100808354040283529160200191610f9c565b820191905f5260205f20905b815481529060010190602001808311610f7f57829003601f168201915b5050505050905090565b5f80610fb0613c06565b9050610fbd818585613c0d565b600191505092915050565b60115481565b600c5481565b5f600254905090565b600660149054906101000a900462ffffff1681565b610ffc8282613c1f565b505050565b5f61100a612f91565b90508151815114611047576040517f9d89020a00000000000000000000000000000000000000000000000000000000815260040160405180910390fd5b5f61105185610d45565b90506110803330868a73ffffffffffffffffffffffffffffffffffffffff16613f42909392919063ffffffff16565b61108987613fc4565b5f805f90505b8351811015611320575f8382815181106110ac576110ab616fe0565b5b60200260200101510315611313576110f98482815181106110d0576110cf616fe0565b5b60200260200101518a8784815181106110ec576110eb616fe0565b5b60200260200101516140f4565b611154578481815181106111105761110f616fe0565b5b60200260200101516040517f5c37922300000000000000000000000000000000000000000000000000000000815260040161114b91906170fb565b60405180910390fd5b8873ffffffffffffffffffffffffffffffffffffffff1684828151811061117e5761117d616fe0565b5b602002602001015173ffffffffffffffffffffffffffffffffffffffff16036111ce578281815181106111b4576111b3616fe0565b5b6020026020010151826111c79190617148565b9150611312565b7f000000000000000000000000000000000000000000000000000000000000000073ffffffffffffffffffffffffffffffffffffffff1663f28c04986040518060a0016040528088858151811061122857611227616fe0565b5b602002602001015181526020013073ffffffffffffffffffffffffffffffffffffffff16815260200161012c4261125f9190617148565b815260200186858151811061127757611276616fe0565b5b602002602001015181526020017fffffffffffffffffffffffffffffffffffffffffffffffffffffffffffffffff8152506040518263ffffffff1660e01b81526004016112c49190617236565b6020604051808303815f875af11580156112e0573d5f803e3d5ffd5b505050506040513d601f19601f820116820180604052508101906113049190617021565b8261130f9190617148565b91505b5b808060010191505061108f565b505f818661132e9190617256565b905061135b33828b73ffffffffffffffffffffffffffffffffffffffff166142829092919063ffffffff16565b6113658888614301565b508773ffffffffffffffffffffffffffffffffffffffff168973ffffffffffffffffffffffffffffffffffffffff167fd58b185d00630065159db1d6df5fea816128b29100ce9dbc56dd6508e380aa9d89856040516113c5929190617289565b60405180910390a3505050505050505050565b5f806113e2613c06565b90506113ef858285614434565b6113fa8585856144c7565b60019150509392505050565b6ec097ce7bc90715b34b9f100000000081565b6114216145b7565b61142961463e565b8060118190555050565b5f6012905090565b7f000000000000000000000000000000000000000000000000000000000000000081565b5f611468612f91565b905081518151146114a5576040517f9d89020a00000000000000000000000000000000000000000000000000000000815260040160405180910390fd5b5f6114b03086613c1f565b90505f805f90505b835181101561178d575f8382815181106114d5576114d4616fe0565b5b60200260200101510315611780576115428482815181106114f9576114f8616fe0565b5b60200260200101517f000000000000000000000000000000000000000000000000000000000000000087848151811061153557611534616fe0565b5b60200260200101516140f4565b61159d5784818151811061155957611558616fe0565b5b60200260200101516040517f5c37922300000000000000000000000000000000000000000000000000000000815260040161159491906170fb565b60405180910390fd5b7f000000000000000000000000000000000000000000000000000000000000000073ffffffffffffffffffffffffffffffffffffffff168482815181106115e7576115e6616fe0565b5b602002602001015173ffffffffffffffffffffffffffffffffffffffff16036116375782818151811061161d5761161c616fe0565b5b6020026020010151826116309190617148565b915061177f565b61165a84828151811061164d5761164c616fe0565b5b6020026020010151613fc4565b7f000000000000000000000000000000000000000000000000000000000000000073ffffffffffffffffffffffffffffffffffffffff1663c04b8d596040518060a001604052808885815181106116b4576116b3616fe0565b5b602002602001015181526020013073ffffffffffffffffffffffffffffffffffffffff16815260200161012c426116eb9190617148565b815260200186858151811061170357611702616fe0565b5b6020026020010151815260200160018152506040518263ffffffff1660e01b81526004016117319190617323565b6020604051808303815f875af115801561174d573d5f803e3d5ffd5b505050506040513d601f19601f820116820180604052508101906117719190617021565b8261177c9190617148565b91505b5b80806001019150506114b8565b50848110156117c8576040517f93bce7b300000000000000000000000000000000000000000000000000000000815260040160405180910390fd5b7f000000000000000000000000000000000000000000000000000000000000000073ffffffffffffffffffffffffffffffffffffffff16632e1a7d4d826040518263ffffffff1660e01b81526004016118219190616395565b5f604051808303815f87803b158015611838575f80fd5b505af115801561184a573d5f803e3d5ffd5b505050506118588782614719565b8673ffffffffffffffffffffffffffffffffffffffff167f786875e1cfb7304a0cb0e3672e281b2d4890f432fdd4c07fc44d687612d5296387836040516118a0929190617289565b60405180910390a250505050505050565b6118b96145b7565b80600c8190555050565b600e602052805f5260405f205f915054906101000a900473ffffffffffffffffffffffffffffffffffffffff1681565b6118fb6145b7565b5f8173ffffffffffffffffffffffffffffffffffffffff166370a08231306040518263ffffffff1660e01b81526004016119359190616364565b602060405180830381865afa158015611950573d5f803e3d5ffd5b505050506040513d601f19601f820116820180604052508101906119749190617021565b11806119cf57505f600f5f8373ffffffffffffffffffffffffffffffffffffffff1673ffffffffffffffffffffffffffffffffffffffff1681526020019081526020015f205f9054906101000a900462ffffff1662ffffff16115b15611a06576040517fee90c46800000000000000000000000000000000000000000000000000000000815260040160405180910390fd5b611a0f8161480b565b5050565b5f8060155f8473ffffffffffffffffffffffffffffffffffffffff1673ffffffffffffffffffffffffffffffffffffffff1681526020019081526020015f205490505f60125490505f611a64610fd4565b90505f60135442611a759190617256565b90505f82118015611a8557505f81115b8015611a9257505f601154115b15611ae0575f81601154611aa69190617343565b90505f611acd6ec097ce7bc90715b34b9f100000000085846149fd9092919063ffffffff16565b90508085611adb9190617148565b945050505b5f60145f8873ffffffffffffffffffffffffffffffffffffffff1673ffffffffffffffffffffffffffffffffffffffff1681526020019081526020015f205490505f611b2b88611c66565b90505f82118015611b3b57505f81115b15611b87575f8286611b4d9190617256565b90505f611b74826ec097ce7bc90715b34b9f1000000000856149fd9092919063ffffffff16565b90508088611b829190617148565b975050505b859650505050505050919050565b611b9d6145b7565b611be9828260105f9054906101000a900473ffffffffffffffffffffffffffffffffffffffff1673ffffffffffffffffffffffffffffffffffffffff166142829092919063ffffffff16565b5050565b60105f9054906101000a900473ffffffffffffffffffffffffffffffffffffffff1681565b611c1a6145b7565b7fa9d547bad523b2016561d73c8b6f0de927b53e678d07b339173ea7b469ec896960075482604051611c4d929190617289565b60405180910390a18060078190555050565b620f424081565b5f805f8373ffffffffffffffffffffffffffffffffffffffff1673ffffffffffffffffffffffffffffffffffffffff1681526020019081526020015f20549050919050565b611cb36145b7565b611cbc5f614b93565b565b6015602052805f5260405f205f915090505481565b60125481565b5f611ce2612f91565b90505f805f90505b8251811015611d7357600f5f848381518110611d0957611d08616fe0565b5b602002602001015173ffffffffffffffffffffffffffffffffffffffff1673ffffffffffffffffffffffffffffffffffffffff1681526020019081526020015f205f9054906101000a900462ffffff1682611d649190617384565b91508080600101915050611cea565b50620f424062ffffff168162ffffff1614611dba576040517fea8cb5b200000000000000000000000000000000000000000000000000000000815260040160405180910390fd5b600c54600b54611dca9190617148565b421015611e03576040517fb99250eb00000000000000000000000000000000000000000000000000000000815260040160405180910390fd5b42600b819055505f805f80611e16612675565b93509350935093505f845167ffffffffffffffff811115611e3a57611e3961666a565b5b604051908082528060200260200182016040528015611e685781602001602082028036833780820191505090505b5090505f855167ffffffffffffffff811115611e8757611e8661666a565b5b604051908082528060200260200182016040528015611eb55781602001602082028036833780820191505090505b5090505f5b86518110156122dd57868181518110611ed657611ed5616fe0565b5b602002602001015173ffffffffffffffffffffffffffffffffffffffff166370a08231306040518263ffffffff1660e01b8152600401611f169190616364565b602060405180830381865afa158015611f31573d5f803e3d5ffd5b505050506040513d601f19601f82011682018060405250810190611f559190617021565b828281518110611f6857611f67616fe0565b5b6020026020010181815250505f600f5f898481518110611f8b57611f8a616fe0565b5b602002602001015173ffffffffffffffffffffffffffffffffffffffff1673ffffffffffffffffffffffffffffffffffffffff1681526020019081526020015f205f9054906101000a900462ffffff1662ffffff1603156122d0575f620f424062ffffff16600f5f8a858151811061200657612005616fe0565b5b602002602001015173ffffffffffffffffffffffffffffffffffffffff1673ffffffffffffffffffffffffffffffffffffffff1681526020019081526020015f205f9054906101000a900462ffffff1662ffffff16866120669190617343565b61207091906173e7565b90505f620f424062ffffff16600d5f9054906101000a900462ffffff16620f424061209b9190617417565b62ffffff16836120ab9190617343565b6120b591906173e7565b90505f620f424062ffffff16600d5f9054906101000a900462ffffff16620f42406120e09190617384565b62ffffff16846120f09190617343565b6120fa91906173e7565b9050818885815181106121105761210f616fe0565b5b6020026020010151108061213d57508088858151811061213357612132616fe0565b5b6020026020010151115b156122cc575f88858151811061215657612155616fe0565b5b602002602001015184612169919061744d565b90505f8b868151811061217f5761217e616fe0565b5b602002602001015173ffffffffffffffffffffffffffffffffffffffff1663313ce5676040518163ffffffff1660e01b8152600401602060405180830381865afa1580156121cf573d5f803e3d5ffd5b505050506040513d601f19601f820116820180604052508101906121f391906174b7565b90505f82131561225c5761223881600a61220d9190617611565b8c88815181106122205761221f616fe0565b5b6020026020010151846149fd9092919063ffffffff16565b88878151811061224b5761224a616fe0565b5b6020026020010181815250506122c9565b6122a081600a61226c9190617611565b8c888151811061227f5761227e616fe0565b5b6020026020010151846122919061765b565b6149fd9092919063ffffffff16565b6122a99061765b565b8887815181106122bc576122bb616fe0565b5b6020026020010181815250505b50505b5050505b8080600101915050611eba565b506122e88683614c56565b5f865167ffffffffffffffff8111156123045761230361666a565b5b6040519080825280602002602001820160405280156123325781602001602082028036833780820191505090505b5090505f5b81518110156123fe5787818151811061235357612352616fe0565b5b602002602001015173ffffffffffffffffffffffffffffffffffffffff166370a08231306040518263ffffffff1660e01b81526004016123939190616364565b602060405180830381865afa1580156123ae573d5f803e3d5ffd5b505050506040513d601f19601f820116820180604052508101906123d29190617021565b8282815181106123e5576123e4616fe0565b5b6020026020010181815250508080600101915050612337565b507ffb0622e1da6c269e725d59af128455ac1987f6cc71e725c8ebe93d52a3196dc182826040516124309291906176a1565b60405180910390a1505050505050505050565b6060600980548060200260200160405190810160405280929190818152602001828054801561248f57602002820191905f5260205f20905b81548152602001906001019080831161247b575b5050505050905090565b5f60055f9054906101000a900473ffffffffffffffffffffffffffffffffffffffff16905090565b6124c96145b7565b8051825114612504576040517fdba17af500000000000000000000000000000000000000000000000000000000815260040160405180910390fd5b5f5b82518110156125cb5781818151811061252257612521616fe0565b5b6020026020010151600e5f8584815181106125405761253f616fe0565b5b602002602001015173ffffffffffffffffffffffffffffffffffffffff1673ffffffffffffffffffffffffffffffffffffffff1681526020019081526020015f205f6101000a81548173ffffffffffffffffffffffffffffffffffffffff021916908373ffffffffffffffffffffffffffffffffffffffff1602179055508080600101915050612506565b505050565b6060600480546125df90617079565b80601f016020809104026020016040519081016040528092919081815260200182805461260b90617079565b80156126565780601f1061262d57610100808354040283529160200191612656565b820191905f5260205f20905b81548152906001019060200180831161263957829003601f168201915b5050505050905090565b600660179054906101000a900462ffffff1681565b60608060605f612683612f91565b93505f845190508067ffffffffffffffff8111156126a4576126a361666a565b5b6040519080825280602002602001820160405280156126d25781602001602082028036833780820191505090505b5093508067ffffffffffffffff8111156126ef576126ee61666a565b5b60405190808252806020026020018201604052801561271d5781602001602082028036833780820191505090505b5092505f5b81811015612a76575f600e5f88848151811061274157612740616fe0565b5b602002602001015173ffffffffffffffffffffffffffffffffffffffff1673ffffffffffffffffffffffffffffffffffffffff1681526020019081526020015f205f9054906101000a900473ffffffffffffffffffffffffffffffffffffffff1690505f73ffffffffffffffffffffffffffffffffffffffff168173ffffffffffffffffffffffffffffffffffffffff160361282e578682815181106127ea576127e9616fe0565b5b60200260200101516040517feeeee6b90000000000000000000000000000000000000000000000000000000081526004016128259190616364565b60405180910390fd5b8073ffffffffffffffffffffffffffffffffffffffff1663feaf968c6040518163ffffffff1660e01b815260040160a060405180830381865afa158015612877573d5f803e3d5ffd5b505050506040513d601f19601f8201168201806040525081019061289b919061773f565b90919293509091509050508683815181106128b9576128b8616fe0565b5b6020026020010181815250505f8783815181106128d9576128d8616fe0565b5b602002602001015173ffffffffffffffffffffffffffffffffffffffff1663313ce5676040518163ffffffff1660e01b8152600401602060405180830381865afa158015612929573d5f803e3d5ffd5b505050506040513d601f19601f8201168201806040525081019061294d91906174b7565b90505f88848151811061296357612962616fe0565b5b602002602001015173ffffffffffffffffffffffffffffffffffffffff166370a08231306040518263ffffffff1660e01b81526004016129a39190616364565b602060405180830381865afa1580156129be573d5f803e3d5ffd5b505050506040513d601f19601f820116820180604052508101906129e29190617021565b9050612a1f8885815181106129fa576129f9616fe0565b5b602002602001015183600a612a0f9190617611565b836149fd9092919063ffffffff16565b878581518110612a3257612a31616fe0565b5b602002602001018181525050868481518110612a5157612a50616fe0565b5b602002602001015186612a649190617148565b95505050508080600101915050612722565b505090919293565b5f612a87612f91565b90508151815114612ac4576040517f9d89020a00000000000000000000000000000000000000000000000000000000815260040160405180910390fd5b5f612acf3086613c1f565b90505f805f90505b8351811015612dcb575f838281518110612af457612af3616fe0565b5b60200260200101510315612dbe57612b41848281518110612b1857612b17616fe0565b5b60200260200101518a878481518110612b3457612b33616fe0565b5b60200260200101516140f4565b612b9c57848181518110612b5857612b57616fe0565b5b60200260200101516040517f5c379223000000000000000000000000000000000000000000000000000000008152600401612b9391906170fb565b60405180910390fd5b8873ffffffffffffffffffffffffffffffffffffffff16848281518110612bc657612bc5616fe0565b5b602002602001015173ffffffffffffffffffffffffffffffffffffffff1603612c7557612c4888848381518110612c0057612bff616fe0565b5b6020026020010151868481518110612c1b57612c1a616fe0565b5b602002602001015173ffffffffffffffffffffffffffffffffffffffff166142829092919063ffffffff16565b828181518110612c5b57612c5a616fe0565b5b602002602001015182612c6e9190617148565b9150612dbd565b612c98848281518110612c8b57612c8a616fe0565b5b6020026020010151613fc4565b7f000000000000000000000000000000000000000000000000000000000000000073ffffffffffffffffffffffffffffffffffffffff1663c04b8d596040518060a00160405280888581518110612cf257612cf1616fe0565b5b602002602001015181526020018b73ffffffffffffffffffffffffffffffffffffffff16815260200161012c42612d299190617148565b8152602001868581518110612d4157612d40616fe0565b5b6020026020010151815260200160018152506040518263ffffffff1660e01b8152600401612d6f9190617323565b6020604051808303815f875af1158015612d8b573d5f803e3d5ffd5b505050506040513d601f19601f82011682018060405250810190612daf9190617021565b82612dba9190617148565b91505b5b8080600101915050612ad7565b5084811015612e06576040517f93bce7b300000000000000000000000000000000000000000000000000000000815260040160405180910390fd5b8673ffffffffffffffffffffffffffffffffffffffff168873ffffffffffffffffffffffffffffffffffffffff167f19b500572e111e1efaa6d79e923346af4412022ba47520af0af63701618fa7388884604051612e65929190617289565b60405180910390a35050505050505050565b600f602052805f5260405f205f915054906101000a900462ffffff1681565b600a5f9054906101000a900473ffffffffffffffffffffffffffffffffffffffff1681565b612ec36145b7565b8260065f6101000a81548173ffffffffffffffffffffffffffffffffffffffff021916908373ffffffffffffffffffffffffffffffffffffffff16021790555081600660146101000a81548162ffffff021916908362ffffff16021790555080600660176101000a81548162ffffff021916908362ffffff160217905550505050565b5f80612f50613c06565b9050612f5d8185856144c7565b600191505092915050565b612f706145b7565b80600d5f6101000a81548162ffffff021916908362ffffff16021790555050565b6060600880548060200260200160405190810160405280929190818152602001828054801561301257602002820191905f5260205f20905b815f9054906101000a900473ffffffffffffffffffffffffffffffffffffffff1673ffffffffffffffffffffffffffffffffffffffff1681526020019060010190808311612fc9575b5050505050905090565b6014602052805f5260405f205f915090505481565b5f61303a612f91565b90508151815114613077576040517f9d89020a00000000000000000000000000000000000000000000000000000000815260040160405180910390fd5b5f61308184610d45565b90505f3490507f000000000000000000000000000000000000000000000000000000000000000073ffffffffffffffffffffffffffffffffffffffff1663d0e30db0826040518263ffffffff1660e01b81526004015f604051808303818588803b1580156130ed575f80fd5b505af11580156130ff573d5f803e3d5ffd5b505050505061312d7f0000000000000000000000000000000000000000000000000000000000000000613fc4565b5f805f90505b8451811015613404575f8482815181106131505761314f616fe0565b5b602002602001015103156133f7576131bd85828151811061317457613173616fe0565b5b60200260200101517f00000000000000000000000000000000000000000000000000000000000000008884815181106131b0576131af616fe0565b5b60200260200101516140f4565b613218578581815181106131d4576131d3616fe0565b5b60200260200101516040517f5c37922300000000000000000000000000000000000000000000000000000000815260040161320f91906170fb565b60405180910390fd5b7f000000000000000000000000000000000000000000000000000000000000000073ffffffffffffffffffffffffffffffffffffffff1685828151811061326257613261616fe0565b5b602002602001015173ffffffffffffffffffffffffffffffffffffffff16036132b25783818151811061329857613297616fe0565b5b6020026020010151826132ab9190617148565b91506133f6565b7f000000000000000000000000000000000000000000000000000000000000000073ffffffffffffffffffffffffffffffffffffffff1663f28c04986040518060a0016040528089858151811061330c5761330b616fe0565b5b602002602001015181526020013073ffffffffffffffffffffffffffffffffffffffff16815260200161012c426133439190617148565b815260200187858151811061335b5761335a616fe0565b5b602002602001015181526020017fffffffffffffffffffffffffffffffffffffffffffffffffffffffffffffffff8152506040518263ffffffff1660e01b81526004016133a89190617236565b6020604051808303815f875af11580156133c4573d5f803e3d5ffd5b505050506040513d601f19601f820116820180604052508101906133e89190617021565b826133f39190617148565b91505b5b8080600101915050613133565b505f81836134129190617256565b90507f000000000000000000000000000000000000000000000000000000000000000073ffffffffffffffffffffffffffffffffffffffff16632e1a7d4d826040518263ffffffff1660e01b815260040161346d9190616395565b5f604051808303815f87803b158015613484575f80fd5b505af1158015613496573d5f803e3d5ffd5b505050503373ffffffffffffffffffffffffffffffffffffffff166108fc8290811502906040515f60405180830381858888f193505050501580156134dd573d5f803e3d5ffd5b506134e88888614301565b508773ffffffffffffffffffffffffffffffffffffffff167f36e6d1f8e1c4f92e727ccf4a79ffccbf5c0ef99f5173e9db300980664a7ff9848884604051613531929190617289565b60405180910390a25050505050505050565b61354b61463e565b61355433614f96565b5f60155f3373ffffffffffffffffffffffffffffffffffffffff1673ffffffffffffffffffffffffffffffffffffffff1681526020019081526020015f205490505f81036135ce576040517f25ab6f3400000000000000000000000000000000000000000000000000000000815260040160405180910390fd5b5f60155f3373ffffffffffffffffffffffffffffffffffffffff1673ffffffffffffffffffffffffffffffffffffffff1681526020019081526020015f208190555061365c338260105f9054906101000a900473ffffffffffffffffffffffffffffffffffffffff1673ffffffffffffffffffffffffffffffffffffffff166142829092919063ffffffff16565b3373ffffffffffffffffffffffffffffffffffffffff167f106f923f993c2149d49b4255ff723acafa1f2d94393f561d3eda32ae348f7241826040516136a29190616395565b60405180910390a250565b5f6136b88383614301565b90505f5b60088054905081101561377b575f8282815181106136dd576136dc616fe0565b5b6020026020010151111561376e5761376d333084848151811061370357613702616fe0565b5b60200260200101516008858154811061371f5761371e616fe0565b5b905f5260205f20015f9054906101000a900473ffffffffffffffffffffffffffffffffffffffff1673ffffffffffffffffffffffffffffffffffffffff16613f42909392919063ffffffff16565b5b80806001019150506136bc565b50505050565b7f000000000000000000000000000000000000000000000000000000000000000081565b60605f600660179054906101000a900462ffffff1662ffffff16111561380d575f620f424062ffffff16600660179054906101000a900462ffffff1662ffffff16846137f19190617343565b6137fb91906173e7565b905080836138099190617256565b9250505b5f613816610fd4565b905060088054905067ffffffffffffffff8111156138375761383661666a565b5b6040519080825280602002602001820160405280156138655781602001602082028036833780820191505090505b5091505f5b60088054905081101561396f575f6008828154811061388c5761388b616fe0565b5b905f5260205f20015f9054906101000a900473ffffffffffffffffffffffffffffffffffffffff1673ffffffffffffffffffffffffffffffffffffffff166370a08231306040518263ffffffff1660e01b81526004016138ec9190616364565b602060405180830381865afa158015613907573d5f803e3d5ffd5b505050506040513d601f19601f8201168201806040525081019061392b9190617021565b90506139428584836149fd9092919063ffffffff16565b84838151811061395557613954616fe0565b5b60200260200101818152505050808060010191505061386a565b5050919050565b61397e6145b7565b6139878161511e565b5050565b600b5481565b6139996145b7565b80518251146139d4576040517f9d89020a00000000000000000000000000000000000000000000000000000000815260040160405180910390fd5b5f5b8151811015613a79578181815181106139f2576139f1616fe0565b5b6020026020010151600f5f858481518110613a1057613a0f616fe0565b5b602002602001015173ffffffffffffffffffffffffffffffffffffffff1673ffffffffffffffffffffffffffffffffffffffff1681526020019081526020015f205f6101000a81548162ffffff021916908362ffffff16021790555080806001019150506139d6565b505050565b5f60015f8473ffffffffffffffffffffffffffffffffffffffff1673ffffffffffffffffffffffffffffffffffffffff1681526020019081526020015f205f8373ffffffffffffffffffffffffffffffffffffffff1673ffffffffffffffffffffffffffffffffffffffff1681526020019081526020015f2054905092915050565b600d5f9054906101000a900462ffffff1681565b60135481565b613b226145b7565b5f73ffffffffffffffffffffffffffffffffffffffff168173ffffffffffffffffffffffffffffffffffffffff1603613b92575f6040517f1e4fbdf7000000000000000000000000000000000000000000000000000000008152600401613b899190616364565b60405180910390fd5b613b9b81614b93565b50565b5f613baa8484846149fd565b90505f8280613bbc57613bbb6173ba565b5b8486091115613bff577fffffffffffffffffffffffffffffffffffffffffffffffffffffffffffffffff8110613bf0575f80fd5b8080613bfb906177b6565b9150505b9392505050565b5f33905090565b613c1a8383836001615285565b505050565b60605f613c2a610fd4565b905060088054905067ffffffffffffffff811115613c4b57613c4a61666a565b5b604051908082528060200260200182016040528015613c795781602001602082028036833780820191505090505b509150613c863384615454565b5f80600660179054906101000a900462ffffff1662ffffff161115613d0857620f424062ffffff16600660179054906101000a900462ffffff1662ffffff1685613cd09190617343565b613cda91906173e7565b9050613d0760065f9054906101000a900473ffffffffffffffffffffffffffffffffffffffff16826154d3565b5b5f8185613d159190617256565b90505f5b600880549050811015613ef9575f60088281548110613d3b57613d3a616fe0565b5b905f5260205f20015f9054906101000a900473ffffffffffffffffffffffffffffffffffffffff1673ffffffffffffffffffffffffffffffffffffffff166370a08231306040518263ffffffff1660e01b8152600401613d9b9190616364565b602060405180830381865afa158015613db6573d5f803e3d5ffd5b505050506040513d601f19601f82011682018060405250810190613dda9190617021565b9050613df18386836149fd9092919063ffffffff16565b868381518110613e0457613e03616fe0565b5b6020026020010181815250503073ffffffffffffffffffffffffffffffffffffffff168873ffffffffffffffffffffffffffffffffffffffff1614158015613e6557505f868381518110613e5b57613e5a616fe0565b5b6020026020010151115b15613eeb57613eea88878481518110613e8157613e80616fe0565b5b602002602001015160088581548110613e9d57613e9c616fe0565b5b905f5260205f20015f9054906101000a900473ffffffffffffffffffffffffffffffffffffffff1673ffffffffffffffffffffffffffffffffffffffff166142829092919063ffffffff16565b5b508080600101915050613d19565b507f626f4593f8e12e62b00d18bb3073d2cbe173b9415cdb7b39ed0609569b66f5603387878588604051613f319594939291906177fd565b60405180910390a150505092915050565b613fbe848573ffffffffffffffffffffffffffffffffffffffff166323b872dd868686604051602401613f7793929190617855565b604051602081830303815290604052915060e01b6020820180517bffffffffffffffffffffffffffffffffffffffffffffffffffffffff8381831617835250505050615552565b50505050565b7fffffffffffffffffffffffffffffffffffffffffffffffffffffffffffffffff8173ffffffffffffffffffffffffffffffffffffffff1663dd62ed3e307f00000000000000000000000000000000000000000000000000000000000000006040518363ffffffff1660e01b815260040161404092919061788a565b602060405180830381865afa15801561405b573d5f803e3d5ffd5b505050506040513d601f19601f8201168201806040525081019061407f9190617021565b10156140f1576140f07f00000000000000000000000000000000000000000000000000000000000000007fffffffffffffffffffffffffffffffffffffffffffffffffffffffffffffffff8373ffffffffffffffffffffffffffffffffffffffff166155ed9092919063ffffffff16565b5b50565b5f805f614100846156fa565b50915091508473ffffffffffffffffffffffffffffffffffffffff168673ffffffffffffffffffffffffffffffffffffffff16036141ca578573ffffffffffffffffffffffffffffffffffffffff168273ffffffffffffffffffffffffffffffffffffffff1614801561419e57508573ffffffffffffffffffffffffffffffffffffffff168173ffffffffffffffffffffffffffffffffffffffff16145b80156141b057506141ae84615751565b155b156141c05760019250505061427b565b5f9250505061427b565b8573ffffffffffffffffffffffffffffffffffffffff168273ffffffffffffffffffffffffffffffffffffffff1614614207575f9250505061427b565b5b61421184615751565b156142265761421f8461578f565b9350614208565b61422f846156fa565b90915050809150508473ffffffffffffffffffffffffffffffffffffffff168173ffffffffffffffffffffffffffffffffffffffff1614614274575f9250505061427b565b6001925050505b9392505050565b6142fc838473ffffffffffffffffffffffffffffffffffffffff1663a9059cbb85856040516024016142b59291906178b1565b604051602081830303815290604052915060e01b6020820180517bffffffffffffffffffffffffffffffffffffffffffffffffffffffff8381831617835250505050615552565b505050565b606060075482101561433f576040517fdb49828e00000000000000000000000000000000000000000000000000000000815260040160405180910390fd5b61434882610d45565b90505f80600660149054906101000a900462ffffff1662ffffff1611156143e557620f424062ffffff16600660149054906101000a900462ffffff1662ffffff16846143949190617343565b61439e91906173e7565b90506143cb60065f9054906101000a900473ffffffffffffffffffffffffffffffffffffffff16826154d3565b6143e08482856143db9190617256565b6154d3565b6143f0565b6143ef84846154d3565b5b7fa7f6b1cb38ac5fbcae3bbaa808d1f2aaad5c8da1dd8f1d960088082f840139538484838560405161442594939291906178d8565b60405180910390a15092915050565b5f61443f8484613a7e565b90507fffffffffffffffffffffffffffffffffffffffffffffffffffffffffffffffff8110156144c157818110156144b2578281836040517ffb8f41b20000000000000000000000000000000000000000000000000000000081526004016144a993929190617922565b60405180910390fd5b6144c084848484035f615285565b5b50505050565b5f73ffffffffffffffffffffffffffffffffffffffff168373ffffffffffffffffffffffffffffffffffffffff1603614537575f6040517f96c6fd1e00000000000000000000000000000000000000000000000000000000815260040161452e9190616364565b60405180910390fd5b5f73ffffffffffffffffffffffffffffffffffffffff168273ffffffffffffffffffffffffffffffffffffffff16036145a7575f6040517fec442f0500000000000000000000000000000000000000000000000000000000815260040161459e9190616364565b60405180910390fd5b6145b28383836157d3565b505050565b6145bf613c06565b73ffffffffffffffffffffffffffffffffffffffff166145dd612499565b73ffffffffffffffffffffffffffffffffffffffff161461463c57614600613c06565b6040517f118cdaa70000000000000000000000000000000000000000000000000000000081526004016146339190616364565b60405180910390fd5b565b5f60125403614669576ec097ce7bc90715b34b9f100000000060128190555042601381905550614717565b5f614672610fd4565b90505f601354426146839190617256565b90505f8211801561469357505f81115b80156146a057505f601154115b15614703575f816011546146b49190617343565b90505f6146db6ec097ce7bc90715b34b9f100000000085846149fd9092919063ffffffff16565b90508060125f8282546146ee9190617148565b92505081905550426013819055505050614714565b5f81111561471357426013819055505b5b50505b565b5f8273ffffffffffffffffffffffffffffffffffffffff16825f67ffffffffffffffff81111561474c5761474b61666a565b5b6040519080825280601f01601f19166020018201604052801561477e5781602001600182028036833780820191505090505b5060405161478c9190617991565b5f6040518083038185875af1925050503d805f81146147c6576040519150601f19603f3d011682016040523d82523d5f602084013e6147cb565b606091505b5050905080614806576040517f067ecc5f00000000000000000000000000000000000000000000000000000000815260040160405180910390fd5b505050565b5f805f90505b6008805490508110156149c5578273ffffffffffffffffffffffffffffffffffffffff166008828154811061484957614848616fe0565b5b905f5260205f20015f9054906101000a900473ffffffffffffffffffffffffffffffffffffffff1673ffffffffffffffffffffffffffffffffffffffff16036149b857809150600860016008805490506148a39190617256565b815481106148b4576148b3616fe0565b5b905f5260205f20015f9054906101000a900473ffffffffffffffffffffffffffffffffffffffff16600882815481106148f0576148ef616fe0565b5b905f5260205f20015f6101000a81548173ffffffffffffffffffffffffffffffffffffffff021916908373ffffffffffffffffffffffffffffffffffffffff1602179055506008805480614947576149466179a7565b5b600190038181905f5260205f20015f6101000a81549073ffffffffffffffffffffffffffffffffffffffff021916905590557fbe9bb4bdca0a094babd75e3a98b1d2e2390633430d0a2f6e2b9970e2ee03fb2e83836040516149aa9291906178b1565b60405180910390a1506149f8565b8080600101915050614811565b506040517fcbdb7b3000000000000000000000000000000000000000000000000000000000815260040160405180910390fd5b919050565b5f805f80198587098587029250828110838203039150505f8103614a32575f8411614a26575f80fd5b83820492505050614b8c565b808411614a3d575f80fd5b5f8486880990508281118203915080830392505f8560018719614a609190617148565b16905080860495508084049350600181825f03040190508083614a839190617343565b841793505f6002876003614a979190617343565b1890508087614aa69190617343565b6002614ab29190617256565b81614abd9190617343565b90508087614acb9190617343565b6002614ad79190617256565b81614ae29190617343565b90508087614af09190617343565b6002614afc9190617256565b81614b079190617343565b90508087614b159190617343565b6002614b219190617256565b81614b2c9190617343565b90508087614b3a9190617343565b6002614b469190617256565b81614b519190617343565b90508087614b5f9190617343565b6002614b6b9190617256565b81614b769190617343565b90508085614b849190617343565b955050505050505b9392505050565b5f60055f9054906101000a900473ffffffffffffffffffffffffffffffffffffffff1690508160055f6101000a81548173ffffffffffffffffffffffffffffffffffffffff021916908373ffffffffffffffffffffffffffffffffffffffff1602179055508173ffffffffffffffffffffffffffffffffffffffff168173ffffffffffffffffffffffffffffffffffffffff167f8be0079c531659141344cd1fd0a4f28419497f9722a3daafe3b4186f6b6457e060405160405180910390a35050565b5f600a5f9054906101000a900473ffffffffffffffffffffffffffffffffffffffff1673ffffffffffffffffffffffffffffffffffffffff16633e413bee6040518163ffffffff1660e01b8152600401602060405180830381865afa158015614cc1573d5f803e3d5ffd5b505050506040513d601f19601f82011682018060405250810190614ce591906179e8565b90505f614cf3828585615865565b9050614d0182858584615aa6565b90505f811115614f90575f8190505f5b8551811015614f8d575f620f424062ffffff16600f5f898581518110614d3a57614d39616fe0565b5b602002602001015173ffffffffffffffffffffffffffffffffffffffff1673ffffffffffffffffffffffffffffffffffffffff1681526020019081526020015f205f9054906101000a900462ffffff1662ffffff1685614d9a9190617343565b614da491906173e7565b90505f8103614db35750614f80565b82811115614dbf578290505b5f600a5f9054906101000a900473ffffffffffffffffffffffffffffffffffffffff1673ffffffffffffffffffffffffffffffffffffffff166312be4fe0878a8681518110614e1157614e10616fe0565b5b6020026020010151856040518463ffffffff1660e01b8152600401614e3893929190617855565b5f60405180830381865afa158015614e52573d5f803e3d5ffd5b505050506040513d5f823e3d601f19601f82011682018060405250810190614e7a9190617a81565b5090507f000000000000000000000000000000000000000000000000000000000000000073ffffffffffffffffffffffffffffffffffffffff1663c04b8d596040518060a001604052808481526020013073ffffffffffffffffffffffffffffffffffffffff16815260200161012c42614ef49190617148565b815260200185815260200160018152506040518263ffffffff1660e01b8152600401614f209190617323565b6020604051808303815f875af1158015614f3c573d5f803e3d5ffd5b505050506040513d601f19601f82011682018060405250810190614f609190617021565b508184614f6d9190617256565b93505f8403614f7d575050614f8d565b50505b8080600101915050614d11565b50505b50505050565b5f60145f8373ffffffffffffffffffffffffffffffffffffffff1673ffffffffffffffffffffffffffffffffffffffff1681526020019081526020015f205490505f614fe183611c66565b90505f8083118015614ff257505f82115b1561508357826012546150059190617256565b90505f61502c826ec097ce7bc90715b34b9f1000000000856149fd9092919063ffffffff16565b90508060155f8773ffffffffffffffffffffffffffffffffffffffff1673ffffffffffffffffffffffffffffffffffffffff1681526020019081526020015f205f82825461507a9190617148565b92505081905550505b60125460145f8673ffffffffffffffffffffffffffffffffffffffff1673ffffffffffffffffffffffffffffffffffffffff1681526020019081526020015f20819055508373ffffffffffffffffffffffffffffffffffffffff167eb0bc9bc2b16d0aff934256c5e82ec00905851f54cc7b884d11e3eee69b4f1282601254604051615110929190617289565b60405180910390a250505050565b5f805f90505b6008805490508110156151de578273ffffffffffffffffffffffffffffffffffffffff166008828154811061515c5761515b616fe0565b5b905f5260205f20015f9054906101000a900473ffffffffffffffffffffffffffffffffffffffff1673ffffffffffffffffffffffffffffffffffffffff16036151d1576040517f55c7e8ba00000000000000000000000000000000000000000000000000000000815260040160405180910390fd5b8080600101915050615124565b506008805490509050600882908060018154018082558091505060019003905f5260205f20015f9091909190916101000a81548173ffffffffffffffffffffffffffffffffffffffff021916908373ffffffffffffffffffffffffffffffffffffffff1602179055507ff4c563a3ea86ff1f4275e8c207df0375a51963f2b831b7bf4da8be938d92876c82826040516152789291906178b1565b60405180910390a1919050565b5f73ffffffffffffffffffffffffffffffffffffffff168473ffffffffffffffffffffffffffffffffffffffff16036152f5575f6040517fe602df050000000000000000000000000000000000000000000000000000000081526004016152ec9190616364565b60405180910390fd5b5f73ffffffffffffffffffffffffffffffffffffffff168373ffffffffffffffffffffffffffffffffffffffff1603615365575f6040517f94280d6200000000000000000000000000000000000000000000000000000000815260040161535c9190616364565b60405180910390fd5b8160015f8673ffffffffffffffffffffffffffffffffffffffff1673ffffffffffffffffffffffffffffffffffffffff1681526020019081526020015f205f8573ffffffffffffffffffffffffffffffffffffffff1673ffffffffffffffffffffffffffffffffffffffff1681526020019081526020015f2081905550801561544e578273ffffffffffffffffffffffffffffffffffffffff168473ffffffffffffffffffffffffffffffffffffffff167f8c5be1e5ebec7d5bd14f71427d1e84f3dd0314c0f7b2291e5b200ac8c7c3b925846040516154459190616395565b60405180910390a35b50505050565b5f73ffffffffffffffffffffffffffffffffffffffff168273ffffffffffffffffffffffffffffffffffffffff16036154c4575f6040517f96c6fd1e0000000000000000000000000000000000000000000000000000000081526004016154bb9190616364565b60405180910390fd5b6154cf825f836157d3565b5050565b5f73ffffffffffffffffffffffffffffffffffffffff168273ffffffffffffffffffffffffffffffffffffffff1603615543575f6040517fec442f0500000000000000000000000000000000000000000000000000000000815260040161553a9190616364565b60405180910390fd5b61554e5f83836157d3565b5050565b5f8060205f8451602086015f885af180615571576040513d5f823e3d81fd5b3d92505f519150505f821461558a5760018114156155a5565b5f8473ffffffffffffffffffffffffffffffffffffffff163b145b156155e757836040517f5274afe70000000000000000000000000000000000000000000000000000000081526004016155de9190616364565b60405180910390fd5b50505050565b5f8373ffffffffffffffffffffffffffffffffffffffff1663095ea7b3848460405160240161561d9291906178b1565b604051602081830303815290604052915060e01b6020820180517bffffffffffffffffffffffffffffffffffffffffffffffffffffffff8381831617835250505050905061566b8482615ebe565b6156f4576156e9848573ffffffffffffffffffffffffffffffffffffffff1663095ea7b3865f6040516024016156a2929190617b1d565b604051602081830303815290604052915060e01b6020820180517bffffffffffffffffffffffffffffffffffffffffffffffffffffffff8381831617835250505050615552565b6156f38482615552565b5b50505050565b5f805f6157105f85615f1790919063ffffffff16565b9250615726601485615f8b90919063ffffffff16565b9050615748600360146157399190617148565b85615f1790919063ffffffff16565b91509193909250565b5f600360146157609190617148565b6014600360146157709190617148565b61577a9190617148565b6157849190617148565b825110159050919050565b60606157cc600360146157a29190617148565b600360146157b09190617148565b84516157bc9190617256565b84615ff09092919063ffffffff16565b9050919050565b6157db61463e565b5f73ffffffffffffffffffffffffffffffffffffffff168373ffffffffffffffffffffffffffffffffffffffff16146158185761581783614f96565b5b5f73ffffffffffffffffffffffffffffffffffffffff168273ffffffffffffffffffffffffffffffffffffffff16146158555761585482614f96565b5b61586083838361610c565b505050565b5f805f90505b8351811015615a9e575f83828151811061588857615887616fe0565b5b60200260200101511215615a91575f8382815181106158aa576158a9616fe0565b5b60200260200101516158bb9061765b565b90505f600a5f9054906101000a900473ffffffffffffffffffffffffffffffffffffffff1673ffffffffffffffffffffffffffffffffffffffff166312be4fe087858151811061590e5761590d616fe0565b5b602002602001015189856040518463ffffffff1660e01b815260040161593693929190617855565b5f60405180830381865afa158015615950573d5f803e3d5ffd5b505050506040513d5f823e3d601f19601f820116820180604052508101906159789190617a81565b50905061599e86848151811061599157615990616fe0565b5b6020026020010151613fc4565b7f000000000000000000000000000000000000000000000000000000000000000073ffffffffffffffffffffffffffffffffffffffff1663c04b8d596040518060a001604052808481526020013073ffffffffffffffffffffffffffffffffffffffff16815260200161012c42615a159190617148565b815260200185815260200160018152506040518263ffffffff1660e01b8152600401615a419190617323565b6020604051808303815f875af1158015615a5d573d5f803e3d5ffd5b505050506040513d601f19601f82011682018060405250810190615a819190617021565b84615a8c9190617148565b935050505b808060010191505061586b565b509392505050565b5f819050615ab385613fc4565b5f5b8451811015615eb5575f848281518110615ad257615ad1616fe0565b5b60200260200101511315615ea8575f80600a5f9054906101000a900473ffffffffffffffffffffffffffffffffffffffff1673ffffffffffffffffffffffffffffffffffffffff16637020df9589898681518110615b3357615b32616fe0565b5b6020026020010151898781518110615b4e57615b4d616fe0565b5b60200260200101516040518463ffffffff1660e01b8152600401615b7493929190617855565b5f60405180830381865afa158015615b8e573d5f803e3d5ffd5b505050506040513d5f823e3d601f19601f82011682018060405250810190615bb69190617a81565b91509150808410615cef577f000000000000000000000000000000000000000000000000000000000000000073ffffffffffffffffffffffffffffffffffffffff1663f28c04986040518060a001604052808581526020013073ffffffffffffffffffffffffffffffffffffffff16815260200161012c42615c389190617148565b8152602001898781518110615c5057615c4f616fe0565b5b602002602001015181526020017fffffffffffffffffffffffffffffffffffffffffffffffffffffffffffffffff8152506040518263ffffffff1660e01b8152600401615c9d9190617236565b6020604051808303815f875af1158015615cb9573d5f803e3d5ffd5b505050506040513d601f19601f82011682018060405250810190615cdd9190617021565b84615ce89190617256565b9350615ea5565b5f841115615ea457600a5f9054906101000a900473ffffffffffffffffffffffffffffffffffffffff1673ffffffffffffffffffffffffffffffffffffffff166312be4fe089898681518110615d4857615d47616fe0565b5b6020026020010151876040518463ffffffff1660e01b8152600401615d6f93929190617855565b5f60405180830381865afa158015615d89573d5f803e3d5ffd5b505050506040513d5f823e3d601f19601f82011682018060405250810190615db19190617a81565b50809250507f000000000000000000000000000000000000000000000000000000000000000073ffffffffffffffffffffffffffffffffffffffff1663c04b8d596040518060a001604052808581526020013073ffffffffffffffffffffffffffffffffffffffff16815260200161012c42615e2d9190617148565b815260200187815260200160018152506040518263ffffffff1660e01b8152600401615e599190617323565b6020604051808303815f875af1158015615e75573d5f803e3d5ffd5b505050506040513d601f19601f82011682018060405250810190615e999190617021565b505f93505050615eb5565b5b50505b8080600101915050615ab5565b50949350505050565b5f805f8060205f8651602088015f8a5af192503d91505f519050828015615f0c57505f8214615ef05760018114615f0b565b5f8673ffffffffffffffffffffffffffffffffffffffff163b115b5b935050505092915050565b5f601482615f259190617148565b83511015615f68576040517f08c379a0000000000000000000000000000000000000000000000000000000008152600401615f5f90617b8e565b60405180910390fd5b5f6c01000000000000000000000000836020860101510490508091505092915050565b5f600382615f999190617148565b83511015615fdc576040517f08c379a0000000000000000000000000000000000000000000000000000000008152600401615fd390617bf6565b60405180910390fd5b5f8260038501015190508091505092915050565b606081601f836160009190617148565b1015616041576040517f08c379a000000000000000000000000000000000000000000000000000000000815260040161603890617c5e565b60405180910390fd5b818361604d9190617148565b84511015616090576040517f08c379a000000000000000000000000000000000000000000000000000000000815260040161608790617cc6565b60405180910390fd5b606082155f81146160af5760405191505f825260208201604052616100565b6040519150601f8416801560200281840101858101878315602002848b0101015b818310156160ed57805183526020830192506020810190506160d0565b50868552601f19601f8301166040525050505b50809150509392505050565b5f73ffffffffffffffffffffffffffffffffffffffff168373ffffffffffffffffffffffffffffffffffffffff160361615c578060025f8282546161509190617148565b9250508190555061622a565b5f805f8573ffffffffffffffffffffffffffffffffffffffff1673ffffffffffffffffffffffffffffffffffffffff1681526020019081526020015f20549050818110156161e5578381836040517fe450d38c0000000000000000000000000000000000000000000000000000000081526004016161dc93929190617922565b60405180910390fd5b8181035f808673ffffffffffffffffffffffffffffffffffffffff1673ffffffffffffffffffffffffffffffffffffffff1681526020019081526020015f2081905550505b5f73ffffffffffffffffffffffffffffffffffffffff168273ffffffffffffffffffffffffffffffffffffffff1603616271578060025f82825403925050819055506162bb565b805f808473ffffffffffffffffffffffffffffffffffffffff1673ffffffffffffffffffffffffffffffffffffffff1681526020019081526020015f205f82825401925050819055505b8173ffffffffffffffffffffffffffffffffffffffff168373ffffffffffffffffffffffffffffffffffffffff167fddf252ad1be2c89b69c2b068fc378daa952ba7f163c4a11628f55a4df523b3ef836040516163189190616395565b60405180910390a3505050565b5f73ffffffffffffffffffffffffffffffffffffffff82169050919050565b5f61634e82616325565b9050919050565b61635e81616344565b82525050565b5f6020820190506163775f830184616355565b92915050565b5f819050919050565b61638f8161637d565b82525050565b5f6020820190506163a85f830184616386565b92915050565b5f604051905090565b5f80fd5b5f80fd5b6163c88161637d565b81146163d2575f80fd5b50565b5f813590506163e3816163bf565b92915050565b5f602082840312156163fe576163fd6163b7565b5b5f61640b848285016163d5565b91505092915050565b5f81519050919050565b5f82825260208201905092915050565b5f819050602082019050919050565b6164468161637d565b82525050565b5f616457838361643d565b60208301905092915050565b5f602082019050919050565b5f61647982616414565b616483818561641e565b935061648e8361642e565b805f5b838110156164be5781516164a5888261644c565b97506164b083616463565b925050600181019050616491565b5085935050505092915050565b5f6020820190508181035f8301526164e3818461646f565b905092915050565b5f81519050919050565b5f82825260208201905092915050565b5f5b83811015616522578082015181840152602081019050616507565b5f8484015250505050565b5f601f19601f8301169050919050565b5f616547826164eb565b61655181856164f5565b9350616561818560208601616505565b61656a8161652d565b840191505092915050565b5f6020820190508181035f83015261658d818461653d565b905092915050565b61659e81616344565b81146165a8575f80fd5b50565b5f813590506165b981616595565b92915050565b5f80604083850312156165d5576165d46163b7565b5b5f6165e2858286016165ab565b92505060206165f3858286016163d5565b9150509250929050565b5f8115159050919050565b616611816165fd565b82525050565b5f60208201905061662a5f830184616608565b92915050565b5f62ffffff82169050919050565b61664781616630565b82525050565b5f6020820190506166605f83018461663e565b92915050565b5f80fd5b7f4e487b71000000000000000000000000000000000000000000000000000000005f52604160045260245ffd5b6166a08261652d565b810181811067ffffffffffffffff821117156166bf576166be61666a565b5b80604052505050565b5f6166d16163ae565b90506166dd8282616697565b919050565b5f67ffffffffffffffff8211156166fc576166fb61666a565b5b602082029050602081019050919050565b5f80fd5b5f80fd5b5f67ffffffffffffffff82111561672f5761672e61666a565b5b6167388261652d565b9050602081019050919050565b828183375f83830152505050565b5f61676561676084616715565b6166c8565b90508281526020810184848401111561678157616780616711565b5b61678c848285616745565b509392505050565b5f82601f8301126167a8576167a7616666565b5b81356167b8848260208601616753565b91505092915050565b5f6167d36167ce846166e2565b6166c8565b905080838252602082019050602084028301858111156167f6576167f561670d565b5b835b8181101561683d57803567ffffffffffffffff81111561681b5761681a616666565b5b8086016168288982616794565b855260208501945050506020810190506167f8565b5050509392505050565b5f82601f83011261685b5761685a616666565b5b813561686b8482602086016167c1565b91505092915050565b5f805f805f60a0868803121561688d5761688c6163b7565b5b5f61689a888289016165ab565b95505060206168ab888289016165ab565b94505060406168bc888289016163d5565b93505060606168cd888289016163d5565b925050608086013567ffffffffffffffff8111156168ee576168ed6163bb565b5b6168fa88828901616847565b9150509295509295909350565b5f805f6060848603121561691e5761691d6163b7565b5b5f61692b868287016165ab565b935050602061693c868287016165ab565b925050604061694d868287016163d5565b9150509250925092565b5f60ff82169050919050565b61696c81616957565b82525050565b5f6020820190506169855f830184616963565b92915050565b5f805f80608085870312156169a3576169a26163b7565b5b5f6169b0878288016165ab565b94505060206169c1878288016163d5565b93505060406169d2878288016163d5565b925050606085013567ffffffffffffffff8111156169f3576169f26163bb565b5b6169ff87828801616847565b91505092959194509250565b5f60208284031215616a2057616a1f6163b7565b5b5f616a2d848285016165ab565b91505092915050565b5f67ffffffffffffffff821115616a5057616a4f61666a565b5b602082029050602081019050919050565b5f616a73616a6e84616a36565b6166c8565b90508083825260208201905060208402830185811115616a9657616a9561670d565b5b835b81811015616abf5780616aab88826165ab565b845260208401935050602081019050616a98565b5050509392505050565b5f82601f830112616add57616adc616666565b5b8135616aed848260208601616a61565b91505092915050565b5f8060408385031215616b0c57616b0b6163b7565b5b5f83013567ffffffffffffffff811115616b2957616b286163bb565b5b616b3585828601616ac9565b925050602083013567ffffffffffffffff811115616b5657616b556163bb565b5b616b6285828601616ac9565b9150509250929050565b5f81519050919050565b5f82825260208201905092915050565b5f819050602082019050919050565b616b9e81616344565b82525050565b5f616baf8383616b95565b60208301905092915050565b5f602082019050919050565b5f616bd182616b6c565b616bdb8185616b76565b9350616be683616b86565b805f5b83811015616c16578151616bfd8882616ba4565b9750616c0883616bbb565b925050600181019050616be9565b5085935050505092915050565b5f81519050919050565b5f82825260208201905092915050565b5f819050602082019050919050565b5f819050919050565b616c5e81616c4c565b82525050565b5f616c6f8383616c55565b60208301905092915050565b5f602082019050919050565b5f616c9182616c23565b616c9b8185616c2d565b9350616ca683616c3d565b805f5b83811015616cd6578151616cbd8882616c64565b9750616cc883616c7b565b925050600181019050616ca9565b5085935050505092915050565b5f6080820190508181035f830152616cfb8187616bc7565b90508181036020830152616d0f8186616c87565b90508181036040830152616d23818561646f565b9050616d326060830184616386565b95945050505050565b616d4481616630565b8114616d4e575f80fd5b50565b5f81359050616d5f81616d3b565b92915050565b5f805f60608486031215616d7c57616d7b6163b7565b5b5f616d89868287016165ab565b9350506020616d9a86828701616d51565b9250506040616dab86828701616d51565b9150509250925092565b5f60208284031215616dca57616dc96163b7565b5b5f616dd784828501616d51565b91505092915050565b5f6020820190508181035f830152616df88184616bc7565b905092915050565b5f805f60608486031215616e1757616e166163b7565b5b5f616e24868287016165ab565b9350506020616e35868287016163d5565b925050604084013567ffffffffffffffff811115616e5657616e556163bb565b5b616e6286828701616847565b9150509250925092565b5f67ffffffffffffffff821115616e8657616e8561666a565b5b602082029050602081019050919050565b5f616ea9616ea484616e6c565b6166c8565b90508083825260208201905060208402830185811115616ecc57616ecb61670d565b5b835b81811015616ef55780616ee18882616d51565b845260208401935050602081019050616ece565b5050509392505050565b5f82601f830112616f1357616f12616666565b5b8135616f23848260208601616e97565b91505092915050565b5f8060408385031215616f4257616f416163b7565b5b5f83013567ffffffffffffffff811115616f5f57616f5e6163bb565b5b616f6b85828601616ac9565b925050602083013567ffffffffffffffff811115616f8c57616f8b6163bb565b5b616f9885828601616eff565b9150509250929050565b5f8060408385031215616fb857616fb76163b7565b5b5f616fc5858286016165ab565b9250506020616fd6858286016165ab565b9150509250929050565b7f4e487b71000000000000000000000000000000000000000000000000000000005f52603260045260245ffd5b5f8151905061701b816163bf565b92915050565b5f60208284031215617036576170356163b7565b5b5f6170438482850161700d565b91505092915050565b7f4e487b71000000000000000000000000000000000000000000000000000000005f52602260045260245ffd5b5f600282049050600182168061709057607f821691505b6020821081036170a3576170a261704c565b5b50919050565b5f81519050919050565b5f82825260208201905092915050565b5f6170cd826170a9565b6170d781856170b3565b93506170e7818560208601616505565b6170f08161652d565b840191505092915050565b5f6020820190508181035f83015261711381846170c3565b905092915050565b7f4e487b71000000000000000000000000000000000000000000000000000000005f52601160045260245ffd5b5f6171528261637d565b915061715d8361637d565b92508282019050808211156171755761717461711b565b5b92915050565b5f82825260208201905092915050565b5f617195826170a9565b61719f818561717b565b93506171af818560208601616505565b6171b88161652d565b840191505092915050565b5f60a083015f8301518482035f8601526171dd828261718b565b91505060208301516171f26020860182616b95565b506040830151617205604086018261643d565b506060830151617218606086018261643d565b50608083015161722b608086018261643d565b508091505092915050565b5f6020820190508181035f83015261724e81846171c3565b905092915050565b5f6172608261637d565b915061726b8361637d565b92508282039050818111156172835761728261711b565b5b92915050565b5f60408201905061729c5f830185616386565b6172a96020830184616386565b9392505050565b5f60a083015f8301518482035f8601526172ca828261718b565b91505060208301516172df6020860182616b95565b5060408301516172f2604086018261643d565b506060830151617305606086018261643d565b506080830151617318608086018261643d565b508091505092915050565b5f6020820190508181035f83015261733b81846172b0565b905092915050565b5f61734d8261637d565b91506173588361637d565b92508282026173668161637d565b9150828204841483151761737d5761737c61711b565b5b5092915050565b5f61738e82616630565b915061739983616630565b9250828201905062ffffff8111156173b4576173b361711b565b5b92915050565b7f4e487b71000000000000000000000000000000000000000000000000000000005f52601260045260245ffd5b5f6173f18261637d565b91506173fc8361637d565b92508261740c5761740b6173ba565b5b828204905092915050565b5f61742182616630565b915061742c83616630565b9250828203905062ffffff8111156174475761744661711b565b5b92915050565b5f61745782616c4c565b915061746283616c4c565b925082820390508181125f8412168282135f8512151617156174875761748661711b565b5b92915050565b61749681616957565b81146174a0575f80fd5b50565b5f815190506174b18161748d565b92915050565b5f602082840312156174cc576174cb6163b7565b5b5f6174d9848285016174a3565b91505092915050565b5f8160011c9050919050565b5f808291508390505b6001851115617537578086048111156175135761751261711b565b5b60018516156175225780820291505b8081029050617530856174e2565b94506174f7565b94509492505050565b5f8261754f576001905061760a565b8161755c575f905061760a565b8160018114617572576002811461757c576175ab565b600191505061760a565b60ff84111561758e5761758d61711b565b5b8360020a9150848211156175a5576175a461711b565b5b5061760a565b5060208310610133831016604e8410600b84101617156175e05782820a9050838111156175db576175da61711b565b5b61760a565b6175ed84848460016174ee565b925090508184048111156176045761760361711b565b5b81810290505b9392505050565b5f61761b8261637d565b915061762683616957565b92506176537fffffffffffffffffffffffffffffffffffffffffffffffffffffffffffffffff8484617540565b905092915050565b5f61766582616c4c565b91507f800000000000000000000000000000000000000000000000000000000000000082036176975761769661711b565b5b815f039050919050565b5f6040820190508181035f8301526176b9818561646f565b905081810360208301526176cd818461646f565b90509392505050565b5f69ffffffffffffffffffff82169050919050565b6176f4816176d6565b81146176fe575f80fd5b50565b5f8151905061770f816176eb565b92915050565b61771e81616c4c565b8114617728575f80fd5b50565b5f8151905061773981617715565b92915050565b5f805f805f60a08688031215617758576177576163b7565b5b5f61776588828901617701565b95505060206177768882890161772b565b94505060406177878882890161700d565b93505060606177988882890161700d565b92505060806177a988828901617701565b9150509295509295909350565b5f6177c08261637d565b91507fffffffffffffffffffffffffffffffffffffffffffffffffffffffffffffffff82036177f2576177f161711b565b5b600182019050919050565b5f60a0820190506178105f830188616355565b61781d6020830187616355565b61782a6040830186616386565b6178376060830185616386565b8181036080830152617849818461646f565b90509695505050505050565b5f6060820190506178685f830186616355565b6178756020830185616355565b6178826040830184616386565b949350505050565b5f60408201905061789d5f830185616355565b6178aa6020830184616355565b9392505050565b5f6040820190506178c45f830185616355565b6178d16020830184616386565b9392505050565b5f6080820190506178eb5f830187616355565b6178f86020830186616386565b6179056040830185616386565b8181036060830152617917818461646f565b905095945050505050565b5f6060820190506179355f830186616355565b6179426020830185616386565b61794f6040830184616386565b949350505050565b5f81905092915050565b5f61796b826170a9565b6179758185617957565b9350617985818560208601616505565b80840191505092915050565b5f61799c8284617961565b915081905092915050565b7f4e487b71000000000000000000000000000000000000000000000000000000005f52603160045260245ffd5b5f815190506179e281616595565b92915050565b5f602082840312156179fd576179fc6163b7565b5b5f617a0a848285016179d4565b91505092915050565b5f617a25617a2084616715565b6166c8565b905082815260208101848484011115617a4157617a40616711565b5b617a4c848285616505565b509392505050565b5f82601f830112617a6857617a67616666565b5b8151617a78848260208601617a13565b91505092915050565b5f8060408385031215617a9757617a966163b7565b5b5f83015167ffffffffffffffff811115617ab457617ab36163bb565b5b617ac085828601617a54565b9250506020617ad18582860161700d565b9150509250929050565b5f819050919050565b5f819050919050565b5f617b07617b02617afd84617adb565b617ae4565b61637d565b9050919050565b617b1781617aed565b82525050565b5f604082019050617b305f830185616355565b617b3d6020830184617b0e565b9392505050565b7f746f416464726573735f6f75744f66426f756e647300000000000000000000005f82015250565b5f617b786015836164f5565b9150617b8382617b44565b602082019050919050565b5f6020820190508181035f830152617ba581617b6c565b9050919050565b7f746f55696e7432345f6f75744f66426f756e64730000000000000000000000005f82015250565b5f617be06014836164f5565b9150617beb82617bac565b602082019050919050565b5f6020820190508181035f830152617c0d81617bd4565b9050919050565b7f736c6963655f6f766572666c6f770000000000000000000000000000000000005f82015250565b5f617c48600e836164f5565b9150617c5382617c14565b602082019050919050565b5f6020820190508181035f830152617c7581617c3c565b9050919050565b7f736c6963655f6f75744f66426f756e64730000000000000000000000000000005f82015250565b5f617cb06011836164f5565b9150617cbb82617c7c565b602082019050919050565b5f6020820190508181035f830152617cdd81617ca4565b905091905056fea2646970667358221220bdef3931456dce270deb771c7eef6bfc2962459ddcb9a79ad283b3fce47f00ed64736f6c63430008180033","linkReferences":{}},"methodIdentifiers":{"HUNDRED_PERCENT()":"6ed93dd0","INDEX_SCALE()":"27776ab5","addToken(address)":"d48bfca7","allowance(address,address)":"dd62ed3e","approve(address,uint256)":"095ea7b3","balanceOf(address)":"70a08231","claimReward()":"b88a802f","decimals()":"313ce567","etfQuoter()":"a47f2265","feeTo()":"017e7e58","getClaimableReward(address)":"5ff329af","getInitTokenAmountPerShares()":"8423f320","getInvestTokenAmounts(uint256)":"05def347","getPriceFeed(address)":"5b6cca80","getRedeemTokenAmounts(uint256)":"ce7ddbef","getTokenMarketValues()":"9e88bcef","getTokenTargetWeight(address)":"a2fe4f2d","getTokens()":"aa6ca808","invest(address,uint256)":"b9b8c246","investFee()":"1c1f3014","investWithETH(address,uint256,bytes[])":"b0acd84b","investWithToken(address,address,uint256,uint256,bytes[])":"22b1c027","lastIndexUpdateTime()":"e8b508a8","lastRebalanceTime()":"d9ca21d5","minMintAmount()":"01e9d757","miningLastIndex()":"7ca02356","miningSpeedPerSecond()":"0e7a0c22","miningToken()":"69cf7ac3","name()":"06fdde03","owner()":"8da5cb5b","rebalance()":"7d7c2a1c","rebalanceDeviance()":"e61b0e81","rebalanceInterval()":"16d1d916","redeem(address,uint256)":"1e9a6950","redeemFee()":"965fa21e","redeemToETH(address,uint256,uint256,bytes[])":"4f4e0921","redeemToToken(address,address,uint256,uint256,bytes[])":"a0398af3","removeToken(address)":"5fa7b584","renounceOwnership()":"715018a6","setFee(address,uint24,uint24)":"a553618b","setPriceFeeds(address[],address[])":"92aeb53a","setTokenTargetWeights(address[],uint24[])":"da163387","supplierLastIndex(address)":"aec18531","supplierRewardAccrued(address)":"742d2cf1","swapRouter()":"c31c9c07","symbol()":"95d89b41","totalSupply()":"18160ddd","transfer(address,uint256)":"a9059cbb","transferFrom(address,address,uint256)":"23b872dd","transferOwnership(address)":"f2fde38b","updateMinMintAmount(uint256)":"6dd84ac1","updateMiningSpeedPerSecond(uint256)":"2e238cac","updateRebalanceDeviance(uint24)":"a987e49f","updateRebalanceInterval(uint256)":"5534a774","weth()":"3fc8cef3","withdrawMiningToken(address,uint256)":"64eb7727"},"id":78}