{"abi":[{"type":"constructor","inputs":[{"name":"name_","type":"string","internalType":"string"},{"name":"symbol_","type":"string","internalType":"string"},{"name":"tokens_","type":"address[]","internalType":"address[]"},{"name":"initTokenAmountPerShare_","type":"uint256[]","internalType":"uint256[]"},{"name":"minMintAmount_","type":"uint256","internalType":"uint256"},{"name":"swapRouter_","type":"address","internalType":"address"},{"name":"weth_","type":"address","internalType":"address"},{"name":"etfQuoter_","type":"address","internalType":"address"}],"stateMutability":"nonpayable"},{"type":"receive","stateMutability":"payable"},{"type":"function","name":"HUNDRED_PERCENT","inputs":[],"outputs":[{"name":"","type":"uint24","internalType":"uint24"}],"stateMutability":"view"},{"type":"function","name":"addToken","inputs":[{"name":"token","type":"address","internalType":"address"}],"outputs":[],"stateMutability":"nonpayable"},{"type":"function","name":"allowance","inputs":[{"name":"owner","type":"address","internalType":"address"},{"name":"spender","type":"address","internalType":"address"}],"outputs":[{"name":"","type":"uint256","internalType":"uint256"}],"stateMutability":"view"},{"type":"function","name":"approve","inputs":[{"name":"spender","type":"address","internalType":"address"},{"name":"value","type":"uint256","internalType":"uint256"}],"outputs":[{"name":"","type":"bool","internalType":"bool"}],"stateMutability":"nonpayable"},{"type":"function","name":"balanceOf","inputs":[{"name":"account","type":"address","internalType":"address"}],"outputs":[{"name":"","type":"uint256","internalType":"uint256"}],"stateMutability":"view"},{"type":"function","name":"decimals","inputs":[],"outputs":[{"name":"","type":"uint8","internalType":"uint8"}],"stateMutability":"view"},{"type":"function","name":"etfQuoter","inputs":[],"outputs":[{"name":"","type":"address","internalType":"address"}],"stateMutability":"view"},{"type":"function","name":"feeTo","inputs":[],"outputs":[{"name":"","type":"address","internalType":"address"}],"stateMutability":"view"},{"type":"function","name":"getInitTokenAmountPerShares","inputs":[],"outputs":[{"name":"","type":"uint256[]","internalType":"uint256[]"}],"stateMutability":"view"},{"type":"function","name":"getInvestTokenAmounts","inputs":[{"name":"mintAmount","type":"uint256","internalType":"uint256"}],"outputs":[{"name":"tokenAmounts","type":"uint256[]","internalType":"uint256[]"}],"stateMutability":"view"},{"type":"function","name":"getPriceFeed","inputs":[{"name":"token","type":"address","internalType":"address"}],"outputs":[{"name":"priceFeed","type":"address","internalType":"address"}],"stateMutability":"view"},{"type":"function","name":"getRedeemTokenAmounts","inputs":[{"name":"burnAmount","type":"uint256","internalType":"uint256"}],"outputs":[{"name":"tokenAmounts","type":"uint256[]","internalType":"uint256[]"}],"stateMutability":"view"},{"type":"function","name":"getTokenMarketValues","inputs":[],"outputs":[{"name":"tokens","type":"address[]","internalType":"address[]"},{"name":"tokenPrices","type":"int256[]","internalType":"int256[]"},{"name":"tokenMarketValues","type":"uint256[]","internalType":"uint256[]"},{"name":"totalValues","type":"uint256","internalType":"uint256"}],"stateMutability":"view"},{"type":"function","name":"getTokenTargetWeight","inputs":[{"name":"token","type":"address","internalType":"address"}],"outputs":[{"name":"targetWeight","type":"uint24","internalType":"uint24"}],"stateMutability":"view"},{"type":"function","name":"getTokens","inputs":[],"outputs":[{"name":"","type":"address[]","internalType":"address[]"}],"stateMutability":"view"},{"type":"function","name":"invest","inputs":[{"name":"to","type":"address","internalType":"address"},{"name":"mintAmount","type":"uint256","internalType":"uint256"}],"outputs":[],"stateMutability":"nonpayable"},{"type":"function","name":"investFee","inputs":[],"outputs":[{"name":"","type":"uint24","internalType":"uint24"}],"stateMutability":"view"},{"type":"function","name":"investWithETH","inputs":[{"name":"to","type":"address","internalType":"address"},{"name":"mintAmount","type":"uint256","internalType":"uint256"},{"name":"swapPaths","type":"bytes[]","internalType":"bytes[]"}],"outputs":[],"stateMutability":"payable"},{"type":"function","name":"investWithToken","inputs":[{"name":"srcToken","type":"address","internalType":"address"},{"name":"to","type":"address","internalType":"address"},{"name":"mintAmount","type":"uint256","internalType":"uint256"},{"name":"maxSrcTokenAmount","type":"uint256","internalType":"uint256"},{"name":"swapPaths","type":"bytes[]","internalType":"bytes[]"}],"outputs":[],"stateMutability":"nonpayable"},{"type":"function","name":"lastRebalanceTime","inputs":[],"outputs":[{"name":"","type":"uint256","internalType":"uint256"}],"stateMutability":"view"},{"type":"function","name":"minMintAmount","inputs":[],"outputs":[{"name":"","type":"uint256","internalType":"uint256"}],"stateMutability":"view"},{"type":"function","name":"name","inputs":[],"outputs":[{"name":"","type":"string","internalType":"string"}],"stateMutability":"view"},{"type":"function","name":"owner","inputs":[],"outputs":[{"name":"","type":"address","internalType":"address"}],"stateMutability":"view"},{"type":"function","name":"rebalance","inputs":[],"outputs":[],"stateMutability":"nonpayable"},{"type":"function","name":"rebalanceDeviance","inputs":[],"outputs":[{"name":"","type":"uint24","internalType":"uint24"}],"stateMutability":"view"},{"type":"function","name":"rebalanceInterval","inputs":[],"outputs":[{"name":"","type":"uint256","internalType":"uint256"}],"stateMutability":"view"},{"type":"function","name":"redeem","inputs":[{"name":"to","type":"address","internalType":"address"},{"name":"burnAmount","type":"uint256","internalType":"uint256"}],"outputs":[],"stateMutability":"nonpayable"},{"type":"function","name":"redeemFee","inputs":[],"outputs":[{"name":"","type":"uint24","internalType":"uint24"}],"stateMutability":"view"},{"type":"function","name":"redeemToETH","inputs":[{"name":"to","type":"address","internalType":"address"},{"name":"burnAmount","type":"uint256","internalType":"uint256"},{"name":"minETHAmount","type":"uint256","internalType":"uint256"},{"name":"swapPaths","type":"bytes[]","internalType":"bytes[]"}],"outputs":[],"stateMutability":"nonpayable"},{"type":"function","name":"redeemToToken","inputs":[{"name":"dstToken","type":"address","internalType":"address"},{"name":"to","type":"address","internalType":"address"},{"name":"burnAmount","type":"uint256","internalType":"uint256"},{"name":"minDstTokenAmount","type":"uint256","internalType":"uint256"},{"name":"swapPaths","type":"bytes[]","internalType":"bytes[]"}],"outputs":[],"stateMutability":"nonpayable"},{"type":"function","name":"removeToken","inputs":[{"name":"token","type":"address","internalType":"address"}],"outputs":[],"stateMutability":"nonpayable"},{"type":"function","name":"renounceOwnership","inputs":[],"outputs":[],"stateMutability":"nonpayable"},{"type":"function","name":"setFee","inputs":[{"name":"feeTo_","type":"address","internalType":"address"},{"name":"investFee_","type":"uint24","internalType":"uint24"},{"name":"redeemFee_","type":"uint24","internalType":"uint24"}],"outputs":[],"stateMutability":"nonpayable"},{"type":"function","name":"setPriceFeeds","inputs":[{"name":"tokens","type":"address[]","internalType":"address[]"},{"name":"priceFeeds","type":"address[]","internalType":"address[]"}],"outputs":[],"stateMutability":"nonpayable"},{"type":"function","name":"setTokenTargetWeights","inputs":[{"name":"tokens","type":"address[]","internalType":"address[]"},{"name":"targetWeights","type":"uint24[]","internalType":"uint24[]"}],"outputs":[],"stateMutability":"nonpayable"},{"type":"function","name":"swapRouter","inputs":[],"outputs":[{"name":"","type":"address","internalType":"address"}],"stateMutability":"view"},{"type":"function","name":"symbol","inputs":[],"outputs":[{"name":"","type":"string","internalType":"string"}],"stateMutability":"view"},{"type":"function","name":"totalSupply","inputs":[],"outputs":[{"name":"","type":"uint256","internalType":"uint256"}],"stateMutability":"view"},{"type":"function","name":"transfer","inputs":[{"name":"to","type":"address","internalType":"address"},{"name":"value","type":"uint256","internalType":"uint256"}],"outputs":[{"name":"","type":"bool","internalType":"bool"}],"stateMutability":"nonpayable"},{"type":"function","name":"transferFrom","inputs":[{"name":"from","type":"address","internalType":"address"},{"name":"to","type":"address","internalType":"address"},{"name":"value","type":"uint256","internalType":"uint256"}],"outputs":[{"name":"","type":"bool","internalType":"bool"}],"stateMutability":"nonpayable"},{"type":"function","name":"transferOwnership","inputs":[{"name":"newOwner","type":"address","internalType":"address"}],"outputs":[],"stateMutability":"nonpayable"},{"type":"function","name":"updateMinMintAmount","inputs":[{"name":"newMinMintAmount","type":"uint256","internalType":"uint256"}],"outputs":[],"stateMutability":"nonpayable"},{"type":"function","name":"updateRebalanceDeviance","inputs":[{"name":"newDeviance","type":"uint24","internalType":"uint24"}],"outputs":[],"stateMutability":"nonpayable"},{"type":"function","name":"updateRebalanceInterval","inputs":[{"name":"newInterval","type":"uint256","internalType":"uint256"}],"outputs":[],"stateMutability":"nonpayable"},{"type":"function","name":"weth","inputs":[],"outputs":[{"name":"","type":"address","internalType":"address"}],"stateMutability":"view"},{"type":"event","name":"Approval","inputs":[{"name":"owner","type":"address","indexed":true,"internalType":"address"},{"name":"spender","type":"address","indexed":true,"internalType":"address"},{"name":"value","type":"uint256","indexed":false,"internalType":"uint256"}],"anonymous":false},{"type":"event","name":"Invested","inputs":[{"name":"to","type":"address","indexed":false,"internalType":"address"},{"name":"mintAmount","type":"uint256","indexed":false,"internalType":"uint256"},{"name":"investFee","type":"uint256","indexed":false,"internalType":"uint256"},{"name":"tokenAmounts","type":"uint256[]","indexed":false,"internalType":"uint256[]"}],"anonymous":false},{"type":"event","name":"InvestedWithETH","inputs":[{"name":"to","type":"address","indexed":true,"internalType":"address"},{"name":"mintAmount","type":"uint256","indexed":false,"internalType":"uint256"},{"name":"paidAmount","type":"uint256","indexed":false,"internalType":"uint256"}],"anonymous":false},{"type":"event","name":"InvestedWithToken","inputs":[{"name":"srcToken","type":"address","indexed":true,"internalType":"address"},{"name":"to","type":"address","indexed":true,"internalType":"address"},{"name":"mintAmount","type":"uint256","indexed":false,"internalType":"uint256"},{"name":"paidAmount","type":"uint256","indexed":false,"internalType":"uint256"}],"anonymous":false},{"type":"event","name":"MinMintAmountUpdated","inputs":[{"name":"oldMinMintAmount","type":"uint256","indexed":false,"internalType":"uint256"},{"name":"newMinMintAmount","type":"uint256","indexed":false,"internalType":"uint256"}],"anonymous":false},{"type":"event","name":"OwnershipTransferred","inputs":[{"name":"previousOwner","type":"address","indexed":true,"internalType":"address"},{"name":"newOwner","type":"address","indexed":true,"internalType":"address"}],"anonymous":false},{"type":"event","name":"Rebalanced","inputs":[{"name":"reservesBefore","type":"uint256[]","indexed":false,"internalType":"uint256[]"},{"name":"reservesAfter","type":"uint256[]","indexed":false,"internalType":"uint256[]"}],"anonymous":false},{"type":"event","name":"Redeemed","inputs":[{"name":"sender","type":"address","indexed":false,"internalType":"address"},{"name":"to","type":"address","indexed":false,"internalType":"address"},{"name":"burnAmount","type":"uint256","indexed":false,"internalType":"uint256"},{"name":"redeemFee","type":"uint256","indexed":false,"internalType":"uint256"},{"name":"tokenAmounts","type":"uint256[]","indexed":false,"internalType":"uint256[]"}],"anonymous":false},{"type":"event","name":"RedeemedToETH","inputs":[{"name":"to","type":"address","indexed":true,"internalType":"address"},{"name":"burnAmount","type":"uint256","indexed":false,"internalType":"uint256"},{"name":"receivedAmount","type":"uint256","indexed":false,"internalType":"uint256"}],"anonymous":false},{"type":"event","name":"RedeemedToToken","inputs":[{"name":"dstToken","type":"address","indexed":true,"internalType":"address"},{"name":"to","type":"address","indexed":true,"internalType":"address"},{"name":"burnAmount","type":"uint256","indexed":false,"internalType":"uint256"},{"name":"receivedAmount","type":"uint256","indexed":false,"internalType":"uint256"}],"anonymous":false},{"type":"event","name":"TokenAdded","inputs":[{"name":"token","type":"address","indexed":false,"internalType":"address"},{"name":"index","type":"uint256","indexed":false,"internalType":"uint256"}],"anonymous":false},{"type":"event","name":"TokenRemoved","inputs":[{"name":"token","type":"address","indexed":false,"internalType":"address"},{"name":"index","type":"uint256","indexed":false,"internalType":"uint256"}],"anonymous":false},{"type":"event","name":"Transfer","inputs":[{"name":"from","type":"address","indexed":true,"internalType":"address"},{"name":"to","type":"address","indexed":true,"internalType":"address"},{"name":"value","type":"uint256","indexed":false,"internalType":"uint256"}],"anonymous":false},{"type":"error","name":"DifferentArrayLength","inputs":[]},{"type":"error","name":"ERC20InsufficientAllowance","inputs":[{"name":"spender","type":"address","internalType":"address"},{"name":"allowance","type":"uint256","internalType":"uint256"},{"name":"needed","type":"uint256","internalType":"uint256"}]},{"type":"error","name":"ERC20InsufficientBalance","inputs":[{"name":"sender","type":"address","internalType":"address"},{"name":"balance","type":"uint256","internalType":"uint256"},{"name":"needed","type":"uint256","internalType":"uint256"}]},{"type":"error","name":"ERC20InvalidApprover","inputs":[{"name":"approver","type":"address","internalType":"address"}]},{"type":"error","name":"ERC20InvalidReceiver","inputs":[{"name":"receiver","type":"address","internalType":"address"}]},{"type":"error","name":"ERC20InvalidSender","inputs":[{"name":"sender","type":"address","internalType":"address"}]},{"type":"error","name":"ERC20InvalidSpender","inputs":[{"name":"spender","type":"address","internalType":"address"}]},{"type":"error","name":"ExceedsMaxETHAmount","inputs":[]},{"type":"error","name":"Forbidden","inputs":[]},{"type":"error","name":"InsufficientETHAmount","inputs":[]},{"type":"error","name":"InvalidArrayLength","inputs":[]},{"type":"error","name":"InvalidSwapPath","inputs":[{"name":"path","type":"bytes","internalType":"bytes"}]},{"type":"error","name":"InvalidTotalWeights","inputs":[]},{"type":"error","name":"LessThanMinMintAmount","inputs":[]},{"type":"error","name":"NotRebalanceTime","inputs":[]},{"type":"error","name":"OverSlippage","inputs":[]},{"type":"error","name":"OwnableInvalidOwner","inputs":[{"name":"owner","type":"address","internalType":"address"}]},{"type":"error","name":"OwnableUnauthorizedAccount","inputs":[{"name":"account","type":"address","internalType":"address"}]},{"type":"error","name":"PriceFeedNotFound","inputs":[{"name":"token","type":"address","internalType":"address"}]},{"type":"error","name":"SafeERC20FailedOperation","inputs":[{"name":"token","type":"address","internalType":"address"}]},{"type":"error","name":"SafeTransferETHFailed","inputs":[]},{"type":"error","name":"TokenExists","inputs":[]},{"type":"error","name":"TokenNotFound","inputs":[]},{"type":"error","name":"TransferFailed","inputs":[]}],"bytecode":{"object":"0x60c060405234801562000010575f80fd5b5060405162007ffb38038062007ffb83398181016040528101906200003691906200076f565b878787878787878686868686338585816003908162000056919062000add565b50806004908162000068919062000add565b5050505f73ffffffffffffffffffffffffffffffffffffffff168173ffffffffffffffffffffffffffffffffffffffff1603620000de575f6040517f1e4fbdf7000000000000000000000000000000000000000000000000000000008152600401620000d5919062000bd2565b60405180910390fd5b620000ef81620001eb60201b60201c565b50826008908051906020019062000108929190620002ae565b508160099080519060200190620001219291906200033a565b508060078190555050505050508173ffffffffffffffffffffffffffffffffffffffff1660808173ffffffffffffffffffffffffffffffffffffffff16815250508073ffffffffffffffffffffffffffffffffffffffff1660a08173ffffffffffffffffffffffffffffffffffffffff16815250505050505050505080600a5f6101000a81548173ffffffffffffffffffffffffffffffffffffffff021916908373ffffffffffffffffffffffffffffffffffffffff160217905550505050505050505062000bed565b5f60055f9054906101000a900473ffffffffffffffffffffffffffffffffffffffff1690508160055f6101000a81548173ffffffffffffffffffffffffffffffffffffffff021916908373ffffffffffffffffffffffffffffffffffffffff1602179055508173ffffffffffffffffffffffffffffffffffffffff168173ffffffffffffffffffffffffffffffffffffffff167f8be0079c531659141344cd1fd0a4f28419497f9722a3daafe3b4186f6b6457e060405160405180910390a35050565b828054828255905f5260205f2090810192821562000327579160200282015b8281111562000326578251825f6101000a81548173ffffffffffffffffffffffffffffffffffffffff021916908373ffffffffffffffffffffffffffffffffffffffff16021790555091602001919060010190620002cd565b5b5090506200033691906200038a565b5090565b828054828255905f5260205f2090810192821562000377579160200282015b828111156200037657825182559160200191906001019062000359565b5b5090506200038691906200038a565b5090565b5b80821115620003a3575f815f9055506001016200038b565b5090565b5f604051905090565b5f80fd5b5f80fd5b5f80fd5b5f80fd5b5f601f19601f8301169050919050565b7f4e487b71000000000000000000000000000000000000000000000000000000005f52604160045260245ffd5b6200040882620003c0565b810181811067ffffffffffffffff821117156200042a5762000429620003d0565b5b80604052505050565b5f6200043e620003a7565b90506200044c8282620003fd565b919050565b5f67ffffffffffffffff8211156200046e576200046d620003d0565b5b6200047982620003c0565b9050602081019050919050565b5f5b83811015620004a557808201518184015260208101905062000488565b5f8484015250505050565b5f620004c6620004c08462000451565b62000433565b905082815260208101848484011115620004e557620004e4620003bc565b5b620004f284828562000486565b509392505050565b5f82601f830112620005115762000510620003b8565b5b815162000523848260208601620004b0565b91505092915050565b5f67ffffffffffffffff821115620005495762000548620003d0565b5b602082029050602081019050919050565b5f80fd5b5f73ffffffffffffffffffffffffffffffffffffffff82169050919050565b5f62000589826200055e565b9050919050565b6200059b816200057d565b8114620005a6575f80fd5b50565b5f81519050620005b98162000590565b92915050565b5f620005d5620005cf846200052c565b62000433565b90508083825260208201905060208402830185811115620005fb57620005fa6200055a565b5b835b81811015620006285780620006138882620005a9565b845260208401935050602081019050620005fd565b5050509392505050565b5f82601f830112620006495762000648620003b8565b5b81516200065b848260208601620005bf565b91505092915050565b5f67ffffffffffffffff821115620006815762000680620003d0565b5b602082029050602081019050919050565b5f819050919050565b620006a68162000692565b8114620006b1575f80fd5b50565b5f81519050620006c4816200069b565b92915050565b5f620006e0620006da8462000664565b62000433565b905080838252602082019050602084028301858111156200070657620007056200055a565b5b835b818110156200073357806200071e8882620006b4565b84526020840193505060208101905062000708565b5050509392505050565b5f82601f830112620007545762000753620003b8565b5b815162000766848260208601620006ca565b91505092915050565b5f805f805f805f80610100898b0312156200078f576200078e620003b0565b5b5f89015167ffffffffffffffff811115620007af57620007ae620003b4565b5b620007bd8b828c01620004fa565b985050602089015167ffffffffffffffff811115620007e157620007e0620003b4565b5b620007ef8b828c01620004fa565b975050604089015167ffffffffffffffff811115620008135762000812620003b4565b5b620008218b828c0162000632565b965050606089015167ffffffffffffffff811115620008455762000844620003b4565b5b620008538b828c016200073d565b9550506080620008668b828c01620006b4565b94505060a0620008798b828c01620005a9565b93505060c06200088c8b828c01620005a9565b92505060e06200089f8b828c01620005a9565b9150509295985092959890939650565b5f81519050919050565b7f4e487b71000000000000000000000000000000000000000000000000000000005f52602260045260245ffd5b5f6002820490506001821680620008fe57607f821691505b602082108103620009145762000913620008b9565b5b50919050565b5f819050815f5260205f209050919050565b5f6020601f8301049050919050565b5f82821b905092915050565b5f60088302620009787fffffffffffffffffffffffffffffffffffffffffffffffffffffffffffffffff826200093b565b6200098486836200093b565b95508019841693508086168417925050509392505050565b5f819050919050565b5f620009c5620009bf620009b98462000692565b6200099c565b62000692565b9050919050565b5f819050919050565b620009e083620009a5565b620009f8620009ef82620009cc565b84845462000947565b825550505050565b5f90565b62000a0e62000a00565b62000a1b818484620009d5565b505050565b5b8181101562000a425762000a365f8262000a04565b60018101905062000a21565b5050565b601f82111562000a915762000a5b816200091a565b62000a66846200092c565b8101602085101562000a76578190505b62000a8e62000a85856200092c565b83018262000a20565b50505b505050565b5f82821c905092915050565b5f62000ab35f198460080262000a96565b1980831691505092915050565b5f62000acd838362000aa2565b9150826002028217905092915050565b62000ae882620008af565b67ffffffffffffffff81111562000b045762000b03620003d0565b5b62000b108254620008e6565b62000b1d82828562000a46565b5f60209050601f83116001811462000b53575f841562000b3e578287015190505b62000b4a858262000ac0565b86555062000bb9565b601f19841662000b63866200091a565b5f5b8281101562000b8c5784890151825560018201915060208501945060208101905062000b65565b8683101562000bac578489015162000ba8601f89168262000aa2565b8355505b6001600288020188555050505b505050505050565b62000bcc816200057d565b82525050565b5f60208201905062000be75f83018462000bc1565b92915050565b60805160a05161736e62000c8d5f395f8181611125015281816111eb01528181611287015281816114b201528181612b4201528181612bc201528181612c3701528181612cd30152612ecf01525f8181610ee5015281816113440152818161276801528181612d6d015281816130d20152818161394d015281816139d3015281816146ed0152818161520d015281816154300152615625015261736e5ff3fe608060405260043610610275575f3560e01c80638423f3201161014e578063a987e49f116100c0578063d48bfca711610079578063d48bfca71461092d578063d9ca21d514610955578063da1633871461097f578063dd62ed3e146109a7578063e61b0e81146109e3578063f2fde38b14610a0d5761027c565b8063a987e49f14610831578063aa6ca80814610859578063b0acd84b14610883578063b9b8c2461461089f578063c31c9c07146108c7578063ce7ddbef146108f15761027c565b80639e88bcef116101125780639e88bcef14610712578063a0398af31461073f578063a2fe4f2d14610767578063a47f2265146107a3578063a553618b146107cd578063a9059cbb146107f55761027c565b80638423f320146106425780638da5cb5b1461066c57806392aeb53a1461069657806395d89b41146106be578063965fa21e146106e85761027c565b8063313ce567116101e75780635fa7b584116101ab5780635fa7b584146105605780636dd84ac1146105885780636ed93dd0146105b057806370a08231146105da578063715018a6146106165780637d7c2a1c1461062c5761027c565b8063313ce567146104805780633fc8cef3146104aa5780634f4e0921146104d45780635534a774146104fc5780635b6cca80146105245761027c565b806316d1d9161161023957806316d1d9161461037657806318160ddd146103a05780631c1f3014146103ca5780631e9a6950146103f457806322b1c0271461041c57806323b872dd146104445761027c565b8063017e7e581461028057806301e9d757146102aa57806305def347146102d457806306fdde0314610310578063095ea7b31461033a5761027c565b3661027c57005b5f80fd5b34801561028b575f80fd5b50610294610a35565b6040516102a191906159b8565b60405180910390f35b3480156102b5575f80fd5b506102be610a5a565b6040516102cb91906159e9565b60405180910390f35b3480156102df575f80fd5b506102fa60048036038101906102f59190615a3d565b610a60565b6040516103079190615b1f565b60405180910390f35b34801561031b575f80fd5b50610324610c31565b6040516103319190615bc9565b60405180910390f35b348015610345575f80fd5b50610360600480360381019061035b9190615c13565b610cc1565b60405161036d9190615c6b565b60405180910390f35b348015610381575f80fd5b5061038a610ce3565b60405161039791906159e9565b60405180910390f35b3480156103ab575f80fd5b506103b4610ce9565b6040516103c191906159e9565b60405180910390f35b3480156103d5575f80fd5b506103de610cf2565b6040516103eb9190615ca1565b60405180910390f35b3480156103ff575f80fd5b5061041a60048036038101906104159190615c13565b610d07565b005b348015610427575f80fd5b50610442600480360381019061043d9190615ec8565b610d16565b005b34801561044f575f80fd5b5061046a60048036038101906104659190615f5b565b6110ed565b6040516104779190615c6b565b60405180910390f35b34801561048b575f80fd5b5061049461111b565b6040516104a19190615fc6565b60405180910390f35b3480156104b5575f80fd5b506104be611123565b6040516104cb91906159b8565b60405180910390f35b3480156104df575f80fd5b506104fa60048036038101906104f59190615fdf565b611147565b005b348015610507575f80fd5b50610522600480360381019061051d9190615a3d565b611599565b005b34801561052f575f80fd5b5061054a6004803603810190610545919061605f565b6115ab565b60405161055791906159b8565b60405180910390f35b34801561056b575f80fd5b506105866004803603810190610581919061605f565b6115db565b005b348015610593575f80fd5b506105ae60048036038101906105a99190615a3d565b6116fb565b005b3480156105bb575f80fd5b506105c4611748565b6040516105d19190615ca1565b60405180910390f35b3480156105e5575f80fd5b5061060060048036038101906105fb919061605f565b61174f565b60405161060d91906159e9565b60405180910390f35b348015610621575f80fd5b5061062a611794565b005b348015610637575f80fd5b506106406117a7565b005b34801561064d575f80fd5b50610656611f11565b6040516106639190615b1f565b60405180910390f35b348015610677575f80fd5b50610680611f67565b60405161068d91906159b8565b60405180910390f35b3480156106a1575f80fd5b506106bc60048036038101906106b7919061614a565b611f8f565b005b3480156106c9575f80fd5b506106d261209e565b6040516106df9190615bc9565b60405180910390f35b3480156106f3575f80fd5b506106fc61212e565b6040516107099190615ca1565b60405180910390f35b34801561071d575f80fd5b50610726612143565b6040516107369493929190616337565b60405180910390f35b34801561074a575f80fd5b5061076560048036038101906107609190615ec8565b61254c565b005b348015610772575f80fd5b5061078d6004803603810190610788919061605f565b612945565b60405161079a9190615ca1565b60405180910390f35b3480156107ae575f80fd5b506107b7612964565b6040516107c491906159b8565b60405180910390f35b3480156107d8575f80fd5b506107f360048036038101906107ee91906163b9565b612989565b005b348015610800575f80fd5b5061081b60048036038101906108169190615c13565b612a14565b6040516108289190615c6b565b60405180910390f35b34801561083c575f80fd5b5061085760048036038101906108529190616409565b612a36565b005b348015610864575f80fd5b5061086d612a5f565b60405161087a9190616434565b60405180910390f35b61089d60048036038101906108989190616454565b612aea565b005b3480156108aa575f80fd5b506108c560048036038101906108c09190615c13565b612ffc565b005b3480156108d2575f80fd5b506108db6130d0565b6040516108e891906159b8565b60405180910390f35b3480156108fc575f80fd5b5061091760048036038101906109129190615a3d565b6130f4565b6040516109249190615b1f565b60405180910390f35b348015610938575f80fd5b50610953600480360381019061094e919061605f565b6132c5565b005b348015610960575f80fd5b506109696132da565b60405161097691906159e9565b60405180910390f35b34801561098a575f80fd5b506109a560048036038101906109a09190616580565b6132e0565b005b3480156109b2575f80fd5b506109cd60048036038101906109c891906165f6565b6133cd565b6040516109da91906159e9565b60405180910390f35b3480156109ee575f80fd5b506109f761344f565b604051610a049190615ca1565b60405180910390f35b348015610a18575f80fd5b50610a336004803603810190610a2e919061605f565b613463565b005b60065f9054906101000a900473ffffffffffffffffffffffffffffffffffffffff1681565b60075481565b60605f610a6b610ce9565b905060088054905067ffffffffffffffff811115610a8c57610a8b615cbe565b5b604051908082528060200260200182016040528015610aba5781602001602082028036833780820191505090505b5091505f5b600880549050811015610c2a575f821115610bc4575f60088281548110610ae957610ae8616634565b5b905f5260205f20015f9054906101000a900473ffffffffffffffffffffffffffffffffffffffff1673ffffffffffffffffffffffffffffffffffffffff166370a08231306040518263ffffffff1660e01b8152600401610b4991906159b8565b602060405180830381865afa158015610b64573d5f803e3d5ffd5b505050506040513d601f19601f82011682018060405250810190610b889190616675565b9050610b9f8584836134e79092919063ffffffff16565b848381518110610bb257610bb1616634565b5b60200260200101818152505050610c1d565b610bfd60098281548110610bdb57610bda616634565b5b905f5260205f200154670de0b6b3a7640000866134e79092919063ffffffff16565b838281518110610c1057610c0f616634565b5b6020026020010181815250505b8080600101915050610abf565b5050919050565b606060038054610c40906166cd565b80601f0160208091040260200160405190810160405280929190818152602001828054610c6c906166cd565b8015610cb75780601f10610c8e57610100808354040283529160200191610cb7565b820191905f5260205f20905b815481529060010190602001808311610c9a57829003601f168201915b5050505050905090565b5f80610ccb61354f565b9050610cd8818585613556565b600191505092915050565b600c5481565b5f600254905090565b600660149054906101000a900462ffffff1681565b610d118282613568565b505050565b5f610d1f612a5f565b90508151815114610d5c576040517f9d89020a00000000000000000000000000000000000000000000000000000000815260040160405180910390fd5b5f610d6685610a60565b9050610d953330868a73ffffffffffffffffffffffffffffffffffffffff1661388b909392919063ffffffff16565b610d9e8761390d565b5f805f90505b8351811015611035575f838281518110610dc157610dc0616634565b5b6020026020010151031561102857610e0e848281518110610de557610de4616634565b5b60200260200101518a878481518110610e0157610e00616634565b5b6020026020010151613a3d565b610e6957848181518110610e2557610e24616634565b5b60200260200101516040517f5c379223000000000000000000000000000000000000000000000000000000008152600401610e60919061674f565b60405180910390fd5b8873ffffffffffffffffffffffffffffffffffffffff16848281518110610e9357610e92616634565b5b602002602001015173ffffffffffffffffffffffffffffffffffffffff1603610ee357828181518110610ec957610ec8616634565b5b602002602001015182610edc919061679c565b9150611027565b7f000000000000000000000000000000000000000000000000000000000000000073ffffffffffffffffffffffffffffffffffffffff1663f28c04986040518060a00160405280888581518110610f3d57610f3c616634565b5b602002602001015181526020013073ffffffffffffffffffffffffffffffffffffffff16815260200161012c42610f74919061679c565b8152602001868581518110610f8c57610f8b616634565b5b602002602001015181526020017fffffffffffffffffffffffffffffffffffffffffffffffffffffffffffffffff8152506040518263ffffffff1660e01b8152600401610fd9919061688a565b6020604051808303815f875af1158015610ff5573d5f803e3d5ffd5b505050506040513d601f19601f820116820180604052508101906110199190616675565b82611024919061679c565b91505b5b8080600101915050610da4565b505f818661104391906168aa565b905061107033828b73ffffffffffffffffffffffffffffffffffffffff16613bcb9092919063ffffffff16565b61107a8888613c4a565b508773ffffffffffffffffffffffffffffffffffffffff168973ffffffffffffffffffffffffffffffffffffffff167fd58b185d00630065159db1d6df5fea816128b29100ce9dbc56dd6508e380aa9d89856040516110da9291906168dd565b60405180910390a3505050505050505050565b5f806110f761354f565b9050611104858285613d7d565b61110f858585613e10565b60019150509392505050565b5f6012905090565b7f000000000000000000000000000000000000000000000000000000000000000081565b5f611150612a5f565b9050815181511461118d576040517f9d89020a00000000000000000000000000000000000000000000000000000000815260040160405180910390fd5b5f6111983086613568565b90505f805f90505b8351811015611475575f8382815181106111bd576111bc616634565b5b602002602001015103156114685761122a8482815181106111e1576111e0616634565b5b60200260200101517f000000000000000000000000000000000000000000000000000000000000000087848151811061121d5761121c616634565b5b6020026020010151613a3d565b6112855784818151811061124157611240616634565b5b60200260200101516040517f5c37922300000000000000000000000000000000000000000000000000000000815260040161127c919061674f565b60405180910390fd5b7f000000000000000000000000000000000000000000000000000000000000000073ffffffffffffffffffffffffffffffffffffffff168482815181106112cf576112ce616634565b5b602002602001015173ffffffffffffffffffffffffffffffffffffffff160361131f5782818151811061130557611304616634565b5b602002602001015182611318919061679c565b9150611467565b61134284828151811061133557611334616634565b5b602002602001015161390d565b7f000000000000000000000000000000000000000000000000000000000000000073ffffffffffffffffffffffffffffffffffffffff1663c04b8d596040518060a0016040528088858151811061139c5761139b616634565b5b602002602001015181526020013073ffffffffffffffffffffffffffffffffffffffff16815260200161012c426113d3919061679c565b81526020018685815181106113eb576113ea616634565b5b6020026020010151815260200160018152506040518263ffffffff1660e01b81526004016114199190616977565b6020604051808303815f875af1158015611435573d5f803e3d5ffd5b505050506040513d601f19601f820116820180604052508101906114599190616675565b82611464919061679c565b91505b5b80806001019150506111a0565b50848110156114b0576040517f93bce7b300000000000000000000000000000000000000000000000000000000815260040160405180910390fd5b7f000000000000000000000000000000000000000000000000000000000000000073ffffffffffffffffffffffffffffffffffffffff16632e1a7d4d826040518263ffffffff1660e01b815260040161150991906159e9565b5f604051808303815f87803b158015611520575f80fd5b505af1158015611532573d5f803e3d5ffd5b505050506115408782613f00565b8673ffffffffffffffffffffffffffffffffffffffff167f786875e1cfb7304a0cb0e3672e281b2d4890f432fdd4c07fc44d687612d5296387836040516115889291906168dd565b60405180910390a250505050505050565b6115a1613ff2565b80600c8190555050565b600e602052805f5260405f205f915054906101000a900473ffffffffffffffffffffffffffffffffffffffff1681565b6115e3613ff2565b5f8173ffffffffffffffffffffffffffffffffffffffff166370a08231306040518263ffffffff1660e01b815260040161161d91906159b8565b602060405180830381865afa158015611638573d5f803e3d5ffd5b505050506040513d601f19601f8201168201806040525081019061165c9190616675565b11806116b757505f600f5f8373ffffffffffffffffffffffffffffffffffffffff1673ffffffffffffffffffffffffffffffffffffffff1681526020019081526020015f205f9054906101000a900462ffffff1662ffffff16115b156116ee576040517fee90c46800000000000000000000000000000000000000000000000000000000815260040160405180910390fd5b6116f781614079565b5050565b611703613ff2565b7fa9d547bad523b2016561d73c8b6f0de927b53e678d07b339173ea7b469ec8969600754826040516117369291906168dd565b60405180910390a18060078190555050565b620f424081565b5f805f8373ffffffffffffffffffffffffffffffffffffffff1673ffffffffffffffffffffffffffffffffffffffff1681526020019081526020015f20549050919050565b61179c613ff2565b6117a55f61426b565b565b5f6117b0612a5f565b90505f805f90505b825181101561184157600f5f8483815181106117d7576117d6616634565b5b602002602001015173ffffffffffffffffffffffffffffffffffffffff1673ffffffffffffffffffffffffffffffffffffffff1681526020019081526020015f205f9054906101000a900462ffffff16826118329190616997565b915080806001019150506117b8565b50620f424062ffffff168162ffffff1614611888576040517fea8cb5b200000000000000000000000000000000000000000000000000000000815260040160405180910390fd5b600c54600b54611898919061679c565b4210156118d1576040517fb99250eb00000000000000000000000000000000000000000000000000000000815260040160405180910390fd5b42600b819055505f805f806118e4612143565b93509350935093505f845167ffffffffffffffff81111561190857611907615cbe565b5b6040519080825280602002602001820160405280156119365781602001602082028036833780820191505090505b5090505f855167ffffffffffffffff81111561195557611954615cbe565b5b6040519080825280602002602001820160405280156119835781602001602082028036833780820191505090505b5090505f5b8651811015611dab578681815181106119a4576119a3616634565b5b602002602001015173ffffffffffffffffffffffffffffffffffffffff166370a08231306040518263ffffffff1660e01b81526004016119e491906159b8565b602060405180830381865afa1580156119ff573d5f803e3d5ffd5b505050506040513d601f19601f82011682018060405250810190611a239190616675565b828281518110611a3657611a35616634565b5b6020026020010181815250505f600f5f898481518110611a5957611a58616634565b5b602002602001015173ffffffffffffffffffffffffffffffffffffffff1673ffffffffffffffffffffffffffffffffffffffff1681526020019081526020015f205f9054906101000a900462ffffff1662ffffff160315611d9e575f620f424062ffffff16600f5f8a8581518110611ad457611ad3616634565b5b602002602001015173ffffffffffffffffffffffffffffffffffffffff1673ffffffffffffffffffffffffffffffffffffffff1681526020019081526020015f205f9054906101000a900462ffffff1662ffffff1686611b3491906169cd565b611b3e9190616a3b565b90505f620f424062ffffff16600d5f9054906101000a900462ffffff16620f4240611b699190616a6b565b62ffffff1683611b7991906169cd565b611b839190616a3b565b90505f620f424062ffffff16600d5f9054906101000a900462ffffff16620f4240611bae9190616997565b62ffffff1684611bbe91906169cd565b611bc89190616a3b565b905081888581518110611bde57611bdd616634565b5b60200260200101511080611c0b575080888581518110611c0157611c00616634565b5b6020026020010151115b15611d9a575f888581518110611c2457611c23616634565b5b602002602001015184611c379190616aa1565b90505f8b8681518110611c4d57611c4c616634565b5b602002602001015173ffffffffffffffffffffffffffffffffffffffff1663313ce5676040518163ffffffff1660e01b8152600401602060405180830381865afa158015611c9d573d5f803e3d5ffd5b505050506040513d601f19601f82011682018060405250810190611cc19190616b0b565b90505f821315611d2a57611d0681600a611cdb9190616c65565b8c8881518110611cee57611ced616634565b5b60200260200101518461432e9092919063ffffffff16565b888781518110611d1957611d18616634565b5b602002602001018181525050611d97565b611d6e81600a611d3a9190616c65565b8c8881518110611d4d57611d4c616634565b5b602002602001015184611d5f90616caf565b61432e9092919063ffffffff16565b611d7790616caf565b888781518110611d8a57611d89616634565b5b6020026020010181815250505b50505b5050505b8080600101915050611988565b50611db686836144c4565b5f865167ffffffffffffffff811115611dd257611dd1615cbe565b5b604051908082528060200260200182016040528015611e005781602001602082028036833780820191505090505b5090505f5b8151811015611ecc57878181518110611e2157611e20616634565b5b602002602001015173ffffffffffffffffffffffffffffffffffffffff166370a08231306040518263ffffffff1660e01b8152600401611e6191906159b8565b602060405180830381865afa158015611e7c573d5f803e3d5ffd5b505050506040513d601f19601f82011682018060405250810190611ea09190616675565b828281518110611eb357611eb2616634565b5b6020026020010181815250508080600101915050611e05565b507ffb0622e1da6c269e725d59af128455ac1987f6cc71e725c8ebe93d52a3196dc18282604051611efe929190616cf5565b60405180910390a1505050505050505050565b60606009805480602002602001604051908101604052809291908181526020018280548015611f5d57602002820191905f5260205f20905b815481526020019060010190808311611f49575b5050505050905090565b5f60055f9054906101000a900473ffffffffffffffffffffffffffffffffffffffff16905090565b611f97613ff2565b8051825114611fd2576040517fdba17af500000000000000000000000000000000000000000000000000000000815260040160405180910390fd5b5f5b825181101561209957818181518110611ff057611fef616634565b5b6020026020010151600e5f85848151811061200e5761200d616634565b5b602002602001015173ffffffffffffffffffffffffffffffffffffffff1673ffffffffffffffffffffffffffffffffffffffff1681526020019081526020015f205f6101000a81548173ffffffffffffffffffffffffffffffffffffffff021916908373ffffffffffffffffffffffffffffffffffffffff1602179055508080600101915050611fd4565b505050565b6060600480546120ad906166cd565b80601f01602080910402602001604051908101604052809291908181526020018280546120d9906166cd565b80156121245780601f106120fb57610100808354040283529160200191612124565b820191905f5260205f20905b81548152906001019060200180831161210757829003601f168201915b5050505050905090565b600660179054906101000a900462ffffff1681565b60608060605f612151612a5f565b93505f845190508067ffffffffffffffff81111561217257612171615cbe565b5b6040519080825280602002602001820160405280156121a05781602001602082028036833780820191505090505b5093508067ffffffffffffffff8111156121bd576121bc615cbe565b5b6040519080825280602002602001820160405280156121eb5781602001602082028036833780820191505090505b5092505f5b81811015612544575f600e5f88848151811061220f5761220e616634565b5b602002602001015173ffffffffffffffffffffffffffffffffffffffff1673ffffffffffffffffffffffffffffffffffffffff1681526020019081526020015f205f9054906101000a900473ffffffffffffffffffffffffffffffffffffffff1690505f73ffffffffffffffffffffffffffffffffffffffff168173ffffffffffffffffffffffffffffffffffffffff16036122fc578682815181106122b8576122b7616634565b5b60200260200101516040517feeeee6b90000000000000000000000000000000000000000000000000000000081526004016122f391906159b8565b60405180910390fd5b8073ffffffffffffffffffffffffffffffffffffffff1663feaf968c6040518163ffffffff1660e01b815260040160a060405180830381865afa158015612345573d5f803e3d5ffd5b505050506040513d601f19601f820116820180604052508101906123699190616d93565b909192935090915090505086838151811061238757612386616634565b5b6020026020010181815250505f8783815181106123a7576123a6616634565b5b602002602001015173ffffffffffffffffffffffffffffffffffffffff1663313ce5676040518163ffffffff1660e01b8152600401602060405180830381865afa1580156123f7573d5f803e3d5ffd5b505050506040513d601f19601f8201168201806040525081019061241b9190616b0b565b90505f88848151811061243157612430616634565b5b602002602001015173ffffffffffffffffffffffffffffffffffffffff166370a08231306040518263ffffffff1660e01b815260040161247191906159b8565b602060405180830381865afa15801561248c573d5f803e3d5ffd5b505050506040513d601f19601f820116820180604052508101906124b09190616675565b90506124ed8885815181106124c8576124c7616634565b5b602002602001015183600a6124dd9190616c65565b8361432e9092919063ffffffff16565b878581518110612500576124ff616634565b5b60200260200101818152505086848151811061251f5761251e616634565b5b602002602001015186612532919061679c565b955050505080806001019150506121f0565b505090919293565b5f612555612a5f565b90508151815114612592576040517f9d89020a00000000000000000000000000000000000000000000000000000000815260040160405180910390fd5b5f61259d3086613568565b90505f805f90505b8351811015612899575f8382815181106125c2576125c1616634565b5b6020026020010151031561288c5761260f8482815181106125e6576125e5616634565b5b60200260200101518a87848151811061260257612601616634565b5b6020026020010151613a3d565b61266a5784818151811061262657612625616634565b5b60200260200101516040517f5c379223000000000000000000000000000000000000000000000000000000008152600401612661919061674f565b60405180910390fd5b8873ffffffffffffffffffffffffffffffffffffffff1684828151811061269457612693616634565b5b602002602001015173ffffffffffffffffffffffffffffffffffffffff160361274357612716888483815181106126ce576126cd616634565b5b60200260200101518684815181106126e9576126e8616634565b5b602002602001015173ffffffffffffffffffffffffffffffffffffffff16613bcb9092919063ffffffff16565b82818151811061272957612728616634565b5b60200260200101518261273c919061679c565b915061288b565b61276684828151811061275957612758616634565b5b602002602001015161390d565b7f000000000000000000000000000000000000000000000000000000000000000073ffffffffffffffffffffffffffffffffffffffff1663c04b8d596040518060a001604052808885815181106127c0576127bf616634565b5b602002602001015181526020018b73ffffffffffffffffffffffffffffffffffffffff16815260200161012c426127f7919061679c565b815260200186858151811061280f5761280e616634565b5b6020026020010151815260200160018152506040518263ffffffff1660e01b815260040161283d9190616977565b6020604051808303815f875af1158015612859573d5f803e3d5ffd5b505050506040513d601f19601f8201168201806040525081019061287d9190616675565b82612888919061679c565b91505b5b80806001019150506125a5565b50848110156128d4576040517f93bce7b300000000000000000000000000000000000000000000000000000000815260040160405180910390fd5b8673ffffffffffffffffffffffffffffffffffffffff168873ffffffffffffffffffffffffffffffffffffffff167f19b500572e111e1efaa6d79e923346af4412022ba47520af0af63701618fa73888846040516129339291906168dd565b60405180910390a35050505050505050565b600f602052805f5260405f205f915054906101000a900462ffffff1681565b600a5f9054906101000a900473ffffffffffffffffffffffffffffffffffffffff1681565b612991613ff2565b8260065f6101000a81548173ffffffffffffffffffffffffffffffffffffffff021916908373ffffffffffffffffffffffffffffffffffffffff16021790555081600660146101000a81548162ffffff021916908362ffffff16021790555080600660176101000a81548162ffffff021916908362ffffff160217905550505050565b5f80612a1e61354f565b9050612a2b818585613e10565b600191505092915050565b612a3e613ff2565b80600d5f6101000a81548162ffffff021916908362ffffff16021790555050565b60606008805480602002602001604051908101604052809291908181526020018280548015612ae057602002820191905f5260205f20905b815f9054906101000a900473ffffffffffffffffffffffffffffffffffffffff1673ffffffffffffffffffffffffffffffffffffffff1681526020019060010190808311612a97575b5050505050905090565b5f612af3612a5f565b90508151815114612b30576040517f9d89020a00000000000000000000000000000000000000000000000000000000815260040160405180910390fd5b5f612b3a84610a60565b90505f3490507f000000000000000000000000000000000000000000000000000000000000000073ffffffffffffffffffffffffffffffffffffffff1663d0e30db0826040518263ffffffff1660e01b81526004015f604051808303818588803b158015612ba6575f80fd5b505af1158015612bb8573d5f803e3d5ffd5b5050505050612be67f000000000000000000000000000000000000000000000000000000000000000061390d565b5f805f90505b8451811015612ebd575f848281518110612c0957612c08616634565b5b60200260200101510315612eb057612c76858281518110612c2d57612c2c616634565b5b60200260200101517f0000000000000000000000000000000000000000000000000000000000000000888481518110612c6957612c68616634565b5b6020026020010151613a3d565b612cd157858181518110612c8d57612c8c616634565b5b60200260200101516040517f5c379223000000000000000000000000000000000000000000000000000000008152600401612cc8919061674f565b60405180910390fd5b7f000000000000000000000000000000000000000000000000000000000000000073ffffffffffffffffffffffffffffffffffffffff16858281518110612d1b57612d1a616634565b5b602002602001015173ffffffffffffffffffffffffffffffffffffffff1603612d6b57838181518110612d5157612d50616634565b5b602002602001015182612d64919061679c565b9150612eaf565b7f000000000000000000000000000000000000000000000000000000000000000073ffffffffffffffffffffffffffffffffffffffff1663f28c04986040518060a00160405280898581518110612dc557612dc4616634565b5b602002602001015181526020013073ffffffffffffffffffffffffffffffffffffffff16815260200161012c42612dfc919061679c565b8152602001878581518110612e1457612e13616634565b5b602002602001015181526020017fffffffffffffffffffffffffffffffffffffffffffffffffffffffffffffffff8152506040518263ffffffff1660e01b8152600401612e61919061688a565b6020604051808303815f875af1158015612e7d573d5f803e3d5ffd5b505050506040513d601f19601f82011682018060405250810190612ea19190616675565b82612eac919061679c565b91505b5b8080600101915050612bec565b505f8183612ecb91906168aa565b90507f000000000000000000000000000000000000000000000000000000000000000073ffffffffffffffffffffffffffffffffffffffff16632e1a7d4d826040518263ffffffff1660e01b8152600401612f2691906159e9565b5f604051808303815f87803b158015612f3d575f80fd5b505af1158015612f4f573d5f803e3d5ffd5b505050503373ffffffffffffffffffffffffffffffffffffffff166108fc8290811502906040515f60405180830381858888f19350505050158015612f96573d5f803e3d5ffd5b50612fa18888613c4a565b508773ffffffffffffffffffffffffffffffffffffffff167f36e6d1f8e1c4f92e727ccf4a79ffccbf5c0ef99f5173e9db300980664a7ff9848884604051612fea9291906168dd565b60405180910390a25050505050505050565b5f6130078383613c4a565b90505f5b6008805490508110156130ca575f82828151811061302c5761302b616634565b5b602002602001015111156130bd576130bc333084848151811061305257613051616634565b5b60200260200101516008858154811061306e5761306d616634565b5b905f5260205f20015f9054906101000a900473ffffffffffffffffffffffffffffffffffffffff1673ffffffffffffffffffffffffffffffffffffffff1661388b909392919063ffffffff16565b5b808060010191505061300b565b50505050565b7f000000000000000000000000000000000000000000000000000000000000000081565b60605f600660179054906101000a900462ffffff1662ffffff16111561315c575f620f424062ffffff16600660179054906101000a900462ffffff1662ffffff168461314091906169cd565b61314a9190616a3b565b9050808361315891906168aa565b9250505b5f613165610ce9565b905060088054905067ffffffffffffffff81111561318657613185615cbe565b5b6040519080825280602002602001820160405280156131b45781602001602082028036833780820191505090505b5091505f5b6008805490508110156132be575f600882815481106131db576131da616634565b5b905f5260205f20015f9054906101000a900473ffffffffffffffffffffffffffffffffffffffff1673ffffffffffffffffffffffffffffffffffffffff166370a08231306040518263ffffffff1660e01b815260040161323b91906159b8565b602060405180830381865afa158015613256573d5f803e3d5ffd5b505050506040513d601f19601f8201168201806040525081019061327a9190616675565b905061329185848361432e9092919063ffffffff16565b8483815181106132a4576132a3616634565b5b6020026020010181815250505080806001019150506131b9565b5050919050565b6132cd613ff2565b6132d681614804565b5050565b600b5481565b6132e8613ff2565b8051825114613323576040517f9d89020a00000000000000000000000000000000000000000000000000000000815260040160405180910390fd5b5f5b81518110156133c85781818151811061334157613340616634565b5b6020026020010151600f5f85848151811061335f5761335e616634565b5b602002602001015173ffffffffffffffffffffffffffffffffffffffff1673ffffffffffffffffffffffffffffffffffffffff1681526020019081526020015f205f6101000a81548162ffffff021916908362ffffff1602179055508080600101915050613325565b505050565b5f60015f8473ffffffffffffffffffffffffffffffffffffffff1673ffffffffffffffffffffffffffffffffffffffff1681526020019081526020015f205f8373ffffffffffffffffffffffffffffffffffffffff1673ffffffffffffffffffffffffffffffffffffffff1681526020019081526020015f2054905092915050565b600d5f9054906101000a900462ffffff1681565b61346b613ff2565b5f73ffffffffffffffffffffffffffffffffffffffff168173ffffffffffffffffffffffffffffffffffffffff16036134db575f6040517f1e4fbdf70000000000000000000000000000000000000000000000000000000081526004016134d291906159b8565b60405180910390fd5b6134e48161426b565b50565b5f6134f384848461432e565b90505f828061350557613504616a0e565b5b8486091115613548577fffffffffffffffffffffffffffffffffffffffffffffffffffffffffffffffff8110613539575f80fd5b808061354490616e0a565b9150505b9392505050565b5f33905090565b613563838383600161496b565b505050565b60605f613573610ce9565b905060088054905067ffffffffffffffff81111561359457613593615cbe565b5b6040519080825280602002602001820160405280156135c25781602001602082028036833780820191505090505b5091506135cf3384614b3a565b5f80600660179054906101000a900462ffffff1662ffffff16111561365157620f424062ffffff16600660179054906101000a900462ffffff1662ffffff168561361991906169cd565b6136239190616a3b565b905061365060065f9054906101000a900473ffffffffffffffffffffffffffffffffffffffff1682614bb9565b5b5f818561365e91906168aa565b90505f5b600880549050811015613842575f6008828154811061368457613683616634565b5b905f5260205f20015f9054906101000a900473ffffffffffffffffffffffffffffffffffffffff1673ffffffffffffffffffffffffffffffffffffffff166370a08231306040518263ffffffff1660e01b81526004016136e491906159b8565b602060405180830381865afa1580156136ff573d5f803e3d5ffd5b505050506040513d601f19601f820116820180604052508101906137239190616675565b905061373a83868361432e9092919063ffffffff16565b86838151811061374d5761374c616634565b5b6020026020010181815250503073ffffffffffffffffffffffffffffffffffffffff168873ffffffffffffffffffffffffffffffffffffffff16141580156137ae57505f8683815181106137a4576137a3616634565b5b6020026020010151115b1561383457613833888784815181106137ca576137c9616634565b5b6020026020010151600885815481106137e6576137e5616634565b5b905f5260205f20015f9054906101000a900473ffffffffffffffffffffffffffffffffffffffff1673ffffffffffffffffffffffffffffffffffffffff16613bcb9092919063ffffffff16565b5b508080600101915050613662565b507f626f4593f8e12e62b00d18bb3073d2cbe173b9415cdb7b39ed0609569b66f560338787858860405161387a959493929190616e51565b60405180910390a150505092915050565b613907848573ffffffffffffffffffffffffffffffffffffffff166323b872dd8686866040516024016138c093929190616ea9565b604051602081830303815290604052915060e01b6020820180517bffffffffffffffffffffffffffffffffffffffffffffffffffffffff8381831617835250505050614c38565b50505050565b7fffffffffffffffffffffffffffffffffffffffffffffffffffffffffffffffff8173ffffffffffffffffffffffffffffffffffffffff1663dd62ed3e307f00000000000000000000000000000000000000000000000000000000000000006040518363ffffffff1660e01b8152600401613989929190616ede565b602060405180830381865afa1580156139a4573d5f803e3d5ffd5b505050506040513d601f19601f820116820180604052508101906139c89190616675565b1015613a3a57613a397f00000000000000000000000000000000000000000000000000000000000000007fffffffffffffffffffffffffffffffffffffffffffffffffffffffffffffffff8373ffffffffffffffffffffffffffffffffffffffff16614cd39092919063ffffffff16565b5b50565b5f805f613a4984614de0565b50915091508473ffffffffffffffffffffffffffffffffffffffff168673ffffffffffffffffffffffffffffffffffffffff1603613b13578573ffffffffffffffffffffffffffffffffffffffff168273ffffffffffffffffffffffffffffffffffffffff16148015613ae757508573ffffffffffffffffffffffffffffffffffffffff168173ffffffffffffffffffffffffffffffffffffffff16145b8015613af95750613af784614e37565b155b15613b0957600192505050613bc4565b5f92505050613bc4565b8573ffffffffffffffffffffffffffffffffffffffff168273ffffffffffffffffffffffffffffffffffffffff1614613b50575f92505050613bc4565b5b613b5a84614e37565b15613b6f57613b6884614e75565b9350613b51565b613b7884614de0565b90915050809150508473ffffffffffffffffffffffffffffffffffffffff168173ffffffffffffffffffffffffffffffffffffffff1614613bbd575f92505050613bc4565b6001925050505b9392505050565b613c45838473ffffffffffffffffffffffffffffffffffffffff1663a9059cbb8585604051602401613bfe929190616f05565b604051602081830303815290604052915060e01b6020820180517bffffffffffffffffffffffffffffffffffffffffffffffffffffffff8381831617835250505050614c38565b505050565b6060600754821015613c88576040517fdb49828e00000000000000000000000000000000000000000000000000000000815260040160405180910390fd5b613c9182610a60565b90505f80600660149054906101000a900462ffffff1662ffffff161115613d2e57620f424062ffffff16600660149054906101000a900462ffffff1662ffffff1684613cdd91906169cd565b613ce79190616a3b565b9050613d1460065f9054906101000a900473ffffffffffffffffffffffffffffffffffffffff1682614bb9565b613d29848285613d2491906168aa565b614bb9565b613d39565b613d388484614bb9565b5b7fa7f6b1cb38ac5fbcae3bbaa808d1f2aaad5c8da1dd8f1d960088082f8401395384848385604051613d6e9493929190616f2c565b60405180910390a15092915050565b5f613d8884846133cd565b90507fffffffffffffffffffffffffffffffffffffffffffffffffffffffffffffffff811015613e0a5781811015613dfb578281836040517ffb8f41b2000000000000000000000000000000000000000000000000000000008152600401613df293929190616f76565b60405180910390fd5b613e0984848484035f61496b565b5b50505050565b5f73ffffffffffffffffffffffffffffffffffffffff168373ffffffffffffffffffffffffffffffffffffffff1603613e80575f6040517f96c6fd1e000000000000000000000000000000000000000000000000000000008152600401613e7791906159b8565b60405180910390fd5b5f73ffffffffffffffffffffffffffffffffffffffff168273ffffffffffffffffffffffffffffffffffffffff1603613ef0575f6040517fec442f05000000000000000000000000000000000000000000000000000000008152600401613ee791906159b8565b60405180910390fd5b613efb838383614eb9565b505050565b5f8273ffffffffffffffffffffffffffffffffffffffff16825f67ffffffffffffffff811115613f3357613f32615cbe565b5b6040519080825280601f01601f191660200182016040528015613f655781602001600182028036833780820191505090505b50604051613f739190616fe5565b5f6040518083038185875af1925050503d805f8114613fad576040519150601f19603f3d011682016040523d82523d5f602084013e613fb2565b606091505b5050905080613fed576040517f067ecc5f00000000000000000000000000000000000000000000000000000000815260040160405180910390fd5b505050565b613ffa61354f565b73ffffffffffffffffffffffffffffffffffffffff16614018611f67565b73ffffffffffffffffffffffffffffffffffffffff16146140775761403b61354f565b6040517f118cdaa700000000000000000000000000000000000000000000000000000000815260040161406e91906159b8565b60405180910390fd5b565b5f805f90505b600880549050811015614233578273ffffffffffffffffffffffffffffffffffffffff16600882815481106140b7576140b6616634565b5b905f5260205f20015f9054906101000a900473ffffffffffffffffffffffffffffffffffffffff1673ffffffffffffffffffffffffffffffffffffffff1603614226578091506008600160088054905061411191906168aa565b8154811061412257614121616634565b5b905f5260205f20015f9054906101000a900473ffffffffffffffffffffffffffffffffffffffff166008828154811061415e5761415d616634565b5b905f5260205f20015f6101000a81548173ffffffffffffffffffffffffffffffffffffffff021916908373ffffffffffffffffffffffffffffffffffffffff16021790555060088054806141b5576141b4616ffb565b5b600190038181905f5260205f20015f6101000a81549073ffffffffffffffffffffffffffffffffffffffff021916905590557fbe9bb4bdca0a094babd75e3a98b1d2e2390633430d0a2f6e2b9970e2ee03fb2e8383604051614218929190616f05565b60405180910390a150614266565b808060010191505061407f565b506040517fcbdb7b3000000000000000000000000000000000000000000000000000000000815260040160405180910390fd5b919050565b5f60055f9054906101000a900473ffffffffffffffffffffffffffffffffffffffff1690508160055f6101000a81548173ffffffffffffffffffffffffffffffffffffffff021916908373ffffffffffffffffffffffffffffffffffffffff1602179055508173ffffffffffffffffffffffffffffffffffffffff168173ffffffffffffffffffffffffffffffffffffffff167f8be0079c531659141344cd1fd0a4f28419497f9722a3daafe3b4186f6b6457e060405160405180910390a35050565b5f805f80198587098587029250828110838203039150505f8103614363575f8411614357575f80fd5b838204925050506144bd565b80841161436e575f80fd5b5f8486880990508281118203915080830392505f8560018719614391919061679c565b16905080860495508084049350600181825f030401905080836143b491906169cd565b841793505f60028760036143c891906169cd565b18905080876143d791906169cd565b60026143e391906168aa565b816143ee91906169cd565b905080876143fc91906169cd565b600261440891906168aa565b8161441391906169cd565b9050808761442191906169cd565b600261442d91906168aa565b8161443891906169cd565b9050808761444691906169cd565b600261445291906168aa565b8161445d91906169cd565b9050808761446b91906169cd565b600261447791906168aa565b8161448291906169cd565b9050808761449091906169cd565b600261449c91906168aa565b816144a791906169cd565b905080856144b591906169cd565b955050505050505b9392505050565b5f600a5f9054906101000a900473ffffffffffffffffffffffffffffffffffffffff1673ffffffffffffffffffffffffffffffffffffffff16633e413bee6040518163ffffffff1660e01b8152600401602060405180830381865afa15801561452f573d5f803e3d5ffd5b505050506040513d601f19601f82011682018060405250810190614553919061703c565b90505f6145618285856150d2565b905061456f82858584615313565b90505f8111156147fe575f8190505f5b85518110156147fb575f620f424062ffffff16600f5f8985815181106145a8576145a7616634565b5b602002602001015173ffffffffffffffffffffffffffffffffffffffff1673ffffffffffffffffffffffffffffffffffffffff1681526020019081526020015f205f9054906101000a900462ffffff1662ffffff168561460891906169cd565b6146129190616a3b565b90505f810361462157506147ee565b8281111561462d578290505b5f600a5f9054906101000a900473ffffffffffffffffffffffffffffffffffffffff1673ffffffffffffffffffffffffffffffffffffffff166312be4fe0878a868151811061467f5761467e616634565b5b6020026020010151856040518463ffffffff1660e01b81526004016146a693929190616ea9565b5f60405180830381865afa1580156146c0573d5f803e3d5ffd5b505050506040513d5f823e3d601f19601f820116820180604052508101906146e891906170d5565b5090507f000000000000000000000000000000000000000000000000000000000000000073ffffffffffffffffffffffffffffffffffffffff1663c04b8d596040518060a001604052808481526020013073ffffffffffffffffffffffffffffffffffffffff16815260200161012c42614762919061679c565b815260200185815260200160018152506040518263ffffffff1660e01b815260040161478e9190616977565b6020604051808303815f875af11580156147aa573d5f803e3d5ffd5b505050506040513d601f19601f820116820180604052508101906147ce9190616675565b5081846147db91906168aa565b93505f84036147eb5750506147fb565b50505b808060010191505061457f565b50505b50505050565b5f805f90505b6008805490508110156148c4578273ffffffffffffffffffffffffffffffffffffffff166008828154811061484257614841616634565b5b905f5260205f20015f9054906101000a900473ffffffffffffffffffffffffffffffffffffffff1673ffffffffffffffffffffffffffffffffffffffff16036148b7576040517f55c7e8ba00000000000000000000000000000000000000000000000000000000815260040160405180910390fd5b808060010191505061480a565b506008805490509050600882908060018154018082558091505060019003905f5260205f20015f9091909190916101000a81548173ffffffffffffffffffffffffffffffffffffffff021916908373ffffffffffffffffffffffffffffffffffffffff1602179055507ff4c563a3ea86ff1f4275e8c207df0375a51963f2b831b7bf4da8be938d92876c828260405161495e929190616f05565b60405180910390a1919050565b5f73ffffffffffffffffffffffffffffffffffffffff168473ffffffffffffffffffffffffffffffffffffffff16036149db575f6040517fe602df050000000000000000000000000000000000000000000000000000000081526004016149d291906159b8565b60405180910390fd5b5f73ffffffffffffffffffffffffffffffffffffffff168373ffffffffffffffffffffffffffffffffffffffff1603614a4b575f6040517f94280d62000000000000000000000000000000000000000000000000000000008152600401614a4291906159b8565b60405180910390fd5b8160015f8673ffffffffffffffffffffffffffffffffffffffff1673ffffffffffffffffffffffffffffffffffffffff1681526020019081526020015f205f8573ffffffffffffffffffffffffffffffffffffffff1673ffffffffffffffffffffffffffffffffffffffff1681526020019081526020015f20819055508015614b34578273ffffffffffffffffffffffffffffffffffffffff168473ffffffffffffffffffffffffffffffffffffffff167f8c5be1e5ebec7d5bd14f71427d1e84f3dd0314c0f7b2291e5b200ac8c7c3b92584604051614b2b91906159e9565b60405180910390a35b50505050565b5f73ffffffffffffffffffffffffffffffffffffffff168273ffffffffffffffffffffffffffffffffffffffff1603614baa575f6040517f96c6fd1e000000000000000000000000000000000000000000000000000000008152600401614ba191906159b8565b60405180910390fd5b614bb5825f83614eb9565b5050565b5f73ffffffffffffffffffffffffffffffffffffffff168273ffffffffffffffffffffffffffffffffffffffff1603614c29575f6040517fec442f05000000000000000000000000000000000000000000000000000000008152600401614c2091906159b8565b60405180910390fd5b614c345f8383614eb9565b5050565b5f8060205f8451602086015f885af180614c57576040513d5f823e3d81fd5b3d92505f519150505f8214614c70576001811415614c8b565b5f8473ffffffffffffffffffffffffffffffffffffffff163b145b15614ccd57836040517f5274afe7000000000000000000000000000000000000000000000000000000008152600401614cc491906159b8565b60405180910390fd5b50505050565b5f8373ffffffffffffffffffffffffffffffffffffffff1663095ea7b38484604051602401614d03929190616f05565b604051602081830303815290604052915060e01b6020820180517bffffffffffffffffffffffffffffffffffffffffffffffffffffffff83818316178352505050509050614d51848261572b565b614dda57614dcf848573ffffffffffffffffffffffffffffffffffffffff1663095ea7b3865f604051602401614d88929190617171565b604051602081830303815290604052915060e01b6020820180517bffffffffffffffffffffffffffffffffffffffffffffffffffffffff8381831617835250505050614c38565b614dd98482614c38565b5b50505050565b5f805f614df65f8561578490919063ffffffff16565b9250614e0c6014856157f890919063ffffffff16565b9050614e2e60036014614e1f919061679c565b8561578490919063ffffffff16565b91509193909250565b5f60036014614e46919061679c565b601460036014614e56919061679c565b614e60919061679c565b614e6a919061679c565b825110159050919050565b6060614eb260036014614e88919061679c565b60036014614e96919061679c565b8451614ea291906168aa565b8461585d9092919063ffffffff16565b9050919050565b5f73ffffffffffffffffffffffffffffffffffffffff168373ffffffffffffffffffffffffffffffffffffffff1603614f09578060025f828254614efd919061679c565b92505081905550614fd7565b5f805f8573ffffffffffffffffffffffffffffffffffffffff1673ffffffffffffffffffffffffffffffffffffffff1681526020019081526020015f2054905081811015614f92578381836040517fe450d38c000000000000000000000000000000000000000000000000000000008152600401614f8993929190616f76565b60405180910390fd5b8181035f808673ffffffffffffffffffffffffffffffffffffffff1673ffffffffffffffffffffffffffffffffffffffff1681526020019081526020015f2081905550505b5f73ffffffffffffffffffffffffffffffffffffffff168273ffffffffffffffffffffffffffffffffffffffff160361501e578060025f8282540392505081905550615068565b805f808473ffffffffffffffffffffffffffffffffffffffff1673ffffffffffffffffffffffffffffffffffffffff1681526020019081526020015f205f82825401925050819055505b8173ffffffffffffffffffffffffffffffffffffffff168373ffffffffffffffffffffffffffffffffffffffff167fddf252ad1be2c89b69c2b068fc378daa952ba7f163c4a11628f55a4df523b3ef836040516150c591906159e9565b60405180910390a3505050565b5f805f90505b835181101561530b575f8382815181106150f5576150f4616634565b5b602002602001015112156152fe575f83828151811061511757615116616634565b5b602002602001015161512890616caf565b90505f600a5f9054906101000a900473ffffffffffffffffffffffffffffffffffffffff1673ffffffffffffffffffffffffffffffffffffffff166312be4fe087858151811061517b5761517a616634565b5b602002602001015189856040518463ffffffff1660e01b81526004016151a393929190616ea9565b5f60405180830381865afa1580156151bd573d5f803e3d5ffd5b505050506040513d5f823e3d601f19601f820116820180604052508101906151e591906170d5565b50905061520b8684815181106151fe576151fd616634565b5b602002602001015161390d565b7f000000000000000000000000000000000000000000000000000000000000000073ffffffffffffffffffffffffffffffffffffffff1663c04b8d596040518060a001604052808481526020013073ffffffffffffffffffffffffffffffffffffffff16815260200161012c42615282919061679c565b815260200185815260200160018152506040518263ffffffff1660e01b81526004016152ae9190616977565b6020604051808303815f875af11580156152ca573d5f803e3d5ffd5b505050506040513d601f19601f820116820180604052508101906152ee9190616675565b846152f9919061679c565b935050505b80806001019150506150d8565b509392505050565b5f8190506153208561390d565b5f5b8451811015615722575f84828151811061533f5761533e616634565b5b60200260200101511315615715575f80600a5f9054906101000a900473ffffffffffffffffffffffffffffffffffffffff1673ffffffffffffffffffffffffffffffffffffffff16637020df95898986815181106153a05761539f616634565b5b60200260200101518987815181106153bb576153ba616634565b5b60200260200101516040518463ffffffff1660e01b81526004016153e193929190616ea9565b5f60405180830381865afa1580156153fb573d5f803e3d5ffd5b505050506040513d5f823e3d601f19601f8201168201806040525081019061542391906170d5565b9150915080841061555c577f000000000000000000000000000000000000000000000000000000000000000073ffffffffffffffffffffffffffffffffffffffff1663f28c04986040518060a001604052808581526020013073ffffffffffffffffffffffffffffffffffffffff16815260200161012c426154a5919061679c565b81526020018987815181106154bd576154bc616634565b5b602002602001015181526020017fffffffffffffffffffffffffffffffffffffffffffffffffffffffffffffffff8152506040518263ffffffff1660e01b815260040161550a919061688a565b6020604051808303815f875af1158015615526573d5f803e3d5ffd5b505050506040513d601f19601f8201168201806040525081019061554a9190616675565b8461555591906168aa565b9350615712565b5f84111561571157600a5f9054906101000a900473ffffffffffffffffffffffffffffffffffffffff1673ffffffffffffffffffffffffffffffffffffffff166312be4fe0898986815181106155b5576155b4616634565b5b6020026020010151876040518463ffffffff1660e01b81526004016155dc93929190616ea9565b5f60405180830381865afa1580156155f6573d5f803e3d5ffd5b505050506040513d5f823e3d601f19601f8201168201806040525081019061561e91906170d5565b50809250507f000000000000000000000000000000000000000000000000000000000000000073ffffffffffffffffffffffffffffffffffffffff1663c04b8d596040518060a001604052808581526020013073ffffffffffffffffffffffffffffffffffffffff16815260200161012c4261569a919061679c565b815260200187815260200160018152506040518263ffffffff1660e01b81526004016156c69190616977565b6020604051808303815f875af11580156156e2573d5f803e3d5ffd5b505050506040513d601f19601f820116820180604052508101906157069190616675565b505f93505050615722565b5b50505b8080600101915050615322565b50949350505050565b5f805f8060205f8651602088015f8a5af192503d91505f51905082801561577957505f821461575d5760018114615778565b5f8673ffffffffffffffffffffffffffffffffffffffff163b115b5b935050505092915050565b5f601482615792919061679c565b835110156157d5576040517f08c379a00000000000000000000000000000000000000000000000000000000081526004016157cc906171e2565b60405180910390fd5b5f6c01000000000000000000000000836020860101510490508091505092915050565b5f600382615806919061679c565b83511015615849576040517f08c379a00000000000000000000000000000000000000000000000000000000081526004016158409061724a565b60405180910390fd5b5f8260038501015190508091505092915050565b606081601f8361586d919061679c565b10156158ae576040517f08c379a00000000000000000000000000000000000000000000000000000000081526004016158a5906172b2565b60405180910390fd5b81836158ba919061679c565b845110156158fd576040517f08c379a00000000000000000000000000000000000000000000000000000000081526004016158f49061731a565b60405180910390fd5b606082155f811461591c5760405191505f82526020820160405261596d565b6040519150601f8416801560200281840101858101878315602002848b0101015b8183101561595a578051835260208301925060208101905061593d565b50868552601f19601f8301166040525050505b50809150509392505050565b5f73ffffffffffffffffffffffffffffffffffffffff82169050919050565b5f6159a282615979565b9050919050565b6159b281615998565b82525050565b5f6020820190506159cb5f8301846159a9565b92915050565b5f819050919050565b6159e3816159d1565b82525050565b5f6020820190506159fc5f8301846159da565b92915050565b5f604051905090565b5f80fd5b5f80fd5b615a1c816159d1565b8114615a26575f80fd5b50565b5f81359050615a3781615a13565b92915050565b5f60208284031215615a5257615a51615a0b565b5b5f615a5f84828501615a29565b91505092915050565b5f81519050919050565b5f82825260208201905092915050565b5f819050602082019050919050565b615a9a816159d1565b82525050565b5f615aab8383615a91565b60208301905092915050565b5f602082019050919050565b5f615acd82615a68565b615ad78185615a72565b9350615ae283615a82565b805f5b83811015615b12578151615af98882615aa0565b9750615b0483615ab7565b925050600181019050615ae5565b5085935050505092915050565b5f6020820190508181035f830152615b378184615ac3565b905092915050565b5f81519050919050565b5f82825260208201905092915050565b5f5b83811015615b76578082015181840152602081019050615b5b565b5f8484015250505050565b5f601f19601f8301169050919050565b5f615b9b82615b3f565b615ba58185615b49565b9350615bb5818560208601615b59565b615bbe81615b81565b840191505092915050565b5f6020820190508181035f830152615be18184615b91565b905092915050565b615bf281615998565b8114615bfc575f80fd5b50565b5f81359050615c0d81615be9565b92915050565b5f8060408385031215615c2957615c28615a0b565b5b5f615c3685828601615bff565b9250506020615c4785828601615a29565b9150509250929050565b5f8115159050919050565b615c6581615c51565b82525050565b5f602082019050615c7e5f830184615c5c565b92915050565b5f62ffffff82169050919050565b615c9b81615c84565b82525050565b5f602082019050615cb45f830184615c92565b92915050565b5f80fd5b7f4e487b71000000000000000000000000000000000000000000000000000000005f52604160045260245ffd5b615cf482615b81565b810181811067ffffffffffffffff82111715615d1357615d12615cbe565b5b80604052505050565b5f615d25615a02565b9050615d318282615ceb565b919050565b5f67ffffffffffffffff821115615d5057615d4f615cbe565b5b602082029050602081019050919050565b5f80fd5b5f80fd5b5f67ffffffffffffffff821115615d8357615d82615cbe565b5b615d8c82615b81565b9050602081019050919050565b828183375f83830152505050565b5f615db9615db484615d69565b615d1c565b905082815260208101848484011115615dd557615dd4615d65565b5b615de0848285615d99565b509392505050565b5f82601f830112615dfc57615dfb615cba565b5b8135615e0c848260208601615da7565b91505092915050565b5f615e27615e2284615d36565b615d1c565b90508083825260208201905060208402830185811115615e4a57615e49615d61565b5b835b81811015615e9157803567ffffffffffffffff811115615e6f57615e6e615cba565b5b808601615e7c8982615de8565b85526020850194505050602081019050615e4c565b5050509392505050565b5f82601f830112615eaf57615eae615cba565b5b8135615ebf848260208601615e15565b91505092915050565b5f805f805f60a08688031215615ee157615ee0615a0b565b5b5f615eee88828901615bff565b9550506020615eff88828901615bff565b9450506040615f1088828901615a29565b9350506060615f2188828901615a29565b925050608086013567ffffffffffffffff811115615f4257615f41615a0f565b5b615f4e88828901615e9b565b9150509295509295909350565b5f805f60608486031215615f7257615f71615a0b565b5b5f615f7f86828701615bff565b9350506020615f9086828701615bff565b9250506040615fa186828701615a29565b9150509250925092565b5f60ff82169050919050565b615fc081615fab565b82525050565b5f602082019050615fd95f830184615fb7565b92915050565b5f805f8060808587031215615ff757615ff6615a0b565b5b5f61600487828801615bff565b945050602061601587828801615a29565b935050604061602687828801615a29565b925050606085013567ffffffffffffffff81111561604757616046615a0f565b5b61605387828801615e9b565b91505092959194509250565b5f6020828403121561607457616073615a0b565b5b5f61608184828501615bff565b91505092915050565b5f67ffffffffffffffff8211156160a4576160a3615cbe565b5b602082029050602081019050919050565b5f6160c76160c28461608a565b615d1c565b905080838252602082019050602084028301858111156160ea576160e9615d61565b5b835b8181101561611357806160ff8882615bff565b8452602084019350506020810190506160ec565b5050509392505050565b5f82601f83011261613157616130615cba565b5b81356161418482602086016160b5565b91505092915050565b5f80604083850312156161605761615f615a0b565b5b5f83013567ffffffffffffffff81111561617d5761617c615a0f565b5b6161898582860161611d565b925050602083013567ffffffffffffffff8111156161aa576161a9615a0f565b5b6161b68582860161611d565b9150509250929050565b5f81519050919050565b5f82825260208201905092915050565b5f819050602082019050919050565b6161f281615998565b82525050565b5f61620383836161e9565b60208301905092915050565b5f602082019050919050565b5f616225826161c0565b61622f81856161ca565b935061623a836161da565b805f5b8381101561626a57815161625188826161f8565b975061625c8361620f565b92505060018101905061623d565b5085935050505092915050565b5f81519050919050565b5f82825260208201905092915050565b5f819050602082019050919050565b5f819050919050565b6162b2816162a0565b82525050565b5f6162c383836162a9565b60208301905092915050565b5f602082019050919050565b5f6162e582616277565b6162ef8185616281565b93506162fa83616291565b805f5b8381101561632a57815161631188826162b8565b975061631c836162cf565b9250506001810190506162fd565b5085935050505092915050565b5f6080820190508181035f83015261634f818761621b565b9050818103602083015261636381866162db565b905081810360408301526163778185615ac3565b905061638660608301846159da565b95945050505050565b61639881615c84565b81146163a2575f80fd5b50565b5f813590506163b38161638f565b92915050565b5f805f606084860312156163d0576163cf615a0b565b5b5f6163dd86828701615bff565b93505060206163ee868287016163a5565b92505060406163ff868287016163a5565b9150509250925092565b5f6020828403121561641e5761641d615a0b565b5b5f61642b848285016163a5565b91505092915050565b5f6020820190508181035f83015261644c818461621b565b905092915050565b5f805f6060848603121561646b5761646a615a0b565b5b5f61647886828701615bff565b935050602061648986828701615a29565b925050604084013567ffffffffffffffff8111156164aa576164a9615a0f565b5b6164b686828701615e9b565b9150509250925092565b5f67ffffffffffffffff8211156164da576164d9615cbe565b5b602082029050602081019050919050565b5f6164fd6164f8846164c0565b615d1c565b905080838252602082019050602084028301858111156165205761651f615d61565b5b835b81811015616549578061653588826163a5565b845260208401935050602081019050616522565b5050509392505050565b5f82601f83011261656757616566615cba565b5b81356165778482602086016164eb565b91505092915050565b5f806040838503121561659657616595615a0b565b5b5f83013567ffffffffffffffff8111156165b3576165b2615a0f565b5b6165bf8582860161611d565b925050602083013567ffffffffffffffff8111156165e0576165df615a0f565b5b6165ec85828601616553565b9150509250929050565b5f806040838503121561660c5761660b615a0b565b5b5f61661985828601615bff565b925050602061662a85828601615bff565b9150509250929050565b7f4e487b71000000000000000000000000000000000000000000000000000000005f52603260045260245ffd5b5f8151905061666f81615a13565b92915050565b5f6020828403121561668a57616689615a0b565b5b5f61669784828501616661565b91505092915050565b7f4e487b71000000000000000000000000000000000000000000000000000000005f52602260045260245ffd5b5f60028204905060018216806166e457607f821691505b6020821081036166f7576166f66166a0565b5b50919050565b5f81519050919050565b5f82825260208201905092915050565b5f616721826166fd565b61672b8185616707565b935061673b818560208601615b59565b61674481615b81565b840191505092915050565b5f6020820190508181035f8301526167678184616717565b905092915050565b7f4e487b71000000000000000000000000000000000000000000000000000000005f52601160045260245ffd5b5f6167a6826159d1565b91506167b1836159d1565b92508282019050808211156167c9576167c861676f565b5b92915050565b5f82825260208201905092915050565b5f6167e9826166fd565b6167f381856167cf565b9350616803818560208601615b59565b61680c81615b81565b840191505092915050565b5f60a083015f8301518482035f86015261683182826167df565b915050602083015161684660208601826161e9565b5060408301516168596040860182615a91565b50606083015161686c6060860182615a91565b50608083015161687f6080860182615a91565b508091505092915050565b5f6020820190508181035f8301526168a28184616817565b905092915050565b5f6168b4826159d1565b91506168bf836159d1565b92508282039050818111156168d7576168d661676f565b5b92915050565b5f6040820190506168f05f8301856159da565b6168fd60208301846159da565b9392505050565b5f60a083015f8301518482035f86015261691e82826167df565b915050602083015161693360208601826161e9565b5060408301516169466040860182615a91565b5060608301516169596060860182615a91565b50608083015161696c6080860182615a91565b508091505092915050565b5f6020820190508181035f83015261698f8184616904565b905092915050565b5f6169a182615c84565b91506169ac83615c84565b9250828201905062ffffff8111156169c7576169c661676f565b5b92915050565b5f6169d7826159d1565b91506169e2836159d1565b92508282026169f0816159d1565b91508282048414831517616a0757616a0661676f565b5b5092915050565b7f4e487b71000000000000000000000000000000000000000000000000000000005f52601260045260245ffd5b5f616a45826159d1565b9150616a50836159d1565b925082616a6057616a5f616a0e565b5b828204905092915050565b5f616a7582615c84565b9150616a8083615c84565b9250828203905062ffffff811115616a9b57616a9a61676f565b5b92915050565b5f616aab826162a0565b9150616ab6836162a0565b925082820390508181125f8412168282135f851215161715616adb57616ada61676f565b5b92915050565b616aea81615fab565b8114616af4575f80fd5b50565b5f81519050616b0581616ae1565b92915050565b5f60208284031215616b2057616b1f615a0b565b5b5f616b2d84828501616af7565b91505092915050565b5f8160011c9050919050565b5f808291508390505b6001851115616b8b57808604811115616b6757616b6661676f565b5b6001851615616b765780820291505b8081029050616b8485616b36565b9450616b4b565b94509492505050565b5f82616ba35760019050616c5e565b81616bb0575f9050616c5e565b8160018114616bc65760028114616bd057616bff565b6001915050616c5e565b60ff841115616be257616be161676f565b5b8360020a915084821115616bf957616bf861676f565b5b50616c5e565b5060208310610133831016604e8410600b8410161715616c345782820a905083811115616c2f57616c2e61676f565b5b616c5e565b616c418484846001616b42565b92509050818404811115616c5857616c5761676f565b5b81810290505b9392505050565b5f616c6f826159d1565b9150616c7a83615fab565b9250616ca77fffffffffffffffffffffffffffffffffffffffffffffffffffffffffffffffff8484616b94565b905092915050565b5f616cb9826162a0565b91507f80000000000000000000000000000000000000000000000000000000000000008203616ceb57616cea61676f565b5b815f039050919050565b5f6040820190508181035f830152616d0d8185615ac3565b90508181036020830152616d218184615ac3565b90509392505050565b5f69ffffffffffffffffffff82169050919050565b616d4881616d2a565b8114616d52575f80fd5b50565b5f81519050616d6381616d3f565b92915050565b616d72816162a0565b8114616d7c575f80fd5b50565b5f81519050616d8d81616d69565b92915050565b5f805f805f60a08688031215616dac57616dab615a0b565b5b5f616db988828901616d55565b9550506020616dca88828901616d7f565b9450506040616ddb88828901616661565b9350506060616dec88828901616661565b9250506080616dfd88828901616d55565b9150509295509295909350565b5f616e14826159d1565b91507fffffffffffffffffffffffffffffffffffffffffffffffffffffffffffffffff8203616e4657616e4561676f565b5b600182019050919050565b5f60a082019050616e645f8301886159a9565b616e7160208301876159a9565b616e7e60408301866159da565b616e8b60608301856159da565b8181036080830152616e9d8184615ac3565b90509695505050505050565b5f606082019050616ebc5f8301866159a9565b616ec960208301856159a9565b616ed660408301846159da565b949350505050565b5f604082019050616ef15f8301856159a9565b616efe60208301846159a9565b9392505050565b5f604082019050616f185f8301856159a9565b616f2560208301846159da565b9392505050565b5f608082019050616f3f5f8301876159a9565b616f4c60208301866159da565b616f5960408301856159da565b8181036060830152616f6b8184615ac3565b905095945050505050565b5f606082019050616f895f8301866159a9565b616f9660208301856159da565b616fa360408301846159da565b949350505050565b5f81905092915050565b5f616fbf826166fd565b616fc98185616fab565b9350616fd9818560208601615b59565b80840191505092915050565b5f616ff08284616fb5565b915081905092915050565b7f4e487b71000000000000000000000000000000000000000000000000000000005f52603160045260245ffd5b5f8151905061703681615be9565b92915050565b5f6020828403121561705157617050615a0b565b5b5f61705e84828501617028565b91505092915050565b5f61707961707484615d69565b615d1c565b90508281526020810184848401111561709557617094615d65565b5b6170a0848285615b59565b509392505050565b5f82601f8301126170bc576170bb615cba565b5b81516170cc848260208601617067565b91505092915050565b5f80604083850312156170eb576170ea615a0b565b5b5f83015167ffffffffffffffff81111561710857617107615a0f565b5b617114858286016170a8565b925050602061712585828601616661565b9150509250929050565b5f819050919050565b5f819050919050565b5f61715b6171566171518461712f565b617138565b6159d1565b9050919050565b61716b81617141565b82525050565b5f6040820190506171845f8301856159a9565b6171916020830184617162565b9392505050565b7f746f416464726573735f6f75744f66426f756e647300000000000000000000005f82015250565b5f6171cc601583615b49565b91506171d782617198565b602082019050919050565b5f6020820190508181035f8301526171f9816171c0565b9050919050565b7f746f55696e7432345f6f75744f66426f756e64730000000000000000000000005f82015250565b5f617234601483615b49565b915061723f82617200565b602082019050919050565b5f6020820190508181035f83015261726181617228565b9050919050565b7f736c6963655f6f766572666c6f770000000000000000000000000000000000005f82015250565b5f61729c600e83615b49565b91506172a782617268565b602082019050919050565b5f6020820190508181035f8301526172c981617290565b9050919050565b7f736c6963655f6f75744f66426f756e64730000000000000000000000000000005f82015250565b5f617304601183615b49565b915061730f826172d0565b602082019050919050565b5f6020820190508181035f830152617331816172f8565b905091905056fea26469706673582212204fc565cb68e1e7e122c02b907118b50f58fba5384699418ed4f1bc1cd08c8ea364736f6c63430008180033","linkReferences":{}},"methodIdentifiers":{"HUNDRED_PERCENT()":"6ed93dd0","addToken(address)":"d48bfca7","allowance(address,address)":"dd62ed3e","approve(address,uint256)":"095ea7b3","balanceOf(address)":"70a08231","decimals()":"313ce567","etfQuoter()":"a47f2265","feeTo()":"017e7e58","getInitTokenAmountPerShares()":"8423f320","getInvestTokenAmounts(uint256)":"05def347","getPriceFeed(address)":"5b6cca80","getRedeemTokenAmounts(uint256)":"ce7ddbef","getTokenMarketValues()":"9e88bcef","getTokenTargetWeight(address)":"a2fe4f2d","getTokens()":"aa6ca808","invest(address,uint256)":"b9b8c246","investFee()":"1c1f3014","investWithETH(address,uint256,bytes[])":"b0acd84b","investWithToken(address,address,uint256,uint256,bytes[])":"22b1c027","lastRebalanceTime()":"d9ca21d5","minMintAmount()":"01e9d757","name()":"06fdde03","owner()":"8da5cb5b","rebalance()":"7d7c2a1c","rebalanceDeviance()":"e61b0e81","rebalanceInterval()":"16d1d916","redeem(address,uint256)":"1e9a6950","redeemFee()":"965fa21e","redeemToETH(address,uint256,uint256,bytes[])":"4f4e0921","redeemToToken(address,address,uint256,uint256,bytes[])":"a0398af3","removeToken(address)":"5fa7b584","renounceOwnership()":"715018a6","setFee(address,uint24,uint24)":"a553618b","setPriceFeeds(address[],address[])":"92aeb53a","setTokenTargetWeights(address[],uint24[])":"da163387","swapRouter()":"c31c9c07","symbol()":"95d89b41","totalSupply()":"18160ddd","transfer(address,uint256)":"a9059cbb","transferFrom(address,address,uint256)":"23b872dd","transferOwnership(address)":"f2fde38b","updateMinMintAmount(uint256)":"6dd84ac1","updateRebalanceDeviance(uint24)":"a987e49f","updateRebalanceInterval(uint256)":"5534a774","weth()":"3fc8cef3"},"id":80}